:020000040000FA
:100000000C9458000C9480000C9480000C94800098
:100010000C9480000C9480000C9480000C94800060
:100020000C9480000C9480000C9480000C94800050
:100030000C9480000C9480000C9480000C94800040
:100040000C942C070C9480000C94FA060C94D406A3
:100050000C9480000C9480000C9480000C94800020
:100060000C9476070C948000000000002500280006
:100070002B00040404040404040402020202020229
:10008000030303030303010204081020408001025C
:1000900004081020010204081020000000080002DB
:1000A00001000003040700000000000000009508A4
:1000B00011241FBECFEFD8E0DEBFCDBF11E0A0E01E
:1000C000B1E0EEE8F4E102C005900D92AC3FB1075B
:1000D000D9F723E0ACEFB1E001C01D92AE36B20714
:1000E000E1F710E0C8E5D0E004C02197FE010E94CE
:1000F0003F0AC735D107C9F70E94DD080C94450AAD
:100100000C94000080914D0290914E02891B990B36
:10011000089508950895AF92BF92CF92DF92EF9223
:10012000FF920F931F93CF93DF936C017B018B01A1
:10013000040F151FEB015E01AE18BF08C017D107F1
:1001400059F06991D601ED91FC910190F081E02D7B
:10015000C6010995892B79F7C501DF91CF911F91D0
:100160000F91FF90EF90DF90CF90BF90AF900895E8
:10017000FC01538D448D252F30E0842F90E0821BAD
:10018000930B541710F0CF96089501970895FC0132
:10019000918D828D981761F0A28DAE0FBF2FB11D8A
:1001A0005D968C91928D9F5F9F73928F90E00895E2
:1001B0008FEF9FEF0895FC01918D828D981731F09C
:1001C000828DE80FF11D858D90E008958FEF9FEFF0
:1001D0000895FC01918D228D892F90E0805C9F4FC6
:1001E000821B91098F73992708958FEB92E00E94EB
:1001F000E90021E0892B09F420E0822F089580E0B6
:1002000090E0892B29F00E94F50081110C940000E8
:100210000895FC01A48DA80FB92FB11DA35ABF4F9B
:100220002C91848D90E001968F739927848FA689F5
:10023000B7892C93A089B1898C91837080648C9349
:10024000938D848D981306C00288F389E02D8081F8
:100250008F7D80830895EF92FF920F931F93CF932A
:10026000DF93EC0181E0888F9B8D8C8D98131AC0F1
:10027000E889F989808185FF15C09FB7F894EE89D8
:10028000FF896083E889F989808183708064808335
:100290009FBF81E090E0DF91CF911F910F91FF9080
:1002A000EF900895F62E0B8D10E00F5F1F4F0F7328
:1002B0001127E02E8C8D8E110CC00FB607FCFACFE3
:1002C000E889F989808185FFF5CFCE010E94090177
:1002D000F1CFEB8DEC0FFD2FF11DE35AFF4FF082B4
:1002E0009FB7F8940B8FEA89FB8980818062CFCF1A
:1002F000CF93DF93EC01888D8823B9F0AA89BB895D
:10030000E889F9898C9185FD03C0808186FD0DC047
:100310000FB607FCF7CF8C9185FFF2CF808185FF68
:10032000EDCFCE010E940901E9CFDF91CF91089571
:1003300090E0FC01E656FF4F2491FC01EA57FF4F85
:100340003491FC01EE58FF4FE491EE23C9F02223D3
:1003500039F0233001F1A8F4213019F1223029F1CC
:10036000F0E0EE0FFF1FE859FF4FA591B4918FB752
:10037000F894EC91611126C030953E233C938FBFD9
:1003800008952730A9F02830C9F0243049F780912A
:1003900080008F7D03C0809180008F7780938000E4
:1003A000DFCF84B58F7784BDDBCF84B58F7DFBCF66
:1003B0008091B0008F778093B000D2CF8091B00051
:1003C0008F7DF9CF3E2BDACF3FB7F894809145026D
:1003D00090914602A0914702B091480226B5A89B91
:1003E00005C02F3F19F00196A11DB11D3FBFBA2FC7
:1003F000A92F982F8827BC01CD01620F711D811D87
:10040000911D42E0660F771F881F991F4A95D1F70B
:1004100008958F929F92AF92BF92CF92DF92EF9208
:10042000FF924B015C010E94E4016B017C010E9480
:10043000E4016C197D098E099F09683E73408105AE
:100440009105A8F321E0821A9108A108B10888EE6D
:10045000C80E83E0D81EE11CF11C81149104A10494
:10046000B10429F7FF90EF90DF90CF90BF90AF904D
:100470009F908F90089520911D02260F3327331FE0
:1004800021323105ECF42091B902FC0190E080E0CA
:10049000243069F082E00895A0911D022191AC0101
:1004A00043505E4FA40FB52FB11D2C9301968617B4
:1004B00098F380911D02680F60931D0280E00895FB
:1004C00081E008951092B90281E080939802109221
:1004D000930261E082E10E94980161E083E10E9461
:1004E0009801E9EBF0E080818E7F808380818D7FB1
:1004F000808388E48093B80085E48093BC000895ED
:10050000CF93DF9391E09093FC018823B9F0C091E1
:10051000B800D091BA008091BC008A7B8093BC0067
:1005200060E082E10E94980160E083E10E9498010E
:100530000E946202D093BA00C093B800DF91CF91BD
:100540000895CF92DF92EF92FF920F931F93CF9374
:10055000DF93D82FC62F613208F098C00E94E401C3
:100560006B017C018091B90281116BC081E08093A5
:10057000B902809398029FEF90939702109296028F
:100580009C0F909395028093940280919402DD0FCA
:10059000D82BD093940280919302813009F078C0D7
:1005A000109293020E94E4016B017C0180919402FD
:1005B0008093BB008091BB029091BC02A091BD02D0
:1005C000B091BE02892B8A2B8B2BA1F00E94E401F3
:1005D0000091BB021091BC022091BD023091BE027D
:1005E0006C197D098E099F09061717072807390717
:1005F00008F448C08091BC0083FDD8CF85EC80937F
:10060000BC000E94E4016B017C018091B902813041
:1006100009F440C0809196028C1710F4C0919602A4
:10062000E3E7F2E0A9E9B2E080E08C1355C08C2F3B
:10063000DF91CF911F910F91FF90EF90DF90CF90BE
:1006400008958091BB029091BC02A091BD02B0912F
:10065000BE02892B8A2B8B2B09F484CF0E94E401E4
:100660000091BB021091BC022091BD023091BE02EC
:100670006C197D098E099F09061717072807390786
:1006800008F070CF8091BA020E948002C0E0CFCF04
:1006900085EEB5CF8091BB029091BC02A091BD02C6
:1006A000B091BE02892B8A2B8B2B09F4AECF0E940E
:1006B000E4010091BB021091BC022091BD02309177
:1006C000BE026C197D098E099F09061717072807B6
:1006D000390708F09ACFD6CF91919D938F5FA5CF20
:1006E0008F929F92AF92BF92CF92DF92EF92FF9242
:1006F0000F931F93CF93DF93D0917202D13208F002
:10070000D7C0182FC09171020E94E4016B017C01D7
:100710008091B90281116BC082E08093B90210937D
:1007200098028FEF8093970210929602D0939502D1
:10073000A1E5B2E0E3E7F2E080E0D81391C01092C7
:10074000940280919402CC0FC82BC09394028091A4
:100750009302813009F088C0109293020E94E40154
:100760006B017C01809194028093BB008091BB025D
:100770009091BC02A091BD02B091BE02892B8A2B40
:100780008B2BA1F00E94E4010091BB021091BC02EE
:100790002091BD023091BE026C197D098E099F091E
:1007A000061717072807390708F442C08091BC00D4
:1007B00083FDD8CF85EC8093BC000E94E4016B01DF
:1007C0007C018091B902823009F450C08091970277
:1007D0008F3F09F46FC080919702803209F46CC09A
:1007E00080919702803309F469C084E026C080912B
:1007F000BB029091BC02A091BD02B091BE02892BB8
:100800008A2B8B2B09F484CF0E94E4018090BB02D9
:100810009090BC02A090BD02B090BE026C197D0900
:100820008E099F0986169706A806B90608F070CFAC
:100830008091BA020E94800285E0109250021092CC
:10084000720210924F02DF91CF911F910F91FF9092
:10085000EF90DF90CF90BF90AF909F908F900895D2
:100860009D9191938F5F69CF85EEA5CF8091BB025B
:100870009091BC02A091BD02B091BE02892B8A2B3F
:100880008B2B09F49ECF0E94E4010091BB021091D2
:10089000BC022091BD023091BE026C197D098E0907
:1008A0009F09061717072807390708F08ACFC0CF16
:1008B00081E0C3CF80E0C1CF82E0BFCF83E0BDCF76
:1008C0000895E0914E0280914D02E81730F4F0E077
:1008D000E756FD4F808190E008958FEF9FEF0895D8
:1008E00090914E0280914D022FEF3FEF981748F400
:1008F000E92FF0E0E756FD4F208130E09F5F9093B5
:100900004E02C9010895CF92DF92EF92FF920F93AA
:100910001F93CF93DF937C01CB018A0120914F027B
:10092000222389F0EB016B01C40ED51ECC15DD0529
:1009300069F06991D701ED91FC910190F081E02D72
:10094000C7010995F3CF642F0E943B02C801DF91D4
:10095000CF911F910F91FF90EF90DF90CF9008956E
:10096000CF93DF931F92CDB7DEB7698320914F02FB
:100970002223F9F020917202203258F021E030E079
:10098000FC013383228390E080E00F90DF91CF91D0
:10099000089580915002E82FF0E0EF5AFD4F9981C1
:1009A00090838F5F809350028093720281E090E089
:1009B000ECCF61E0CE0101960E943B02F7CF90E0C0
:1009C00080E00895FC0101900020E9F73197AF0124
:1009D000481B590BBC018FEB92E00C948B008F925B
:1009E0009F92AF92BF920F931F93CF93DF93CDB798
:1009F000DEB7A1970FB6F894DEBF0FBECDBF19A228
:100A0000423008F44AE08E010F5D1F4F842E912C76
:100A1000B12CA12CA50194010E941D0AE62FB90159
:100A2000CA01EA30F4F4E05DD801EE938D01232B86
:100A3000242B252B79F790E080E0109719F0CD0159
:100A40000E94E204A1960FB6F894DEBF0FBECDBFA0
:100A5000DF91CF911F910F91BF90AF909F908F909A
:100A60000895E95CE1CFCF93DF93462F682F70E0C4
:100A700090E080E00E94EF04EC0183E691E00E94A8
:100A8000E2048C0F9D1FDF91CF910895CF93DF93E8
:100A90000E94E204EC0183E691E00E94E2048C0FE4
:100AA0009D1FDF91CF910895CF92DF92EF92FF9239
:100AB000CF93DF936B017C01F7FE1FC06DE28FEBDC
:100AC00092E00E942B01EC0166277727CB016C197D
:100AD0007D098E099F094AE00E94EF04C80FD91FC3
:100AE00083E691E00E94E2048C0F9D1FDF91CF917D
:100AF000FF90EF90DF90CF9008954AE00E94EF04BE
:100B0000EC01EECF4F925F926F927F928F929F9205
:100B1000AF92BF92CF92DF92EF92FF920F931F930B
:100B2000CF93DF9300D000D0CDB7DEB75B018A0151
:100B3000F0905D0390915E038F29806860915C0363
:100B4000682B80916D0321E020934F028093710206
:100B50001092500210927202692B81E693E00E947B
:100B6000B00481E00E9470038823B9F081E090E036
:100B70000F900F900F900F90DF91CF911F910F91D9
:100B8000FF90EF90DF90CF90BF90AF909F908F90AD
:100B90007F906F905F904F9008950E94E4012B0129
:100BA0003C018F2D90E0959587958730910508F051
:100BB000A3C0FC01EE0FFF1FE80FF91FE65DFE4F1B
:100BC00080819181A281BC018A2F90E0611520E48F
:100BD00072078105910508F492C028EE33E040E0E9
:100BE00050E00E941D0ACA01B9010E940902AE012B
:100BF0004F5F5F4F7A014E0155E0850E911C80ECEE
:100C00009DEBA0EFBFEF9C01AD012419350946090A
:100C1000570929013A0119821A821B821C8264E059
:100C200080916D030E94A10210924E0280934D02AA
:100C3000843009F076C0670181E693E00E94700479
:100C4000D6018D936D018A169B06B1F78C81982F82
:100C50009C709C3009F060C0F801808353E0F8017B
:100C6000808187FD5EC08C7090E09C013695279551
:100C7000BC01620F731FFB01EB5EFE4F20813181CF
:100C80004281A42FC9010A2E000CBB0B2C013D018F
:100C9000CB0180509F4FDC012D913D914C91F7018C
:100CA00080E090E0DC016191BA2FA92F982F88276E
:100CB000862B6E2F6E196517B0F3F5018083918333
:100CC000A283B383482259226A227B2245284628E0
:100CD000472879F07901042F002E000C110BB80180
:100CE000A7018E29952BA02BB72B80839183A283FC
:100CF000B38390E080E03CCF60E070E0CB016230F5
:100D0000710508F474CFCB01880F991F880F991FC4
:100D100005970197F1F76BCF8B81D8018C9352E047
:100D20009ECF0E94E401640D751D861D971D97FDE1
:100D300072CF83E090E01CCF85ED8093BC00809162
:100D4000BB029091BC02A091BD02B091BE02079679
:100D5000A11DB11D23E0B695A795979587952A9576
:100D6000D1F72091BC0024FD03C01092B902089570
:100D70004091BB025091BC026091BD027091BE02D5
:100D8000452B462B472B69F30097A105B10541F090
:100D900025E32A95F1F700000197A109B109E1CFF8
:100DA0008091BA020C9480021F920F920FB60F929C
:100DB00011242F933F934F935F936F937F938F9360
:100DC0009F93AF93BF93EF93FF938FEB92E00E94BB
:100DD0000901FF91EF91BF91AF919F918F917F9109
:100DE0006F915F914F913F912F910F900FBE0F9098
:100DF0001F9018951F920F920FB60F9211242F93E8
:100E00008F939F93EF93FF93E091CF02F091D002E5
:100E10008081E091D502F091D60282FD1BC09081C5
:100E20008091D8028F5F8F732091D902821741F091
:100E3000E091D802F0E0E154FD4F958F8093D80205
:100E4000FF91EF919F918F912F910F900FBE0F9077
:100E50001F9018958081F4CF1F920F920FB60F92BA
:100E600011242F933F938F939F93AF93BF938091C0
:100E7000410290914202A0914302B091440230910C
:100E8000400223E0230F2D3758F50196A11DB11D17
:100E9000209340028093410290934202A093430228
:100EA000B09344028091450290914602A09147027E
:100EB000B09148020196A11DB11D80934502909307
:100EC0004602A0934702B0934802BF91AF919F9111
:100ED0008F913F912F910F900FBE0F901F901895FB
:100EE00026E8230F0296A11DB11DD2CF1F920F92AB
:100EF0000FB60F9211242F933F934F935F936F93ED
:100F00007F938F939F93AF93BF93EF93FF938091C2
:100F1000B900887F803609F44AC0F0F5883209F4B8
:100F2000A7C018F5803109F49BC0B8F4882309F4F0
:100F3000F9C0883009F494C0FF91EF91BF91AF914F
:100F40009F918F917F916F915F914F913F912F91E1
:100F50000F900FBE0F901F901895883109F488C02C
:100F6000803251F78093970214C0803409F49DC0F9
:100F700040F48033B9F38833F9F68093970285EC17
:100F8000B0C0803509F485C0883509F496C088342E
:100F900099F60E949C06D0CF883909F48CC038F5A8
:100FA000883729F050F4883611F0803729F683E02D
:100FB0008093B90210923F0257C0883809F47BC071
:100FC000803919F0803809F0B7CF80913F02803224
:100FD00008F071C0E0913F0281E08E0F80933F02E4
:100FE0008091BB00F0E0E15EFD4F80833DC0803B1F
:100FF00039F0E0F4803A09F479C0883A09F09CCFDE
:1010000084E08093B90210921E0210921D02E091BA
:101010004B02F0914C02099580911D0281110FC085
:1010200081E080931D021092FD0109C0803C09F40B
:10103000A6CF883C09F4A3CF883B09F07DCFE0918F
:101040001E0281E08E0F80931E02F0E0E350FE4FFF
:1010500080818093BB0090911E0280911D0229C067
:10106000809194028093BB0085EC8093BC0064CF98
:101070009091960280919502981758F5E09196020A
:1010800081E08E0F80939602F0E0ED58FD4F808155
:10109000E9CFE091960281E08E0F809396028091D5
:1010A000BB00F0E0ED58FD4F808390919602809157
:1010B00095029817C8F285E8D8CFE091960281E0B2
:1010C0008E0F809396028091BB00F0E0ED58FD4FAB
:1010D00080838091980281115CCF81E0809393029C
:1010E00084EA8093BC001092B90226CF85EC8093ED
:1010F000BC001092B90280913F02803230F4E0913E
:101100003F02F0E0E15EFD4F108260913F0270E02F
:10111000E0914902F0914A028FE192E00995109224
:101120003F020ACF1092970234CFEFEBF2E0138226
:10113000128288EE93E0A0E0B0E084839583A683DA
:10114000B78323E431E03183208325EC30E0358719
:10115000248724EC30E03787268720EC30E0318B81
:10116000208B21EC30E0338B228B22EC30E0358B6E
:10117000248B26EC30E0378B268B118E128E138E4B
:10118000148E1092600320E220935F0310925E039E
:101190002CE020935D0310925C03E1E6F3E0138200
:1011A000128284839583A683B78385E591E091833A
:1011B000808388E680936D030895CF93DF9300D0FA
:1011C00000D01F92CDB7DEB7789484B5826084BD1D
:1011D00084B5816084BD85B5826085BD85B581603B
:1011E00085BD80916E00816080936E0010928100B9
:1011F0008091810082608093810080918100816074
:101200008093810080918000816080938000809134
:10121000B10084608093B1008091B00081608093C0
:10122000B00080917A00846080937A0080917A0087
:10123000826080937A0080917A00816080937A0046
:1012400080917A00806880937A001092C100E091CA
:10125000CF02F091D00282E08083E091CB02F09146
:10126000CC021082E091CD02F091CE028FEC80830F
:101270001092D702E091D302F091D40286E08083ED
:10128000E091D102F091D202808180618083E0916F
:10129000D102F091D202808188608083E091D102F6
:1012A000F091D202808180688083E091D102F09138
:1012B000D20280818F7D808310924E021092500264
:1012C000109272020E94620289E890E090934C02B0
:1012D00080934B028AE890E090934A0280934902FF
:1012E00081E080934F021092710266E081E693E004
:1012F0000E94B00481E00E94700361E070E080E031
:1013000090E00E94090261E088E60E94A1028093B9
:101310004D02882309F448C080E0E82E80E0F82ED2
:1013200019821A821B821C821D82AE014B5F5F4FA5
:10133000BE016F5F7F4F809160030E948205182F6E
:10134000882309F440C08BE891E00E94E2046AE03F
:1013500070E0812F0E943305AE014B5F5F4FBE01ED
:101360006F5F7F4F80915F030E948205182F882353
:1013700009F446C08BE891E00E94E2046AE070E064
:10138000812F0E94330568EE73E080E090E00E94B8
:101390000902E114F10421F20E94F500882309F406
:1013A000BFCF0E940000BCCF86E691E00E94E2041D
:1013B00060E170E088E60E9433056AE070E088E64C
:1013C0000E943305FFCF87EB91E00E94460560E164
:1013D00070E088E60E94330585ED91E00E944605A5
:1013E00062E070E088E60E94330583EF91E00E949E
:1013F000E20469817A818B819C810E945405ACCF83
:1014000087EB91E00E94460560E170E088E60E946B
:10141000330585ED91E00E94460562E070E088E6C4
:101420000E94330583EF91E00E94E20469817A8192
:101430008B819C810E945405A6CFA1E21A2EAA1B83
:10144000BB1BFD010DC0AA1FBB1FEE1FFF1FA21774
:10145000B307E407F50720F0A21BB30BE40BF50B71
:10146000661F771F881F991F1A9469F760957095FA
:10147000809590959B01AC01BD01CF010895EE0FC1
:10148000FF1F0590F491E02D0994F894FFCF00F030
:10149000FF00000000C0FF0000000000FF0000008F
:1014A0000000FC0008000000000020000000000018
:1014B00080000000000000024710000000001B41F7
:1014C000000000006B0401000000AB1104000000EC
:1014D000002B018B00B8007801E900C700DB000099
:1014E000000000B0048304DF046004820070046123
:1014F000040D0A004E6F2041444320636869702048
:1015000064657669636520666F756E64206174201A
:101510006164647265737320004144435F4D4350BE
:101520003334323320636F6E76657274696E672070
:101530006572726F72206F6E206368616E6E656C8B
:1015400020313A200053657269616C2E7072696EA9
:10155000746C6E28616464726573732C20484558FE
:10156000293B0053657269616C2E7072696E746CF0
:101570006E28616464726573732C2042494E293B66
:0A1580000056616C75653A2000000A
:107E0000112484B714BE81FFF0D085E080938100F7
:107E100082E08093C00088E18093C10086E0809377
:107E2000C20080E18093C4008EE0C9D0259A86E02C
:107E300020E33CEF91E0309385002093840096BBD3
:107E4000B09BFECF1D9AA8958150A9F7CC24DD24C4
:107E500088248394B5E0AB2EA1E19A2EF3E0BF2EE7
:107E6000A2D0813461F49FD0082FAFD0023811F036
:107E7000013811F484E001C083E08DD089C08234E0
:107E800011F484E103C0853419F485E0A6D080C0E4
:107E9000853579F488D0E82EFF2485D0082F10E0AE
:107EA000102F00270E291F29000F111F8ED06801E7
:107EB0006FC0863521F484E090D080E0DECF843638
:107EC00009F040C070D06FD0082F6DD080E0C81688
:107ED00080E7D80618F4F601B7BEE895C0E0D1E017
:107EE00062D089930C17E1F7F0E0CF16F0E7DF06D8
:107EF00018F0F601B7BEE89568D007B600FCFDCFD4
:107F0000A601A0E0B1E02C9130E011968C91119780
:107F100090E0982F8827822B932B1296FA010C0160
:107F200087BEE89511244E5F5F4FF1E0A038BF0790
:107F300051F7F601A7BEE89507B600FCFDCF97BE46
:107F4000E89526C08437B1F42ED02DD0F82E2BD052
:107F50003CD0F601EF2C8F010F5F1F4F84911BD097
:107F6000EA94F801C1F70894C11CD11CFA94CF0C13
:107F7000D11C0EC0853739F428D08EE10CD085E9AC
:107F80000AD08FE07ACF813511F488E018D01DD067
:107F900080E101D065CF982F8091C00085FFFCCF94
:107FA0009093C60008958091C00087FFFCCF809118
:107FB000C00084FD01C0A8958091C6000895E0E648
:107FC000F0E098E1908380830895EDDF803219F02E
:107FD00088E0F5DFFFCF84E1DECF1F93182FE3DFCA
:107FE0001150E9F7F2DF1F91089580E0E8DFEE27F6
:047FF000FF270994CA
:027FFE00040479
:00000001FF
