:020000040000FA
:100000000C9458000C9480000C9480000C94800098
:100010000C9480000C9480000C9480000C94800060
:100020000C9480000C9480000C9480000C94800050
:100030000C9480000C9480000C9480000C94800040
:100040000C94F0060C9480000C94BE060C94980658
:100050000C9480000C9480000C9480000C94800020
:100060000C943A070C948000000000002500280042
:100070002B00040404040404040402020202020229
:10008000030303030303010204081020408001025C
:1000900004081020010204081020000000080002DB
:1000A00001000003040700000000000000005908E0
:1000B00011241FBECFEFD8E0DEBFCDBF11E0A0E01E
:1000C000B1E0E0E1FAE102C005900D92AE3FB10768
:1000D000D9F723E0AEEFB1E001C01D92AC37B20713
:1000E000E1F710E0C8E5D0E004C02197FE010E94CE
:1000F000000DC735D107C9F70E94A1080C94060D61
:100100000C94000080915B0290915C02891B990B1A
:10011000089508950895AF92BF92CF92DF92EF9223
:10012000FF920F931F93CF93DF936C017B018B01A1
:10013000040F151FEB015E01AE18BF08C017D107F1
:1001400059F06991D601ED91FC910190F081E02D7B
:10015000C6010995892B79F7C501DF91CF911F91D0
:100160000F91FF90EF90DF90CF90BF90AF900895E8
:10017000FC01538D448D252F30E0842F90E0821BAD
:10018000930B541710F0CF96089501970895FC0132
:10019000918D828D981761F0A28DAE0FBF2FB11D8A
:1001A0005D968C91928D9F5F9F73928F90E00895E2
:1001B0008FEF9FEF0895FC01918D828D981731F09C
:1001C000828DE80FF11D858D90E008958FEF9FEFF0
:1001D0000895FC01918D228D892F90E0805C9F4FC6
:1001E000821B91098F73992708958DEC92E00E94EC
:1001F000E90021E0892B09F420E0822F089580E0B6
:1002000090E0892B29F00E94F50081110C940000E8
:100210000895FC01A48DA80FB92FB11DA35ABF4F9B
:100220002C91848D90E001968F739927848FA689F5
:10023000B7892C93A089B1898C91837080648C9349
:10024000938D848D981306C00288F389E02D8081F8
:100250008F7D80830895EF92FF920F931F93CF932A
:10026000DF93EC0181E0888F9B8D8C8D98131AC0F1
:10027000E889F989808185FF15C09FB7F894EE89D8
:10028000FF896083E889F989808183708064808335
:100290009FBF81E090E0DF91CF911F910F91FF9080
:1002A000EF900895F62E0B8D10E00F5F1F4F0F7328
:1002B0001127E02E8C8D8E110CC00FB607FCFACFE3
:1002C000E889F989808185FFF5CFCE010E94090177
:1002D000F1CFEB8DEC0FFD2FF11DE35AFF4FF082B4
:1002E0009FB7F8940B8FEA89FB8980818062CFCF1A
:1002F000CF93DF93EC01888D8823B9F0AA89BB895D
:10030000E889F9898C9185FD03C0808186FD0DC047
:100310000FB607FCF7CF8C9185FFF2CF808185FF68
:10032000EDCFCE010E940901E9CFDF91CF91089571
:1003300090E0FC01E656FF4F2491FC01EA57FF4F85
:100340003491FC01EE58FF4FE491EE23C9F02223D3
:1003500039F0233001F1A8F4213019F1223029F1CC
:10036000F0E0EE0FFF1FE859FF4FA591B4918FB752
:10037000F894EC91611126C030953E233C938FBFD9
:1003800008952730A9F02830C9F0243049F780912A
:1003900080008F7D03C0809180008F7780938000E4
:1003A000DFCF84B58F7784BDDBCF84B58F7DFBCF66
:1003B0008091B0008F778093B000D2CF8091B00051
:1003C0008F7DF9CF3E2BDACF3FB7F894809147026B
:1003D00090914802A0914902B0914A0226B5A89B8B
:1003E00005C02F3F19F00196A11DB11D3FBFBA2FC7
:1003F000A92F982F8827BC01CD01620F711D811D87
:10040000911D42E0660F771F881F991F4A95D1F70B
:1004100008958F929F92AF92BF92CF92DF92EF9208
:10042000FF924B015C010E94E4016B017C010E9480
:10043000E4016C197D098E099F09683E73408105AE
:100440009105A8F321E0821A9108A108B10888EE6D
:10045000C80E83E0D81EE11CF11C81149104A10494
:10046000B10429F7FF90EF90DF90CF90BF90AF904D
:100470009F908F90089520911F02260F3327331FDE
:1004800021323105ECF42091C702FC0190E080E0BC
:10049000243069F082E00895A0911F022191AC01FF
:1004A00041505E4FA40FB52FB11D2C9301968617B6
:1004B00098F380911F02680F60931F0280E00895F7
:1004C00081E008951092C70281E08093A602109205
:1004D000A10261E082E10E94980161E083E10E9453
:1004E0009801E9EBF0E080818E7F808380818D7FB1
:1004F000808388E48093B80085E48093BC000895ED
:10050000CF93DF9391E09093FE018823B9F0C091DF
:10051000B800D091BA008091BC008A7B8093BC0067
:1005200060E082E10E94980160E083E10E9498010E
:100530000E946202D093BA00C093B800DF91CF91BD
:100540000895CF92DF92EF92FF920F931F93CF9374
:10055000DF93D82FC62F613208F098C00E94E401C3
:100560006B017C018091C70281116BC081E0809397
:10057000C7028093A6029FEF9093A5021092A40257
:100580009C0F9093A3028093A2028091A202DD0FA0
:10059000D82BD093A2028091A102813009F078C0BB
:1005A0001092A1020E94E4016B017C018091A202E1
:1005B0008093BB008091C9029091CA02A091CB02A6
:1005C000B091CC02892B8A2B8B2BA1F00E94E401E5
:1005D0000091C9021091CA022091CB023091CC0245
:1005E0006C197D098E099F09061717072807390717
:1005F00008F448C08091BC0083FDD8CF85EC80937F
:10060000BC000E94E4016B017C018091C702813033
:1006100009F440C08091A4028C1710F4C091A40288
:10062000E1E8F2E0A7EAB2E080E08C1355C08C2F3D
:10063000DF91CF911F910F91FF90EF90DF90CF90BE
:1006400008958091C9029091CA02A091CB02B09105
:10065000CC02892B8A2B8B2B09F484CF0E94E401D6
:100660000091C9021091CA022091CB023091CC02B4
:100670006C197D098E099F09061717072807390786
:1006800008F070CF8091C8020E948002C0E0CFCFF6
:1006900085EEB5CF8091C9029091CA02A091CB029C
:1006A000B091CC02892B8A2B8B2B09F4AECF0E9400
:1006B000E4010091C9021091CA022091CB0230914D
:1006C000CC026C197D098E099F09061717072807A8
:1006D000390708F09ACFD6CF91919D938F5FA5CF20
:1006E0008F929F92AF92BF92CF92DF92EF92FF9242
:1006F0000F931F93CF93DF93D0918002D13208F0F4
:10070000D7C0182FC0917F020E94E4016B017C01C9
:100710008091C70281116BC082E08093C702109361
:10072000A6028FEF8093A5021092A402D093A30299
:10073000AFE5B2E0E1E8F2E080E0D81391C01092BA
:10074000A2028091A202CC0FC82BC093A20280917A
:10075000A102813009F088C01092A1020E94E40138
:100760006B017C018091A2028093BB008091C90241
:100770009091CA02A091CB02B091CC02892B8A2B16
:100780008B2BA1F00E94E4010091C9021091CA02D2
:100790002091CB023091CC026C197D098E099F0902
:1007A000061717072807390708F442C08091BC00D4
:1007B00083FDD8CF85EC8093BC000E94E4016B01DF
:1007C0007C018091C702823009F450C08091A5025B
:1007D0008F3F09F46FC08091A502803209F46CC08C
:1007E0008091A502803309F469C084E026C080911D
:1007F000C9029091CA02A091CB02B091CC02892B80
:100800008A2B8B2B09F484CF0E94E4018090C902CB
:100810009090CA02A090CB02B090CC026C197D09D6
:100820008E099F0986169706A806B90608F070CFAC
:100830008091C8020E94800285E010925E021092B0
:10084000800210925D02DF91CF911F910F91FF9076
:10085000EF90DF90CF90BF90AF909F908F900895D2
:100860009D9191938F5F69CF85EEA5CF8091C9024D
:100870009091CA02A091CB02B091CC02892B8A2B15
:100880008B2B09F49ECF0E94E4010091C9021091C4
:10089000CA022091CB023091CC026C197D098E09DD
:1008A0009F09061717072807390708F08ACFC0CF16
:1008B00081E0C3CF80E0C1CF82E0BFCF83E0BDCF76
:1008C0000895E0915C0280915B02E81730F4F0E05B
:1008D000E955FD4F808190E008958FEF9FEF0895D7
:1008E00090915C0280915B022FEF3FEF981748F4E4
:1008F000E92FF0E0E955FD4F208130E09F5F9093B4
:100900005C02C9010895CF92DF92EF92FF920F939C
:100910001F93CF93DF937C01CB018A0120915D026D
:10092000222389F0EB016B01C40ED51ECC15DD0529
:1009300069F06991D701ED91FC910190F081E02D72
:10094000C7010995F3CF642F0E943B02C801DF91D4
:10095000CF911F910F91FF90EF90DF90CF9008956E
:10096000CF93DF931F92CDB7DEB7698320915D02ED
:100970002223F9F020918002203258F021E030E06B
:10098000FC013383228390E080E00F90DF91CF91D0
:10099000089580915E02E82FF0E0E15AFD4F9981C1
:1009A00090838F5F80935E028093800281E090E06D
:1009B000ECCF61E0CE0101960E943B02F7CF90E0C0
:1009C00080E00895FC0101900020E9F73197AF0124
:1009D000481B590BBC018DEC92E00C948B008F925C
:1009E0009F92AF92BF920F931F93CF93DF93CDB798
:1009F000DEB7A1970FB6F894DEBF0FBECDBF19A228
:100A0000423008F44AE08E010F5D1F4F842E912C76
:100A1000B12CA12CA50194010E94DE0CE62FB90196
:100A2000CA01EA30F4F4E05DD801EE938D01232B86
:100A3000242B252B79F790E080E0109719F0CD0159
:100A40000E94E204A1960FB6F894DEBF0FBECDBFA0
:100A5000DF91CF911F910F91BF90AF909F908F909A
:100A60000895E95CE1CFCF93DF93462F682F70E0C4
:100A700090E080E00E94EF04EC0183E691E00E94A8
:100A8000E2048C0F9D1FDF91CF9108954F925F92EA
:100A90006F927F928F929F92AF92BF92CF92DF928E
:100AA000EF92FF920F931F93CF93DF9300D000D06C
:100AB000CDB7DEB75B018A01F0906B0390916C03B8
:100AC0008F29806860916A03682B80917B0321E005
:100AD00020935D0280937F0210925E02109280024A
:100AE000692B8FE693E00E94B00481E00E947003BE
:100AF0008823B9F081E090E00F900F900F900F9055
:100B0000DF91CF911F910F91FF90EF90DF90CF90E9
:100B1000BF90AF909F908F907F906F905F904F901D
:100B200008950E94E4012B013C018F2D90E09595E2
:100B300087958730910508F0A3C0FC01EE0FFF1FD9
:100B4000E80FF91FE65DFE4F80819181A281BC0113
:100B50008A2F90E0611520E472078105910508F461
:100B600092C028EE33E040E050E00E94DE0CCA0163
:100B7000B9010E940902AE014F5F5F4F7A014E0139
:100B800055E0850E911C80EC9DEBA0EFBFEF9C0122
:100B9000AD01241935094609570929013A0119827D
:100BA0001A821B821C8264E080917B030E94A10256
:100BB00010925C0280935B02843009F076C067017A
:100BC0008FE693E00E947004D6018D936D018A1622
:100BD0009B06B1F78C81982F9C709C3009F060C007
:100BE000F801808353E0F801808187FD5EC08C703E
:100BF00090E09C0136952795BC01620F731FFB01A5
:100C0000EB5EFE4F208131814281A42FC9010A2E63
:100C1000000CBB0B2C013D01CB0180509F4FDC0130
:100C20002D913D914C91F70180E090E0DC016191C4
:100C3000BA2FA92F982F8827862B6E2F6E1965172C
:100C4000B0F3F50180839183A283B38348225922B4
:100C50006A227B2245284628472879F07901042F0B
:100C6000002E000C110BB801A7018E29952BA02B8B
:100C7000B72B80839183A283B38390E080E03CCF45
:100C800060E070E0CB016230710508F474CFCB01F5
:100C9000880F991F880F991F05970197F1F76BCF60
:100CA0008B81D8018C9352E09ECF0E94E401640DA9
:100CB000751D861D971D97FD72CF83E090E01CCFB8
:100CC00085ED8093BC008091C9029091CA02A091E9
:100CD000CB02B091CC020796A11DB11D23E0B695C1
:100CE000A795979587952A95D1F72091BC0024FD6B
:100CF00003C01092C70208954091C9025091CA02E0
:100D00006091CB027091CC02452B462B472B69F3A7
:100D10000097A105B10541F025E32A95F1F7000000
:100D20000197A109B109E1CF8091C8020C9480021A
:100D30001F920F920FB60F9211242F933F934F9350
:100D40005F936F937F938F939F93AF93BF93EF9333
:100D5000FF938DEC92E00E940901FF91EF91BF910A
:100D6000AF919F918F917F916F915F914F913F9143
:100D70002F910F900FBE0F901F9018951F920F92FA
:100D80000FB60F9211242F938F939F93EF93FF939E
:100D9000E091DD02F091DE028081E091E302F091CA
:100DA000E40282FD1BC090818091E6028F5F8F7309
:100DB0002091E702821741F0E091E602F0E0E35370
:100DC000FD4F958F8093E602FF91EF919F918F9158
:100DD0002F910F900FBE0F901F9018958081F4CF28
:100DE0001F920F920FB60F9211242F933F938F9360
:100DF0009F93AF93BF938091430290914402A0913F
:100E00004502B09146023091420223E0230F2D3774
:100E100058F50196A11DB11D209342028093430213
:100E200090934402A0934502B093460280914702FA
:100E300090914802A0914902B0914A020196A11DE9
:100E4000B11D8093470290934802A0934902B0934A
:100E50004A02BF91AF919F918F913F912F910F9037
:100E60000FBE0F901F90189526E8230F0296A11D24
:100E7000B11DD2CF1F920F920FB60F9211242F9354
:100E80003F934F935F936F937F938F939F93AF9312
:100E9000BF93EF93FF938091B900887F803609F468
:100EA0004AC0F0F5883209F4A7C018F5803109F47A
:100EB0009BC0B8F4882309F4F9C0883009F494C0C1
:100EC000FF91EF91BF91AF919F918F917F916F9122
:100ED0005F914F913F912F910F900FBE0F901F90F8
:100EE0001895883109F488C0803251F78093A502A3
:100EF00014C0803409F49DC040F48033B9F38833C2
:100F0000F9F68093A50285ECB0C0803509F485C060
:100F1000883509F496C0883499F60E946006D0CFCF
:100F2000883909F48CC038F5883729F050F48836B0
:100F300011F0803729F683E08093C70210924102B6
:100F400057C0883809F47BC0803919F0803809F01F
:100F5000B7CF80914102803208F071C0E091410228
:100F600081E08E0F809341028091BB00F0E0EF5D45
:100F7000FD4F80833DC0803B39F0E0F4803A09F4B6
:100F800079C0883A09F09CCF84E08093C702109220
:100F9000200210921F02E0914D02F0914E0209953D
:100FA00080911F0281110FC081E080931F02109277
:100FB000FF0109C0803C09F4A6CF883C09F4A3CF07
:100FC000883B09F07DCFE091200281E08E0F809375
:100FD0002002F0E0E150FE4F80818093BB009091B1
:100FE000200280911F0229C08091A2028093BB0041
:100FF00085EC8093BC0064CF9091A4028091A30201
:10100000981758F5E091A40281E08E0F8093A40216
:10101000F0E0EF57FD4F8081E9CFE091A40281E03D
:101020008E0F8093A4028091BB00F0E0EF57FD4F3C
:1010300080839091A4028091A3029817C8F285E85A
:10104000D8CFE091A40281E08E0F8093A40280911A
:10105000BB00F0E0EF57FD4F80838091A602811125
:101060005CCF81E08093A10284EA8093BC0010925F
:10107000C70226CF85EC8093BC001092C7028091F6
:101080004102803230F4E0914102F0E0EF5DFD4F2B
:1010900010826091410270E0E0914B02F0914C02AD
:1010A00081E292E00995109241020ACF1092A502C6
:1010B00034CFEDECF2E01382128288EE93E0A0E0F0
:1010C000B0E084839583A683B78323E431E0318342
:1010D000208325EC30E03587248724EC30E0378707
:1010E000268720EC30E0318B208B21EC30E0338BF5
:1010F000228B22EC30E0358B248B26EC30E0378BD2
:10110000268B118E128E138E148E10926E0320E297
:1011100020936D0310926C032CE020936B031092CC
:101120006A03EFE6F3E01382128284839583A68339
:10113000B78385E591E09183808388E680937B0384
:101140000895CF93DF931F92CDB7DEB7789484B51F
:10115000826084BD84B5816084BD85B5826085BDB3
:1011600085B5816085BD80916E00816080936E0041
:101170001092810080918100826080938100809133
:1011800081008160809381008091800081608093E4
:1011900080008091B10084608093B1008091B000A4
:1011A00081608093B00080917A00846080937A009F
:1011B00080917A00826080937A0080917A008160C9
:1011C00080937A0080917A00806880937A001092F0
:1011D000C100E091DD02F091DE0282E08083E091C7
:1011E000D902F091DA021082E091DB02F091DC0288
:1011F0008FEC80831092E502E091E102F091E2022F
:1012000086E08083E091DF02F091E00280818061DE
:101210008083E091DF02F091E0028081886080832A
:10122000E091DF02F091E002808180688083E091AC
:10123000DF02F091E00280818F7D808310925C025A
:1012400010925E02109280020E94620289E890E091
:1012500090934E0280934D028AE890E090934C0266
:1012600080934B0281E080935D0210927F0266E0E2
:101270008FE693E00E94B00481E00E94700361E079
:1012800070E080E090E00E94090261E088E60E9440
:10129000A10280935B0200E010E081110FC086E69E
:1012A00091E00E94E20460E170E088E60E9433056C
:1012B0006AE070E088E60E943305FFCF1982AE0134
:1012C0004F5F5F4F67E572E080916E030E944605B5
:1012D000F82E882349F08BE891E00E94E2046AE04E
:1012E00070E08F2D0E943305AE014F5F5F4F63E5C5
:1012F00072E080916D030E944605F82E882349F024
:101300008CEB91E00E94E2046AE070E08F2D0E9475
:101310003305609157027091580280915902909163
:101320005A020E94B70B2FE632E143E857E30E94CE
:101330006C0C9B01AC010E94A30A6B017C016091C3
:1013400053027091540280915502909156020E946E
:10135000B70B2FE632E143E857E30E946C0C9B0188
:10136000AC010E94A30A9B01AC01C701B6010E9417
:10137000A20A20E030E04AEF54E40E946C0C6B01BA
:101380007C01AC019B0160E070E080E895E40E9484
:10139000A20A2B013C0120E030E040E855E4C701FF
:1013A000B6010E94A30A9B01AC01C301B2010E94D5
:1013B000140B20E030E04AE754E40E946C0C609388
:1013C0004F027093500280935102909352028DEE1F
:1013D00091E00E94E204C0904F02D0905002E09051
:1013E0005102F0905202A7019601C701B6010E9476
:1013F000D90C8823D1F081EF91E00E94E20483E6CA
:1014000091E00E94E20468EE73E080E090E00E94C8
:1014100009020115110509F451CF0E94F500882336
:1014200009F44CCF0E94000049CF26013701E8940F
:1014300077F82FEF3FEF4FE75FE7C301B2010E945C
:10144000D90C81110DC02FEF3FEF4FE75FE7C301CC
:10145000B2010E940F0B18161CF485EF91E0CDCF5E
:101460002FEF3FEF4FE75FE4C701B6010E94670C23
:1014700018161CF489EF91E0C0CF2FEF3FEF4FE734
:101480005FECC701B6010E940F0B87FDF3CF20E090
:1014900030E0A901C701B6010E940F0B87FF09C008
:1014A0006DE28DEC92E00E942B01F7FAF094F7F8D0
:1014B000F0942CEB37E346E055E3C701B6010E94F8
:1014C000A30A6B017C010E94860B2B013C010E9448
:1014D000B50B9B01AC01C701B6010E94A20A6B01CA
:1014E0007C014AE0C301B2010E94EF046EE28DEC80
:1014F00092E00E942B0187E0B82EBA94BB2009F439
:101500007ECF20E030E040E251E4C701B6010E9406
:101510006C0C2B013C010E94860B6B01F12CE12C21
:101520004AE0C701B6010E94EF04C701B6010E945C
:10153000B50B9B01AC01C301B2010E94A20A6B0171
:101540007C01DBCF5058BB27AA270E94BA0A0C9413
:101550002D0C0E941F0C38F00E94260C20F039F44C
:101560009F3F19F426F40C941C0C0EF4E095E7FB55
:101570000C94160CE92F0E943E0C58F3BA17620720
:1015800073078407950720F079F4A6F50C94600C96
:101590000EF4E0950B2EBA2FA02D0B01B90190018E
:1015A0000C01CA01A0011124FF27591B99F0593FD2
:1015B00050F4503E68F11A16F040A22F232F342F1A
:1015C0004427585FF3CF469537952795A795F04068
:1015D0005395C9F77EF41F16BA0B620B730B840B7D
:1015E000BAF09150A1F0FF0FBB1F661F771F881F35
:1015F000C2F70EC0BA0F621F731F841F48F487958D
:1016000077956795B795F7959E3F08F0B0CF93957E
:10161000880F08F09927EE0F9795879508950E94F7
:10162000F20B08F481E008950E94280B0C942D0C15
:101630000E94260C58F00E941F0C40F029F45F3FD6
:1016400029F00C94160C51110C94610C0C941C0C88
:101650000E943E0C68F39923B1F3552391F3951B37
:10166000550BBB27AA2762177307840738F09F5FC3
:101670005F4F220F331F441FAA1FA9F335D00E2E30
:101680003AF0E0E832D091505040E695001CCAF79D
:101690002BD0FE2F29D0660F771F881FBB1F261760
:1016A00037074807AB07B0E809F0BB0B802DBF0137
:1016B000FF2793585F4F3AF09E3F510578F00C9406
:1016C000160C0C94610C5F3FE4F3983ED4F38695BE
:1016D00077956795B795F7959F5FC9F7880F911D27
:1016E0009695879597F90895E1E0660F771F881F13
:1016F000BB1F621773078407BA0720F0621B730BC6
:10170000840BBA0BEE1F88F7E09508950E94460CF3
:1017100088F09F5798F0B92F9927B751B0F0E1F0B2
:10172000660F771F881F991F1AF0BA95C9F714C062
:10173000B13091F00E94600CB1E008950C94600CFF
:10174000672F782F8827B85F39F0B93FCCF386959B
:1017500077956795B395D9F73EF4909580957095F8
:1017600061957F4F8F4F9F4F0895E89409C097FB75
:101770003EF490958095709561957F4F8F4F9F4F68
:101780009923A9F0F92F96E9BB279395F6958795AC
:1017900077956795B795F111F8CFFAF4BB0F11F46F
:1017A00060FF1BC06F5F7F4F8F4F9F4F16C0882316
:1017B00011F096E911C0772321F09EE8872F762F4C
:1017C00005C0662371F096E8862F70E060E02AF08D
:1017D0009A95660F771F881FDAF7880F9695879579
:1017E00097F90895990F0008550FAA0BE0E8FEEF4E
:1017F00016161706E807F907C0F012161306E407D5
:10180000F50798F0621B730B840B950B39F40A26CD
:1018100061F0232B242B252B21F408950A2609F4AB
:10182000A140A6958FEF811D811D089597F99F67AF
:1018300080E870E060E008959FEF80EC0895002458
:101840000A941616170618060906089500240A9425
:1018500012161306140605060895092E0394000CAB
:1018600011F4882352F0BB0F40F4BF2B11F460FF3A
:1018700004C06F5F7F4F8F4F9F4F089557FD905863
:10188000440F551F59F05F3F71F04795880F97FB44
:10189000991F61F09F3F79F08795089512161306FE
:1018A0001406551FF2CF4695F1DF08C0161617062D
:1018B0001806991FF1CF8695710561050894089562
:1018C000E894BB2766277727CB0197F908950E94F4
:1018D000F20B08F48FEF08950E947F0C0C942D0CEE
:1018E0000E941F0C38F00E94260C20F0952311F066
:1018F0000C94160C0C941C0C11240C94610C0E947A
:101900003E0C70F3959FC1F3950F50E0551F629FF9
:10191000F001729FBB27F00DB11D639FAA27F00D48
:10192000B11DAA1F649F6627B00DA11D661F829F6F
:101930002227B00DA11D621F739FB00DA11D621F54
:10194000839FA00D611D221F749F3327A00D611D71
:10195000231F849F600D211D822F762F6A2F112453
:101960009F5750409AF0F1F088234AF0EE0FFF1F86
:10197000BB1F661F771F881F91505040A9F79E3FDD
:10198000510580F00C94160C0C94610C5F3FE4F34D
:10199000983ED4F3869577956795B795F795E79533
:1019A0009F5FC1F7FE2B880F911D9695879597F93C
:1019B00008950E94F20B880B990B0895A1E21A2E4C
:1019C000AA1BBB1BFD010DC0AA1FBB1FEE1FFF1FE3
:1019D000A217B307E407F50720F0A21BB30BE40B33
:1019E000F50B661F771F881F991F1A9469F760957A
:1019F0007095809590959B01AC01BD01CF01089534
:101A0000EE0FFF1F0590F491E02D0994F894FFCF9D
:101A100000F0FF00000000C0FF0000000000FF0019
:101A200000000000FC000800000000002000000092
:101A300000008000000000000002471000000000CD
:101A40001B41000000006B0401000000AB1104000A
:101A50000000002B018B00B8007801E900C700DB13
:101A60000000000000B0048304DF04600482007002
:101A70000461040D0A004E6F2041444320636869ED
:101A8000702064657669636520666F756E64206199
:101A900074206164647265737320004144435F4D38
:101AA000435033343233206D61646520636F6E764A
:101AB000657274696E67206572726F72206F6E2036
:101AC0006368616E6E656C20313A20004144435F6B
:101AD0004D435033343233206D61646520636F6E43
:101AE00076657274696E67206572726F72206F6EB0
:101AF000206368616E6E656C20323A200052513D61
:0E1B0000006E616E00696E66006F7666000012
:107E0000112484B714BE81FFF0D085E080938100F7
:107E100082E08093C00088E18093C10086E0809377
:107E2000C20080E18093C4008EE0C9D0259A86E02C
:107E300020E33CEF91E0309385002093840096BBD3
:107E4000B09BFECF1D9AA8958150A9F7CC24DD24C4
:107E500088248394B5E0AB2EA1E19A2EF3E0BF2EE7
:107E6000A2D0813461F49FD0082FAFD0023811F036
:107E7000013811F484E001C083E08DD089C08234E0
:107E800011F484E103C0853419F485E0A6D080C0E4
:107E9000853579F488D0E82EFF2485D0082F10E0AE
:107EA000102F00270E291F29000F111F8ED06801E7
:107EB0006FC0863521F484E090D080E0DECF843638
:107EC00009F040C070D06FD0082F6DD080E0C81688
:107ED00080E7D80618F4F601B7BEE895C0E0D1E017
:107EE00062D089930C17E1F7F0E0CF16F0E7DF06D8
:107EF00018F0F601B7BEE89568D007B600FCFDCFD4
:107F0000A601A0E0B1E02C9130E011968C91119780
:107F100090E0982F8827822B932B1296FA010C0160
:107F200087BEE89511244E5F5F4FF1E0A038BF0790
:107F300051F7F601A7BEE89507B600FCFDCF97BE46
:107F4000E89526C08437B1F42ED02DD0F82E2BD052
:107F50003CD0F601EF2C8F010F5F1F4F84911BD097
:107F6000EA94F801C1F70894C11CD11CFA94CF0C13
:107F7000D11C0EC0853739F428D08EE10CD085E9AC
:107F80000AD08FE07ACF813511F488E018D01DD067
:107F900080E101D065CF982F8091C00085FFFCCF94
:107FA0009093C60008958091C00087FFFCCF809118
:107FB000C00084FD01C0A8958091C6000895E0E648
:107FC000F0E098E1908380830895EDDF803219F02E
:107FD00088E0F5DFFFCF84E1DECF1F93182FE3DFCA
:107FE0001150E9F7F2DF1F91089580E0E8DFEE27F6
:047FF000FF270994CA
:027FFE00040479
:00000001FF
