:100000000C9436000C945E000C945E000C945E0020
:100010000C945E000C945E000C945E000C945E00E8
:100020000C945E000C945E000C945E000C945E00D8
:100030000C945E000C945E000C945E000C945E00C8
:100040000C942D040C945E000C94FB030C94D503CB
:100050000C945E000C945E000C945E000C945E00A8
:100060000C945E000C945E00AB04770411241FBE58
:10007000CFEFD8E0DEBFCDBF21E0ACE2B1E001C000
:100080001D92AD3DB207E1F711E0A0E0B1E0EEEB6B
:10009000FEE002C005900D92AC32B107D9F710E036
:1000A000C5E3D0E004C02197FE010E945A05C43385
:1000B000D107C9F70E94AF040C9452070C940000BA
:1000C000DB0114964D915C9115976D917C91DC014B
:1000D000ED91FC910280F381E02D0994AF92BF92E3
:1000E000CF92DF92EF92FF920F931F93CF93DF9304
:1000F0006C017B018B01040F151FEB015E01AE1833
:10010000BF08C017D10759F06991D601ED91FC9154
:100110000190F081E02DC6010995892B79F7C50181
:10012000DF91CF911F910F91FF90EF90DF90CF90D3
:10013000BF90AF900895FC01538D448D252F30E082
:10014000842F90E0821B930B541710F0CF960895E4
:1001500001970895FC01918D828D981761F0A28D11
:10016000AE0FBF2FB11D5D968C91928D9F5F9F73D7
:10017000928F90E008958FEF9FEF0895FC01918D8D
:10018000828D981731F0828DE80FF11D858D90E0FA
:1001900008958FEF9FEF0895FC01918D228D892F97
:1001A00090E0805C9F4F821B91098F73992708957F
:1001B0008CE391E00E94CC0021E0892B09F420E03F
:1001C000822F089580E090E0892B29F00E94D800CA
:1001D00081110C9400000895CF92DF92EF92FF926C
:1001E0001F93CF93DF93EC016A017B01122FE88903
:1001F000F98982E08083C11481EED806E104F1041C
:10020000A1F060E079E08DE390E0A70196010E9403
:1002100038052150310941095109569547953795BF
:100220002795211580E1380798F0E889F98910822F
:1002300060E874E88EE190E0A70196010E9438051D
:100240002150310941095109569547953795279510
:10025000EC85FD853083EE85FF852083188EEC8943
:10026000FD891083EA89FB89808180618083EA8926
:10027000FB89808188608083EA89FB89808180682E
:100280008083EA89FB8980818F7D8083DF91CF9194
:100290001F91FF90EF90DF90CF900895FC01A48D07
:1002A000A80FB92FB11DA35ABF4F2C91848D90E098
:1002B00001968F739927848FA689B7892C93A0897B
:1002C000B1898C91837080648C93938D848D981305
:1002D00006C00288F389E02D80818F7D8083089598
:1002E000EF92FF920F931F93CF93DF93EC0181E086
:1002F000888F9B8D8C8D98131AC0E889F98980812D
:1003000085FF15C09FB7F894EE89FF896083E8895F
:10031000F98980818370806480839FBF81E090E051
:10032000DF91CF911F910F91FF90EF900895F62EDE
:100330000B8D10E00F5F1F4F0F731127E02E8C8D78
:100340008E110CC00FB607FCFACFE889F9898081BD
:1003500085FFF5CFCE010E944E01F1CFEB8DEC0F62
:10036000FD2FF11DE35AFF4FF0829FB7F8940B8FDA
:10037000EA89FB8980818062CFCFCF93DF93EC0144
:10038000888D8823B9F0AA89BB89E889F9898C917D
:1003900085FD03C0808186FD0DC00FB607FCF7CF39
:1003A0008C9185FFF2CF808185FFEDCFCE010E9439
:1003B0004E01E9CFDF91CF9108953FB7F894809136
:1003C000380190913901A0913A01B0913B0126B5D5
:1003D000A89B05C02F3F19F00196A11DB11D3FBF7D
:1003E000BA2FA92F982F8827BC01CD01620F711D4C
:1003F000811D911D42E0660F771F881F991F4A9546
:10040000D1F708958F929F92AF92BF92CF92DF92D1
:10041000EF92FF926B017C010E94DD014B015C01B8
:10042000C114D104E104F104B9F00E94DD0168199E
:1004300079098A099B09683E73408105910580F31B
:1004400021E0C21AD108E108F10888EE880E83E0A5
:10045000981EA11CB11CE4CFFF90EF90DF90CF90CD
:10046000BF90AF909F908F9008956FEF7FEF81E0E6
:1004700090E00E945F030895FB0101900020E9F7DE
:100480003197AF01461B570BDC01ED91FC910280C7
:10049000F381E02D09940F931F93CF93DF938C0189
:1004A000D0E0C0E06115710519F00E943C02EC013A
:1004B00068E171E0C8010E943C028C0F9D1FDF9132
:1004C000CF911F910F91089526E040E855E260E03A
:1004D00070E08CE391E00E94EC006BE171E08CE352
:1004E00091E00E944B0208956115710511F00C9482
:1004F0003C0290E080E008950F931F93CF93DF9329
:10050000EC0188819981009759F02A813B81261757
:10051000370730F081E0DF91CF911F910F9108955F
:100520008B016F5F7F4F0E948506009759F099837A
:1005300088831B830A832C813D81232B59F7FC017F
:100540001082E8CF80E0E7CFCF93DF93EC01888182
:100550009981009711F00E94FC05198218821D8272
:100560001C821B821A82DF91CF910895EF92FF9235
:100570000F931F93CF93DF9300D0CDB7DEB78C01DD
:1005800069831A82FC01E480F580FFEFEF1AFF0A0D
:10059000B7010E947C028823C9F0F80120813181D3
:1005A00084819581BE016F5F7F4F820F931F0E94F0
:1005B0004B07F801F582E482C8010F900F90DF919C
:1005C000CF911F910F91FF90EF900895C8010E9465
:1005D000A402F2CFEF92FF920F931F93CF93DF937A
:1005E000EC017B018A01BA010E947C0281110BC0DF
:1005F000CE010E94A402CE01DF91CF911F910F91F5
:10060000FF90EF9008951D830C83B7018881998135
:100610000E944B07F0CFCF93DF93EC01611571057A
:1006200071F0FB0101900020E9F73197AF01461B03
:10063000570B0E94EA02CE01DF91CF9108950E94EC
:10064000A402F9CFCF93DF93EC01FB018617970744
:1006500049F0608171816115710541F044815581D6
:100660000E94EA02CE01DF91CF9108950E94A40278
:10067000F9CFFC011182108213821282158214823A
:100680000C942203FC0111821082138212821582C3
:1006900014826115710551F0FB0101900020E9F70A
:1006A0003197AF01461B570B0C94EA020895FC01E9
:1006B00080819181009711F00C94FC0508950F93AF
:1006C0001F93CF93DF93EC018B01019751F0CD2B5A
:1006D00019F40F3F1F4F79F0DF91CF911F910F91C8
:1006E00008956F3F7F4F99F76AE171E08DE291E0E5
:1006F0000E944203ECCF8DE291E00E945703ECCFC1
:100700001F93CF93DF9300D000D000D0CDB7DEB7DA
:100710008CE391E00E94CC00181619061CF58CE3BE
:1007200091E00E94AA00182F6DE271E0CE010196BF
:100730000E943903612FCE0101960E94B602BC01CE
:100740008DE291E00E942203CE0101960E945703A0
:1007500081E080932C016AE070E080E090E00E94EC
:100760000202D6CF80912C0181110AC026960FB6C5
:10077000F894DEBF0FBECDBFDF91CF911F910895DA
:1007800066E271E08CE391E00E9474026DE271E038
:100790008CE391E00E9460006AE171E08DE291E0FB
:1007A0000E940B0310922C01E1CF1F920F920FB603
:1007B0000F9211242F933F934F935F936F937F93E7
:1007C0008F939F93AF93BF93EF93FF938CE391E04D
:1007D0000E944E01FF91EF91BF91AF919F918F9138
:1007E0007F916F915F914F913F912F910F900FBE2D
:1007F0000F901F9018951F920F920FB60F92112411
:100800002F938F939F93EF93FF93E0914C01F0917F
:100810004D018081E0915201F091530182FD1BC096
:100820009081809155018F5F8F73209156018217BF
:1008300041F0E0915501F0E0E45CFE4F958F80932C
:100840005501FF91EF919F918F912F910F900FBEC6
:100850000F901F9018958081F4CF1F920F920FB6C2
:100860000F9211242F933F938F939F93AF93BF9336
:100870008091340190913501A0913601B0913701FA
:100880003091330123E0230F2D3758F50196A11D38
:10089000B11D209333018093340190933501A093CF
:1008A0003601B09337018091380190913901A091C0
:1008B0003A01B0913B010196A11DB11D8093380111
:1008C00090933901A0933A01B0933B01BF91AF914E
:1008D0009F918F913F912F910F900FBE0F901F907E
:1008E000189526E8230F0296A11DB11DD2CF6FEFF8
:1008F0007FEF90E080E00E945F030895ECE3F1E079
:100900001382128288EE93E0A0E0B0E084839583A6
:10091000A683B7838AE091E09183808385EC90E0A1
:100920009587848784EC90E09787868780EC90E0B9
:10093000918B808B81EC90E0938B828B82EC90E0AA
:10094000958B848B86EC90E0978B868B118E128E24
:10095000138E148E08950E947E040C9435027894B0
:1009600084B5826084BD84B5816084BD85B58260B4
:1009700085BD85B5816085BD80916E008160809365
:100980006E001092810080918100826080938100CE
:1009900080918100816080938100809180008160DE
:1009A000809380008091B10084608093B100809139
:1009B000B00081608093B00080917A008460809361
:1009C0007A0080917A00826080937A0080917A0028
:1009D000816080937A0080917A00806880937A00A9
:1009E0001092C1000E946402C0E0D0E00E94800327
:1009F0002097E1F30E94D8008823C1F30E940000F1
:100A0000F5CF2F923F924F925F926F927F928F928B
:100A10009F92AF92BF92CF92DF92EF92FF920F938D
:100A20001F93CF93DF93CDB7DEB7CA1BDB0B0FB697
:100A3000F894DEBF0FBECDBF09942A883988488854
:100A40005F846E847D848C849B84AA84B984C884EA
:100A5000DF80EE80FD800C811B81AA81B981CE0FE1
:100A6000D11D0FB6F894DEBF0FBECDBFED010895C6
:100A7000A1E21A2EAA1BBB1BFD010DC0AA1FBB1FA2
:100A8000EE1FFF1FA217B307E407F50720F0A21B14
:100A9000B30BE40BF50B661F771F881F991F1A9481
:100AA00069F760957095809590959B01AC01BD01AB
:100AB000CF010895EE0FFF1F0590F491E02D0994EA
:100AC0000F931F93CF93DF938230910510F482E050
:100AD00090E0E091DB01F091DC0130E020E0B0E05B
:100AE000A0E0309799F42115310509F44AC0281B7C
:100AF000390B24303105D8F58A819B816115710548
:100B000089F1FB0193838283FE0111C040815181F1
:100B10000281138148175907E0F04817590799F4E3
:100B2000109761F012960C93129713961C933296BD
:100B3000CF01DF91CF911F910F9108950093DB01B9
:100B40001093DC01F4CF2115310551F04217530702
:100B500038F0A901DB019A01BD01DF01F801C1CF25
:100B6000EF01F9CF9093DC018093DB01CDCFFE0143
:100B7000E20FF31F81939193225031093983288327
:100B8000D7CF2091D9013091DA01232B41F4209164
:100B90000201309103013093DA012093D9012091B1
:100BA0000001309101012115310541F42DB73EB707
:100BB0004091040150910501241B350BE091D901AE
:100BC000F091DA01E217F307A0F42E1B3F0B281770
:100BD000390778F0AC014E5F5F4F2417350748F0B6
:100BE0004E0F5F1F5093DA014093D9018193919387
:100BF0009FCFF0E0E0E09CCFCF93DF930097E9F048
:100C0000FC01329713821282A091DB01B091DC01CA
:100C1000ED0130E020E01097A1F420813181820FB6
:100C2000931F2091D9013091DA012817390709F073
:100C300061C0F093DA01E093D901DF91CF9108957B
:100C4000EA01CE17DF07E8F54A815B819E01411575
:100C50005105B1F7E901FB83EA8349915991C40F2A
:100C6000D51FEC17FD0761F4808191810296840FF6
:100C7000951FE90199838883828193819B838A836D
:100C8000F0E0E0E012968D919C9113970097B9F5F2
:100C90002D913C911197CD010296820F931F2091C7
:100CA000D9013091DA012817390739F6309751F513
:100CB0001092DC011092DB01B093DA01A093D9010C
:100CC000BCCFD383C28340815181840F951FC81745
:100CD000D90761F44E5F5F4F88819981480F591F92
:100CE000518340838A819B819383828321153105BF
:100CF00009F0B0CFF093DC01E093DB019ECFFD0162
:100D0000DC01C0CF13821282D7CFB0E0A0E0EBE8C5
:100D1000F6E00C9403058C01009751F4CB010E947E
:100D200060058C01C801CDB7DEB7E0E10C941F056A
:100D3000FC01E60FF71F9C0122503109E217F3076F
:100D400008F49DC0D901CD91DC911197C617D70742
:100D500098F0C530D10530F3CE0104978617970778
:100D600008F3C61BD70B2297C193D1936D937C9345
:100D7000CF010E94FC05D6CF5B01AC1ABD0A4C0125
:100D80008C0E9D1EA091DB01B091DC01512C412CF9
:100D9000F12CE12C109731F58091D9019091DA0175
:100DA0008815990509F05CC04616570608F058C02A
:100DB0008091000190910101009741F48DB79EB799
:100DC0004091040150910501841B950BE817F90728
:100DD00008F055C0F093DA01E093D901F90171836D
:100DE0006083A0CF8D919C91119712966C90129771
:100DF00013967C901397A815B90559F56C0142E03C
:100E0000C40ED11CCA14DB0420F1AC014A195B09E1
:100E1000DA011296159780F06282738251834083C3
:100E2000D9016D937C93E114F10471F0D70113960D
:100E3000FC93EE93129776CF22968C0F9D1FF901AB
:100E400091838083F301EFCFF093DC01E093DB012A
:100E500069CF4816590608F42C017D01D3019ACFB9
:100E6000CB010E9460057C01009749F0AE01B801FA
:100E70000E944207C8010E94FC05870153CF10E081
:100E800000E050CFFB01DC0102C001900D92415007
:100E90005040D8F70895FB01DC0101900D9200202D
:100EA000E1F7089510E0C5E3D0E004C0FE010E9420
:0E0EB0005A052196C633D107C9F7F894FFCF33
:100EBE000000DD0180000000000070016E009B004C
:100ECE00BD01CC00AA00BE000D0A0050524F434592
:0C0EDE0053534F52320052583A2000008B
:00000001FF
