:100000000C9435000C945D000C945D000C945D0024
:100010000C945D000C945D000C945D000C945D00EC
:100020000C945D000C945D000C945D000C945D00DC
:100030000C945D000C945D000C945D000C945D00CC
:100040000C94E1040C945D000C94AF040C948904AE
:100050000C945D000C945D000C945D000C945D00AC
:100060000C945D000C945D00580511241FBECFEF69
:10007000D8E0DEBFCDBF22E0A4E3B1E001C01D9215
:10008000A032B207E1F711E0A0E0B1E0E0EBFBE065
:1000900002C005900D92A433B107D9F710E0C5E373
:1000A000D0E004C02197FE010E94D005C433D107DF
:1000B000C9F70E945C050C94D6050C940000AF9221
:1000C000BF92CF92DF92EF92FF920F931F93CF9345
:1000D000DF936C017B018B01040F151FEB015E01A7
:1000E000AE18BF08C017D10759F06991D601ED913C
:1000F000FC910190F081E02DC6010995892B79F7DB
:10010000C501DF91CF911F910F91FF90EF90DF908C
:10011000CF90BF90AF900895FC01538D448D252F53
:1001200030E0842F90E0821B930B541710F0CF9691
:10013000089501970895FC01918D828D981761F0C3
:10014000A28DAE0FBF2FB11D5D968C91928D9F5FDA
:100150009F73928F90E008958FEF9FEF0895FC01B9
:10016000918D828D981731F0828DE80FF11D858D6C
:1001700090E008958FEF9FEF0895FC01918D228DFF
:10018000892F90E0805C9F4F821B91098F73992784
:10019000089583E891E00E94BD0021E0892B09F4D5
:1001A00020E0822F089580E090E0892B29F00E94C2
:1001B000C90081110C9400000895CF92DF92EF9254
:1001C000FF921F93CF93DF93EC016A017B01122F03
:1001D000E889F98982E08083C11481EED806E104C0
:1001E000F104A1F060E079E08DE390E0A7019601D1
:1001F0000E94AE0521503109410951095695479594
:1002000037952795211580E1380798F0E889F98915
:10021000108260E874E88EE190E0A70196010E94E8
:10022000AE05215031094109510956954795379539
:100230002795EC85FD853083EE85FF852083188E1C
:10024000EC89FD891083EA89FB8980818061808344
:10025000EA89FB89808188608083EA89FB898081C3
:1002600080688083EA89FB8980818F7D8083DF912C
:10027000CF911F91FF90EF90DF90CF900895FC01F8
:10028000A48DA80FB92FB11DA35ABF4F2C91848DF7
:1002900090E001968F739927848FA689B7892C9354
:1002A000A089B1898C91837080648C93938D848DA7
:1002B000981306C00288F389E02D80818F7D8083AA
:1002C0000895EF92FF920F931F93CF93DF93EC016A
:1002D00081E0888F9B8D8C8D98131AC0E889F989ED
:1002E000808185FF15C09FB7F894EE89FF896083F0
:1002F000E889F98980818370806480839FBF81E071
:1003000090E0DF91CF911F910F91FF90EF900895B2
:10031000F62E0B8D10E00F5F1F4F0F731127E02E8D
:100320008C8D8E110CC00FB607FCFACFE889F989C5
:10033000808185FFF5CFCE010E943F01F1CFEB8D8B
:10034000EC0FFD2FF11DE35AFF4FF0829FB7F89499
:100350000B8FEA89FB8980818062CFCFCF93DF93B7
:10036000EC01888D8823B9F0AA89BB89E889F989CD
:100370008C9185FD03C0808186FD0DC00FB607FC02
:10038000F7CF8C9185FFF2CF808185FFEDCFCE0135
:100390000E943F01E9CFDF91CF9108953FB7F894D4
:1003A00080917F0190918001A0918101B0918201A3
:1003B00026B5A89B05C02F3F19F00196A11DB11DC0
:1003C0003FBFBA2FA92F982F8827BC01CD01620FFC
:1003D000711D811D911D42E0660F771F881F991FB7
:1003E0004A95D1F708958F929F92AF92BF92CF9284
:1003F000DF92EF92FF926B017C010E94CE014B01D4
:100400005C01C114D104E104F104B9F00E94CE01F1
:10041000681979098A099B09683E7340810591052D
:1004200080F321E0C21AD108E108F10888EE880EB5
:1004300083E0981EA11CB11CE4CFFF90EF90DF90E9
:10044000CF90BF90AF909F908F9008952FB7F89462
:1004500060917B0170917C0180917D0190917E0182
:100460002FBF08956FEF7FEF81E090E00E946E0252
:10047000089583E891E00E94BD00089583E891E02B
:100480000E949B000895CF92DF92EF92FF926A0143
:100490007B0168EE73E080E090E00E94F30126E0CB
:1004A000B701A60183E891E00E94DD00FF90EF9084
:1004B000DF90CF9008950895FC0116821782108670
:1004C0001186128613861486158616861786108A5C
:1004D000118A128A138A148A158A0895019709F0DD
:1004E00008956F3F7F4FE1F784E391E00E945C0243
:1004F000F7CF0E94260208958F929F92AF92BF92EB
:10050000CF92DF92EF92FF92CF93DF93EC016A01DB
:100510007B010E9479024B015C01C80CD91CEA1CCA
:10052000FB1CCE010E947902681579058A059B059E
:1005300028F0C616D706E806F90698F7DF91CF919E
:10054000FF90EF90DF90CF90BF90AF909F908F90F3
:1005500008950F931F93CF93DF93EC01662369F007
:10056000CE010E9479026A837B838C839D8381E024
:10057000DF91CF911F910F9108950E9479020A8116
:100580001B812C813D81DC01CB01801B910BA20BD7
:10059000B30B82339105A105B10510F742E350E09A
:1005A00060E070E0481B590B6A0B7B0B21E0CE0129
:1005B0000E947C02D5CF21E00E947C020895FC01BC
:1005C000EE5BFF4F1082118212821382FC011282B5
:1005D000138214821582411551056105710509F4D4
:1005E00008950E94DB02FCCFFB0101900020E9F797
:1005F0003197AF01461B570BDC01ED91FC91028056
:10060000F381E02D09948F929F92AF92BF92EF9267
:10061000FF920F931F93CF93DF93CDB7DEB7A197D0
:100620000FB6F894DEBF0FBECDBF7C01FA01CB013F
:1006300019A2223008F42AE08E010F5D1F4F822E8E
:10064000912CB12CA12CBF01A50194010E94AE05F3
:10065000F901CA016A300CF5605DD8016E938D0115
:10066000232B242B252B79F790E080E0109721F0A5
:10067000BD01C7010E94F402A1960FB6F894DEBF37
:100680000FBECDBFDF91CF911F910F91FF90EF90E3
:10069000BF90AF909F908F900895695CDECF9A01D4
:1006A000452B39F4DC01ED91FC910190F081E02DB6
:1006B0000994462F50E070E060E00C940303CF9261
:1006C000DF92EF92FF920F931F93CF93DF93EC0192
:1006D0004115510541F4E881F9810190F081E02D47
:1006E00009958C011FC06B01770FEE08FF084A3097
:1006F000510541F52AE0F7FE26C0E881F981019015
:10070000F081E02D6DE209958C0144275527BA014F
:100710004C195D096E097F092AE0CE010E9403038E
:10072000080F191F62E171E0CE010E94F402800FF0
:10073000911FDF91CF911F910F91FF90EF90DF906C
:10074000CF900895242FB701A601CE010E94030384
:10075000C8CF41E050E06DE470E083E891E00E9492
:100760005F0368EE73E080E090E00E94F30108957B
:100770000F931F93CF93DF938C01D0E0C0E06115FE
:10078000710519F00E94F402EC0162E171E0C80108
:100790000E94F4028C0F9D1FDF91CF911F910F914A
:1007A00008956115710511F00C94F40290E080E059
:1007B00008951F93CF93DF93EC01162F61E00E9401
:1007C000A90265E171E083E891E00E94D1034AE06B
:1007D00050E0612F83E891E00E944F036CE171E0EB
:1007E00083E891E00E94B80342E350E060E070E0EB
:1007F000CE010E94DB02DF91CF911F9108950F93EC
:100800001F93CF93DF93FC012689222319F1062F32
:10081000EC010E943902882321F1CE010E943902A5
:10082000882309F1CE010E943E02182F8836E9F094
:1008300048F4883561F0833681F7602FCE010E943D
:10084000D90309C0813789F0863729F0E6CF1E8A9F
:1008500013E601C013E6812FDF91CF911F910F9115
:10086000089515E6F8CF15E6F6CF13E6F4CF1F93FB
:10087000CF93DF93EC01142F662381F081E08E8B00
:1008800060E0CE010E94FF03833641F041E050E07A
:1008900060E070E0CE010E94DB02F2CF1E8BDF91A0
:1008A000CF911F91089548EB5BE060E070E084E336
:1008B00091E00E94DF0240E855E260E070E084E3EE
:1008C00091E00E94430261E084E391E00E94A9026A
:1008D000811110C041E060E084E391E00E943704A0
:1008E00026E040E855E260E070E083E891E00E9495
:1008F000DD00089563E271E083E891E00E94D10396
:100900004AE050E060E070E084E391E00E94DB02A6
:10091000E1CF1F920F920FB60F9211242F933F93A6
:100920004F935F936F937F938F939F93AF93BF93F7
:10093000EF93FF9383E891E00E943F01FF91EF91D5
:10094000BF91AF919F918F917F916F915F914F91E7
:100950003F912F910F900FBE0F901F9018951F92EF
:100960000F920FB60F9211242F938F939F93EF93B3
:10097000FF93E0919301F09194018081E0919901BE
:10098000F0919A0182FD1BC0908180919C018F5F44
:100990008F7320919D01821741F0E0919C01F0E05E
:1009A000ED57FE4F958F80939C01FF91EF919F91A2
:1009B0008F912F910F900FBE0F901F9018958081EF
:1009C000F4CF1F920F920FB60F9211242F933F93E3
:1009D0008F939F93AF93BF9380917B0190917C0104
:1009E000A0917D01B0917E0130917A0123E0230F27
:1009F0002D3758F50196A11DB11D20937A018093E2
:100A00007B0190937C01A0937D01B0937E01809146
:100A10007F0190918001A0918101B09182010196A6
:100A2000A11DB11D80937F0190938001A09381014E
:100A3000B0938201BF91AF919F918F913F912F9180
:100A40000F900FBE0F901F90189526E8230F029667
:100A5000A11DB11DD2CFE3E8F1E01382128288EE2E
:100A600093E0A0E0B0E084839583A683B78384E01D
:100A700091E09183808385EC90E09587848784EC76
:100A800090E09787868780EC90E0918B808B81EC5B
:100A900090E0938B828B82EC90E0958B848B86EC3C
:100AA00090E0978B868B118E128E138E148E089584
:100AB0000E942B050C943202789484B5826084BD28
:100AC00084B5816084BD85B5826085BD85B5816052
:100AD00085BD80916E00816080936E0010928100D0
:100AE000809181008260809381008091810081608B
:100AF000809381008091800081608093800080914C
:100B0000B10084608093B1008091B00081608093D7
:100B1000B00080917A00846080937A0080917A009E
:100B2000826080937A0080917A00816080937A005D
:100B300080917A00806880937A001092C1000E94B0
:100B40005304C0E0D0E00E94A9032097E1F30E9483
:100B5000C9008823C1F30E940000F5CFA1E21A2E3C
:100B6000AA1BBB1BFD010DC0AA1FBB1FEE1FFF1F51
:100B7000A217B307E407F50720F0A21BB30BE40BA1
:100B8000F50B661F771F881F991F1A9469F76095E8
:100B90007095809590959B01AC01BD01CF010895A2
:100BA000EE0FFF1F0590F491E02D0994F894FFCF0C
:100BB0000000000061015F008C00AE01BD009B00E1
:100BC000AF000D0A00564D4450435F005F564D4440
:100BD000504300564D4450565F317C315F564D4472
:040BE00050560A0061
:107E0000112484B714BE81FFF0D085E080938100F7
:107E100082E08093C00088E18093C10086E0809377
:107E2000C20080E18093C4008EE0C9D0259A86E02C
:107E300020E33CEF91E0309385002093840096BBD3
:107E4000B09BFECF1D9AA8958150A9F7CC24DD24C4
:107E500088248394B5E0AB2EA1E19A2EF3E0BF2EE7
:107E6000A2D0813461F49FD0082FAFD0023811F036
:107E7000013811F484E001C083E08DD089C08234E0
:107E800011F484E103C0853419F485E0A6D080C0E4
:107E9000853579F488D0E82EFF2485D0082F10E0AE
:107EA000102F00270E291F29000F111F8ED06801E7
:107EB0006FC0863521F484E090D080E0DECF843638
:107EC00009F040C070D06FD0082F6DD080E0C81688
:107ED00080E7D80618F4F601B7BEE895C0E0D1E017
:107EE00062D089930C17E1F7F0E0CF16F0E7DF06D8
:107EF00018F0F601B7BEE89568D007B600FCFDCFD4
:107F0000A601A0E0B1E02C9130E011968C91119780
:107F100090E0982F8827822B932B1296FA010C0160
:107F200087BEE89511244E5F5F4FF1E0A038BF0790
:107F300051F7F601A7BEE89507B600FCFDCF97BE46
:107F4000E89526C08437B1F42ED02DD0F82E2BD052
:107F50003CD0F601EF2C8F010F5F1F4F84911BD097
:107F6000EA94F801C1F70894C11CD11CFA94CF0C13
:107F7000D11C0EC0853739F428D08EE10CD085E9AC
:107F80000AD08FE07ACF813511F488E018D01DD067
:107F900080E101D065CF982F8091C00085FFFCCF94
:107FA0009093C60008958091C00087FFFCCF809118
:107FB000C00084FD01C0A8958091C6000895E0E648
:107FC000F0E098E1908380830895EDDF803219F02E
:107FD00088E0F5DFFFCF84E1DECF1F93182FE3DFCA
:107FE0001150E9F7F2DF1F91089580E0E8DFEE27F6
:047FF000FF270994CA
:027FFE00040479
:0400000300007E007B
:00000001FF