:100000000C9458000C9480000C9480000C94800098
:100010000C9480000C9480000C9480000C94800060
:100020000C9480000C9480000C9480000C94800050
:100030000C9480000C9480000C9480000C94800040
:100040000C9494070C9480000C945C070C94360775
:100050000C9480000C9480000C9480000C94800020
:100060000C94EF070C94800000000000250028008D
:100070002B00040404040404040402020202020229
:10008000030303030303010204081020408001025C
:1000900004081020010204081020000000080002DB
:1000A0000100000304070000000000000000D50963
:1000B00011241FBECFEFD8E0DEBFCDBF22E0A8E6FF
:1000C000B1E001C01D92AB3FB207E1F711E0A0E043
:1000D000B1E0EAE0F4E102C005900D92A836B10764
:1000E000D9F710E0C8E5D0E004C02197FE010E94D6
:1000F000FD09C735D107C9F70E942F070C94030AE1
:100100000C9400000895DC01ED91FC910190F081C8
:10011000E02D09950895CF92DF92EF92FF920F9311
:100120001F93CF93DF938C01DB01D0E0C0E07A0115
:1001300081E0E81AF108452BA1F0F8018081918156
:10014000FC01208131816D01FFEFCF1ADF0A6C9134
:10015000C801F9010995892B21F02196A701D60143
:10016000E6CFCE01DF91CF911F910F91FF90EF90DD
:10017000DF90CF90089508956FEF7FEF81E090E0DA
:100180000E94C3000895019709F008956F3F7F4FC3
:10019000E1F7EEE5F2E01382128288EE93E0A0E050
:1001A000B0E084839583A683B78386E191E0918351
:1001B000808385EC90E09587848784EC90E0978736
:1001C000868780EC90E0918B808B81EC90E0938B24
:1001D000828B82EC90E0958B848B86EC90E0978B01
:1001E000868B118E128E138E148ECFCFFC01938DC1
:1001F000848D981720F4891B990B019708952FE39C
:1002000030E0291B3109820F932F911D0895FC01C5
:10021000918D828D981761F0A28DAE0FBF2FB11D09
:100220005D968C91928D9F5F9F73928F90E0089561
:100230008FEF9FEF0895FC01918D828D981731F01B
:10024000828DE80FF11D858D90E008958FEF9FEF6F
:100250000895FC01218D30E0205C3F4F828DA90183
:10026000481B5109CA018F73992708958EE592E0C2
:100270000E94290121E0892B09F420E0822F0895B2
:10028000CF92DF92EF92FF921F93CF93DF93EC0117
:100290006A017B01122F60E079E08DE390E0A70115
:1002A00096010E94DB0921503109410951095695F7
:1002B000479537952795E889F98982E08083C114AD
:1002C00081EED806E104F10421F0211580E1380720
:1002D00098F0E889F989108260E874E88EE190E08E
:1002E000A70196010E94DB092150310941095109FA
:1002F0005695479537952795EC85FD853083EE8596
:10030000FF852083188EEC89FD891083EA89FB899B
:10031000808180618083EA89FB8980818860808315
:10032000EA89FB89808180688083EA89FB898081F2
:100330008F7D8083DF91CF911F91FF90EF90DF90B1
:10034000CF900895FC01A48DA80FB92FB11DA35A19
:10035000BF4F2C91848D90E001968F739078848F9D
:10036000A689B7892C93A089B1898C918370806408
:100370008C93938D848D981308950288F389E02DD2
:1003800080818F7D8083F8CF0F931F93CF93DF936E
:10039000EC0181E0888F9B8D8C8D9817B1F0062F32
:1003A0008B8D90E001968F739078182F8C8D811330
:1003B0001EC00FB607FCFACFE889F989808185FF56
:1003C000F5CFCE010E94A201F1CFE889F9898081A1
:1003D00085FFE5CF9FB7F894EE89FF896083E889B0
:1003E000F98980818370806480839FBF10C0EB8D0A
:1003F000EC0FFD2FF11DE35AFF4F00839FB7F894D8
:100400001B8FEA89FB898081806280839FBF81E0A6
:1004100090E0DF91CF911F910F910895CF93DF93DB
:10042000EC01888D811104C00DC00FB607FE0DC010
:10043000EA89FB89808185FDF8CFA889B9898C91EB
:1004400086FFF3CFDF91CF910895808185FFF0CFB4
:10045000E889F989808185FFEBCFCE010E94A20156
:10046000E7CF80E090E0892B21F00E9436018111D6
:1004700001C008950E940000FCCF8330B1F060F00D
:100480008730E9F0883009F1843021F5E0E8F0E0C8
:1004900080818F7D80830895813069F0823021F4DE
:1004A00084B58F7D84BD08950895E0E8F0E08081F3
:1004B0008F778083089584B58F7784BD0895E0EBAE
:1004C000F0E080818F7780830895E0EBF0E0808119
:1004D0008F7D808308951F93CF93DF93282F30E083
:1004E000F901E656FF4F8491F901EA57FF4F149145
:1004F000F901EE58FF4FC491CC23A9F0D62F8111FA
:1005000016C0EC2FF0E0EE0FFF1FE859FF4FA5914A
:10051000B4918FB7F894D1110DC09C91E12FE09563
:10052000E923EC938FBFDF91CF911F9108950E9433
:100530003D02E7CFEC91E12BEC93F4CF789484B5B6
:10054000826084BD84B5816084BD85B5826085BDCF
:1005500085B5816085BDEEE6F0E0808181608083B5
:10056000E1E8F0E010828081826080838081816098
:100570008083E0E8F0E0808181608083E1EBF0E05F
:10058000808184608083E0EBF0E080818160808303
:10059000EAE7F0E0808184608083808182608083EC
:1005A0008081816080838081806880831092C10017
:1005B00008953FB7F89480915A0290915B02A09100
:1005C0005C02B0915D0226B5A89B05C02F3F19F0D3
:1005D0000196A11DB11D3FBFBA2FA92F982F8827C3
:1005E000BC01CD01620F711D811D911D660F771F2A
:1005F000881F991F660F771F881F991F08958F9274
:100600009F92AF92BF92CF92DF92EF92FF926B01D7
:100610007C010E94D9024B015C011BC021E0C21A7F
:10062000D108E108F10888EE880E83E0981EA11C2D
:10063000B11CC114D104E104F10459F00E94D902A3
:10064000681979098A099B09683E734081059105FB
:1006500028F7C114D104E104F10459F7FF90EF9099
:10066000DF90CF90BF90AF909F908F9008952FB75D
:10067000F8946091560270915702809158029091BF
:1006800059022FBF089585EC8093BC0010922F0271
:100690000895811104C085E88093BC00089585EC1D
:1006A0008093BC00089590930802809307020895F8
:1006B00090930C0280930B020895AC0120910902E3
:1006C000260F3327331F21323105F4F480912F0296
:1006D0008430E1F490E00FC0E0910902292F30E06E
:1006E000E20FF32FF11D240F351FD9012C91E95191
:1006F000FE4F20839F5F961778F380910902680F61
:100700006093090280E0089581E0089582E00895F1
:10071000880F8093BA000895ECEBF0E080818A7B2B
:10072000808360E082E10E946B0260E083E10E94CE
:100730006B02089510922F0281E080933102109293
:10074000300261E082E10E946B0261E083E10E947D
:100750006B02E9EBF0E080818E7F808380818D7F6A
:10076000808388E48093B80085E48093BC0008957A
:10077000EF92FF920F931F93CF93DF9391E09093AB
:10078000E601811107C0DF91CF911F910F91FF907A
:10079000EF900895C8EBD0E0F8800AEB10E0F80184
:1007A000E0800E948C030E949A03F801E082F882A4
:1007B000EACF6FEF7FEF81E090E00E94860408951A
:1007C0007093D4016093D30108950895CF93DF937C
:1007D000EC01E091D301F091D4013097E1F09091D8
:1007E000D0018091CF019817B0F090E0292F30E030
:1007F0002617370754F4DE01A90FB11D4C9121557E
:100800003E4FD9014C939F5FF1CFCB011092D001A5
:100810006093CF010995DF91CF9108950895E091FC
:10082000D0018091CF01E81730F4F0E0E155FE4FA0
:10083000808190E008958FEF9FEF08959091D0010F
:100840008091CF01981758F4E92FF0E0E155FE4F61
:10085000208130E09F5F9093D001C90108952FEF70
:100860003FEFFBCF8091CF019091D001891B990B75
:100870000895CF93DF93CB01C42FD52F642F0E940F
:100880005D038C2F9D2FDF91CF910895CF93DF9340
:100890001F92CDB7DEB7698361E0CE0101960E9459
:1008A0005D0381E090E00F90DF91CF910895109269
:1008B000D0011092CF011092D2011092D1010E946A
:1008C0009A0385EE93E00E94530386EE93E00E9424
:1008D00058030895CF93C62F0E9457048C2F0E946F
:1008E0008803CF9108950E946A040895FC01138241
:1008F000128288EE93E0A0E0B0E084839583A68323
:10090000B78384E091E0918380830895019709F093
:1009100008956F3F7F4FE1F785ED91E00E947604E7
:10092000F7CF90E080E008956FEF7FEF81E090E0F7
:100930000E94D00408958EE592E00E942901089556
:100940008EE592E00E9407010895CF92DF92EF9228
:10095000FF926A017B0168EE73E080E090E00E9404
:10096000FF0226E0B701A6018EE592E00E94400159
:10097000FF90EF90DF90CF9008950895FC011682CC
:10098000178210861186128613861486158616869F
:100990001786108A118A128A138A148A158A089572
:1009A000019709F008956F3F7F4FE1F789E691E0E5
:1009B0000E94BE04F7CF0E94370308958F929F9242
:1009C000AF92BF92CF92DF92EF92FF92CF93DF93DD
:1009D000EC016A017B010E94DB044B015C01C80C45
:1009E000D91CEA1CFB1CCE010E94DB0468157905AA
:1009F0008A059B0528F0C616D706E806F90698F77B
:100A0000DF91CF91FF90EF90DF90CF90BF90AF90AC
:100A10009F908F9008950F931F93CF93DF93EC01D6
:100A2000662369F0CE010E94DB046A837B838C839A
:100A30009D8381E0DF91CF911F910F9108950E94D6
:100A4000DB040A811B812C813D81DC01CB01801BF1
:100A5000910BA20BB30B82339105A105B10510F7E1
:100A600042E350E060E070E0481B590B6A0B7B0BDF
:100A700021E0CE010E94DE04D5CF21E00E94DE04F9
:100A80000895FC01EE5BFF4F1082118212821382E7
:100A9000FC011282138214821582411551056105F1
:100AA000710509F408950E943D05FCCF0895DF9279
:100AB000EF92FF920F931F93CF93DF93CDB7DEB7E3
:100AC000A1970FB6F894DEBF0FBECDBF7C01CB015E
:100AD000BA01D22E19A221E02D1520F48E010F5D4E
:100AE0001F4F0EC00F2EFAE0DF2EF02DF7CFE95C7E
:100AF000D801EE938D01611571058105910579F09D
:100B00002D2D30E050E040E00E94DB09E62F622FFF
:100B1000732F842F952FEA3054F7E05DE9CF1097BB
:100B2000F9F0FD0101900020E9F73197AF014A1B70
:100B30005B0BD701ED91FC910280F381E02DB801B0
:100B4000C7010995A1960FB6F894DEBF0FBECDBFC1
:100B5000DF91CF911F910F91FF90EF90DF9008955B
:100B600090E080E0EFCF2115310549F4DC01ED91F3
:100B7000FC910190F081E02D642F099508950E9469
:100B8000570508959A01462F50E070E060E00E94FA
:100B9000B3050895DC01ED91FC910280F381E02D15
:100BA00042E050E064E271E0099508950F931F93CD
:100BB000CF93DF93EC010E9483008C01CE010E9451
:100BC000CA05800F911FDF91CF911F910F9108955A
:100BD00085ED91E00E943204892B39F085ED91E09A
:100BE0000E941E0480936801F3CF609168018EE536
:100BF00092E00E94D60508956115710581F0FB0110
:100C000001900020E9F73197AF01461B570BDC013B
:100C1000ED91FC910280F381E02D0995089590E01B
:100C200080E008950F931F93CF93DF93EC010E9410
:100C3000FC058C01CE010E94CA05800F911FDF9137
:100C4000CF911F910F9108951F93CF93DF93EC01E4
:100C5000162F61E00E940B0567E271E08EE592E0DD
:100C60000E94FC054AE050E0612F8EE592E00E9470
:100C7000C2056EE271E08EE592E00E94120642E348
:100C800050E060E070E0CE010E943D05DF91CF9121
:100C90001F9108950F931F93CF93DF93FC01268933
:100CA000222319F1062FEC010E949B04882321F1D5
:100CB000CE010E949B04882309F1CE010E94A0046A
:100CC000182F8836E9F048F4883561F0833681F7CB
:100CD000602FCE010E94240609C0813789F0863733
:100CE00029F0E6CF1E8A13E601C013E6812FDF91BB
:100CF000CF911F910F91089515E6F8CF15E6F6CF25
:100D000013E6F4CF1F93CF93DF93EC01142F6623E8
:100D100081F081E08E8B60E0CE010E944A0683362E
:100D200041F041E050E060E070E0CE010E943D05FE
:100D3000F2CF1E8BDF91CF911F91089548EB5BE0BE
:100D400060E070E089E691E00E94410540E855E2EC
:100D500060E070E089E691E00E94A50461E089E628
:100D600091E00E940B0581112EC041E060E089E610
:100D700091E00E94820626E040E855E260E070E0E3
:100D80008EE592E00E94400166E471E08EE592E01B
:100D90000E94120668E471E08EE592E00E9412065D
:100DA00065E571E08EE592E00E94120668E070E071
:100DB00085ED91E00E94730468EE75E085ED91E0A9
:100DC0000E94E003089565E371E08EE592E00E94E1
:100DD000FC054AE050E060E070E089E691E00E94A6
:100DE0003D05C3CF85ED8093BC004091E201509159
:100DF000E3016091E4017091E501495F5F4F6F4F3E
:100E00007F4F689412F87695679557954795169495
:100E1000D1F78091BC0084FF1FC08091E2019091C6
:100E2000E301A091E401B091E501892B8A2B8B2B82
:100E300081F3411551056105710549F085E38A95F6
:100E4000F1F700004150510961097109E2CF809129
:100E5000E1010E94B803089510922F0208950E94A4
:100E60009E020E949E060E943102FDCF1F920F92A9
:100E70000FB60F9211242F933F934F935F936F936D
:100E80007F938F939F93AF93BF93EF93FF938EE5E1
:100E900092E00E94A201FF91EF91BF91AF919F91CB
:100EA0008F917F916F915F914F913F912F910F9013
:100EB0000FBE0F901F9018951F920F920FB60F92B2
:100EC00011242F938F939F93AF93BF93EF93FF932F
:100ED000E0916E02F0916F02808182FD14C0EEE518
:100EE000F2E0A689B7892C91818D8F5F8F73928DE7
:100EF000891771F0DF01E18DF0E0E25AFD4F258F97
:100F000059968C9305C0E0917402F091750280812E
:100F1000FF91EF91BF91AF919F918F912F910F9082
:100F20000FBE0F901F9018951F920F920FB60F9241
:100F300011240F931F932F933F934F935F936F93BE
:100F40007F938F939F93AF93BF930091560210911D
:100F50005702209158023091590290915502B901DF
:100F6000A8014F5F5F4F6F4F7F4F83E0890F8D3731
:100F700040F086E8890FB901A8014E5F5F4F6F4FBF
:100F80007F4F8093550240935602509357026093CF
:100F900058027093590280915A0290915B02A0917D
:100FA0005C02B0915D020196A11DB11D80935A02B1
:100FB00090935B02A0935C02B0935D02BF91AF91EE
:100FC0009F918F917F916F915F914F913F912F9161
:100FD0001F910F910F900FBE0F901F9018951F92A9
:100FE0000F920FB60F9211242F933F934F935F935D
:100FF0006F937F938F939F93AF93BF93EF93FF93E1
:10100000E091B900E87FE93C08F0D5C0F0E0E55F89
:10101000F74F0C94FD09D009DB08DB08DB08DB087F
:10102000DB08DB08DB08D408DB08DB08DB08DB08AF
:10103000DB08DB08DB08D408DB08DB08DB08DB089F
:10104000DB08DB08DB08EC08DB08DB08DB08DB0877
:10105000DB08DB08DB081209DB08DB08DB08DB0840
:10106000DB08DB08DB08EC08DB08DB08DB08DB0857
:10107000DB08DB08DB081809DB08DB08DB08DB081A
:10108000DB08DB08DB081E09DB08DB08DB08DB0804
:10109000DB08DB08DB083009DB08DB08DB08DB08E2
:1010A000DB08DB08DB085A09DB08DB08DB08DB08A8
:1010B000DB08DB08DB082409DB08DB08DB08DB08CE
:1010C000DB08DB08DB083E09DB08DB08DB08DB08A4
:1010D000DB08DB08DB085D09DB08DB08DB08DB0875
:1010E000DB08DB08DB085D09DB08DB08DB08DB0865
:1010F000DB08DB08DB085D09DB08DB08DB08DB0855
:10110000DB08DB08DB085D09DB08DB08DB08DB0844
:10111000DB08DB08DB086609DB08DB08DB08DB082B
:10112000DB08DB08DB089709DB08DB08DB08DB08EA
:10113000DB08DB08DB086609DB08DB08DB08DB080B
:10114000DB08DB08DB089709DB08DB08DB08DB08CA
:10115000DB08DB08DB087E09DB08DB08DB08DB08D3
:10116000DB08DB08DB089B09DB08DB08DB08DB08A6
:10117000DB08DB08DB089B09DB08DB08DB08DB0896
:10118000DB08DB08DB08B009DB08DB08DB08DB0871
:10119000DB08DB08DB08CA09DB08DB08DB08DB0847
:1011A000DB08DB08DB08CA09809154028093BB008E
:1011B00081E00E944903FF91EF91BF91AF919F9110
:1011C0008F917F916F915F914F913F912F910F90F0
:1011D0000FBE0F901F90189590915302809152026C
:1011E000981768F080913102811119C081E08093D5
:1011F000300284EA8093BC0010922F02DCCFE09191
:10120000530281E08E0F80935302F0E0EE5CFD4FBD
:1012100080818093BB0081E00E944903CCCF0E9473
:10122000F206C9CF80E280932E020E94F206C3CF5D
:1012300080E380932E020E94F206BDCF88E3809364
:101240002E020E944303B7CFE091530281E08E0F3C
:1012500080935302F0E08091BB00EE5CFD4F8083F1
:101260009091530280915202981720F481E00E94DD
:101270004903A1CF80E00E9449039DCFE091530232
:1012800081E08E0F80935302F0E08091BB00EE5C12
:10129000FD4F808380913102811109C081E08093EC
:1012A000300284EA8093BC0010922F0284CF0E9407
:1012B000F20681CF0E94F2067ECF83E080932F0258
:1012C00010922D0281E00E94490375CF80912D027A
:1012D000803280F4E0912D0281E08E0F80932D0208
:1012E000F0E08091BB00E35FFD4F808381E00E94CE
:1012F000490361CF80E00E9449035DCF0E94430310
:1013000080912D02803230F4E0912D02F0E0E35F15
:10131000FD4F108260912D0270E0E0910B02F09180
:101320000C028DE092E0099510922D0244CF80E0EE
:101330000E94490340CF84E080932F0210920A025A
:1013400010920902E0910702F0910802099580913C
:101350000902811105C081E0809309021092E70122
:10136000E0910A0281E08E0F80930A02F0E0E951D9
:10137000FE4F80818093BB0090910A028091090208
:10138000981720F481E00E94490315CF80E00E9465
:10139000490311CF81E00E94490310922F020BCF25
:1013A00010922E020E94F20606CF0E94BC000E94FC
:1013B000D9030C949404A1E21A2EAA1BBB1BFD01B5
:1013C0000DC0AA1FBB1FEE1FFF1FA217B307E40724
:1013D000F50720F0A21BB30BE40BF50B661F771F7C
:1013E000881F991F1A9469F760957095809590955C
:1013F0009B01AC01BD01CF010895EE0FFF1F0590C9
:0A140000F491E02D0994F894FFCF59
:10140A00000000004604390491040E0432041E044C
:10141A000F0400000000C4018B00F6000E0229012F
:10142A0007011B010D0A00564D4450435F005F56E9
:10143A004D44504300564D4450565F317C315F56FF
:10144A004D4450560A002000417574686F72204B53
:10145A006F6E6576006920616D206932632072655E
:08146A006365697665720000FC
:00000001FF
