:100000000C9462000C948A000C948A000C948A0070
:100010000C948A000C948A000C948A000C948A0038
:100020000C948A000C948A000C948A000C948A0028
:100030000C948A000C948A000C948A000C948A0018
:100040000C940A060C948A000C94D2050C94AC050E
:100050000C948A000C948A000C948A000C948A00F8
:100060000C948A000C948A000000000023002600F3
:10007000290000000000240027002A0000000000E2
:10008000250028002B0004040404040404040202D4
:100090000202020203030303030301020408102007
:1000A0004080010204081020010204081020000012
:1000B0000008000201000003040700000000000027
:1000C0000000650611241FBECFEFD8E0DEBFCDBF14
:1000D00011E0A0E0B1E0E6E2FDE002C005900D9283
:1000E000A435B107D9F722E0A4E5B1E001C01D9223
:1000F000A234B207E1F710E0C2E6D0E004C02197D5
:10010000FE010E948B06C136D107C9F70E94A305E4
:100110000C9491060C940000CF92DF92EF92FF9224
:100120000F931F93CF93DF938C01DB01D0E0C0E0EE
:100130007A0181E0E81AF108452BA1F0F8018081ED
:100140009181FC01208131816D01FFEFCF1ADF0A1F
:100150006C91C801F9010995892B21F02196A7011D
:10016000D601E6CFCE01DF91CF911F910F91FF9085
:10017000EF90DF90CF90089508956FEF7FEF81E0CB
:1001800090E00E94C4000895019709F008956F3F20
:100190007F4FE1F7E5EAF1E01382128288EE93E007
:1001A000A0E0B0E084839583A683B78384E191E0E7
:1001B0009183808385EC90E09587848784EC90E040
:1001C0009787868780EC90E0918B808B81EC90E024
:1001D000938B828B82EC90E0958B848B86EC90E005
:1001E000978B868B118E128E138E148ECFCFFC01BF
:1001F000938D848D981720F4891B990B019708958E
:100200002FE330E0291B3109820F932F911D0895B0
:10021000FC01918D828D981761F0A28DAE0FBF2FDA
:10022000B11D5D968C91928D9F5F9F73928F90E030
:1002300008958FEF9FEF0895FC01918D828D98179F
:1002400031F0828DE80FF11D858D90E008958FEFDC
:100250009FEF0895FC01218D30E0205C3F4F828D9F
:10026000A901481B5109CA018F739927089585EA8E
:1002700091E00E942A0121E0892B09F420E0822FDD
:100280000895CF92DF92EF92FF921F93CF93DF9367
:10029000EC016A017B01122F60E079E08DE390E0D0
:1002A000A70196010E9469062150310941095109AF
:1002B0005695479537952795E889F98982E0808397
:1002C000C11481EED806E104F10421F0211580E18A
:1002D000380798F0E889F989108260E874E88EE1BF
:1002E00090E0A70196010E94690621503109410959
:1002F00051095695479537952795EC85FD853083AF
:10030000EE85FF852083188EEC89FD891083EA89AC
:10031000FB89808180618083EA89FB898081886094
:100320008083EA89FB89808180688083EA89FB89F0
:1003300080818F7D8083DF91CF911F91FF90EF901F
:10034000DF90CF900895FC01A48DA80FB92FB11DA7
:10035000A35ABF4F2C91848D90E001968F739078B3
:10036000848FA689B7892C93A089B1898C918370D9
:1003700080648C93938D848D981308950288F389FB
:10038000E02D80818F7D8083F8CF0F931F93CF93D3
:10039000DF93EC0181E0888F9B8D8C8D9817B1F0F5
:1003A000062F8B8D90E001968F739078182F8C8D8F
:1003B00081131EC00FB607FCFACFE889F989808146
:1003C00085FFF5CFCE010E94A301F1CFE889F9891D
:1003D000808185FFE5CF9FB7F894EE89FF89608320
:1003E000E889F98980818370806480839FBF10C011
:1003F000EB8DEC0FFD2FF11DE35AFF4F00839FB7EC
:10040000F8941B8FEA89FB898081806280839FBF7B
:1004100081E090E0DF91CF911F910F910895CF93EC
:10042000DF93EC01888D811104C00DC00FB607FE6B
:100430000DC0EA89FB89808185FDF8CFA889B9893B
:100440008C9186FFF3CFDF91CF910895808185FF56
:10045000F0CFE889F989808185FFEBCFCE010E943A
:10046000A301E7CF80E090E0892B21F00E943701C3
:10047000811101C008950E940000FCCF8330B1F0CB
:1004800060F08730E9F0883009F1843021F5E0E848
:10049000F0E080818F7D80830895813069F0823023
:1004A00021F484B58F7D84BD08950895E0E8F0E0DF
:1004B00080818F778083089584B58F7784BD089578
:1004C000E0EBF0E080818F7780830895E0EBF0E04F
:1004D00080818F7D808308951F93CF93DF93282F92
:1004E00030E0F901E255FF4F8491F901E656FF4FE4
:1004F0001491F901EA57FF4FC491CC23A9F0D62FEC
:10050000811116C0EC2FF0E0EE0FFF1FE458FF4FF3
:10051000A591B4918FB7F894D1110DC09C91E12FA2
:10052000E095E923EC938FBFDF91CF911F91089560
:100530000E943E02E7CFEC91E12BEC93F4CFFF92C7
:100540000F931F93CF93DF93F82E162F042FD22FE4
:10055000C0E011C06D2F661F6627661F8F2D0E9499
:100560006C02DD0F61E0812F0E946C0260E0812F40
:100570000E946C02CF5FC83048F40111EBCF6D2FA1
:1005800061708F2D0E946C02D695ECCFDF91CF91D8
:100590001F910F91FF900895CF93DF9390E0FC019E
:1005A000E656FF4F24918A579F4FFC018491882380
:1005B00019F190E0880F991FFC01EE58FF4FA591AB
:1005C000B491FC01E458FF4FC591D491662349F0E2
:1005D0006230A9F08FB7F894EC91E22BEC938FBFC7
:1005E0000BC09FB7F8948C91E22FE0958E238C93EB
:1005F0008881E823E8839FBFDF91CF9108959FB75B
:10060000F8943C91822F809583238C93E881E22B90
:10061000E8839FBFF1CF789484B5826084BD84B5B0
:10062000816084BD85B5826085BD85B5816085BDED
:10063000EEE6F0E0808181608083E1E8F0E0108206
:10064000808182608083808181608083E0E8F0E047
:10065000808181608083E1EBF0E080818460808331
:10066000E0EBF0E0808181608083EAE7F0E0808168
:1006700084608083808182608083808181608083C8
:100680008081806880831092C10008952FB7F8940C
:100690006091A1017091A2018091A3019091A401A8
:1006A0002FBF0895CF92DF92EF92FF920F931F9387
:1006B000CF93DF93EC01898182FD16C085FD14C0C4
:1006C000EC89FD8980819E89892321E009F020E061
:1006D000898181FB992790F983FB882780F98927F5
:1006E00091E0281799F09A8B0E9446034A89442387
:1006F00049F12B89211126C0288120FD09C02160E4
:1007000028836E877F87888B998B1FC090E0EBCF03
:100710000E851F85288939896B017C01C01AD10A91
:10072000E20AF30A0B811C8130E020E0C016D106FA
:10073000E206F30650F021E02B8B2881206220682E
:10074000288303C028812E7F2883411120C02B8954
:100750002223E9F01B8A288121FD03C02B852F5F0E
:100760002B8728812D7F206128836E877F87888B48
:10077000998B26FF04C01C861B862F7B288328812B
:1007800022232CF42F7728832981216029832B8928
:10079000222309F14423F9F00E851F852889398920
:1007A0006B017C01C01AD10AE20AF30A0D811E8195
:1007B00030E020E0C016D106E206F30660F02881A2
:1007C00021FD09C03B853D872A642F7728836E87EA
:1007D0007F87888B998B0E851F8528893989601BB7
:1007E000710B820B930B0F81188530E020E06017AE
:1007F00071078207930750F08B85882339F04111E8
:1008000005C08C871B86888184608883898186FFE8
:1008100007C01C8688818B7F888389818F7B898331
:10082000DF91CF911F910F91FF90EF90DF90CF90CC
:100830000895CF93DF93EC01898184FD0DC09881E9
:1008400092FB882780F992FF04C09C85913041F08B
:1008500080E0DF91CF910895CE010E945203EFCF47
:10086000998190649983F5CFFC01218160FB24F983
:1008700021830895CF93DF93EC01998160FB93F975
:10088000998395FD1AC06623D9F060E08A810E94A1
:10089000CC028A8190E0FC01EA57FF4FE491F0E03E
:1008A000EE0FFF1FE859FF4F259134913D8B2C8BA4
:1008B000FC01E656FF4FE491EE8BDF91CF91089556
:1008C00062E08A810E94CC02E4CF1F93CF93DF9332
:1008D000EC01122F1A828CE390E09C838B8384EFCF
:1008E00091E09E838D8398878F8380E991E09A873A
:1008F00089871B861C861D861E861F86188A198A74
:100900001A8A1B8A6F3F89F06A8389818F7D898368
:10091000642FCE010E943A0489818B7E10FB81F9FD
:100920008983DF91CF911F910895898180628983A6
:10093000EFCF6FEF7FEF81E090E00E94A004089579
:10094000019709F008956F3F7F4FE1F720E040E005
:1009500061E185E891E00E94650420E040E062E109
:100960008EE691E00E94650420E040E063E187E5C7
:1009700091E00E946504E6CF60E088E00E946C028E
:10098000E0915601F0E0E050FF4F20812F5F40E002
:100990006AE086E00E949F0261E088E00E946C02AB
:1009A00060E084E00E946C02E0915501F0E0E050CC
:1009B000FF4F208140E062E083E00E949F0261E0FF
:1009C00084E00E946C0260E087E00E946C02E0918B
:1009D0005401F0E0E050FF4F208140E065E086E008
:1009E0000E949F0261E087E00E946C0285E891E02E
:1009F0000E941904882349F0809156018F5F8093EB
:100A000056018A3010F0109256018EE691E00E9455
:100A10001904882349F0809155018F5F8093550117
:100A20008A3010F01092550187E591E00E94190478
:100A3000882349F0809154018F5F809354018A305C
:100A400010F01092540108956115710581F0FB01B9
:100A500001900020E9F73197AF01461B570BDC01ED
:100A6000ED91FC910280F381E02D0995089590E0CD
:100A700080E0089562E271E00E94240508950E94DA
:100A8000240508950F931F93CF93DF93EC010E94E9
:100A90003F058C01CE010E943A05800F911FDF9126
:100AA000CF911F910F91089526E040E855E260E054
:100AB00070E085EA91E00E94410165E271E085EA1B
:100AC00091E00E94420567E271E085EA91E00E94B0
:100AD00042056BE371E085EA91E00E94420561E026
:100AE00085E891E00E94340461E08EE691E00E9486
:100AF000340461E087E591E00E94340461E088E01D
:100B00000E94CC0261E08AE00E94CC0261E086E0B3
:100B10000E94CC0261E084E00E94CC0261E082E0AD
:100B20000E94CC0261E083E00E94CC0261E087E099
:100B30000E94CC0261E085E00E94CC0261E086E088
:100B40000E94CC0208950E940B030E9454050E944B
:100B5000BC040E943202FBCF1F920F920FB60F927D
:100B600011242F933F934F935F936F937F938F93B2
:100B70009F93AF93BF93EF93FF9385EA91E00E9419
:100B8000A301FF91EF91BF91AF919F918F917F91C1
:100B90006F915F914F913F912F910F900FBE0F90EA
:100BA0001F9018951F920F920FB60F9211242F933A
:100BB0008F939F93AF93BF93EF93FF93E091B50112
:100BC000F091B601808182FD14C0E5EAF1E0A689CA
:100BD000B7892C91818D8F5F8F73928D891771F0FA
:100BE000DF01E18DF0E0EB55FE4F258F59968C9398
:100BF00005C0E091BB01F091BC018081FF91EF91B4
:100C0000BF91AF919F918F912F910F900FBE0F9039
:100C10001F9018951F920F920FB60F9211240F93E9
:100C20001F932F933F934F935F936F937F938F9374
:100C30009F93AF93BF930091A1011091A2012091C6
:100C4000A3013091A4019091A001B901A8014F5FC7
:100C50005F4F6F4F7F4F83E0890F8D3740F086E8FD
:100C6000890FB901A8014E5F5F4F6F4F7F4F80938F
:100C7000A0014093A1015093A2016093A30170933E
:100C8000A40180919C0190919D01A0919E01B09141
:100C90009F010196A11DB11D80939C0190939D0120
:100CA000A0939E01B0939F01BF91AF919F918F91AF
:100CB0007F916F915F914F913F912F911F910F9174
:100CC0000F900FBE0F901F9018950E94BD000C94BE
:100CD0009904A1E21A2EAA1BBB1BFD010DC0AA1F7D
:100CE000BB1FEE1FFF1FA217B307E407F50720F095
:100CF000A21BB30BE40BF50B661F771F881F991F10
:100D00001A9469F760957095809590959B01AC0158
:100D1000BD01CF010895EE0FFF1F0590F491E02D66
:060D20000994F894FFCFD6
:100D2600FC60DAF266B6BEE0FEF6EE3E9C7A9E8E79
:100D360000000000C5018C00F7000F022A0108011F
:100D46001C010D0A002000417574686F7220444131
:100D56004E49494C204B4F4E455600426C6F67201A
:100D660041524455494E4F2D44455349474E4552ED
:040D76002E525500A4
:107E0000112484B714BE81FFF0D085E080938100F7
:107E100082E08093C00088E18093C10086E0809377
:107E2000C20080E18093C4008EE0C9D0259A86E02C
:107E300020E33CEF91E0309385002093840096BBD3
:107E4000B09BFECF1D9AA8958150A9F7CC24DD24C4
:107E500088248394B5E0AB2EA1E19A2EF3E0BF2EE7
:107E6000A2D0813461F49FD0082FAFD0023811F036
:107E7000013811F484E001C083E08DD089C08234E0
:107E800011F484E103C0853419F485E0A6D080C0E4
:107E9000853579F488D0E82EFF2485D0082F10E0AE
:107EA000102F00270E291F29000F111F8ED06801E7
:107EB0006FC0863521F484E090D080E0DECF843638
:107EC00009F040C070D06FD0082F6DD080E0C81688
:107ED00080E7D80618F4F601B7BEE895C0E0D1E017
:107EE00062D089930C17E1F7F0E0CF16F0E7DF06D8
:107EF00018F0F601B7BEE89568D007B600FCFDCFD4
:107F0000A601A0E0B1E02C9130E011968C91119780
:107F100090E0982F8827822B932B1296FA010C0160
:107F200087BEE89511244E5F5F4FF1E0A038BF0790
:107F300051F7F601A7BEE89507B600FCFDCF97BE46
:107F4000E89526C08437B1F42ED02DD0F82E2BD052
:107F50003CD0F601EF2C8F010F5F1F4F84911BD097
:107F6000EA94F801C1F70894C11CD11CFA94CF0C13
:107F7000D11C0EC0853739F428D08EE10CD085E9AC
:107F80000AD08FE07ACF813511F488E018D01DD067
:107F900080E101D065CF982F8091C00085FFFCCF94
:107FA0009093C60008958091C00087FFFCCF809118
:107FB000C00084FD01C0A8958091C6000895E0E648
:107FC000F0E098E1908380830895EDDF803219F02E
:107FD00088E0F5DFFFCF84E1DECF1F93182FE3DFCA
:107FE0001150E9F7F2DF1F91089580E0E8DFEE27F6
:047FF000FF270994CA
:027FFE00040479
:0400000300007E007B
:00000001FF