:020000040000FA
:100000000C9458000C9480000C9480000C94800098
:100010000C9480000C9480000C9480000C94800060
:100020000C9480000C9480000C9480000C94800050
:100030000C9480000C9480000C9480000C94800040
:100040000C9403080C9480000C94D1070C94AB071B
:100050000C9480000C9480000C9480000C94800020
:100060000C944D080C94800000000000250028002E
:100070002B00040404040404040402020202020229
:10008000030303030303010204081020408001025C
:1000900004081020010204081020000000080002DB
:1000A00001000003040700000000000000006C09CC
:1000B00011241FBECFEFD8E0DEBFCDBF12E0A0E01D
:1000C000B1E0ECE6FCE102C005900D92AC3EB10758
:1000D000D9F724E0ACEEB2E001C01D92A637B2071A
:1000E000E1F710E0C8E5D0E004C02197FE010E94CE
:1000F0002E0EC735D107C9F70E94B4090C94340EEF
:100100000C9400008091550390915603891B990B24
:10011000089508950895AF92BF92CF92DF92EF9223
:10012000FF920F931F93CF93DF936C017B018B01A1
:10013000040F151FEB015E01AE18BF08C017D107F1
:1001400059F06991D601ED91FC910190F081E02D7B
:10015000C6010995892B79F7C501DF91CF911F91D0
:100160000F91FF90EF90DF90CF90BF90AF900895E8
:10017000FC01538D448D252F30E0842F90E0821BAD
:10018000930B541710F0CF96089501970895FC0132
:10019000918D828D981761F0A28DAE0FBF2FB11D8A
:1001A0005D968C91928D9F5F9F73928F90E00895E2
:1001B0008FEF9FEF0895FC01918D828D981731F09C
:1001C000828DE80FF11D858D90E008958FEF9FEFF0
:1001D0000895FC01918D228D892F90E0805C9F4FC6
:1001E000821B91098F739927089587EC93E00E94F1
:1001F000E90021E0892B09F420E0822F089580E0B6
:1002000090E0892B29F00E94F50081110C940000E8
:100210000895FC01A48DA80FB92FB11DA35ABF4F9B
:100220002C91848D90E001968F739927848FA689F5
:10023000B7892C93A089B1898C91837080648C9349
:10024000938D848D981306C00288F389E02D8081F8
:100250008F7D80830895EF92FF920F931F93CF932A
:10026000DF93EC0181E0888F9B8D8C8D98131AC0F1
:10027000E889F989808185FF15C09FB7F894EE89D8
:10028000FF896083E889F989808183708064808335
:100290009FBF81E090E0DF91CF911F910F91FF9080
:1002A000EF900895F62E0B8D10E00F5F1F4F0F7328
:1002B0001127E02E8C8D8E110CC00FB607FCFACFE3
:1002C000E889F989808185FFF5CFCE010E94090177
:1002D000F1CFEB8DEC0FFD2FF11DE35AFF4FF082B4
:1002E0009FB7F8940B8FEA89FB8980818062CFCF1A
:1002F000CF93DF93EC01888D8823B9F0AA89BB895D
:10030000E889F9898C9185FD03C0808186FD0DC047
:100310000FB607FCF7CF8C9185FFF2CF808185FF68
:10032000EDCFCE010E940901E9CFDF91CF91089571
:1003300090E0FC01E656FF4F2491FC01EA57FF4F85
:100340003491FC01EE58FF4FE491EE23C9F02223D3
:1003500039F0233001F1A8F4213019F1223029F1CC
:10036000F0E0EE0FFF1FE859FF4FA591B4918FB752
:10037000F894EC91611126C030953E233C938FBFD9
:1003800008952730A9F02830C9F0243049F780912A
:1003900080008F7D03C0809180008F7780938000E4
:1003A000DFCF84B58F7784BDDBCF84B58F7DFBCF66
:1003B0008091B0008F778093B000D2CF8091B00051
:1003C0008F7DF9CF3E2BDACF3FB7F894809135037C
:1003D00090913603A0913703B091380326B5A89BBE
:1003E00005C02F3F19F00196A11DB11D3FBFBA2FC7
:1003F000A92F982F8827BC01CD01620F711D811D87
:10040000911D42E0660F771F881F991F4A95D1F70B
:1004100008958F929F92AF92BF92CF92DF92EF9208
:10042000FF924B015C010E94E4016B017C010E9480
:10043000E4016C197D098E099F09683E73408105AE
:100440009105A8F321E0821A9108A108B10888EE6D
:10045000C80E83E0D81EE11CF11C81149104A10494
:10046000B10429F7FF90EF90DF90CF90BF90AF904D
:100470009F908F90089520910D03260F3327331FEF
:1004800021323105ECF42091C103FC0190E080E0C1
:10049000243069F082E00895A0910D032191AC0110
:1004A00043515D4FA40FB52FB11D2C9301968617B4
:1004B00098F380910D03680F60930D0380E0089519
:1004C00081E008951092C10381E08093A00310920F
:1004D0009B0361E082E10E94980161E083E10E9458
:1004E0009801E9EBF0E080818E7F808380818D7FB1
:1004F000808388E48093B80085E48093BC000895ED
:10050000CF93DF9391E09093EC028823B9F0C091F0
:10051000B800D091BA008091BC008A7B8093BC0067
:1005200060E082E10E94980160E083E10E9498010E
:100530000E946202D093BA00C093B800DF91CF91BD
:100540000895CF92DF92EF92FF920F931F93CF9374
:10055000DF93D82FC62F613208F098C00E94E401C3
:100560006B017C018091C10381116BC081E080939C
:10057000C1038093A0039FEF90939F0310929E036B
:100580009C0F90939D0380939C0380919C03DD0FAF
:10059000D82BD0939C0380919B03813009F078C0C5
:1005A00010929B030E94E4016B017C0180919C03EB
:1005B0008093BB008091C3039091C403A091C503B5
:1005C000B091C603892B8A2B8B2BA1F00E94E401EA
:1005D0000091C3031091C4032091C5033091C60359
:1005E0006C197D098E099F09061717072807390717
:1005F00008F448C08091BC0083FDD8CF85EC80937F
:10060000BC000E94E4016B017C018091C103813038
:1006100009F440C080919E038C1710F4C0919E0392
:10062000EBE7F3E0A1EAB3E080E08C1355C08C2F38
:10063000DF91CF911F910F91FF90EF90DF90CF90BE
:1006400008958091C3039091C403A091C503B09114
:10065000C603892B8A2B8B2B09F484CF0E94E401DB
:100660000091C3031091C4032091C5033091C603C8
:100670006C197D098E099F09061717072807390786
:1006800008F070CF8091C2030E948002C0E0CFCFFB
:1006900085EEB5CF8091C3039091C403A091C503AB
:1006A000B091C603892B8A2B8B2B09F4AECF0E9405
:1006B000E4010091C3031091C4032091C50330915C
:1006C000C6036C197D098E099F09061717072807AD
:1006D000390708F09ACFD6CF91919D938F5FA5CF20
:1006E0008F929F92AF92BF92CF92DF92EF92FF9242
:1006F0000F931F93CF93DF93D0917A03D13208F0F9
:10070000D7C0182FC09179030E94E4016B017C01CE
:100710008091C10381116BC082E08093C10310936B
:10072000A0038FEF80939F0310929E03D0939D03AD
:10073000A9E5B3E0EBE7F3E080E0D81391C01092B5
:100740009C0380919C03CC0FC82BC0939C03809189
:100750009B03813009F088C010929B030E94E40142
:100760006B017C0180919C038093BB008091C3034B
:100770009091C403A091C503B091C603892B8A2B25
:100780008B2BA1F00E94E4010091C3031091C403DC
:100790002091C5033091C6036C197D098E099F090C
:1007A000061717072807390708F442C08091BC00D4
:1007B00083FDD8CF85EC8093BC000E94E4016B01DF
:1007C0007C018091C103823009F450C080919F0365
:1007D0008F3F09F46FC080919F03803209F46CC091
:1007E00080919F03803309F469C084E026C0809122
:1007F000C3039091C403A091C503B091C603892B94
:100800008A2B8B2B09F484CF0E94E4018090C303D0
:100810009090C403A090C503B090C6036C197D09E5
:100820008E099F0986169706A806B90608F070CFAC
:100830008091C2030E94800285E0109258031092BA
:100840007A0310925703DF91CF911F910F91FF9080
:10085000EF90DF90CF90BF90AF909F908F900895D2
:100860009D9191938F5F69CF85EEA5CF8091C30352
:100870009091C403A091C503B091C603892B8A2B24
:100880008B2B09F49ECF0E94E4010091C3031091C9
:10089000C4032091C5033091C6036C197D098E09EC
:1008A0009F09061717072807390708F08ACFC0CF16
:1008B00081E0C3CF80E0C1CF82E0BFCF83E0BDCF76
:1008C0000895E091560380915503E81730F4F0E065
:1008D000EF55FC4F808190E008958FEF9FEF0895D2
:1008E00090915603809155032FEF3FEF981748F4EE
:1008F000E92FF0E0EF55FC4F208130E09F5F9093AF
:100900005603C9010895CF92DF92EF92FF920F93A1
:100910001F93CF93DF937C01CB018A012091570372
:10092000222389F0EB016B01C40ED51ECC15DD0529
:1009300069F06991D701ED91FC910190F081E02D72
:10094000C7010995F3CF642F0E943B02C801DF91D4
:10095000CF911F910F91FF90EF90DF90CF9008956E
:10096000CF93DF931F92CDB7DEB7698320915703F2
:100970002223F9F020917A03203258F021E030E070
:10098000FC013383228390E080E00F90DF91CF91D0
:10099000089580915803E82FF0E0E75AFC4F9981C1
:1009A00090838F5F8093580380937A0381E090E077
:1009B000ECCF61E0CE0101960E943B02F7CF90E0C0
:1009C00080E00895FC0101900020E9F73197AF0124
:1009D000481B590BBC0187EC93E00C948B008F9261
:1009E0009F92AF92BF920F931F93CF93DF93CDB798
:1009F000DEB7A1970FB6F894DEBF0FBECDBF19A228
:100A0000423008F44AE08E010F5D1F4F842E912C76
:100A1000B12CA12CA50194010E940C0EE62FB90166
:100A2000CA01EA30F4F4E05DD801EE938D01232B86
:100A3000242B252B79F790E080E0109719F0CD0159
:100A40000E94E204A1960FB6F894DEBF0FBECDBFA0
:100A5000DF91CF911F910F91BF90AF909F908F909A
:100A60000895E95CE1CFCF92DF92EF92FF92CF93AE
:100A7000DF936B017C014A30510511F54AE0F7FE26
:100A80001FC06DE287EC93E00E942B01EC0166270A
:100A90007727CB016C197D098E099F094AE00E94D6
:100AA000EF04C80FD91F83E691E00E94E2048C0F87
:100AB0009D1FDF91CF91FF90EF90DF90CF90089531
:100AC000C701B6010E94EF04EC01EDCFCF93DF9395
:100AD000462F682F70E090E080E00E94EF04EC0168
:100AE00083E691E00E94E2048C0F9D1FDF91CF917D
:100AF0000895CF93DF930E94E204EC0183E691E036
:100B00000E94E2048C0F9D1FDF91CF9108954F92B8
:100B10005F926F927F928F929F92AF92BF92CF928D
:100B2000DF92EF92FF921F93CF93DF936B017C01D3
:100B3000D42FAC019B010E94070E8823D9F086E6D2
:100B400091E00E94E204EC0183E691E00E94E2045D
:100B50008C0F9D1FDF91CF911F91FF90EF90DF9041
:100B6000CF90BF90AF909F908F907F906F905F904D
:100B70004F90089546015701E894B7F82FEF3FEFE3
:100B80004FE75FE7C501B4010E94070E81110DC058
:100B90002FEF3FEF4FE75FE7C501B4010E943D0C27
:100BA00018161CF48AE691E0CCCF2FEF3FEF4FE709
:100BB0005FE4C701B6010E94950D18161CF48EE67D
:100BC00091E0BFCF2FEF3FEF4FE75FECC701B601DA
:100BD0000E943D0C87FDF3CF20E030E0A901C70162
:100BE000B6010E943D0CB12CA12C87FF0AC06DE21A
:100BF00087EC93E00E942B015C01F7FAF094F7F880
:100C0000F0941D2F60E070E080E09FE3C0E020E002
:100C100030E040E251E40E94420CCF5FCD17B8F3C0
:100C2000A70196010E94D10B6B017C010E94B40CBC
:100C30002B013C010E94E30C9B01AC01C701B601F2
:100C40000E94D00B6B017C014AE0C301B2010E94FB
:100C5000EF04EC016EE287EC93E00E942B01C80FD9
:100C6000D91FCA0DDB1D115008F46ECF20E030E013
:100C700040E251E4C701B6010E949A0D4B015C01AC
:100C80000E94B40C6B01F12CE12C4AE0C701B601C3
:100C90000E94EF04C80FD91FC701B6010E94E30CE0
:100CA0009B01AC01C501B4010E94D00B6B017C011A
:100CB000DACF4F925F926F927F928F929F92AF9214
:100CC000BF92CF92DF92EF92FF920F931F93CF9339
:100CD000DF9300D000D0CDB7DEB75B018A01F09082
:100CE0006504909166048F29806860916404682B84
:100CF0008091750421E0209357038093790310922B
:100D0000580310927A03692B89E694E00E94B0049C
:100D100081E00E9470038823B9F081E090E00F9099
:100D20000F900F900F90DF91CF911F910F91FF9037
:100D3000EF90DF90CF90BF90AF909F908F907F907B
:100D40006F905F904F9008950E94E4012B013C0149
:100D50008F2D90E0959587958730910508F0A3C079
:100D6000FC01EE0FFF1FE80FF91FE65DFE4F8081CB
:100D70009181A281BC018A2F90E0611520E4720765
:100D80008105910508F492C028EE33E040E050E080
:100D90000E940C0ECA01B9010E940902AE014F5F08
:100DA0005F4F7A014E0155E0850E911C80EC9DEB62
:100DB000A0EFBFEF9C01AD01241935094609570981
:100DC00029013A0119821A821B821C8264E08091F7
:100DD00075040E94A102109256038093550384303B
:100DE00009F076C0670189E694E00E947004D6019C
:100DF0008D936D018A169B06B1F78C81982F9C709C
:100E00009C3009F060C0F801808353E0F8018081D4
:100E100087FD5EC08C7090E09C0136952795BC01E3
:100E2000620F731FFB01EB5EFE4F20813181428117
:100E3000A42FC9010A2E000CBB0B2C013D01CB01D4
:100E400080509F4FDC012D913D914C91F70180E046
:100E500090E0DC016191BA2FA92F982F8827862B6B
:100E60006E2F6E196517B0F3F50180839183A2830D
:100E7000B383482259226A227B22452846284728E4
:100E800079F07901042F002E000C110BB801A70195
:100E90008E29952BA02BB72B80839183A283B383BC
:100EA00090E080E03CCF60E070E0CB016230710503
:100EB00008F474CFCB01880F991F880F991F0597ED
:100EC0000197F1F76BCF8B81D8018C9352E09ECFC5
:100ED0000E94E401640D751D861D971D97FD72CF5C
:100EE00083E090E01CCF85ED8093BC008091C3032C
:100EF0009091C403A091C503B091C6030796A11DAC
:100F0000B11D23E0B695A795979587952A95D1F7BA
:100F10002091BC0024FD03C01092C10308954091AC
:100F2000C3035091C4036091C5037091C603452B60
:100F3000462B472B69F30097A105B10541F025E346
:100F40002A95F1F700000197A109B109E1CF80913D
:100F5000C2030C9480021F920F920FB60F921124BD
:100F60002F933F934F935F936F937F938F939F93B1
:100F7000AF93BF93EF93FF9387EC93E00E94090137
:100F8000FF91EF91BF91AF919F918F917F916F9161
:100F90005F914F913F912F910F900FBE0F901F9037
:100FA00018951F920F920FB60F9211242F938F93C3
:100FB0009F93EF93FF93E091D703F091D803808143
:100FC000E091DD03F091DE0382FD1BC090818091F2
:100FD000E0038F5F8F732091E103821741F0E0916E
:100FE000E003F0E0E953FC4F958F8093E003FF911D
:100FF000EF919F918F912F910F900FBE0F901F90A7
:1010000018958081F4CF1F920F920FB60F92112482
:101010002F933F938F939F93AF93BF93809131030F
:1010200090913203A0913303B09134033091300397
:1010300023E0230F2D3758F50196A11DB11D2093F4
:1010400030038093310390933203A0933303B09322
:1010500034038091350390913603A0913703B0910A
:1010600038030196A11DB11D80933503909336037B
:10107000A0933703B0933803BF91AF919F918F91A5
:101080003F912F910F900FBE0F901F90189526E85B
:10109000230F0296A11DB11DD2CF1F920F920FB642
:1010A0000F9211242F933F934F935F936F937F93EE
:1010B0008F939F93AF93BF93EF93FF938091B9006A
:1010C000887F803609F44AC0F0F5883209F4A7C059
:1010D00018F5803109F49BC0B8F4882309F4F9C0ED
:1010E000883009F494C0FF91EF91BF91AF919F9127
:1010F0008F917F916F915F914F913F912F910F90C1
:101100000FBE0F901F901895883109F488C0803267
:1011100051F780939F0314C0803409F49DC040F4BC
:101120008033B9F38833F9F680939F0385ECB0C020
:10113000803509F485C0883509F496C0883499F65D
:101140000E947307D0CF883909F48CC038F58837EE
:1011500029F050F4883611F0803729F683E0809327
:10116000C10310922F0357C0883809F47BC080391F
:1011700019F0803809F0B7CF80912F03803208F042
:1011800071C0E0912F0381E08E0F80932F03809137
:10119000BB00F0E0E15FFC4F80833DC0803B39F055
:1011A000E0F4803A09F479C0883A09F09CCF84E0F1
:1011B0008093C10310920E0310920D03E0913B0344
:1011C000F0913C03099580910D0381110FC081E0DE
:1011D00080930D031092ED0209C0803C09F4A6CF64
:1011E000883C09F4A3CF883B09F07DCFE0910E0342
:1011F00081E08E0F80930E03F0E0E351FD4F80817C
:101200008093BB0090910E0380910D0329C08091C3
:101210009C038093BB0085EC8093BC0064CF9091CD
:101220009E0380919D03981758F5E0919E0381E0FD
:101230008E0F80939E03F0E0E558FC4F8081E9CF4C
:10124000E0919E0381E08E0F80939E038091BB000E
:10125000F0E0E558FC4F808390919E0380919D03C0
:101260009817C8F285E8D8CFE0919E0381E08E0FF1
:1012700080939E038091BB00F0E0E558FC4F808393
:101280008091A00381115CCF81E080939B0384EA6D
:101290008093BC001092C10326CF85EC8093BC00E4
:1012A0001092C10380912F03803230F4E0912F031C
:1012B000F0E0E15FFC4F108260912F0370E0E0915D
:1012C0003903F0913A038FE093E0099510922F03D0
:1012D0000ACF10929F0334CFE7ECF3E0138212821F
:1012E00088EE93E0A0E0B0E084839583A683B78383
:1012F00023E431E03183208325EC30E035872487F7
:1013000024EC30E03787268720EC30E0318B208BCF
:1013100021EC30E0338B228B22EC30E0358B248BB8
:1013200026EC30E0378B268B118E128E138E148EA6
:101330001092680420E220936704109266042CE067
:101340002093650410926404E9E6F4E013821282AB
:1013500084839583A683B78385E591E09183808319
:1013600088E6809375040895CF93DF931F92CDB7DD
:10137000DEB7789484B5826084BD84B5816084BD15
:1013800085B5826085BD85B5816085BD80916E0023
:10139000816080936E001092810080918100826054
:1013A0008093810080918100816080938100809191
:1013B00080008160809380008091B1008460809380
:1013C000B1008091B00081608093B00080917A007C
:1013D000846080937A0080917A00826080937A00A2
:1013E00080917A00816080937A0080917A00806891
:1013F00080937A001092C100E091D703F091D80356
:1014000082E08083E091D303F091D4031082E091D5
:10141000D503F091D6038FEC80831092DF03E09127
:10142000DB03F091DC0386E08083E091D903F09147
:10143000DA03808180618083E091D903F091DA033F
:10144000808188608083E091D903F091DA03808104
:1014500080688083E091D903F091DA0380818F7DE9
:101460008083109256031092580310927A030E94C0
:10147000620289E890E090933C0380933B038AE802
:1014800090E090933A038093390381E0809357036F
:101490001092790366E089E694E00E94B00481E04E
:1014A0000E94700361E070E080E090E00E94090219
:1014B00061E088E60E94A1028093550300E010E0FD
:1014C00081110FC082E791E00E94E20460E170E0C8
:1014D00088E60E9466056AE070E088E60E9466057C
:1014E000FFCF1982AE014F5F5F4F61E573E08091DE
:1014F00068040E945906F82E882309F40FC187E971
:1015000091E00E94E2046AE070E08F2D0E9466057F
:10151000AE014F5F5F4F6DE473E0809167040E94FE
:101520005906F82E882309F41AC184E092E00E943B
:10153000E2046AE070E08F2D0E946605609151031D
:101540007091520380915303909154030E94E50CD3
:101550002FE632E143E857E30E949A0D6093490376
:1015600070934A0380934B0390934C0360914D0317
:1015700070914E0380914F03909150030E94E50CAF
:101580002FE632E143E857E30E949A0D609345034A
:1015900070934603809347039093480381E792E05A
:1015A0000E9479056091490370914A0380914B0331
:1015B00090914C0346E050E00E9487058DE892E050
:1015C0000E9479056091450370914603809147031D
:1015D0009091480346E050E00E94870589EA92E036
:1015E0000E947905209145033091460340914703BD
:1015F000509148036091490370914A0380914B03D5
:1016000090914C030E94D00B46E050E00E94870569
:101610002091450330914603409147035091480380
:101620006091490370914A0380914B0390914C0360
:101630000E94D00B60934103709342038093430355
:10164000909344038EEC92E00E94790560914103EF
:1016500070914203809143039091440346E050E02F
:101660000E94870520E030E04AEF54E46091410396
:101670007091420380914303909144030E949A0D1C
:101680006B017C01AC019B0160E070E080E095E4BF
:101690000E94D00B4B015C0120E030E040E055E4BB
:1016A000C701B6010E94D10B9B01AC01C501B40179
:1016B0000E94420C20E030E04AE754E40E949A0D78
:1016C0009B01AC010E94D10B60933D0370933E03DC
:1016D00080933F039093400387EE92E00E94E204E0
:1016E00060913D0370913E0380913F0390914003D0
:1016F00043E050E00E94870568EE73E080E090E0F0
:101700000E9409020115110509F4EBCE0E94F500B3
:10171000882309F4E6CE0E940000E3CE88EC91E035
:101720000E94E2046091510370915203809153032F
:10173000909154034AE050E00E9433058CED91E013
:101740000E94790560915103709152038091530377
:101750009091540342E050E00E943305D9CE85E3D6
:1017600092E00E94E20460914D0370914E038091DB
:101770004F03909150034AE050E00E94330589E402
:1017800092E00E94790560914D0370914E03809123
:101790004F039091500342E050E00E943305CECEBB
:1017A0005058BB27AA270E94E80B0C945B0D0E949F
:1017B0004D0D38F00E94540D20F039F49F3F19F47C
:1017C00026F40C944A0D0EF4E095E7FB0C94440DBE
:1017D000E92F0E946C0D58F3BA176207730784074C
:1017E000950720F079F4A6F50C948E0D0EF4E09593
:1017F0000B2EBA2FA02D0B01B90190010C01CA01CB
:10180000A0011124FF27591B99F0593F50F4503E75
:1018100068F11A16F040A22F232F342F4427585F67
:10182000F3CF469537952795A795F0405395C9F77F
:101830007EF41F16BA0B620B730B840BBAF0915037
:10184000A1F0FF0FBB1F661F771F881FC2F70EC0D6
:10185000BA0F621F731F841F48F4879577956795A9
:10186000B795F7959E3F08F0B0CF9395880F08F095
:101870009927EE0F9795879508950E94200D08F4FB
:1018800081E008950E94560C0C945B0D0E94540D4B
:1018900058F00E944D0D40F029F45F3F29F00C9460
:1018A000440D51110C948F0D0C944A0D0E946C0D37
:1018B00068F39923B1F3552391F3951B550BBB277F
:1018C000AA2762177307840738F09F5F5F4F220FC4
:1018D000331F441FAA1FA9F335D00E2E3AF0E0E8BB
:1018E00032D091505040E695001CCAF72BD0FE2F05
:1018F00029D0660F771F881FBB1F26173707480799
:10190000AB07B0E809F0BB0B802DBF01FF27935850
:101910005F4F3AF09E3F510578F00C94440D0C94C3
:101920008F0D5F3FE4F3983ED4F3869577956795E6
:10193000B795F7959F5FC9F7880F911D9695879585
:1019400097F90895E1E0660F771F881FBB1F6217A4
:1019500073078407BA0720F0621B730B840BBA0B62
:10196000EE1F88F7E09508950E94740D88F09F5748
:1019700098F0B92F9927B751B0F0E1F0660F771FB3
:10198000881F991F1AF0BA95C9F714C0B13091F0A9
:101990000E948E0DB1E008950C948E0D672F782F64
:1019A0008827B85F39F0B93FCCF38695779567956E
:1019B000B395D9F73EF490958095709561957F4FDA
:1019C0008F4F9F4F0895E89409C097FB3EF4909580
:1019D0008095709561957F4F8F4F9F4F9923A9F008
:1019E000F92F96E9BB279395F69587957795679597
:1019F000B795F111F8CFFAF4BB0F11F460FF1BC0DB
:101A00006F5F7F4F8F4F9F4F16C0882311F096E96D
:101A100011C0772321F09EE8872F762F05C066231B
:101A200071F096E8862F70E060E02AF09A95660FD4
:101A3000771F881FDAF7880F9695879597F908958D
:101A4000990F0008550FAA0BE0E8FEEF16161706CF
:101A5000E807F907C0F012161306E407F50798F037
:101A6000621B730B840B950B39F40A2661F0232B50
:101A7000242B252B21F408950A2609F4A140A695CC
:101A80008FEF811D811D089597F99F6780E870E0B1
:101A900060E008959FEF80EC089500240A941616E4
:101AA000170618060906089500240A94121613064C
:101AB000140605060895092E0394000C11F48823DA
:101AC00052F0BB0F40F4BF2B11F460FF04C06F5FF6
:101AD0007F4F8F4F9F4F089557FD9058440F551FCC
:101AE00059F05F3F71F04795880F97FB991F61F0A0
:101AF0009F3F79F087950895121613061406551F17
:101B0000F2CF4695F1DF08C0161617061806991F82
:101B1000F1CF86957105610508940895E894BB2777
:101B200066277727CB0197F908950E94200D08F4C6
:101B30008FEF08950E94AD0D0C945B0D0E944D0D2A
:101B400038F00E94540D20F0952311F00C94440DB0
:101B50000C944A0D11240C948F0D0E946C0D70F39F
:101B6000959FC1F3950F50E0551F629FF001729F42
:101B7000BB27F00DB11D639FAA27F00DB11DAA1F51
:101B8000649F6627B00DA11D661F829F2227B00D9E
:101B9000A11D621F739FB00DA11D621F839FA00D29
:101BA000611D221F749F3327A00D611D231F849F79
:101BB000600D211D822F762F6A2F11249F575040D0
:101BC0009AF0F1F088234AF0EE0FFF1FBB1F661F4B
:101BD000771F881F91505040A9F79E3F510580F014
:101BE0000C94440D0C948F0D5F3FE4F3983ED4F3B6
:101BF000869577956795B795F795E7959F5FC1F7B8
:101C0000FE2B880F911D9695879597F908950E9450
:101C1000200D880B990B0895A1E21A2EAA1BBB1B5D
:101C2000FD010DC0AA1FBB1FEE1FFF1FA217B307A8
:101C3000E407F50720F0A21BB30BE40BF50B661FBE
:101C4000771F881F991F1A9469F760957095809582
:101C500090959B01AC01BD01CF010895EE0FFF1FD0
:101C60000590F491E02D0994F894FFCF00F0FF0067
:101C7000000000C0FF0000000000FF0000000000A6
:101C8000FC000800000000002000000000008000B0
:101C90000000000000024710000000001B4100008F
:101CA00000006B0401000000AB1104000000002BD9
:101CB000018B00B8007801E900C700DB00000000DC
:101CC00000B0048304DF0460048200700461040D2A
:101CD0000A006E616E00696E66006F7666004E6F78
:101CE00020414443206368697020646576696365B8
:101CF00020666F756E642061742061646472657320
:101D00007320004144435F4D435033343233206DE0
:101D100061646520636F6E76657274696E672065B5
:101D200072726F72206F6E206368616E6E656C20D8
:101D3000313A200076616C75655F6F665F6368613C
:101D40006E6E656C313A200053657269616C2E705D
:101D500072696E746C6E2876616C75655F6F665F14
:101D60006368616E6E656C312C2042494E293B00E0
:101D70004144435F4D435033343233206D616465D9
:101D800020636F6E76657274696E67206572726F1C
:101D900072206F6E206368616E6E656C20323A202F
:101DA0000076616C75655F6F665F6368616E6E6516
:101DB0006C323A200053657269616C2E7072696EE4
:101DC000746C6E2876616C75655F6F665F636861C1
:101DD0006E6E656C322C2042494E293B0053657271
:101DE00069616C2E7072696E746C6E28766F6C749B
:101DF000616765302C36293B0053657269616C2E32
:101E00007072696E746C6E28766F6C746167653180
:101E10002C36293B0053657269616C2E7072696EB5
:101E2000746C6E28766F6C74616765302D766F6C9C
:101E300074616765312C36293B0053657269616CAA
:101E40002E7072696E746C6E2856646966662C36E4
:081E5000293B0052513D000046
:107E0000112484B714BE81FFF0D085E080938100F7
:107E100082E08093C00088E18093C10086E0809377
:107E2000C20080E18093C4008EE0C9D0259A86E02C
:107E300020E33CEF91E0309385002093840096BBD3
:107E4000B09BFECF1D9AA8958150A9F7CC24DD24C4
:107E500088248394B5E0AB2EA1E19A2EF3E0BF2EE7
:107E6000A2D0813461F49FD0082FAFD0023811F036
:107E7000013811F484E001C083E08DD089C08234E0
:107E800011F484E103C0853419F485E0A6D080C0E4
:107E9000853579F488D0E82EFF2485D0082F10E0AE
:107EA000102F00270E291F29000F111F8ED06801E7
:107EB0006FC0863521F484E090D080E0DECF843638
:107EC00009F040C070D06FD0082F6DD080E0C81688
:107ED00080E7D80618F4F601B7BEE895C0E0D1E017
:107EE00062D089930C17E1F7F0E0CF16F0E7DF06D8
:107EF00018F0F601B7BEE89568D007B600FCFDCFD4
:107F0000A601A0E0B1E02C9130E011968C91119780
:107F100090E0982F8827822B932B1296FA010C0160
:107F200087BEE89511244E5F5F4FF1E0A038BF0790
:107F300051F7F601A7BEE89507B600FCFDCF97BE46
:107F4000E89526C08437B1F42ED02DD0F82E2BD052
:107F50003CD0F601EF2C8F010F5F1F4F84911BD097
:107F6000EA94F801C1F70894C11CD11CFA94CF0C13
:107F7000D11C0EC0853739F428D08EE10CD085E9AC
:107F80000AD08FE07ACF813511F488E018D01DD067
:107F900080E101D065CF982F8091C00085FFFCCF94
:107FA0009093C60008958091C00087FFFCCF809118
:107FB000C00084FD01C0A8958091C6000895E0E648
:107FC000F0E098E1908380830895EDDF803219F02E
:107FD00088E0F5DFFFCF84E1DECF1F93182FE3DFCA
:107FE0001150E9F7F2DF1F91089580E0E8DFEE27F6
:047FF000FF270994CA
:027FFE00040479
:00000001FF
