:100000000C945D000C9485000C9485000C94850084
:100010000C9485000C9485000C9485000C9485004C
:100020000C9485000C9485000C9485000C9485003C
:100030000C9485000C9485000C9485000C9485002C
:100040000C94BC070C9485000C948A070C946407EC
:100050000C9485000C9485000C9485000C9485000C
:100060000C9485000C9485000000000024002700FB
:100070002A0000000000250028002B0004040404CE
:100080000404040402020202020203030303030342
:10009000010204081020408001020408102001021F
:1000A00004081020000000080002010000030407FB
:1000B0000000000000000000330811241FBECFEF35
:1000C000D8E0DEBFCDBF11E0A0E0B1E0EEEDF5E19C
:1000D00002C005900D92AA36B107D9F722E0AAE630
:1000E000B1E001C01D92A832B207E1F710E0CDE502
:1000F000D0E004C02197FE010E94E70ACC35D10769
:10010000C9F70E9437080C94ED0A0C940000AF92D6
:10011000BF92CF92DF92EF92FF920F931F93CF93F4
:10012000DF936C017B018B01040F151FEB015E0156
:10013000AE18BF08C017D10759F06991D601ED91EB
:10014000FC910190F081E02DC6010995892B79F78A
:10015000C501DF91CF911F910F91FF90EF90DF903C
:10016000CF90BF90AF900895FC01538D448D252F03
:1001700030E0842F90E0821B930B541710F0CF9641
:10018000089501970895FC01918D828D981761F073
:10019000A28DAE0FBF2FB11D5D968C91928D9F5F8A
:1001A0009F73928F90E008958FEF9FEF0895FC0169
:1001B000918D828D981731F0828DE80FF11D858D1C
:1001C00090E008958FEF9FEF0895FC01918D228DAF
:1001D000892F90E0805C9F4F821B91098F73992734
:1001E00008958BE891E00E94E50021E0892B09F455
:1001F00020E0822F089580E090E0892B29F00E9472
:10020000F10081110C9400000895CF92DF92EF92DB
:10021000FF921F93CF93DF93EC016A017B01122FB2
:10022000E889F98982E08083C11481EED806E1046F
:10023000F104A1F060E079E08DE390E0A701960180
:100240000E94C50A21503109410951095695479527
:1002500037952795211580E1380798F0E889F989C5
:10026000108260E874E88EE190E0A70196010E9498
:10027000C50A2150310941095109569547953795CD
:100280002795EC85FD853083EE85FF852083188ECC
:10029000EC89FD891083EA89FB89808180618083F4
:1002A000EA89FB89808188608083EA89FB89808173
:1002B00080688083EA89FB8980818F7D8083DF91DC
:1002C000CF911F91FF90EF90DF90CF900895FC01A8
:1002D000A48DA80FB92FB11DA35ABF4F2C91848DA7
:1002E00090E001968F739927848FA689B7892C9304
:1002F000A089B1898C91837080648C93938D848D57
:10030000981306C00288F389E02D80818F7D808359
:100310000895EF92FF920F931F93CF93DF93EC0119
:1003200081E0888F9B8D8C8D98131AC0E889F9899C
:10033000808185FF15C09FB7F894EE89FF8960839F
:10034000E889F98980818370806480839FBF81E020
:1003500090E0DF91CF911F910F91FF90EF90089562
:10036000F62E0B8D10E00F5F1F4F0F731127E02E3D
:100370008C8D8E110CC00FB607FCFACFE889F98975
:10038000808185FFF5CFCE010E946701F1CFEB8D13
:10039000EC0FFD2FF11DE35AFF4FF0829FB7F89449
:1003A0000B8FEA89FB8980818062CFCFCF93DF9367
:1003B000EC01888D8823B9F0AA89BB89E889F9897D
:1003C0008C9185FD03C0808186FD0DC00FB607FCB2
:1003D000F7CF8C9185FFF2CF808185FFEDCFCE01E5
:1003E0000E946701E9CFDF91CF91089590E0FC0171
:1003F000EC55FF4F2491FC01E057FF4F3491FC0175
:10040000E458FF4FE491EE23C9F0222339F0233062
:1004100001F1A8F4213019F1223029F1F0E0EE0FBA
:10042000FF1FEE58FF4FA591B4918FB7F894EC9150
:10043000611126C030953E233C938FBF089527302D
:10044000A9F02830C9F0243049F7809180008F7DD1
:1004500003C0809180008F7780938000DFCF84B5C8
:100460008F7784BDDBCF84B58F7DFBCF8091B000CB
:100470008F778093B000D2CF8091B0008F7DF9CF7D
:100480003E2BDACFCF93DF9390E0FC01E057FF4F94
:10049000249184589F4FFC0184918823C9F090E0F7
:1004A000880F991FFC01E859FF4FA591B491FC01F9
:1004B000EE58FF4FC591D49161110DC09FB7F894CC
:1004C0008C91209582238C938881282328839FBF39
:1004D000DF91CF910895623051F49FB7F8943C9129
:1004E000822F809583238C93E8812E2BEFCF8FB7BB
:1004F000F894EC912E2B2C938FBFEACF8E3008F01E
:100500008E508770806480937C0080917A00806434
:1005100080937A0080917A0086FDFCCF80917800EC
:100520009091790008958230910538F0880F991FD5
:10053000880F991F05970197F1F708953FB7F89431
:100540008091870190918801A0918901B0918A01E1
:1005500026B5A89B05C02F3F19F00196A11DB11D1E
:100560003FBFBA2FA92F982F8827BC01CD01620F5A
:10057000711D811D911D42E0660F771F881F991F15
:100580004A95D1F708958F929F92AF92BF92CF92E2
:10059000DF92EF92FF926B017C010E949E024B0161
:1005A0005C01C114D104E104F104B9F00E949E027F
:1005B000681979098A099B09683E7340810591058C
:1005C00080F321E0C21AD108E108F10888EE880E14
:1005D00083E0981EA11CB11CE4CFFF90EF90DF9048
:1005E000CF90BF90AF909F908F900895CF93DF935F
:1005F000EC0160E08E810E94F60181E090E00E94B3
:10060000930261E08E810E94F60181E090E00E94F9
:10061000930260E08E810E94F60184E690E00E94E1
:100620009302DF91CF910895FF920F931F93CF9381
:10063000DF938C01F62ED0E0C0E0C830D1058CF4F9
:100640006F2D70E00C2E02C0759567950A94E2F745
:100650006170F801EC0FFD1F87810E94F601219661
:10066000ECCFC8010E94F602DF91CF911F910F914C
:10067000FF900895FF920F931F93CF93DF938C0108
:10068000F62ED0E0C0E0C430D1058CF46F2D70E0C0
:100690000C2E02C0759567950A94E2F76170F80117
:1006A000EC0FFD1F87810E94F6012196ECCFC80157
:1006B0000E94F602DF91CF911F910F91FF90089554
:1006C0001F93CF93DF93EC01162F642F8C810E9430
:1006D000F6018D818F3FC1F48F8584FD19C0612F94
:1006E00070E075956795759567957595679575959E
:1006F0006795CE010E943A03612FCE010E943A0312
:10070000DF91CF911F91089560E00E94F601E4CF40
:10071000612FCE010E941403F3CF41E00E946003D9
:1007200081E090E00895FC016089262F2460208BF1
:100730006C6040E00E9460030895362F443008F05A
:1007400043E0FC012389421710F04FEF420FFC01F8
:10075000E40FF11D6489630F606840E00E9460034C
:10076000089540E061E00E94600380ED97E00E9400
:10077000930208950F93FC01648B458B268B078BA6
:100780000F910895EF92FF920F931F93CF93DF93F2
:10079000EC01F42EE22E81E0841718F48F85886036
:1007A0008F87FB8A262F30E08901005C1F4F40E4D1
:1007B00050E070E060E0CE010E94BA03EE2019F034
:1007C00081E0F81671F061E08C810E9442028D8117
:1007D0008F3F59F461E08E810E94420210E000E0F8
:1007E00016C08F8584608F87EECF61E00E94420241
:1007F000F1CF84E090E0081719077CF4FE01E00FC8
:10080000F11F61E087810E9442020F5F1F4F8F85B9
:1008100084FFEFCF88E090E0EECF80E593EC0E947C
:10082000930260E08C810E94F60160E08E810E945C
:10083000F6018D818F3FC1F56F8564FF39C060621D
:1008400040E0CE010E94600384E991E10E9493029E
:100850006F85606240E0CE010E94600386E990E00F
:100860000E9493026F85606240E0CE010E946003A7
:100870006F85606240E0CE010E94600384E0888B57
:10088000CE010E949303CE010E94B10382E0898BC6
:1008900040E066E0CE010E946003DF91CF911F919E
:1008A0000F91FF90EF90089560E00E94F601C4CF91
:1008B00063E0CE010E943A0384E991E10E94930231
:1008C00063E0CE010E943A0384E991E10E94930221
:1008D00063E0CE010E943A0386E990E00E94930211
:1008E00062E0CE010E943A03C3CF8F92AF92CF92C3
:1008F000EF920F93CF93DF93CDB7DEB7FC01448324
:1009000025830683E782C086A18682868A858387BF
:100910008B8584878C8585878D858687611110C03E
:1009200080E1878720E041E060E1CF010E94C203BF
:10093000DF91CF910F91EF90CF90AF908F9008956E
:100940001786F0CF8F92AF92CF92EF920F93DC0188
:1009500013961C921E921297E4E0F1E0ED93FC9343
:100960001F921F921F921F928C2CAE2CC02EE22E33
:10097000042F2FEF462F61E00E9475040F900F9017
:100980000F900F900F91EF90CF90AF908F900895B0
:10099000089590E080E008956FEF7FEF81E090E0B0
:1009A0000E94D3040895CF92EF920F93019721F004
:1009B0000F91EF90CF9008956F3F7F4FC9F76894E4
:1009C000CC24C1F80F2EF3E0EF2EF02D04E025E04B
:1009D0004BE06CE08AE691E00E94A204E9CFFB01C3
:1009E00001900020E9F73197AF01461B570BDC015E
:1009F000ED91FC910280F381E02D09948F929F92FA
:100A0000AF92BF92EF92FF920F931F93CF93DF931A
:100A1000CDB7DEB7A1970FB6F894DEBF0FBECDBF3E
:100A20007C01FA01CB0119A2223008F42AE08E01E0
:100A30000F5D1F4F822E912CB12CA12CBF01A5015F
:100A400094010E94C50AF901CA016A300CF5605D83
:100A5000D8016E938D01232B242B252B79F790E061
:100A600080E0109721F0BD01C7010E94EF04A1961C
:100A70000FB6F894DEBF0FBECDBFDF91CF911F91AF
:100A80000F91FF90EF90BF90AF909F908F9008953F
:100A9000695CDECF6115710511F00C94EF0490E0F4
:100AA00080E0089526E040E855E260E070E08BE8E1
:100AB00091E00E94050120E042E060E18AE691E0D9
:100AC0000E94C20320E042E060E18AE691E00E94D9
:100AD000C20340E062E08AE691E00E949D036EE17D
:100AE00071E08AE691E00E944A0560ED77E080E0DF
:100AF00090E00E94C30208952F923F924F925F921E
:100B00006F927F928F929F92AF92BF92CF92DF921D
:100B1000EF92FF921F93CF93DF93EC016A017B0169
:100B2000722EAB019601CB01B6010E94C00A6BE2A6
:100B300071E0811126C046015701E894B7F82FEF04
:100B40003FEF4FE75FE7C501B4010E94C00A811182
:100B50000CC02FEF3FEF4FE75FE7C501B4010E94E4
:100B6000F6086FE271E0181664F02FEF3FEF4FE7E1
:100B70005FE4C701B6010E944E0A1816B4F463E39D
:100B800071E0CE01DF91CF911F91FF90EF90DF9048
:100B9000CF90BF90AF909F908F907F906F905F901D
:100BA0004F903F902F900C94EF042FEF3FEF4FE7C3
:100BB0005FECC701B6010E94F60887FDE0CF20E098
:100BC00030E0A901C701B6010E94F608312C212CA2
:100BD00087FF0DC0E881F9810190F081E02D6DE281
:100BE000CE0109951C01F7FAF094F7F8F09410E0A3
:100BF00060E070E080E09FE3711641F020E030E0BB
:100C000040E251E40E94FB081F5FF6CFA701960166
:100C10000E948A082B013C010E946D094B015C0176
:100C20002AE0BC01A401CE010E94FE047C01E20C7A
:100C3000F31C1123E1F1C501B4010E949C099B0141
:100C4000AC01C301B2010E9489084B015C01E8813B
:100C5000F9810190F081E02D6EE2CE010995E80E58
:100C6000F91E115020F120E030E040E251E4C501CE
:100C7000B4010E94530A2B013C010E946D094B01F3
:100C8000B12CA12C2AE0B501A401CE010E94FE04E2
:100C9000E80EF91EC501B4010E949C099B01AC013C
:100CA000C301B2010E9489084B015C01DACFC70180
:100CB000DF91CF911F91FF90EF90DF90CF90BF9089
:100CC000AF909F908F907F906F905F904F903F90EC
:100CD0002F9008950F931F93CF93DF93EC010E9401
:100CE0007C058C0167E371E0CE010E94EF04800F68
:100CF000911FDF91CF911F910F9108950C947C0566
:100D0000CF92DF92EF92FF92CF93DF938EE00E941B
:100D10007E02EC018FE00E947E02C817D90794F48E
:100D20008FE00E947E02EC018EE00E947E028C1712
:100D30009D070CF46DC0DF91CF91FF90EF90DF9095
:100D4000CF9008958EE00E947E02BC01990F880B1F
:100D5000990B0E949E096B017C016AE371E08BE8AC
:100D600091E00E944A052AE038E240EA5BE3C701CD
:100D7000B6010E94530A20E030E04AE754E40E94A2
:100D8000530A20E030E040E251E40E94FB086B018E
:100D90007C0163E471E08BE891E00E944A0521E068
:100DA00030E0B701A6018BE891E00E946A0668EE88
:100DB00073E080E090E00E94C3028AE691E00E9426
:100DC000B10340E060E08AE691E00E949D036EE49A
:100DD00071E08AE691E00E944A0541E060E08AE61F
:100DE00091E00E949D0363E471E08AE691E00E9435
:100DF0004A0522E030E0B701A6018AE691E00E94B0
:100E00007E0665E571E08AE691E00E944A0588CF9A
:100E10008FE00E947E02BC01990F880B990B0E9403
:100E20009E092AE038E240EA5BE30E94530A20E090
:100E300030E04AE754E40E94530A20E030E040E208
:100E400051E40E94FB086B017C0167E571E08BE8CF
:100E500091E00E944A0521E030E0B701A6018BE84D
:100E600091E00E946A068AE691E00E94B10340E0A8
:100E700060E08AE691E00E949D0362E671E08AE606
:100E800091E00E944A0541E060E08AE691E00E941C
:100E90009D0367E571E08AE691E00E944A0522E041
:100EA00030E0B701A6018AE691E00E947E0665E582
:100EB00071E08AE691E00E944A0568EE73E080E006
:100EC00090E00E94C30237CF1F920F920FB60F928D
:100ED00011242F933F934F935F936F937F938F933F
:100EE0009F93AF93BF93EF93FF938BE891E00E94A2
:100EF0006701FF91EF91BF91AF919F918F917F918A
:100F00006F915F914F913F912F910F900FBE0F9076
:100F10001F9018951F920F920FB60F9211242F93C6
:100F20008F939F93EF93FF93E0919B01F0919C012E
:100F30008081E091A101F091A20182FD1BC090810E
:100F40008091A4018F5F8F732091A501821741F0DA
:100F5000E091A401F0E0E557FE4F958F8093A40146
:100F6000FF91EF919F918F912F910F900FBE0F9056
:100F70001F9018958081F4CF1F920F920FB60F9299
:100F800011242F933F938F939F93AF93BF9380919F
:100F9000830190918401A0918501B09186013091E7
:100FA000820123E0230F2D3758F50196A11DB11DB5
:100FB000209382018093830190938401A093850103
:100FC000B09386018091870190918801A091890159
:100FD000B0918A010196A11DB11D80938701909364
:100FE0008801A0938901B0938A01BF91AF919F912D
:100FF0008F913F912F910F900FBE0F901F901895DA
:1010000026E8230F0296A11DB11DD2CFEBE8F1E037
:101010001382128288EE93E0A0E0B0E0848395838F
:10102000A683B78380E191E09183808385EC90E093
:101030009587848784EC90E09787868780EC90E0A2
:10104000918B808B81EC90E0938B828B82EC90E093
:10105000958B848B86EC90E0978B868B118E128E0D
:10106000138E148E08950E9406080C94CC04789474
:1010700084B5826084BD84B5816084BD85B582609D
:1010800085BD85B5816085BD80916E00816080934E
:101090006E001092810080918100826080938100B7
:1010A00080918100816080938100809180008160C7
:1010B000809380008091B10084608093B100809122
:1010C000B00081608093B00080917A00846080934A
:1010D0007A0080917A00826080937A0080917A0011
:1010E000816080937A0080917A00806880937A0092
:1010F0001092C1000E945205C0E0D0E00E9480061C
:101100002097E1F30E94F1008823C1F30E940000C0
:10111000F5CF5058BB27AA270E94A1080C94140AA7
:101120000E94060A38F00E940D0A20F039F49F3F11
:1011300019F426F40C94030A0EF4E095E7FB0C94E2
:10114000FD09E92F0E94250A58F3BA1762077307B1
:101150008407950720F079F4A6F50C94470A0EF45D
:10116000E0950B2EBA2FA02D0B01B90190010C01B7
:10117000CA01A0011124FF27591B99F0593F50F4CF
:10118000503E68F11A16F040A22F232F342F442727
:10119000585FF3CF469537952795A795F04053951F
:1011A000C9F77EF41F16BA0B620B730B840BBAF0EF
:1011B0009150A1F0FF0FBB1F661F771F881FC2F75A
:1011C0000EC0BA0F621F731F841F48F4879577956E
:1011D0006795B795F7959E3F08F0B0CF9395880F28
:1011E00008F09927EE0F9795879508950E94D909E1
:1011F00008F481E008950E940F090C94140A0E94DB
:101200000D0A58F00E94060A40F029F45F3F29F0C9
:101210000C94FD0951110C94480A0C94030A0E9485
:10122000250A68F39923B1F3552391F3951B550BC8
:10123000BB27AA2762177307840738F09F5F5F4FA9
:10124000220F331F441FAA1FA9F335D00E2E3AF0E8
:10125000E0E832D091505040E695001CCAF72BD000
:10126000FE2F29D0660F771F881FBB1F2617370751
:101270004807AB07B0E809F0BB0B802DBF01FF2783
:1012800093585F4F3AF09E3F510578F00C94FD095A
:101290000C94480A5F3FE4F3983ED4F38695779523
:1012A0006795B795F7959F5FC9F7880F911D96953C
:1012B000879597F90895E1E0660F771F881FBB1F98
:1012C000621773078407BA0720F0621B730B840B45
:1012D000BA0BEE1F88F7E09508950E942D0A88F05A
:1012E0009F5798F0B92F9927B751B0F0E1F0660FEA
:1012F000771F881F991F1AF0BA95C9F714C0B1302B
:1013000091F00E94470AB1E008950C94470A672FB4
:10131000782F8827B85F39F0B93FCCF38695779559
:101320006795B395D9F73EF4909580957095619542
:101330007F4F8F4F9F4F0895E89409C097FB3EF46D
:1013400090958095709561957F4F8F4F9F4F992312
:10135000A9F0F92F96E9BB279395F6958795779590
:101360006795B795F111F8CFFAF4BB0F11F460FF50
:101370001BC06F5F7F4F8F4F9F4F16C0882311F0A8
:1013800096E911C0772321F09EE8872F762F05C0BC
:10139000662371F096E8862F70E060E02AF09A9557
:1013A000660F771F881FDAF7880F9695879597F94C
:1013B0000895990F0008550FAA0BE0E8FEEF1616E6
:1013C0001706E807F907C0F012161306E407F50739
:1013D00098F0621B730B840B950B39F40A2661F0AD
:1013E000232B242B252B21F408950A2609F4A14050
:1013F000A6958FEF811D811D089597F99F6780E85D
:1014000070E060E008959FEF80EC089500240A9456
:101410001616170618060906089500240A941216CF
:101420001306140605060895092E0394000C11F402
:10143000882352F0BB0F40F4BF2B11F460FF04C0AF
:101440006F5F7F4F8F4F9F4F089557FD9058440F08
:10145000551F59F05F3F71F04795880F97FB991F13
:1014600061F09F3F79F087950895121613061406D0
:10147000551FF2CF4695F1DF08C01616170618065D
:10148000991FF1CF86957105610508940895E89438
:10149000BB2766277727CB0197F908950E94D909C2
:1014A00008F48FEF08950E94660A0C94140A0E94B3
:1014B000060A38F00E940D0A20F0952311F00C94D2
:1014C000FD090C94030A11240C94480A0E94250A71
:1014D00070F3959FC1F3950F50E0551F629FF00187
:1014E000729FBB27F00DB11D639FAA27F00DB11DA0
:1014F000AA1F649F6627B00DA11D661F829F222729
:10150000B00DA11D621F739FB00DA11D621F839FAF
:10151000A00D611D221F749F3327A00D611D231F85
:10152000849F600D211D822F762F6A2F11249F57D3
:1015300050409AF0F1F088234AF0EE0FFF1FBB1FD6
:10154000661F771F881F91505040A9F79E3F510595
:1015500080F00C94FD090C94480A5F3FE4F3983E38
:10156000D4F3869577956795B795F795E7959F5F3F
:10157000C1F7FE2B880F911D9695879597F90895D1
:101580000E94D909880B990B0895A1E21A2EAA1B73
:10159000BB1BFD010DC0AA1FBB1FEE1FFF1FA21723
:1015A000B307E407F50720F0A21BB30BE40BF50B20
:1015B000661F771F881F991F1A9469F760957095A9
:1015C000809590959B01AC01BD01CF010895EE0F70
:0E15D000FF1F0590F491E02D0994F894FFCFD1
:1015DE00000000008D038700C904C804000000004D
:1015EE0089018700B400D601E500C300D70044414D
:1015FE004E49494C204B4F4E4556006E616E006968
:10160E006E66006F7666000D0A0053756D6D65721D
:10161E003A200043656C736975733D202B0053753A
:10162E006D6D657200430043656C736975733D2083
:0A163E002D0057696E7465720000FC
:107E0000112484B714BE81FFF0D085E080938100F7
:107E100082E08093C00088E18093C10086E0809377
:107E2000C20080E18093C4008EE0C9D0259A86E02C
:107E300020E33CEF91E0309385002093840096BBD3
:107E4000B09BFECF1D9AA8958150A9F7CC24DD24C4
:107E500088248394B5E0AB2EA1E19A2EF3E0BF2EE7
:107E6000A2D0813461F49FD0082FAFD0023811F036
:107E7000013811F484E001C083E08DD089C08234E0
:107E800011F484E103C0853419F485E0A6D080C0E4
:107E9000853579F488D0E82EFF2485D0082F10E0AE
:107EA000102F00270E291F29000F111F8ED06801E7
:107EB0006FC0863521F484E090D080E0DECF843638
:107EC00009F040C070D06FD0082F6DD080E0C81688
:107ED00080E7D80618F4F601B7BEE895C0E0D1E017
:107EE00062D089930C17E1F7F0E0CF16F0E7DF06D8
:107EF00018F0F601B7BEE89568D007B600FCFDCFD4
:107F0000A601A0E0B1E02C9130E011968C91119780
:107F100090E0982F8827822B932B1296FA010C0160
:107F200087BEE89511244E5F5F4FF1E0A038BF0790
:107F300051F7F601A7BEE89507B600FCFDCF97BE46
:107F4000E89526C08437B1F42ED02DD0F82E2BD052
:107F50003CD0F601EF2C8F010F5F1F4F84911BD097
:107F6000EA94F801C1F70894C11CD11CFA94CF0C13
:107F7000D11C0EC0853739F428D08EE10CD085E9AC
:107F80000AD08FE07ACF813511F488E018D01DD067
:107F900080E101D065CF982F8091C00085FFFCCF94
:107FA0009093C60008958091C00087FFFCCF809118
:107FB000C00084FD01C0A8958091C6000895E0E648
:107FC000F0E098E1908380830895EDDF803219F02E
:107FD00088E0F5DFFFCF84E1DECF1F93182FE3DFCA
:107FE0001150E9F7F2DF1F91089580E0E8DFEE27F6
:047FF000FF270994CA
:027FFE00040479
:0400000300007E007B
:00000001FF