:100000000C9443080C946B080C946B080C946B08CC
:100010000C946B080C946B080C946B080C946B0894
:100020000C946B080C946B080C946B080C9474196A
:100030000C946B080C946B080C946B080C946B0874
:100040000C9412190C946B080C94DA180C94B418D4
:100050000C946B080C946B080C946B080C946B0854
:100060000C946B080C946B08000000002300260021
:100070002900010000000000010000000000000055
:100080000000010001000100010001000100010069
:10009000010000000000000001000000000000005E
:1000A000000000000000000000000100010000004E
:1000B000000000000000000000000000000001003F
:1000C000010000000100010001000000010001002A
:1000D000010000000000000000000000000001001E
:1000E000010000000000010001000100010001000A
:1000F00001000000000000000000000000000100FE
:1001000001000100000000000000010001000000EB
:1001100000000000000000000000000000000100DE
:1001200001000100000001000100010000000100C9
:1001300001000000000000000000000000000100BD
:1001400001000100010001000100010000000100A8
:10015000010000000000000000000000000000009E
:10016000000000000000000000000100010001008C
:10017000010000000000000000000000000001007D
:100180000100010001000100010001000100010067
:10019000010000000000000000000000000001005D
:1001A0000100010000000100010001000100010048
:1001B000010000000000000000000000000001003D
:1001C0000100010001000000000001000100010029
:1001D000010000000100000000000100000001001B
:1001E000000000000000010001000100010001000A
:1001F00001000000000000000000000000000000FE
:1002000000000100010001000100000000000100E9
:1002100001000000010000000000010000000000DB
:1002200000000000000001000100010001000100C9
:1002300001000000000000000000000000000000BD
:1002400001000100010001000100000000000100A8
:10025000010000000000000000000000000000009D
:10026000010001000100000000000000000001008A
:10027000010000000000000000000000000001007C
:100280000000010001000100010001000000010068
:10029000010000000000000000000000000001005C
:1002A0000100010001000000000001000100000049
:1002B000000000000100000000000100000000003C
:1002C000000000000000010001000000000001002B
:1002D000010000000000000000000000000000001D
:1002E0000000000001000100010001000100000009
:1002F00000000000000001000100000000000000FC
:1003000001000100010000000000000000000000EA
:1003100000000000000000000000000000000000DD
:1003200000000100010001000100000000000000C9
:1003300000000000000000000100000001000000BB
:1003400000000100010000000000010001000000A9
:10035000000000000000010000000000010000009B
:100360000000010001000000000001000100000089
:10037000000000000000000000000000000000007D
:100380000000010001000100010001000100010066
:10039000010000000000000000000000000001005B
:1003A0000100010001000000000000000100010048
:1003B000010000000000010000000000000000003B
:1003C0000000010001000100010001000100010026
:1003D000010000000000010000000000000001001A
:1003E0000100010001000000000000000100010008
:1003F00001000000000000000000000000000100FB
:1004000001000100000001000100010000000100E6
:1004100001000000010000000000010000000000D9
:1004200000000000000000000000000000000100CB
:1004300001000000000000000000000000000000BB
:1004400000000100010001000100010001000000A6
:10045000000001000000000001000000000000009A
:10046000000001000100000000000000000000008A
:10047000000001000000010000000000000000007A
:100480000000010001000000000001000100000068
:100490000000010000000100010000000100000058
:1004A000000000000000000000000000000000004C
:1004B000000000000100000000000000000001003A
:1004C0000100010000000000000000000100000029
:1004D000000001000000000001000000000000001A
:1004E0000000000000000100010000000000010009
:1004F00001000000000000000000000000000000FB
:1005000000000000000000000000000000000000EB
:1005100000000000000000000000000000000000DB
:1005200000000100000000000000000001000000C9
:1005300000000000010000000000010000000100B8
:1005400001000000000001000100010001000000A6
:100550000000000001000000000001000000010098
:100560000100010000000100010001000000010085
:100570000100010001000000010001000000010075
:100580000100010000000000010001000000000067
:100590000100000000000100000000000100010057
:1005A0000100000001000100010000000000010046
:1005B0000100000000000000010000000000000039
:1005C000000000000000000000000000000000002B
:1005D0000000000000000100010000000000000019
:1005E000000000000000000000000000000000000B
:1005F00000000100000000000000000001000000F9
:1006000000000000000000000000000000000000EA
:1006100000000100010001000100010001000100D3
:1006200001000000000000000000000000000000C9
:1006300000000000010000000000010000000100B7
:1006400001000000000000000000000000000000A9
:100650000000010000000000000000000000000099
:10066000000000000000000000000000000000008A
:100670000000000000000000000000000000010079
:100680000100000000000000000000000000000069
:100690000000010000000000010000000000000058
:1006A000000000000000000000000000000000004A
:1006B000000000000000000000000000000000003A
:1006C0000000000000000100000000000000000029
:1006D0000100010000000000000000000000000018
:1006E000000000000000000000000000000000000A
:1006F00001000000000000000000000000000000F9
:1007000001000100000000000000000000000000E7
:1007100001000000000000000000000000000100D7
:1007200001000000000000000000000000000100C7
:1007300001000000000000000000000000000100B7
:1007400000000000000000000000000001000100A7
:100750000000000001000000000000000000010097
:100760000000000000000000000000000100010087
:100770000100010000000000000000000000000077
:100780000100000001000100010001000100010062
:100790000100000000000100000000000100000056
:1007A0000000000000000000000000000000000049
:1007B0000000000000000000010000000000000038
:1007C0000000000000000000000000000100000028
:1007D0000000000000000000000000000000000019
:1007E0000000000000000100010000000000000007
:1007F00000000000000000000000000000000000F9
:1008000000000000000000000000010001000000E6
:1008100000000000000000000000000000000000D8
:1008200000000000000000000000000000000000C8
:1008300000000000000000000000000000000000B8
:1008400000000000000000000000000000000100A7
:100850000100000000000000000000000000000097
:100860000000000000000000000000000100000087
:100870000000000000000000000000000000000078
:100880000000000000000000000001000000000067
:100890000000000000000000000000000000000058
:1008A0000000000000000100010000000000000046
:1008B0000000000000000000000000000000000038
:1008C0000000000001000000000000000000000027
:1008D0000000000000000000000000000000000018
:1008E0000000010000000000000000000000000007
:1008F00000000000000000000000000000000100F7
:1009000001000000000000000000000000000000E6
:1009100000000000000000000000000000000000D7
:1009200000000000010000000000010000000000C5
:1009300000000000000000000000000000000000B7
:1009400000000100000000000000000001000000A5
:100950000000000000000000000000000000000097
:100960000000010001000100010001000100000081
:100970000000000000000000000000000000000077
:100980000000010001000100010001000000010061
:100990000100000000000000000000000000000056
:1009A0000000010001000100010000000100010041
:1009B0000100000000000000000000000000000036
:1009C0000000010001000000000001000100010022
:1009D0000100000000000000000000000000000016
:1009E0000000010000000100010001000100010001
:1009F00001000000000000000000000000000000F6
:100A000000000000010001000100010001000100E0
:100A100001000000000000000000000000000000D5
:100A200000000100010001000100010001000100BF
:100A300001000000000000000000000000000000B5
:100A400000000000000000000000000001000100A4
:100A50000100000000000000000000000000000095
:100A60000000000000000000000001000100010083
:100A70000100000000000000000000000000000075
:100A80000000000000000100010001000100010061
:100A90000100000000000000000000000000000055
:100AA0000000000001000100010001000100010040
:100AB0000100000000000000000000000000000035
:100AC000000001000100010001000100010001001F
:100AD0000100000000000000000000000000010014
:100AE00001000100010001000100010001000100FE
:100AF00001000000010001000100010001000100EF
:100B000000000000000000000000010001000000E3
:100B100000000100000001000100000001000100D0
:100B200000000100000000000100010001000100C0
:100B300000000100010000000000010001000000B1
:100B400000000100010000000100010000000100A0
:100B5000000001000100010001000100000001008F
:100B60000000000000000000000001000100010082
:100B7000000001000100010001000100010001006E
:100B8000000001000100000001000100010001005F
:100B9000000001000100010000000100010001004F
:100BA0000000010001000100010001000000000040
:100BB0000000000001000100010000000000010031
:100BC0000000010000000100010001000100000020
:100BD0000000010001000100010000000000010010
:100BE0000000010001000100000000000000010001
:100BF00000000000010001000100010000000100F0
:100C000000000100010001000000010000000000E0
:100C100000000000010001000000000000000000D2
:100C200000000000000001000100010001000000C0
:100C300000000100010001000000010000000100AF
:100C400000000000010001000100000000000000A1
:100C50000000000000000100000001000000010091
:100C6000000000000100010000000100010001007F
:100C7000000000000100010001000100010001006E
:100C8000000001000100010000000000010001005F
:100C9000000001000100000000000100010001004F
:100CA0000000000001000100000000000100010040
:100CB000000001000100000001000100000001002F
:100CC0000000010001000100010000000000000020
:100CD000000000000100010001000100010000000F
:100CE0000000000001000000010001000100000000
:100CF00000000000010000000100000001000000F1
:100D000000000100010001000000010001000000DE
:100D100000000100010000000100010001000000CE
:100D200000000100000000000100000001000100BF
:100D300000000000000000000000000000000000B3
:100D400000000000010000000000000001000000A1
:100D5000000000000100010000000100010000008F
:100D6000000001000100000001000000000001007F
:100D7000000000000100000001000100000001006F
:100D8000000001000100010001000000010001005D
:100D90000000000000000000000000000100000052
:100DA000000000000100010001000000000001003F
:100DB000000000000000000001000100010001002F
:100DC000000001000100000000000000010001001F
:100DD0000000010001000100000000000000000010
:100DE0000000000000000000010001000000000001
:100DF00000000100000000000000000000000000F2
:100E000000000100000000000000000001000000E0
:100E100000000100000000000100000000000000D0
:100E200000000100000000000100010000000000BF
:100E300000000100010000000000000000000100AF
:100E400000000100000000000000000000000100A0
:100E5000000001000000000000000000010001008F
:100E6000000001000000010000000000010001007E
:100E7000000001000000010001000100010001006C
:100E80000000010001000000000000000000000060
:100E9000000000000100000000000000010001004F
:100EA0000000000000000000010000000000000041
:100EB0000000000000000000000000000100000031
:100EC0000100000000000000000000000000000021
:100ED0000100000000000000000000000000010010
:100EE0000000000000000000000000000100000001
:100EF00000000000000000000000010000000000F1
:100F000000000000000000000100000000000000E0
:100F100000000000000001000000000000000000D0
:100F200000000000010000000000000000000000C0
:100F300000000100000000000000000000000000B0
:100F4000000000000000010000000100000000009F
:100F5000000000000100000000000000010000008F
:100F6000000000000100010001000100010000007C
:100F7000000000000100010001000100000001006C
:100F8000000000000100010001000000010001005C
:100F9000000000000100010000000100010001004C
:100FA000000000000100000001000100010001003C
:100FB000000000000000010001000100010001002C
:100FC000000000000100010001000100010001001B
:100FD000000000000000000000000000010001000F
:100FE00000000000000000000000010001000100FE
:100FF00000000000000000000100010001000100ED
:1010000000000000000001000100010001000100DB
:1010100000000000010001000100010001000100CA
:1010200000000100010001000100010001000100B9
:10103000000000000000240027002A00000000003B
:10104000250028002B000404040404040404020204
:101050000202020203030303030301020408102037
:101060004080010204081020010204081020000042
:101070000008000201000003040700000000000057
:101080000000A1196D1911241FBECFEFD8E0DEBFFB
:10109000CDBF11E0A0E0B1E0E0E7F8E302C00590C9
:1010A0000D92AC31B107D9F722E0ACE1B1E001C05B
:1010B0001D92AF37B207E1F718E0C2E4D8E004C0F0
:1010C0002197FE010E94331AC134D107C9F70E944B
:1010D000AB180C942B1C0C9400000895CF92DF9257
:1010E000EF92FF920F931F93CF93DF938C01DB015D
:1010F000D0E0C0E07A0181E0E81AF108452BA1F0C8
:10110000F80180819181FC01208131816D01FFEF27
:10111000CF1ADF0A6C91C801F9010995892B21F0DA
:101120002196A701D601E6CFCE01DF91CF911F9185
:101130000F91FF90EF90DF90CF90089508956FEF9B
:101140007FEF81E090E00E94A6080895019709F0E2
:1011500008956F3F7F4FE1F7EEEDF1E013821282C9
:1011600088EE93E0A0E0B0E084839583A683B78304
:101170008AE091E09183808385EC90E09587848775
:1011800084EC90E09787868780EC90E0918B808B51
:1011900081EC90E0938B828B82EC90E0958B848B3A
:1011A00086EC90E0978B868B118E128E138E148EA8
:1011B000CFCFFC01938D848D981720F4891B990B58
:1011C000019708952FE330E0291B3109820F932FF7
:1011D000911D0895FC01918D828D981761F0A28D6B
:1011E000AE0FBF2FB11D5D968C91928D9F5F9F7347
:1011F000928F90E008958FEF9FEF0895FC01918DFD
:10120000828D981731F0828DE80FF11D858D90E069
:1012100008958FEF9FEF0895FC01218D30E0205C51
:101220003F4F828DA901481B5109CA018F7399272D
:1012300008958EED91E00E940C0921E0892B09F4BC
:1012400020E0822F0895CF92DF92EF92FF921F93BA
:10125000CF93DF93EC016A017B01122F60E079E00C
:101260008DE390E0A70196010E94111A21503109E7
:10127000410951095695479537952795E889F98988
:1012800082E08083C11481EED806E104F10421F0EC
:10129000211580E1380798F0E889F989108260E823
:1012A00074E88EE190E0A70196010E94111A215086
:1012B0003109410951095695479537952795EC8590
:1012C000FD853083EE85FF852083188EEC89FD89AE
:1012D0001083EA89FB89808180618083EA89FB89A8
:1012E000808188608083EA89FB898081806880832F
:1012F000EA89FB8980818F7D8083DF91CF911F9167
:10130000FF90EF90DF90CF900895FC01A48DA80F7F
:10131000B92FB11DA35ABF4F2C91848D90E0019637
:101320008F739078848FA689B7892C93A089B1890F
:101330008C91837080648C93938D848D9813089521
:101340000288F389E02D80818F7D8083F8CF0F9311
:101350001F93CF93DF93EC0181E0888F9B8D8C8D61
:101360009817B1F0062F8B8D90E001968F739078CF
:10137000182F8C8D81131EC00FB607FCFACFE88999
:10138000F989808185FFF5CFCE010E948509F1CFD3
:10139000E889F989808185FFE5CF9FB7F894EE89C8
:1013A000FF896083E889F989808183708064808304
:1013B0009FBF10C0EB8DEC0FFD2FF11DE35AFF4FC7
:1013C00000839FB7F8941B8FEA89FB898081806234
:1013D00080839FBF81E090E0DF91CF911F910F91BB
:1013E0000895CF93DF93EC01888D811104C00DC067
:1013F0000FB607FE0DC0EA89FB89808185FDF8CF15
:10140000A889B9898C9186FFF3CFDF91CF91089598
:10141000808185FFF0CFE889F989808185FFEBCF56
:10142000CE010E948509E7CF80E090E0892B21F072
:101430000E941909811101C008950E940000FCCF8B
:101440008330B1F060F08730E9F0883009F1843002
:1014500021F5E0E8F0E080818F7D80830895813080
:1014600069F0823021F484B58F7D84BD089508959C
:10147000E0E8F0E080818F778083089584B58F77EE
:1014800084BD0895E0EBF0E080818F77808308953C
:10149000E0EBF0E080818F7D808308951F93CF93F0
:1014A000DF93282F30E0F901E259FF4E8491F901D2
:1014B000E65AFF4E1491F901EA5BFF4EC491CC232A
:1014C000A9F0D62F811116C0EC2FF0E0EE0FFF1F10
:1014D000E45CFF4EA591B4918FB7F894D1110DC083
:1014E0009C91E12FE095E923EC938FBFDF91CF91A1
:1014F0001F9108950E94200AE7CFEC91E12BEC9315
:10150000F4CFCF93DF9390E0FC01E65AFF4E249195
:101510008A5B9F4EFC018491882319F190E0880F2B
:10152000991FFC01EE5CFF4EA591B491FC01E45CB7
:10153000FF4EC591D491662349F06230A9F08FB770
:10154000F894EC91E22BEC938FBF0BC09FB7F8940B
:101550008C91E22FE0958E238C938881E823E88399
:101560009FBFDF91CF9108959FB7F8943C91822F50
:10157000809583238C93E881E22BE8839FBFF1CF92
:10158000789484B5826084BD84B5816084BD85B55E
:10159000826085BD85B5816085BDEEE6F0E0808125
:1015A00081608083E1E8F0E0108280818260808346
:1015B000808181608083E0E8F0E0808181608083C9
:1015C000E1EBF0E0808184608083E0EBF0E08081FB
:1015D00081608083EAE7F0E080818460808380819D
:1015E0008260808380818160808380818068808345
:1015F0001092C10008953FB7F8948091DA0190915C
:10160000DB01A091DC01B091DD0126B5A89B05C0EE
:101610002F3F19F00196A11DB11D3FBFBA2FA92F71
:10162000982F8827BC01CD01620F711D811D911D6E
:10163000660F771F881F991F660F771F881F991FD6
:1016400008958F929F92AF92BF92CF92DF92EF92C6
:10165000FF926B017C010E94FB0A4B015C011BC0E5
:1016600021E0C21AD108E108F10888EE880E83E073
:10167000981EA11CB11CC114D104E104F10459F05D
:101680000E94FB0A681979098A099B09683E734020
:101690008105910528F7C114D104E104F10459F73B
:1016A000FF90EF90DF90CF90BF90AF909F908F9082
:1016B00008952FB7F8946091D6017091D701809169
:1016C000D8019091D9012FBF0895CF93DF93EC01FA
:1016D00061E08CA50E944E0A61E070E080E090E03D
:1016E0000E94210B60E08CA50E944E0ADF91CF91F1
:1016F0000895CF93DF93EC0161E08AA50E944E0A22
:1017000061E070E080E090E00E94210B60E08AA53B
:101710000E944E0ADF91CF910895EF92FF920F93AE
:101720001F93CF93DF93EC018B018AAD9BAD833088
:10173000910599F1039709F459C08AAD9BAD8630A4
:10174000910509F481C08630910509F4B8C0813053
:10175000910509F4F3C08130910509F42DC182305F
:10176000910509F482C18230910509F4C3C1843026
:10177000910509F423C28430910509F49EC2853095
:10178000910509F458C3059709F4E7C3DF91CF9198
:101790001F910F91FF90EF9008952CAD222351F2ED
:1017A0001FA21EA28EA19FA188309105DCF4F80132
:1017B000E295F295F07FFE27E07FFE27EE50F54F91
:1017C000880F991FE80FF91F6591749188A50E94F1
:1017D0004E0ACE010E94790B8EA19FA101969FA374
:1017E0008EA3E0CFCE010E94650BA7CF8CAD8111F7
:1017F000A4CF1FA21EA20AC00E944E0ACE010E94C0
:10180000790B8EA19FA101969FA38EA38EA19FA16C
:1018100088309105ACF4F801E295F295F07FFE274F
:10182000E07FFE27EE50F54F880F991FE80FF91F54
:101830002591349188A561E0232BF1F260E0DCCFA3
:10184000CE010E94650B79CF2CAD222309F47BCF0A
:101850001FA21EA28EA19FA180319105DCF4F80188
:10186000E295F295F07FFE27E07FFE27EE50F54FE0
:10187000880F991FE80FF91F6591749188A50E9440
:101880004E0ACE010E94790B8EA19FA101969FA3C3
:101890008EA3E0CFCE010E94650B8EA59FA5992354
:1018A0000CF474CF0C5311090230110520F060E0E4
:1018B0000E944E0A6BCF61E00E944E0A67CF2CADAA
:1018C000211145CF1FA21EA20AC00E944E0ACE01BE
:1018D0000E94790B8EA19FA101969FA38EA38EA13A
:1018E0009FA180319105ACF4F801E295F295F07F6B
:1018F000FE27E07FFE27EE50F54F880F991FE80F77
:10190000F91F2591349188A561E0232BF1F260E065
:10191000DCCFCE010E94650B8EA59FA599230CF408
:1019200035CF0C5311090230110520F061E00E94FF
:101930004E0A2CCF60E00E944E0A28CF2CAD222305
:1019400009F409CF02951295107F1027007F102708
:101950000E50154FF801659174918C850E944E0AC6
:10196000F8013296659174918A850E944E0AF801B9
:1019700034966591749188850E944E0AF8013696D6
:10198000659174918E810E944E0AF8013896659196
:1019900074918C810E944E0AF8013A966591749177
:1019A0008A810E944E0A045F1F4FF801659174916D
:1019B00088810E944E0AEACE2CAD2111D0CE02952C
:1019C0001295107F1027007F10270E50154FF80139
:1019D000259134918C8561E0232B09F060E00E9411
:1019E0004E0AF8013296259134918A8561E0232BC5
:1019F00009F060E00E944E0AF80134962591349176
:101A0000888561E0232B09F060E00E944E0AF8010E
:101A10003696259134918E8161E0232B09F060E0A8
:101A20000E944E0AF8013896259134918C8161E02C
:101A3000232B09F060E00E944E0AF8013A962591A6
:101A400034918A8161E0232B09F060E00E944E0A04
:101A5000045F1F4FF80125913491888161E0232BA9
:101A600009F060E00E944E0A91CE2CAD222309F4C9
:101A70007ACE02951295107F1027007F10270E5006
:101A8000154FF801659174918C850E944E0AF801FA
:101A90003296659174918A850E944E0AF8013496B7
:101AA0006591749188850E944E0AF8013696659179
:101AB00074918E810E944E0AF80138966591749156
:101AC0008C810E944E0AF8013A96659174918A8140
:101AD0000E944E0AF8013C966591749188810E949B
:101AE0004E0A025F1F4FF801659174918EA50E9406
:101AF0004E0A4CCE2CAD21113ACE02951295107F94
:101B00001027007F10270E50154FF80125913491B2
:101B10008C8561E0232B09F060E00E944E0AF801F9
:101B20003296259134918A8561E0232B09F060E09B
:101B30000E944E0AF801349625913491888561E01F
:101B4000232B09F060E00E944E0AF8013696259199
:101B500034918E8161E0232B09F060E00E944E0AEF
:101B6000F8013896259134918C8161E0232B09F09E
:101B700060E00E944E0AF8013A96259134918A81DC
:101B800061E0232B09F060E00E944E0AF8013C96C8
:101B900025913491888161E0232B09F060E00E9457
:101BA0004E0A025F1F4FF801259134918EA561E026
:101BB000232B09F060E00E944E0AE8CD2CAD2223D1
:101BC00009F4D9CD000F111F02951295107F10272F
:101BD000007F10270E581F4FF801659174918CA15A
:101BE0000E944E0AF8013296659174918AA10E9472
:101BF0004E0AF80134966591749188A10E944E0AAC
:101C0000F8013696659174918E8D0E944E0AF80106
:101C10003896659174918C8D0E944E0AF8013A961F
:101C2000659174918A8D0E944E0AF8013C966591E7
:101C300074918E890E944E0AF8013E9665917491C6
:101C40008E890E944E0AF8017096659174918A857A
:101C50000E944E0AF80172966591749188850E94DF
:101C60004E0AF8017496659174918C890E944E0A0F
:101C7000F8017696659174918A890E944E0AF8015E
:101C80007896659174918C810E944E0AF8017A963B
:101C9000659174918A810E944E0AF8017C96659143
:101CA000749188890E944E0A025E1F4FF801659167
:101CB00074918E850E944E0A69CD2CAD21115FCDA5
:101CC000000F111F02951295107F1027007F10271B
:101CD0000E581F4FF801259134918CA161E0232B00
:101CE00009F060E00E944E0AF80132962591349185
:101CF0008AA161E0232B09F060E00E944E0AF801FE
:101D000034962591349188A161E0232B09F060E09D
:101D10000E944E0AF8013696259134918E8D61E02D
:101D2000232B09F060E00E944E0AF80138962591B5
:101D300034918C8D61E0232B09F060E00E944E0A03
:101D4000F8013A96259134918A8D61E0232B09F0B0
:101D500060E00E944E0AF8013C96259134918E89EC
:101D600061E0232B09F060E00E944E0AF8013E96E4
:101D7000259134918E8961E0232B09F060E00E9467
:101D80004E0AF8017096259134918A8561E0232BE3
:101D900009F060E00E944E0AF80172962591349194
:101DA000888561E0232B09F060E00E944E0AF8016B
:101DB0007496259134918C8961E0232B09F060E0C1
:101DC0000E944E0AF8017696259134918A8961E045
:101DD000232B09F060E00E944E0AF80178962591C5
:101DE00034918C8161E0232B09F060E00E944E0A5F
:101DF000F8017A96259134918A8161E0232B09F0CC
:101E000060E00E944E0AF8017C9625913491888901
:101E100061E0232B09F060E00E944E0A025E1F4F32
:101E2000F801259134918E8561E0232B09F060E063
:101E30000E944E0AABCC2CAD222309F4A4CCF801AD
:101E4000EE0FFF1FE295F295F07FFE27E07FFE2761
:101E5000CF018E589F4F7C01FC01659174918CA13C
:101E60000E944E0AF7013296659174918AA10E94F0
:101E70004E0AF70134966591749188A10E944E0A2A
:101E8000F7013696659174918E8D0E944E0AF70186
:101E90003896659174918C8D0E944E0AF7013A969E
:101EA000659174918A8D0E944E0AF7013C96659166
:101EB00074918E890E944E0AF7013E966591749145
:101EC0008E890E944E0AF7017096659174918A85F9
:101ED0000E944E0AF70172966591749188850E945E
:101EE0004E0AF7017496659174918C890E944E0A8E
:101EF000F7017696659174918A890E944E0AF701DE
:101F00007896659174918C810E944E0AF7017A96B9
:101F1000659174918A810E944E0AF7017C966591C1
:101F2000749188890E944E0AF7017E96659174919A
:101F30008E850E944E0A8EA59FA599230CF426CC6F
:101F40000C5311090230110520F060E00E944E0A86
:101F50001DCC61E00E944E0A19CC8CAD811116CCCB
:101F6000F801EE0FFF1FE295F295F07FFE27E07F6C
:101F7000FE27CF018E589F4F7C01FC0125913491A3
:101F80008CA161E0232B09F060E00E944E0AF7016A
:101F90003296259134918AA161E0232B09F060E00B
:101FA0000E944E0AF70134962591349188A161E090
:101FB000232B09F060E00E944E0AF7013696259126
:101FC00034918E8D61E0232B09F060E00E944E0A6F
:101FD000F7013896259134918C8D61E0232B09F01F
:101FE00060E00E944E0AF7013A96259134918A8D5D
:101FF00061E0232B09F060E00E944E0AF7013C9655
:10200000259134918E8961E0232B09F060E00E94D4
:102010004E0AF7013E96259134918E8961E0232B7B
:1020200009F060E00E944E0AF70170962591349104
:102030008A8561E0232B09F060E00E944E0AF701D7
:10204000729625913491888561E0232B09F060E038
:102050000E944E0AF7017496259134918C8961E0B3
:10206000232B09F060E00E944E0AF7017696259135
:1020700034918A8961E0232B09F060E00E944E0AC6
:10208000F7017896259134918C8161E0232B09F03A
:1020900060E00E944E0AF7017A96259134918A8178
:1020A00061E0232B09F060E00E944E0AF7017C9664
:1020B00025913491888961E0232B09F060E00E942A
:1020C0004E0AF7017E96259134918E8561E0232B8F
:1020D00009F060E00E944E0A8EA59FA599230CF49A
:1020E00055CB0C5311090230110520F061E00E941C
:1020F0004E0A4CCB60E00E944E0A48CBFC0162AB1A
:10210000603309F467C0613309F469C0623309F4CC
:102110006BC0633309F46DC0643309F46FC0653379
:1021200009F471C0663309F473C0673309F475C0EC
:10213000683309F477C0693309F479C0613409F46C
:102140007BC0613609F478C0623409F47AC0623623
:1021500009F477C0633409F479C0633609F476C0B2
:10216000643409F478C0643609F475C0653409F440
:1021700077C0653609F474C0663409F476C06636F3
:1021800009F473C0673409F475C0673609F472C086
:10219000683409F474C0683609F471C0693409F40C
:1021A00073C0693609F470C06A3409F472C06A36C3
:1021B00009F46FC06B3409F471C06B3609F46EC05A
:1021C0006C3419F06C3609F06EC065E170E00E9465
:1021D0008D0B089570E060E00E948D0B089561E022
:1021E00070E00E948D0B089562E070E00E948D0BFC
:1021F000089563E070E00E948D0B089564E070E044
:102200000E948D0B089565E070E00E948D0B08958B
:1022100066E070E00E948D0B089567E070E00E9418
:102220008D0B089568E070E00E948D0B089569E0C1
:1022300070E00E948D0B08956AE070E00E948D0BA3
:1022400008956BE070E00E948D0B08956CE070E0E3
:102250000E948D0B08956DE070E00E948D0B089533
:102260006EE070E00E948D0B08956FE070E00E94B8
:102270008D0B089560E170E00E948D0B089561E17F
:1022800070E00E948D0B089562E170E00E948D0B5A
:10229000089563E170E00E948D0B089564E170E0A1
:1022A0000E948D0B08956D3479F06D3669F06E34AF
:1022B00081F06E3671F06F3411F06F3679F468E1A9
:1022C00070E00E948D0B089566E170E00E948D0B16
:1022D000089567E170E00E948D0B0895603511F05C
:1022E000603729F469E170E00E948D0B0895613533
:1022F00011F0613729F46AE170E00E948D0B0895B6
:10230000623511F0623729F46BE170E00E948D0BA9
:102310000895633511F0633729F46CE170E00E9491
:102320008D0B0895643511F0643729F46DE170E088
:102330000E948D0B0895653511F0653729F46EE123
:1023400070E00E948D0B0895663511F0663729F410
:102350006FE170E00E948D0B0895673511F06737CB
:1023600029F460E270E00E948D0B0895683511F049
:10237000683729F461E270E00E948D0B0895693599
:1023800011F0693729F462E270E00E948D0B089524
:102390006A3511F06A3729F463E270E00E948D0B10
:1023A0000895603229F464E270E00E948D0B089574
:1023B000623229F465E270E00E948D0B0895633269
:1023C00029F466E270E00E948D0B0895643229F4CE
:1023D00067E270E00E948D0B0895653229F468E28F
:1023E00070E00E948D0B0895663229F469E270E076
:1023F0000E948D0B0895673211F0603629F46AE26D
:1024000070E00E948D0B0895683221F06B3511F059
:102410006B3729F46BE270E00E948D0B08956932EE
:1024200021F06D3511F06D3729F46CE270E00E94F7
:102430008D0B08956A3229F46DE270E00E948D0BD5
:1024400008956B3229F46EE270E00E948D0B0895BE
:102450006C3229F46FE270E00E948D0B08956D32AA
:1024600011F06E3729F460E370E00E948D0B08953F
:102470006F3229F461E370E00E948D0B08956A3396
:1024800029F462E370E00E948D0B08956B3329F408
:1024900063E370E00E948D0B08956C3329F464E3CC
:1024A00070E00E948D0B08956D3329F465E370E0B0
:1024B0000E948D0B08956E3329F466E370E00E944C
:1024C0008D0B08956F3329F467E370E00E948D0B44
:1024D0000895603429F468E370E00E948D0B08953C
:1024E0006C3529F469E370E00E948D0B08956E3518
:1024F00029F46AE370E00E948D0B08956F3529F48A
:102500006BE370E00E948D0B0895613269F422AD97
:1025100033AD2130310541F02430310529F06CE331
:1025200070E00E948D0B08956E3269F4FC0122ADBB
:1025300033AD2130310539F02430310521F06DE320
:1025400070E00E948D0B08950F931F93CF93DF933C
:102550008C01FC0171AB60ABC1E0D0E0F80180A957
:1025600091A98C179D0764F060E2C8010E947E105B
:102570006AE070E080E090E00E94210B2196EECFAF
:1025800064E670E080E090E00E94210BDF91CF9143
:102590001F910F910895CF92DF92EF92FF920F93C8
:1025A0001F93CF93DF93EC01898182FD16C085FDD7
:1025B00014C0EC89FD8980819E89892321E009F07E
:1025C00020E0898181FB992790F983FB882780F996
:1025D000892791E0281799F09A8B0E94590B4A8914
:1025E000442349F12B89211126C0288120FD09C0EF
:1025F000216028836E877F87888B998B1FC090E02E
:10260000EBCF0E851F85288939896B017C01C01AA3
:10261000D10AE20AF30A0B811C8130E020E0C016E7
:10262000D106E206F30650F021E02B8B28812062D0
:102630002068288303C028812E7F2883411120C071
:102640002B892223E9F01B8A288121FD03C02B85D9
:102650002F5F2B8728812D7F206128836E877F87BE
:10266000888B998B26FF04C01C861B862F7B2883B2
:10267000288122232CF42F77288329812160298324
:102680002B89222309F14423F9F00E851F8528891F
:1026900039896B017C01C01AD10AE20AF30A0D8163
:1026A0001E8130E020E0C016D106E206F30660F09D
:1026B000288121FD09C03B853D872A642F77288327
:1026C0006E877F87888B998B0E851F85288939892E
:1026D000601B710B820B930B0F81188530E020E09B
:1026E000601771078207930750F08B85882339F0B4
:1026F000411105C08C871B8688818460888389810D
:1027000086FF07C01C8688818B7F888389818F7BA9
:102710008983DF91CF911F910F91FF90EF90DF9010
:10272000CF900895CF93DF93EC01898184FD0DC094
:10273000988192FB882780F992FF04C09C85913094
:1027400041F080E0DF91CF910895CE010E94CB123D
:10275000EFCF998190649983F5CFFC01218160FBD3
:1027600024F921830895CF93DF93EC01998160FBD5
:1027700093F9998395FD1AC06623D9F060E08A81A8
:102780000E94810A8A8190E0FC01EA5BFF4EE4919D
:10279000F0E0EE0FFF1FE859FF4F259134913D8B7C
:1027A0002C8BFC01E65AFF4EE491EE8BDF91CF912A
:1027B000089562E08A810E94810AE4CF1F93CF933B
:1027C000DF93EC01122F1A828CE390E09C838B83C1
:1027D00084EF91E09E838D8398878F8380E991E0D9
:1027E0009A8789871B861C861D861E861F86188AE7
:1027F000198A1A8A1B8A6F3F89F06A8389818F7DC3
:102800008983642FCE010E94B31389818B7E10FBD4
:1028100081F98983DF91CF911F9108958981806229
:102820008983EFCFEF92FF920F931F93CF93DF93A4
:1028300000D01F92CDB7DEB79B838A834115510527
:102840006105710559F04130510520E462077105B9
:1028500048F040E050E060E470E004C041E050E047
:1028600060E070E0CB01BA01660F771F881F991FE7
:10287000660F771F881F991F660F771F881F991F84
:10288000660F771F881F991F61157105E1E08E079C
:102890009105D8F061157105F8E08F07910508F4EE
:1028A0005DC06115710520E48207910508F45DC0E3
:1028B000611571058105E1E09E0708F05DC0E12C1E
:1028C000FF24F394F4E0F98305C0EE24E394F12CA3
:1028D00021E02983611571058105E4E09E0708F078
:1028E00052C0970150E040E00E94111A8901E0E8CF
:1028F000F0E08081807F808389818861E1E8F0E079
:102900008083C8010197909387008093860080811F
:102910008770EA81FB818083970150E040E060E0AE
:1029200074E284EF90E00E94BB19CA01B9019801DA
:1029300050E040E00E94BB1960E472E48FE090E058
:102940000E94111ACA01B9010F900F900F90DF91E8
:10295000CF911F910F91FF90EF9008956894EE240E
:10296000E3F8F12CE2E0E983B5CF6894EE24E6F8D1
:10297000F12CF3E0F983AECFE12C6894FF24F2F858
:1029800025E02983A7CF10E000E0B1CFCF92DF92FE
:10299000EF92FF92CF93DF93EC019A01AB010F2EE0
:1029A000F0E4CF2EF2E4DF2EFFE0EF2EF12CF02D3D
:1029B000C701B6010E94111ABA01A901CE010E94F5
:1029C00012149B01AC01C701B6010E94111ACA0181
:1029D000B901DF91CF91FF90EF90DF90CF900895F4
:1029E000662319F0613039F00895EFE6F0E0808158
:1029F000826080830895EFE6F0E0808184608083C8
:102A000008956FEF7FEF81E090E00E94C616089571
:102A1000613019F0623051F008959DEC899F812D4D
:102A20001124869586958695805D08959DEC899FF5
:102A3000912D112496959695969526EF929F800D4F
:102A40001124805D0895CF9361E070E080E991E00A
:102A50000E94A41261E070E08BE491E00E94A41255
:102A600062E089E00E940815C82F682F80E991E094
:102A70000E947E106C2F8BE491E00E947E1064E631
:102A800070E080E090E00E94210B62E088E00E940C
:102A90000815C82F682F80E991E00E947E106C2FE6
:102AA0008BE491E00E947E1064E670E080E090E0AC
:102AB0000E94210B67E380E991E00E947E1067E3AA
:102AC0008BE491E00E947E1064E670E080E090E08C
:102AD0000E94210B66E380E991E00E947E1066E38C
:102AE0008BE491E00E947E1064E670E080E090E06C
:102AF0000E94210B65E380E991E00E947E1065E36E
:102B00008BE491E00E947E1064E670E080E090E04B
:102B10000E94210B64E380E991E00E947E1064E34F
:102B20008BE491E00E947E1064E670E080E090E02B
:102B30000E94210B63E380E991E00E947E1063E331
:102B40008BE491E00E947E1064E670E080E090E00B
:102B50000E94210B62E380E991E00E947E1062E313
:102B60008BE491E00E947E1064E670E080E090E0EB
:102B70000E94210B61E380E991E00E947E1061E3F5
:102B80008BE491E00E947E1064E670E080E090E0CB
:102B90000E94210B60E380E991E00E947E1060E3D7
:102BA0008BE491E00E947E10CF9108950F931F93C4
:102BB000CF93DF93EC018B016F5F7F4F8881998109
:102BC0000E945E1B009751F0998388831B830A83C0
:102BD00081E0DF91CF911F910F91089580E0F9CFAF
:102BE000CF93DF93EC0128813981232B29F02A81AF
:102BF0003B812617370770F4CE010E94D615882333
:102C000051F08C819D81892B49F4E881F9811082F2
:102C100081E001C081E0DF91CF91089581E0FBCF99
:102C2000CF93DF93EC0188819981009711F00E9486
:102C3000D51A198218821D821C821B821A82DF918A
:102C4000CF910895EF92FF920F931F93CF93DF934D
:102C5000EC017B018A01BA010E94F015882379F00A
:102C60001D830C83B701888199810E94241CCE01A9
:102C7000DF91CF911F910F91FF90EF900895CE01BA
:102C80000E941016F4CFFC0180819181009711F011
:102C90000E94D51A0895FC011182108213821282BB
:102CA000158214826115710551F0FB01019000201D
:102CB000E9F73197AF01461B570B0E942216089582
:102CC0002F923F924F925F926F927F928F929F923C
:102CD000AF92BF92CF92DF92EF92FF920F931F932A
:102CE000CF93DF931F92CDB7DEB73C01462E272E40
:102CF000542E352E922E39836AE171E0C3960E94DC
:102D00004B1661E0842D0E94810A61E0852D0E94AE
:102D1000810A61E0892D0E94810A61E0802F0E9472
:102D2000810A61E08E2D0E94810A61E08C2D0E9453
:102D3000810A61E08A2D0E94810AF301408221828A
:102D40005282338294828981858306831783E08649
:102D5000F186C286D386A486B58681E090E093AFE3
:102D600082AF84AE0F90DF91CF911F910F91FF90B2
:102D7000EF90DF90CF90BF90AF909F908F907F901B
:102D80006F905F904F903F902F9008956F927F9239
:102D90008F92AF92BF92CF92DF92EF92FF920F93FA
:102DA0001F93CF93DF93EC013B010197A1F0CD2B53
:102DB00021F46720609409F456C0DF91CF911F91F0
:102DC0000F91FF90EF90DF90CF90BF90AF908F90DA
:102DD0007F906F9008956F3F7F4F49F788248394C9
:102DE0006894AA24A3F8B12C0F2EF7E0CF2ED12C93
:102DF000F02D0F2EF6E0EF2EF12CF02D05E010E077
:102E000024E030E043E050E062E070E080E991E0EF
:102E10000E9460160F2EF1E1AF2EB12CF02D6894B8
:102E2000CC24C4F8D12C0F2EFDE0EF2EF12CF02D88
:102E30000CE010E02BE030E04AE050E069E070E0A8
:102E40008BE491E00E94601620E040E062E184E3C0
:102E500091E00E94DE1320E040E063E18DE191E02B
:102E60000E94DE13A4CF8EE791E00E94431683EC0C
:102E700091E00E944316A1CFDF92EF92FF920F9351
:102E80001F93CF93DF93CDB7DEB7A1970FB6F8941A
:102E9000DEBF0FBECDBF7C01CB01BA01D22E19A27D
:102EA00021E02D1520F48E010F5D1F4F0EC00F2E57
:102EB000FAE0DF2EF02DF7CFE95CD801EE938D011B
:102EC000611571058105910579F02D2D30E050E0F7
:102ED00040E00E94111AE62F622F732F842F952F46
:102EE000EA3054F7E05DE9CF1097F9F0FD01019069
:102EF0000020E9F73197AF014A1B5B0BD701ED9139
:102F0000FC910280F381E02DB801C7010995A196DB
:102F10000FB6F894DEBF0FBECDBFDF91CF911F91EA
:102F20000F91FF90EF90DF90089590E080E0EFCF59
:102F30002115310549F4DC01ED91FC910190F081FE
:102F4000E02D642F099508950E943C1708959A0179
:102F5000462F50E070E060E00E9498170895DC0171
:102F6000ED91FC910280F381E02D42E050E068E1B8
:102F700071E0099508950F931F93CF93DF93EC01B0
:102F80000E94A7178C01CE010E94AF17800F911FDE
:102F9000DF91CF911F910F9108956115710581F017
:102FA000FB0101900020E9F73197AF01461B570B59
:102FB000DC01ED91FC910280F381E02D09950895EB
:102FC00090E080E008950F931F93CF93DF93EC017F
:102FD0000E94CD178C01CE010E94AF17800F911F68
:102FE000DF91CF911F910F91089581E090E00E94B1
:102FF000A51962E00E940815682F80E991E00E94FF
:103000007E1082E090E00E94A51962E00E940815FF
:10301000682F8BE491E00E947E10089583E090E099
:103020000E94A519843608F4089560E081E090E0DC
:103030000E94AD1960E082E090E00E94AD1960E06E
:1030400083E090E00E94AD19EFCF26E040E855E222
:1030500060E070E08EED91E00E9423090E9423154C
:103060000E940E180E94F51761E084E391E00E942F
:10307000AD1361E08DE191E00E94AD1341E050E0BD
:1030800060E070E08CE191E00E94C61460E08CE1A9
:1030900091E00E94F0140895CF93DF9384E391E0D0
:1030A0000E949213882339F181E090E00E94A519D3
:1030B000C82F82E090E00E94A519D82FCF5FCA30B8
:1030C00008F0C0E06C2F81E090E00E94AD1962E052
:1030D0008C2F0E940815682F80E991E00E947E10D5
:1030E0008C2F880F880FC80F6C2F660F6D0F83E031
:1030F00090E00E94AD198DE191E00E949213882327
:1031000039F181E090E00E94A519D82F82E090E08B
:103110000E94A519C1E0C80FCA3008F0C0E06C2FAA
:1031200082E090E00E94AD1962E08C2F0E940815A9
:10313000682F8BE491E00E947E108D2F880F880FFE
:103140008D0F682F660F6C0F83E090E00E94AD1921
:10315000DF91CF9108950E94C00A0E9425180E9415
:103160004C180E94140AFBCF1F920F920FB60F92B9
:1031700011242F933F934F935F936F937F938F937C
:103180009F93AF93BF93EF93FF938EED91E00E94D7
:103190008509FF91EF91BF91AF919F918F917F91A1
:1031A0006F915F914F913F912F910F900FBE0F90B4
:1031B0001F9018951F920F920FB60F9211242F9304
:1031C0008F939F93AF93BF93EF93FF93E091EE01A3
:1031D000F091EF01808182FD14C0EEEDF1E0A6894F
:1031E000B7892C91818D8F5F8F73928D891771F0C4
:1031F000DF01E18DF0E0E252FE4F258F59968C936E
:1032000005C0E091F401F091F5018081FF91EF910B
:10321000BF91AF919F918F912F910F900FBE0F9003
:103220001F9018951F920F920FB60F9211240F93B3
:103230001F932F933F934F935F936F937F938F933E
:103240009F93AF93BF930091D6011091D701209126
:10325000D8013091D9019091D501B901A8014F5FF2
:103260005F4F6F4F7F4F83E0890F8D3740F086E8C7
:10327000890FB901A8014E5F5F4F6F4F7F4F809359
:10328000D5014093D6015093D7016093D801709334
:10329000D9018091DA019091DB01A091DC01B0911C
:1032A000DD010196A11DB11D8093DA019093DB0130
:1032B000A093DC01B093DD01BF91AF919F918F91FD
:1032C0007F916F915F914F913F912F911F910F913E
:1032D0000F900FBE0F901F9018956FEF7FEF90E04B
:1032E00080E00E94C61608951F920F920FB60F92AB
:1032F00011242F933F934F935F936F937F938F93FB
:103300009F93AF93BF93EF93FF9383E090E00E946E
:10331000A5194AE050E0682F8EED91E00E94BB179E
:10332000FF91EF91BF91AF919F918F917F916F919D
:103330005F914F913F912F910F900FBE0F901F9073
:1033400018950E949F080C940115F999FECF92BD23
:1033500081BDF89A992780B50895262FF999FECF57
:103360001FBA92BD81BD20BD0FB6F894FA9AF99AA2
:103370000FBE01960895052E97FB1EF400940E943F
:10338000D21957FD07D00E94111A07FC03D04EF442
:103390000C94D21950954095309521953F4F4F4F41
:1033A0005F4F089590958095709561957F4F8F4FF1
:1033B0009F4F08952F923F924F925F926F927F920C
:1033C0008F929F92AF92BF92CF92DF92EF92FF9235
:1033D0000F931F93CF93DF93CDB7DEB7CA1BDB0BE1
:1033E0000FB6F894DEBF0FBECDBF09942A88398886
:1033F00048885F846E847D848C849B84AA84B9848D
:10340000C884DF80EE80FD800C811B81AA81B98198
:10341000CE0FD11D0FB6F894DEBF0FBECDBFED01AC
:103420000895A1E21A2EAA1BBB1BFD010DC0AA1F05
:10343000BB1FEE1FFF1FA217B307E407F50720F01D
:10344000A21BB30BE40BF50B661F771F881F991F98
:103450001A9469F760957095809590959B01AC01E1
:10346000BD01CF010895EE0FFF1F0590F491E02DEF
:1034700009940F931F93CF93DF938230910510F43B
:1034800082E090E0E0917D02F0917E0230E020E069
:10349000B0E0A0E0309799F42115310509F44AC055
:1034A000281B390B24303105D8F58A819B816115A1
:1034B000710589F1FB0193838283FE0111C0408174
:1034C00051810281138148175907E0F048175907C5
:1034D00099F4109761F012960C93129713961C931F
:1034E0003296CF01DF91CF911F910F9108950093F4
:1034F0007D0210937E02F4CF2115310551F0421761
:10350000530738F0A901DB019A01BD01DF01F80181
:10351000C1CFEF01F9CF90937E0280937D02CDCF92
:10352000FE01E20FF31F81939193225031093983F9
:103530002883D7CF20917B0230917C02232B41F44A
:10354000209102013091030130937C0220937B0291
:1035500020910001309101012115310541F42DB771
:103560003EB74091040150910501241B350BE091B9
:103570007B02F0917C02E217F307A0F42E1B3F0BB5
:103580002817390778F0AC014E5F5F4F24173507D5
:1035900048F04E0F5F1F50937C0240937B02819353
:1035A00091939FCFF0E0E0E09CCFCF93DF93009723
:1035B000E9F0FC01329713821282A0917D02B09152
:1035C0007E02ED0130E020E01097A1F420813181EE
:1035D000820F931F20917B0230917C0228173907BC
:1035E00009F061C0F0937C02E0937B02DF91CF9100
:1035F0000895EA01CE17DF07E8F54A815B819E0155
:1036000041155105B1F7E901FB83EA8349915991CD
:10361000C40FD51FEC17FD0761F4808191810296DC
:10362000840F951FE90199838883828193819B830D
:103630008A83F0E0E0E012968D919C9113970097B9
:10364000B9F52D913C911197CD010296820F931FF0
:1036500020917B0230917C022817390739F6309788
:1036600051F510927E0210927D02B0937C02A093DD
:103670007B02BCCFD383C28340815181840F951FCD
:10368000C817D90761F44E5F5F4F88819981480F51
:10369000591F518340838A819B81938382832115A3
:1036A000310509F0B0CFF0937E02E0937D029ECF0A
:1036B000FD01DC01C0CF13821282D7CFB0E0A0E0C1
:1036C000E4E6FBE10C94DC198C01009751F4CB018A
:1036D0000E94391A8C01C801CDB7DEB7E0E10C9425
:1036E000F819FC01E60FF71F9C0122503109E2177F
:1036F000F30708F49DC0D901CD91DC911197C6174D
:10370000D70798F0C530D10530F3CE01049786175E
:10371000970708F3C61BD70B2297C193D1936D93DC
:103720007C93CF010E94D51AD6CF5B01AC1ABD0A9B
:103730004C018C0E9D1EA0917D02B0917E02512CF9
:10374000412CF12CE12C109731F580917B02909166
:103750007C028815990509F05CC04616570608F0EA
:1037600058C08091000190910101009741F48DB7FC
:103770009EB74091040150910501841B950BE817F9
:10378000F90708F055C0F0937C02E0937B02F90141
:1037900071836083A0CF8D919C91119712966C904C
:1037A000129713967C901397A815B90559F56C01DB
:1037B00042E0C40ED11CCA14DB0420F1AC014A194A
:1037C0005B09DA011296159780F062827382518349
:1037D0004083D9016D937C93E114F10471F0D7011A
:1037E0001396FC93EE93129776CF22968C0F9D1F23
:1037F000F90191838083F301EFCFF0937E02E09390
:103800007D0269CF4816590608F42C017D01D301C9
:103810009ACFCB010E94391A7C01009749F0AE0182
:10382000B8010E941B1CC8010E94D51A870153CF02
:1038300010E000E050CFFB01DC0102C001900D92CE
:1038400041505040D8F70895FB01DC0101900D92E2
:103850000020E1F7089518E0C2E4D8E004C0FE01BA
:103860000E94331A2196C334D107C9F7F894FFCFC9
:1038700000007F02800000000000A7096E08D90840
:0C388000F1090C09EA08FE080D0A00001E
:107E0000112484B714BE81FFF0D085E080938100F7
:107E100082E08093C00088E18093C10086E0809377
:107E2000C20080E18093C4008EE0C9D0259A86E02C
:107E300020E33CEF91E0309385002093840096BBD3
:107E4000B09BFECF1D9AA8958150A9F7CC24DD24C4
:107E500088248394B5E0AB2EA1E19A2EF3E0BF2EE7
:107E6000A2D0813461F49FD0082FAFD0023811F036
:107E7000013811F484E001C083E08DD089C08234E0
:107E800011F484E103C0853419F485E0A6D080C0E4
:107E9000853579F488D0E82EFF2485D0082F10E0AE
:107EA000102F00270E291F29000F111F8ED06801E7
:107EB0006FC0863521F484E090D080E0DECF843638
:107EC00009F040C070D06FD0082F6DD080E0C81688
:107ED00080E7D80618F4F601B7BEE895C0E0D1E017
:107EE00062D089930C17E1F7F0E0CF16F0E7DF06D8
:107EF00018F0F601B7BEE89568D007B600FCFDCFD4
:107F0000A601A0E0B1E02C9130E011968C91119780
:107F100090E0982F8827822B932B1296FA010C0160
:107F200087BEE89511244E5F5F4FF1E0A038BF0790
:107F300051F7F601A7BEE89507B600FCFDCF97BE46
:107F4000E89526C08437B1F42ED02DD0F82E2BD052
:107F50003CD0F601EF2C8F010F5F1F4F84911BD097
:107F6000EA94F801C1F70894C11CD11CFA94CF0C13
:107F7000D11C0EC0853739F428D08EE10CD085E9AC
:107F80000AD08FE07ACF813511F488E018D01DD067
:107F900080E101D065CF982F8091C00085FFFCCF94
:107FA0009093C60008958091C00087FFFCCF809118
:107FB000C00084FD01C0A8958091C6000895E0E648
:107FC000F0E098E1908380830895EDDF803219F02E
:107FD00088E0F5DFFFCF84E1DECF1F93182FE3DFCA
:107FE0001150E9F7F2DF1F91089580E0E8DFEE27F6
:047FF000FF270994CA
:027FFE00040479
:0400000300007E007B
:00000001FF