:100000000C943A010C946B010C946B010C946B01F1
:100010000C946B010C946B010C946B010C946B01B0
:100020000C946B010C946B010C946B010C946B01A0
:100030000C946B010C946B010C946B010C946B0190
:100040000C946B010C946B010C946B010C946B0180
:100050000C946B010C946B010C946B010C944A088A
:100060000C946B010C9414080C94EA070C946B012B
:100070000C946B010C946B010C946B010C946B0150
:100080000C946B010C946B010C946B010C946B0140
:100090000C946B010C946B010C946B010C94940800
:1000A0000C946B010C946B010C946B010C946B0120
:1000B0000C946B010C946B010C946B010C946B0110
:1000C0000C946B010C946B010C946B010C946B0100
:1000D0000C946B010C946B010C946B010C946B01F0
:1000E0000C946B010C94C2050C9406030C9402064C
:1000F0000C9410030C9459020C942C030C941403CC
:100100000C9430030C9431060C9474010C94260367
:100110000C9422030C9476010C94A3010C941E03FE
:100120000C94D4010C94B2010C94B2050C94FD0211
:100130000C94DA020C94C6010C940C020C94F90293
:100140000C9400030C94F5020C94B3050C946D010F
:100150000C94D5050C94F1020C94B8090C94DF02B0
:100160000C940A030C9475010C94180300000A0BFC
:1001700002090C0D0E080703040100000000000036
:10018000000000000000000000000000000000006F
:10019000000000000000000012111000000000002C
:1001A000000000000000000000000000000000004F
:1001B000000000002200250028002B002E00310046
:1001C000340002010000050108010B0100002100BC
:1001D000240027002A002D00300033000101000018
:1001E000040107010A0105050505070508080808B7
:1001F000020202020A0A08080404040401010101BF
:1002000001010101030303030303030304070707B9
:100210000C0C0C0C0C0C0C0C02020202060606065E
:10022000060606060B0B0B0B0B0B0B0B010210202B
:10023000200808102040102040800201020108041C
:1002400002010102040810204080804020100804B0
:100250000201800402018040201008040201080409
:10026000020101020408102040800102040810204D
:100270004080B80911241FBECFEFD1E2DEBFCDBF51
:1002800000E00CBF13E0A0E0B2E0E0E1FEE100E03E
:100290000BBF02C007900D92AA33B107D9F724E033
:1002A000AAE3B3E001C01D92A03CB207E1F711E060
:1002B000CAE3D1E000E006C021970109802FFE01CA
:1002C0000E94FE0EC933D10780E00807A9F70E94FB
:1002D000000A0C94060F0C94000080919F039091EB
:1002E000A003891B990B089508950895AF92BF92BA
:1002F000CF92DF92EF92FF920F931F93CF93DF93F2
:100300006C017B018B01040F151FEB015E01AE1820
:10031000BF08C017D10759F06991D601ED91FC9142
:100320000190F081E02DC6011995892B79F7C5015F
:10033000DF91CF911F910F91FF90EF90DF90CF90C1
:10034000BF90AF900895FC01538D448D252F30E070
:10035000842F90E0821B930B541710F0CF960895D2
:1003600001970895FC01918D828D981761F0A28DFF
:10037000AE0FBF2FB11D5D968C91928D9F5F9F73C5
:10038000928F90E008958FEF9FEF0895FC01918D7B
:10039000828D981731F0828DE80FF11D858D90E0E8
:1003A00008958FEF9FEF0895FC01918D228D892F85
:1003B00090E0805C9F4F821B91098F73992708956D
:1003C00081E194E00E94D40121E0892B09F420E02E
:1003D000822F0895FC01A48DA80FB92FB11DA35A37
:1003E000BF4F2C91848D90E001968F739927848F55
:1003F000A689B7892C93A089B1898C918370806478
:100400008C93938D848D981306C00288F389E02D18
:1004100080818F7D80830895EF92FF920F931F93C9
:10042000CF93DF93EC0181E0888F9B8D8C8D9813A7
:100430001AC0E889F989808185FF15C09FB7F894B3
:10044000EE89FF896083E889F989808183708064FF
:1004500080839FBF81E090E0DF91CF911F910F914A
:10046000FF90EF900895F62E0B8D10E00F5F1F4F59
:100470000F731127E02E8C8D8E110CC00FB607FC68
:10048000FACFE889F989808185FFF5CFCE010E94F6
:10049000EA01F1CFEB8DEC0FFD2FF11DE35AFF4F79
:1004A000F0829FB7F8940B8FEA89FB898081806284
:1004B000CFCFCF93DF93EC01888D8823B9F0AA8941
:1004C000BB89E889F9898C9185FD03C0808186FD0F
:1004D0000DC00FB607FCF7CF8C9185FFF2CF80815E
:1004E00085FFEDCFCE010E94EA01E9CFDF91CF91E8
:1004F000089580E090E0892B29F00E94E0018111AD
:100500000E94000080E090E0892B49F080E090E0BC
:10051000892B29F00E94000081110E94000080E0D8
:1005200090E0892B49F080E090E0892B29F00E942F
:10053000000081110E94000080E090E0892B49F0CA
:1005400080E090E0892B29F00E94000081110C943A
:1005500000000895282F30E0F901E459FE4F9491EE
:10056000F901E45DFD4F44912A513E4FF901249178
:10057000222309F435C0992311F191509231F8F4F6
:10058000E92FF0E08827E853FD4F8F4F0C94FE0EC3
:10059000F902FD02DA02F102F502DF0200030603AE
:1005A0000A031003140318031E032203DF022603A9
:1005B0002C033003809180008F7780938000E22F9E
:1005C000F0E0EE0FFF1FEE54FE4FA591B4918FB7F0
:1005D000F894EC91611148C040954E234C938FBF25
:1005E0000895809180008F7DE8CF80918000877F83
:1005F000E4CF84B58F7784BDE2CF84B58F7DFBCF08
:100600008091B0008F778093B000D9CF8091B000F7
:100610008F7DF9CF809190008F7780939000CFCF1E
:10062000809190008F7DF9CF80919000877FF5CFEA
:100630008091A0008F778093A000C1CF8091A0000F
:100640008F7DF9CF8091A000877FF5CF8091200129
:100650008F7780932001B3CF809120018F7DF9CFD8
:1006600080912001877FF5CF4E2BB8CF3FB7F8940C
:100670008091830390918403A0918503B0918603B8
:1006800026B5A89B05C02F3F19F00196A11DB11DED
:100690003FBFBA2FA92F982F8827BC01CD01620F29
:1006A000711D811D911D42E0660F771F881F991FE4
:1006B0004A95D1F708958F929F92AF92BF92CF92B1
:1006C000DF92EF92FF924B015C010E9436036B01B7
:1006D0007C010E9436036C197D098E099F09683ED2
:1006E000734081059105A8F321E0821A9108A108C1
:1006F000B10888EEC80E83E0D81EE11CF11C8114FD
:100700009104A104B10429F7FF90EF90DF90CF90FE
:10071000BF90AF909F908F90089520915B03260F1C
:100720003327331F21323105ECF420910B04FC01F7
:1007300090E080E0243069F082E00895A0915B03AE
:100740002191AC01455C5C4FA40FB52FB11D2C93DA
:100750000196861798F380915B03680F60935B03A3
:1007600080E0089581E0089510920B0481E0809369
:10077000EA031092E50361E084E10E94AA0261E0CD
:1007800085E10E94AA02E9EBF0E080818E7F808300
:1007900080818D7F808388E48093B80085E4809396
:1007A000BC000895CF93DF9391E090933A038823A0
:1007B000B9F0C091B800D091BA008091BC008A7B9A
:1007C0008093BC0060E084E10E94AA0260E085E1C1
:1007D0000E94AA020E94B403D093BA00C093B8004A
:1007E000DF91CF910895CF92DF92EF92FF920F9316
:1007F0001F93CF93DF93D82FC62F613208F098C094
:100800000E9436036B017C0180910B0481116BC047
:1008100081E080930B048093EA039FEF9093E903B8
:100820001092E8039C0F9093E7038093E603809176
:10083000E603DD0FD82BD093E6038091E5038130EA
:1008400009F078C01092E5030E9436036B017C0129
:100850008091E6038093BB0080910D0490910E047B
:10086000A0910F04B0911004892B8A2B8B2BA1F03F
:100870000E94360300910D0410910E0420910F0484
:10088000309110046C197D098E099F09061717070E
:100890002807390708F448C08091BC0083FDD8CFF1
:1008A00085EC8093BC000E9436036B017C01809133
:1008B0000B04813009F440C08091E8038C1710F4D8
:1008C000C091E803E5ECF3E0ABEEB3E080E08C131D
:1008D00055C08C2FDF91CF911F910F91FF90EF901A
:1008E000DF90CF90089580910D0490910E04A09117
:1008F0000F04B0911004892B8A2B8B2B09F484CF21
:100900000E94360300910D0410910E0420910F04F3
:10091000309110046C197D098E099F09061717077D
:100920002807390708F070CF80910C040E94D20389
:10093000C0E0CFCF85EEB5CF80910D0490910E042D
:10094000A0910F04B0911004892B8A2B8B2B09F4F2
:10095000AECF0E94360300910D0410910E04209139
:100960000F04309110046C197D098E099F09061738
:1009700017072807390708F09ACFD6CF91919D9392
:100980008F5FA5CF8F929F92AF92BF92CF92DF924F
:10099000EF92FF920F931F93CF93DF93D091C403F5
:1009A000D13208F0D7C0182FC091C3030E9436037C
:1009B0006B017C0180910B0481116BC082E08093FC
:1009C0000B041093EA038FEF8093E9031092E8037E
:1009D000D093E703A3EAB3E0E5ECF3E080E0D813BB
:1009E00091C01092E6038091E603CC0FC82BC09310
:1009F000E6038091E503813009F088C01092E50399
:100A00000E9436036B017C018091E6038093BB005A
:100A100080910D0490910E04A0910F04B0911004E8
:100A2000892B8A2B8B2BA1F00E94360300910D0499
:100A300010910E0420910F04309110046C197D095F
:100A40008E099F09061717072807390708F442C0BF
:100A50008091BC0083FDD8CF85EC8093BC000E94C0
:100A600036036B017C0180910B04823009F450C085
:100A70008091E9038F3F09F46FC08091E9038032D0
:100A800009F46CC08091E903803309F469C084E003
:100A900026C080910D0490910E04A0910F04B09196
:100AA0001004892B8A2B8B2B09F484CF0E943603E8
:100AB00080900D0490900E04A0900F04B09010044C
:100AC0006C197D098E099F0986169706A806B90636
:100AD00008F070CF80910C040E94D20385E0109240
:100AE000A2031092C4031092A103DF91CF911F9132
:100AF0000F91FF90EF90DF90CF90BF90AF909F90BD
:100B00008F9008959D9191938F5F69CF85EEA5CFCA
:100B100080910D0490910E04A0910F04B0911004E7
:100B2000892B8A2B8B2B09F49ECF0E9436030091D0
:100B30000D0410910E0420910F04309110046C19D3
:100B40007D098E099F09061717072807390708F03E
:100B50008ACFC0CF81E0C3CF80E0C1CF82E0BFCFDA
:100B600083E0BDCF0895E091A00380919F03E81733
:100B700030F4F0E0E551FC4F808190E008958FEF74
:100B80009FEF08959091A00380919F032FEF3FEF77
:100B9000981748F4E92FF0E0E551FC4F208130E050
:100BA0009F5F9093A003C9010895CF92DF92EF92C7
:100BB000FF920F931F93CF93DF937C01CB018A01A8
:100BC0002091A103222389F0EB016B01C40ED51EF5
:100BD000CC15DD0569F06991D701ED91FC9101908B
:100BE000F081E02DC7011995F3CF642F0E948D038A
:100BF000C801DF91CF911F910F91FF90EF90DF908F
:100C0000CF900895CF93DF931F92CDB7DEB769835E
:100C10002091A1032223F9F02091C403203258F03F
:100C200021E030E0FC013383228390E080E00F90EC
:100C3000DF91CF9108958091A203E82FF0E0ED5568
:100C4000FC4F998190838F5F8093A2038093C403AC
:100C500081E090E0ECCF61E0CE0101960E948D032F
:100C6000F7CF90E080E00895FC0101900020E9F7C3
:100C70003197AF01481B590BBC0181E194E00C9402
:100C800076018F929F92AF92BF920F931F93CF9353
:100C9000DF93CDB7DEB7A1970FB6F894DEBF0FBED6
:100CA000CDBF19A2423008F44AE08E010F5D1F4FFC
:100CB000842E912CB12CA12CA50194010E94DC0E54
:100CC000E62FB901CA01EA30F4F4E05DD801EE93F1
:100CD0008D01232B242B252B79F790E080E01097B2
:100CE00019F0CD010E943406A1960FB6F894DEBF2C
:100CF0000FBECDBFDF91CF911F910F91BF90AF90ED
:100D00009F908F900895E95CE1CFCF93DF93462FBA
:100D1000682F70E090E080E00E944106EC0183E6DD
:100D200092E00E9434068C0F9D1FDF91CF910895B1
:100D30004F925F926F927F928F929F92AF92BF92EB
:100D4000CF92DF92EF92FF920F931F93CF93DF9397
:100D500000D01F92CDB7DEB75B018A01F090AF04DF
:100D60009091B0048F2980686091AE04682B8091C7
:100D7000BF0421E02093A1038093C3031092A20338
:100D80001092C403692B83EB94E00E94020681E079
:100D90000E94C2048823B9F081E090E00F900F9088
:100DA0000F900F90DF91CF911F910F91FF90EF90D7
:100DB000DF90CF90BF90AF909F908F907F906F907B
:100DC0005F904F9008950E9436032B013C018F2DB8
:100DD00090E0959587958730910508F0A3C0FC01B8
:100DE000EE0FFF1FE80FF91FE65DFD4F8081918137
:100DF000A281BC018A2F90E0611520E47207810571
:100E0000910508F492C028EE33E040E050E00E94E3
:100E1000DC0ECA01B9010E945B03AE014F5F5F4F58
:100E20007A014E0155E0850E911C80EC9DEBA0EF00
:100E3000BFEF9C01AD012419350946095709290165
:100E40003A0119821A821B821C8264E08091BF04DD
:100E50000E94F3031092A00380939F03843009F053
:100E600076C0670183EB94E00E94C205D6018D93A2
:100E70006D018A169B06B1F78C81982F9C709C306F
:100E800009F060C0F801808353E0F801808187FD9C
:100E90005EC08C7090E09C0136952795BC01620F76
:100EA000731FFB01EB5EFD4F208131814281A42F36
:100EB000C9010A2E000CBB0B2C013D01CB01805057
:100EC0009E4FDC012D913D914C91F70180E090E027
:100ED000DC016191BA2FA92F982F8827862B6E2FBE
:100EE0006E196517B0F3F50180839183A283B383F4
:100EF000482259226A227B2245284628472879F031
:100F00007901042F002E000C110BB801A7018E29C6
:100F1000952BA02BB72B80839183A283B38390E082
:100F200080E03CCF60E070E0CB016230710508F4F6
:100F300074CFCB01880F991F880F991F05970197D0
:100F4000F1F76BCF8B81D8018C9352E09ECF0E943A
:100F50003603640D751D861D971D97FD72CF83E0C6
:100F600090E01CCF85ED8093BC0080910D049091A2
:100F70000E04A0910F04B09110040796A11DB11D9D
:100F800023E0B695A795979587952A95D1F7209157
:100F9000BC0024FD03C010920B04089540910D0481
:100FA00050910E0460910F0470911004452B462B54
:100FB000472B69F30097A105B10541F025E32A9578
:100FC000F1F700000197A109B109E1CF80910C046C
:100FD0000C94D2031F920F920FB60F9211240BB6EE
:100FE0000F922F933F934F935F936F937F938F93C2
:100FF0009F93AF93BF93EF93FF9381E194E00E949F
:10100000EA01FF91EF91BF91AF919F918F917F91F5
:101010006F915F914F913F912F910F900BBE0F9069
:101020000FBE0F901F9018951F920F920FB60F9240
:1010300011240BB60F922F938F939F93EF93FF93EF
:10104000E0912104F09122048081E0912704F09145
:10105000280482FD1DC0908180912A048F5F8F73C8
:1010600020912B04821741F0E0912A04F0E0EF5E1A
:10107000FB4F958F80932A04FF91EF919F918F9161
:101080002F910F900BBE0F900FBE0F901F901895D1
:101090008081F2CF1F920F920FB60F9211242F93DF
:1010A0003F938F939F93AF93BF9380917F039091D2
:1010B0008003A0918103B091820330917E0323E0ED
:1010C000230F2D3758F50196A11DB11D20937E03E6
:1010D00080937F0390938003A0938103B093820356
:1010E0008091830390918403A0918503B09186033E
:1010F0000196A11DB11D8093830390938403A09357
:101100008503B0938603BF91AF919F918F913F91DB
:101110002F910F900FBE0F901F90189526E8230F68
:101120000296A11DB11DD2CF1F920F920FB60F9242
:1011300011240BB60F922F933F934F935F936F93AE
:101140007F938F939F93AF93BF93EF93FF93809180
:10115000B900887F803609F44DC008F040C088325D
:1011600009F4A9C028F5803109F49DC0C8F488238A
:1011700009F4FBC0883009F496C0FF91EF91BF914C
:10118000AF919F918F917F916F915F914F913F911F
:101190002F910F900BBE0F900FBE0F901F901895C0
:1011A000883109F488C0803241F78093E90314C084
:1011B000803409F49DC040F48033B9F38833E9F6F4
:1011C0008093E90385ECB0C0803509F485C088358B
:1011D00009F496C0883489F60E94B207CECF8839C8
:1011E00009F48CC038F5883729F050F4883611F0AE
:1011F000803719F683E080930B0410927D0357C06B
:10120000883809F47BC0803919F0803809F0B5CFEF
:1012100080917D03803208F071C0E0917D0381E010
:101220008E0F80937D038091BB00F0E0E35AFC4F6A
:1012300080833DC0803B39F0E0F4803A09F479C006
:10124000883A09F09ACF84E080930B0410925C03F3
:1012500010925B03E0918903F0918A0319958091C4
:101260005B0381110FC081E080935B0310923B030D
:1012700009C0803C09F4A6CF883C09F4A3CF883B81
:1012800009F07BCFE0915C0381E08E0F80935C03DB
:10129000F0E0E55CFC4F80818093BB0090915C03A3
:1012A00080915B0329C08091E6038093BB0085ECAD
:1012B0008093BC0062CF9091E8038091E703981778
:1012C00058F5E091E80381E08E0F8093E803F0E0A9
:1012D000EB53FC4F8081E9CFE091E80381E08E0F72
:1012E0008093E8038091BB00F0E0EB53FC4F8083D8
:1012F0009091E8038091E7039817C8F285E8D8CF6A
:10130000E091E80381E08E0F8093E8038091BB00B9
:10131000F0E0EB53FC4F80838091EA0381115CCFB6
:1013200081E08093E50384EA8093BC0010920B0473
:1013300024CF85EC8093BC0010920B0480917D0338
:10134000803230F4E0917D03F0E0E35AFC4F1082EC
:1013500060917D0370E0E0918703F09188038DE553
:1013600093E0199510927D0308CF1092E90334CFD2
:10137000E1E1F4E01382128288EE93E0A0E0B0E0B5
:1013800084839583A683B78323E432E0318320836B
:1013900025EC30E03587248724EC30E0378726873A
:1013A00020EC30E0318B208B21EC30E0338B228B32
:1013B00022EC30E0358B248B26EC30E0378B268B0B
:1013C000118E128E138E148E1092B20420E220938E
:1013D000B1041092B0042CE02093AF041092AE043C
:1013E000E3EBF4E01382128284839583A683B783B0
:1013F00085E592E09183808388E68093BF04089519
:10140000CF93DF931F92CDB7DEB7789484B5826017
:1014100084BD84B5816084BD85B5826085BD85B598
:10142000816085BD80916E00816080936E00109216
:101430008100809181008260809381008091810091
:101440008160809381008091800081608093800022
:101450008091B10084608093B1008091B000816080
:101460008093B00080919100826080939100809180
:1014700091008160809391008091900081608093C1
:1014800090008091A10082608093A1008091A100D2
:1014900081608093A1008091A00081608093A00072
:1014A00080912101826080932101809121018160DE
:1014B000809321018091200181608093200180919F
:1014C0007A00846080937A0080917A0082608093B1
:1014D0007A0080917A00816080937A0080917A000E
:1014E000806880937A001092C100E0912104F0910D
:1014F000220482E08083E0911D04F0911E0410829A
:10150000E0911F04F09120048FEC80831092290455
:10151000E0912504F091260486E08083E091230485
:10152000F0912404808180618083E0912304F09114
:101530002404808188608083E0912304F091240456
:10154000808180688083E0912304F091240480816D
:101550008F7D80831092A0031092A2031092C40387
:101560000E94B40384E791E090938A0380938903F7
:1015700085E791E0909388038093870381E08093CF
:10158000A1031092C30366E083EB94E00E9402067D
:1015900081E00E94C20461E070E080E090E00E947F
:1015A0005B0361E088E60E94F30380939F0305E3F9
:1015B00012E04FEEE42E41E0F42E81110FC086E6DA
:1015C00092E00E94340660E170E088E60E948506A1
:1015D0006AE070E088E60E948506FFCF1982AE01BE
:1015E0004F5F5F4F6BE973E08091B2040E949806F1
:1015F000B82E882349F08BE892E00E9434066AE016
:1016000070E08B2D0E948506AE014F5F5F4F67E94A
:1016100073E08091B1040E949806B82E882349F0A7
:101620008CEB92E00E9434066AE070E08B2D0E9401
:10163000850660919B0370919C0380919D0390911E
:101640009E030E94B50D2FE632E143E857E30E9466
:101650006A0E9B01AC010E94A10C609393037093EE
:1016600094038093950390939603609197037091F0
:1016700098038091990390919A030E94B50D2FE6EB
:1016800032E143E857E30E946A0E9B01AC010E94DD
:10169000A10C60938F0370939003809391039093B8
:1016A00092038DEE92E00E94340680909703909012
:1016B0009803A0909903B0909A034AE0C501B40141
:1016C000B7FE0DC06DE281E194E00E940C02662736
:1016D0007727CB01681979098A099B094AE00E949A
:1016E000410683E692E00E94340681E093E00E9486
:1016F000340683E692E00E9434066091970370916D
:1017000098038091990390919A0342E00E944106C8
:1017100083E692E00E94340620918F03309190037B
:1017200040919103509192036091930370919403BF
:1017300080919503909196030E94A00C20E030E0E8
:101740004AEF54E40E946A0E4B015C01AC019B011C
:1017500060E070E080E895E40E94A00C2B013C0161
:1017600020E030E040E855E4C501B4010E94A10C3E
:101770009B01AC01C301B2010E94120D20E030E0D8
:101780004AE754E40E946A0E60938B0370938C03C3
:1017900080938D0390938E0389E293E00E94340638
:1017A00080908B0390908C03A0908D03B0908E035B
:1017B000A5019401C501B4010E94D70E882371F1DF
:1017C0008DE293E00E94340683E692E00E943406A4
:1017D00068EE73E080E090E00E945B03F8012491E2
:1017E000F7018491882399F090E0880F991FFC01FC
:1017F000E453FE4FA591B491FC01EE54FE4F859148
:1018000094918FB7F8949C91292B2C938FBF61E012
:1018100089E00E94AA020E947902E0CE24013501EB
:10182000E89477F82FEF3FEF4FE75FE7C301B2018E
:101830000E94D70E81110DC02FEF3FEF4FE75FE7FA
:10184000C301B2010E940D0D18161CF481E393E050
:10185000B9CF2FEF3FEF4FE75FE4C501B4010E941E
:10186000650E18161CF485E393E0ACCF2FEF3FEF25
:101870004FE75FECC501B4010E940D0D87FDF3CF6A
:1018800020E030E0A901C501B4010E940D0D87FFE1
:1018900009C06DE281E194E00E940C02B7FAB094B5
:1018A000B7F8B0942AE037ED43EA5BE3C501B40131
:1018B0000E94A10C2B013C010E94840D4B015C0194
:1018C0000E94B30D9B01AC01C301B2010E94A00CA8
:1018D0002B013C014AE0C501B4010E9441066EE2C1
:1018E00081E194E00E940C0220E030E040E251E40B
:1018F000C301B2010E946A0E2B013C010E94840DBB
:101900004B01B12CA12C4AE0C501B4010E94410653
:10191000C501B4010E94B30D9B01AC01C301B2012A
:101920000E94A00C20E030E040E251E40E946A0EE8
:101930000E94840D90E080E04AE00E94410644CF7E
:101940005058BB27AA270E94B80C0C942B0E0E945B
:101950001D0E38F00E94240E20F039F49F3F19F438
:1019600026F40C941A0E0EF4E095E7FB0C94140E7A
:10197000E92F0E943C0E58F3BA17620773078407D9
:10198000950720F079F4A6F50C945E0E0EF4E09520
:101990000B2EBA2FA02D0B01B90190010C01CA0129
:1019A000A0011124FF27591B99F0593F50F4503ED4
:1019B00068F11A16F040A22F232F342F4427585FC6
:1019C000F3CF469537952795A795F0405395C9F7DE
:1019D0007EF41F16BA0B620B730B840BBAF0915096
:1019E000A1F0FF0FBB1F661F771F881FC2F70EC035
:1019F000BA0F621F731F841F48F487957795679508
:101A0000B795F7959E3F08F0B0CF9395880F08F0F3
:101A10009927EE0F9795879508950E94F00D08F489
:101A200081E008950E94260D0C942B0E0E94240E36
:101A300058F00E941D0E40F029F45F3F29F00C94ED
:101A4000140E51110C945F0E0C941A0E0E943C0E51
:101A500068F39923B1F3552391F3951B550BBB27DD
:101A6000AA2762177307840738F09F5F5F4F220F22
:101A7000331F441FAA1FA9F335D00E2E3AF0E0E819
:101A800032D091505040E695001CCAF72BD0FE2F63
:101A900029D0660F771F881FBB1F261737074807F7
:101AA000AB07B0E809F0BB0B802DBF01FF279358AF
:101AB0005F4F3AF09E3F510578F00C94140E0C9451
:101AC0005F0E5F3FE4F3983ED4F386957795679574
:101AD000B795F7959F5FC9F7880F911D96958795E4
:101AE00097F90895E1E0660F771F881FBB1F621703
:101AF00073078407BA0720F0621B730B840BBA0BC1
:101B0000EE1F88F7E09508950E94440E88F09F57D5
:101B100098F0B92F9927B751B0F0E1F0660F771F11
:101B2000881F991F1AF0BA95C9F714C0B13091F007
:101B30000E945E0EB1E008950C945E0E672F782F20
:101B40008827B85F39F0B93FCCF3869577956795CC
:101B5000B395D9F73EF490958095709561957F4F38
:101B60008F4F9F4F0895E89409C097FB3EF49095DE
:101B70008095709561957F4F8F4F9F4F9923A9F066
:101B8000F92F96E9BB279395F695879577956795F5
:101B9000B795F111F8CFFAF4BB0F11F460FF1BC039
:101BA0006F5F7F4F8F4F9F4F16C0882311F096E9CC
:101BB00011C0772321F09EE8872F762F05C066237A
:101BC00071F096E8862F70E060E02AF09A95660F33
:101BD000771F881FDAF7880F9695879597F90895EC
:101BE000990F0008550FAA0BE0E8FEEF161617062E
:101BF000E807F907C0F012161306E407F50798F096
:101C0000621B730B840B950B39F40A2661F0232BAE
:101C1000242B252B21F408950A2609F4A140A6952A
:101C20008FEF811D811D089597F99F6780E870E00F
:101C300060E008959FEF80EC089500240A94161642
:101C4000170618060906089500240A9412161306AA
:101C5000140605060895092E0394000C11F4882338
:101C600052F0BB0F40F4BF2B11F460FF04C06F5F54
:101C70007F4F8F4F9F4F089557FD9058440F551F2A
:101C800059F05F3F71F04795880F97FB991F61F0FE
:101C90009F3F79F087950895121613061406551F75
:101CA000F2CF4695F1DF08C0161617061806991FE1
:101CB000F1CF86957105610508940895E894BB27D6
:101CC00066277727CB0197F908950E94F00D08F455
:101CD0008FEF08950E947D0E0C942B0E0E941D0E16
:101CE00038F00E94240E20F0952311F00C94140E6D
:101CF0000C941A0E11240C945F0E0E943C0E70F38B
:101D0000959FC1F3950F50E0551F629FF001729FA0
:101D1000BB27F00DB11D639FAA27F00DB11DAA1FAF
:101D2000649F6627B00DA11D661F829F2227B00DFC
:101D3000A11D621F739FB00DA11D621F839FA00D87
:101D4000611D221F749F3327A00D611D231F849FD7
:101D5000600D211D822F762F6A2F11249F5750402E
:101D60009AF0F1F088234AF0EE0FFF1FBB1F661FA9
:101D7000771F881F91505040A9F79E3F510580F072
:101D80000C94140E0C945F0E5F3FE4F3983ED4F372
:101D9000869577956795B795F795E7959F5FC1F716
:101DA000FE2B880F911D9695879597F908950E94AF
:101DB000F00D880B990B0895A1E21A2EAA1BBB1BEC
:101DC000FD010DC0AA1FBB1FEE1FFF1FA217B30707
:101DD000E407F50720F0A21BB30BE40BF50B661F1D
:101DE000771F881F991F1A9469F7609570958095E1
:101DF00090959B01AC01BD01CF010895EE0FFF1F2F
:101E0000881F8BBF0790F691E02D1994F894FFCFAF
:101E100000F0FF00000000C0FF0000000000FF0015
:101E200000000000FC00080000000000200000008E
:101E300000008000000000000002471000000000C9
:101E40001B41000000006B0401000000AB11040006
:101E50000000000C027601A3015902D401B201C6B0
:101E600001000000000206D5053106B2056D01C271
:101E700005B3050D0A004E6F204144432063686995
:101E8000702064657669636520666F756E64206195
:101E900074206164647265737320004144435F4D34
:101EA000435033343233206D61646520636F6E7646
:101EB000657274696E67206572726F72206F6E2032
:101EC0006368616E6E656C20313A20004144435F67
:101ED0004D435033343233206D61646520636F6E3F
:101EE00076657274696E67206572726F72206F6EAC
:101EF000206368616E6E656C20323A200076616CFA
:101F000075655F6F665F6368616E6E656C313A2000
:101F10000053657269616C2E7072696E746C6E2804
:101F200076616C75655F6F665F6368616E6E656C28
:101F3000312C2042494E293B0052513D006E616ECA
:0A1F400000696E66006F766600000F
:00000001FF
