:100000000C945D000C9485000C9485000C94850084
:100010000C9485000C9485000C9485000C9485004C
:100020000C9485000C9485000C9485000C9485003C
:100030000C9485000C9485000C9485000C9485002C
:100040000C94A4060C9485000C9472060C944C0637
:100050000C9485000C9485000C9485000C9485000C
:100060000C94EE060C9485000000000800020100CC
:100070000003040700000000000000000000000072
:10008000250028002B0000000000240027002A0083
:10009000040404040404040402020202020203032E
:1000A0000303030301020408102040800102040836
:1000B00010200102040810200D0811241FBECFEFEC
:1000C000D8E0DEBFCDBF11E0A0E0B1E0E6E6FAE1A6
:1000D00002C005900D92AA3BB107D9F723E0AAEB25
:1000E000B1E001C01D92A333B207E1F710E0CDE506
:1000F000D0E004C02197FE010E942B0DCC35D10722
:10010000C9F70E9452080C94310D0C940000AF9274
:10011000BF92CF92DF92EF92FF920F931F93CF93F4
:10012000DF936C017B018B01040F151FEB015E0156
:10013000AE18BF08C017D10759F06991D601ED91EB
:10014000FC910190F081E02DC6010995892B79F78A
:10015000C501DF91CF911F910F91FF90EF90DF903C
:10016000CF90BF90AF90089580910B0290910C02B8
:10017000891B990B089508950895FC01538D448DB2
:10018000252F30E0842F90E0821B930B541710F042
:10019000CF96089501970895FC01918D828D98174F
:1001A00061F0A28DAE0FBF2FB11D5D968C91928D27
:1001B0009F5F9F73928F90E008958FEF9FEF089558
:1001C000FC01918D828D981731F0828DE80FF11D21
:1001D000858D90E008958FEF9FEF0895FC01918D3C
:1001E000228D892F90E0805C9F4F821B91098F7335
:1001F0009927089585E892E00E94EE0021E0892B7E
:1002000009F420E0822F089580E090E0892B29F006
:100210000E94FA0081110C9400000895FC01A48D45
:10022000A80FB92FB11DA35ABF4F2C91848D90E018
:1002300001968F739927848FA689B7892C93A089FB
:10024000B1898C91837080648C93938D848D981385
:1002500006C00288F389E02D80818F7D8083089518
:10026000EF92FF920F931F93CF93DF93EC0181E006
:10027000888F9B8D8C8D98131AC0E889F9898081AD
:1002800085FF15C09FB7F894EE89FF896083E889E0
:10029000F98980818370806480839FBF81E090E0D2
:1002A000DF91CF911F910F91FF90EF900895F62E5F
:1002B0000B8D10E00F5F1F4F0F731127E02E8C8DF9
:1002C0008E110CC00FB607FCFACFE889F98980813E
:1002D00085FFF5CFCE010E940E01F1CFEB8DEC0F23
:1002E000FD2FF11DE35AFF4FF0829FB7F8940B8F5B
:1002F000EA89FB8980818062CFCFCF93DF93EC01C5
:10030000888D8823B9F0AA89BB89E889F9898C91FD
:1003100085FD03C0808186FD0DC00FB607FCF7CFB9
:100320008C9185FFF2CF808185FFEDCFCE010E94B9
:100330000E01E9CFDF91CF91089590E0FC01E859DB
:10034000FF4F2491FC01EC55FF4F3491FC01E05725
:10035000FF4FE491EE23C9F0222339F0233001F15D
:10036000A8F4213019F1223029F1F0E0EE0FFF1F3F
:10037000E458FF4FA591B4918FB7F894EC916111B7
:1003800026C030953E233C938FBF08952730A9F0B7
:100390002830C9F0243049F7809180008F7D03C058
:1003A000809180008F7780938000DFCF84B58F7736
:1003B00084BDDBCF84B58F7DFBCF8091B0008F777C
:1003C0008093B000D2CF8091B0008F7DF9CF3E2BCB
:1003D000DACF3FB7F8948091030290910402A09184
:1003E0000502B091060226B5A89B05C02F3F19F063
:1003F0000196A11DB11D3FBFBA2FA92F982F8827A5
:10040000BC01CD01620F711D811D911D42E0660F7F
:10041000771F881F991F4A95D1F708958F929F9251
:10042000AF92BF92CF92DF92EF92FF924B015C01AD
:100430000E94E9016B017C010E94E9016C197D09B0
:100440008E099F09683E734081059105A8F321E05C
:10045000821A9108A108B10888EEC80E83E0D81E60
:10046000E11CF11C81149104A104B10429F7FF904F
:10047000EF90DF90CF90BF90AF909F908F900895B6
:100480002091DB01260F3327331F21323105ECF495
:1004900020917F02FC0190E080E0243069F082E04E
:1004A0000895A091DB012191AC0145545E4FA40F4A
:1004B000B52FB11D2C930196861798F38091DB011F
:1004C000680F6093DB0180E0089581E00895109249
:1004D0007F0281E080935E021092590261E082E126
:1004E0000E949D0161E083E10E949D01E9EBF0E043
:1004F00080818E7F808380818D7F808388E480935C
:10050000B80085E48093BC000895CF93DF9391E019
:100510009093BA018823B9F0C091B800D091BA0085
:100520008091BC008A7B8093BC0060E082E10E94E5
:100530009D0160E083E10E949D010E946702D093CB
:10054000BA00C093B800DF91CF910895CF92DF92A7
:10055000EF92FF920F931F93CF93DF93D82FC62F65
:10056000613208F098C00E94E9016B017C01809122
:100570007F0281116BC081E080937F0280935E02D5
:100580009FEF90935D0210925C029C0F90935B0230
:1005900080935A0280915A02DD0FD82BD0935A02D1
:1005A00080915902813009F078C0109259020E945E
:1005B000E9016B017C0180915A028093BB0080911C
:1005C000810290918202A0918302B0918402892BD2
:1005D0008A2B8B2BA1F00E94E901009181021091DE
:1005E000820220918302309184026C197D098E0968
:1005F0009F09061717072807390708F448C0809194
:10060000BC0083FDD8CF85EC8093BC000E94E9013B
:100610006B017C0180917F02813009F440C08091A0
:100620005C028C1710F4C0915C02E9E3F2E0AFE5E4
:10063000B2E080E08C1355C08C2FDF91CF911F91D9
:100640000F91FF90EF90DF90CF90089580918102FD
:1006500090918202A0918302B0918402892B8A2B0F
:100660008B2B09F484CF0E94E90100918102109143
:10067000820220918302309184026C197D098E09D7
:100680009F09061717072807390708F070CF8091D0
:1006900080020E948502C0E0CFCF85EEB5CF809169
:1006A000810290918202A0918302B0918402892BF1
:1006B0008A2B8B2B09F4AECF0E94E90100918102B5
:1006C0001091820220918302309184026C197D097D
:1006D0008E099F09061717072807390708F09ACFD0
:1006E000D6CF91919D938F5FA5CF8F929F92AF921E
:1006F000BF92CF92DF92EF92FF920F931F93CF930F
:10070000DF93D0913802D13208F0D7C0182FC091B2
:1007100037020E94E9016B017C0180917F02811107
:100720006BC082E080937F0210935E028FEF809314
:100730005D0210925C02D0935B02A7E1B2E0E9E3B4
:10074000F2E080E0D81391C010925A0280915A02D0
:10075000CC0FC82BC0935A0280915902813009F006
:1007600088C0109259020E94E9016B017C018091BE
:100770005A028093BB008091810290918202A091E5
:100780008302B0918402892B8A2B8B2BA1F00E94CB
:10079000E90100918102109182022091830230913F
:1007A00084026C197D098E099F090617170728070F
:1007B000390708F442C08091BC0083FDD8CF85EC96
:1007C0008093BC000E94E9016B017C0180917F0253
:1007D000823009F450C080915D028F3F09F46FC0F0
:1007E00080915D02803209F46CC080915D0280339B
:1007F00009F469C084E026C0809181029091820250
:10080000A0918302B0918402892B8A2B8B2B09F44F
:1008100084CF0E94E9018090810290908202A09092
:100820008302B09084026C197D098E099F09861697
:100830009706A806B90608F070CF809180020E9442
:10084000850285E01092160210923802109215026D
:10085000DF91CF911F910F91FF90EF90DF90CF909C
:10086000BF90AF909F908F9008959D9191938F5FCF
:1008700069CF85EEA5CF8091810290918202A091EF
:100880008302B0918402892B8A2B8B2B09F49ECF93
:100890000E94E9010091810210918202209183025D
:1008A000309184026C197D098E099F09061717077C
:1008B0002807390708F08ACFC0CF81E0C3CF80E096
:1008C000C1CF82E0BFCF83E0BDCF0895E0910C029D
:1008D00080910B02E81730F4F0E0E15AFD4F80817F
:1008E00090E008958FEF9FEF089590910C02809112
:1008F0000B022FEF3FEF981748F4E92FF0E0E15A91
:10090000FD4F208130E09F5F90930C02C901089554
:10091000CF92DF92EF92FF920F931F93CF93DF93CB
:100920007C01CB018A0120911502222389F0EB0181
:100930006B01C40ED51ECC15DD0569F06991D70198
:10094000ED91FC910190F081E02DC7010995F3CF65
:10095000642F0E944002C801DF91CF911F910F9137
:10096000FF90EF90DF90CF900895CF93DF931F9289
:10097000CDB7DEB76983209115022223F9F02091CB
:100980003802203258F021E030E0FC01338322832A
:1009900090E080E00F90DF91CF9108958091160252
:1009A000E82FF0E0E95EFD4F998190838F5F80939F
:1009B00016028093380281E090E0ECCF61E0CE0136
:1009C00001960E944002F7CF90E080E00895FC017C
:1009D00001900020E9F73197AF01481B590BBC018A
:1009E00085E892E00C9487008F929F92AF92BF921D
:1009F0000F931F93CF93DF93CDB7DEB7A1970FB6B9
:100A0000F894DEBF0FBECDBF19A2423008F44AE011
:100A10008E010F5D1F4F842E912CB12CA12CA501AE
:100A200094010E94090DE62FB901CA01EA30F4F4DD
:100A3000E05DD801EE938D01232B242B252B79F734
:100A400090E080E0109719F0CD010E94E704A19694
:100A50000FB6F894DEBF0FBECDBFDF91CF911F91CF
:100A60000F91BF90AF909F908F900895E95CE1CF78
:100A70004F925F926F927F928F929F92AF92BF92AE
:100A8000CF92DF92EF92FF920F931F93CF936B0160
:100A90007C01742EAC019B010E94040D882399F007
:100AA00083E691E0CF911F910F91FF90EF90DF903F
:100AB000CF90BF90AF909F908F907F906F905F90FE
:100AC0004F900C94E70446015701E894B7F82FEFD4
:100AD0003FEF4FE75FE7C501B4010E94040D8111AC
:100AE0000DC02FEF3FEF4FE75FE7C501B4010E9454
:100AF0003A0B18161CF487E691E0D4CF2FEF3FEFA6
:100B00004FE75FE4C701B6010E94920C18161CF46F
:100B10008BE691E0C7CF2FEF3FEF4FE75FECC701C8
:100B2000B6010E943A0B87FDF3CF20E030E0A90127
:100B3000C701B6010E943A0B10E000E087FF0AC02F
:100B40006DE285E892E00E9430018C01F7FAF094A2
:100B5000F7F8F094C0E060E070E080E09FE37C167E
:100B600041F020E030E040E251E40E943F0BCF5FD3
:100B7000F6CFA70196010E94CE0A2B013C010E94EC
:100B8000B10B4B015C014AE00E94F4047C01E00ED1
:100B9000F11ECC23C1F1C501B4010E94E00B9B0101
:100BA000AC01C301B2010E94CD0A4B015C016EE2AF
:100BB00085E892E00E943001E80EF91EC15018F15C
:100BC00020E030E040E251E4C501B4010E94970CFE
:100BD0002B013C010E94B10B4B01B12CA12C4AE02E
:100BE000C501B4010E94F404E80EF91EC501B40168
:100BF0000E94E00B9B01AC01C301B2010E94CD0A2F
:100C00004B015C01DBCFC701CF911F910F91FF908A
:100C1000EF90DF90CF90BF90AF909F908F907F909C
:100C20006F905F904F90089585ED8093BC00809108
:100C3000810290918202A0918302B0918402079672
:100C4000A11DB11D23E0B695A795979587952A9587
:100C5000D1F72091BC0024FD03C010927F020895BB
:100C600040918102509182026091830270918402CE
:100C7000452B462B472B69F30097A105B10541F0A1
:100C800025E32A95F1F700000197A109B109E1CF09
:100C9000809180020C9485021F920F920FB60F92E2
:100CA00011242F933F934F935F936F937F938F9371
:100CB0009F93AF93BF93EF93FF9385E892E00E94D9
:100CC0000E01FF91EF91BF91AF919F918F917F9115
:100CD0006F915F914F913F912F910F900FBE0F90A9
:100CE0001F9018951F920F920FB60F9211242F93F9
:100CF0008F939F93EF93FF93E0919502F09196026B
:100D00008081E0919B02F0919C0282FD1BC090814A
:100D100080919E028F5F8F7320919F02821741F016
:100D2000E0919E02F0E0EB57FD4F958F80939E027D
:100D3000FF91EF919F918F912F910F900FBE0F9088
:100D40001F9018958081F4CF1F920F920FB60F92CB
:100D500011242F933F938F939F93AF93BF938091D1
:100D6000FF0190910002A0910102B0910202309126
:100D7000FE0123E0230F2D3758F50196A11DB11D6B
:100D80002093FE018093FF0190930002A093010243
:100D9000B09302028091030290910402A091050297
:100DA000B09106020196A11DB11D8093030290939C
:100DB0000402A0930502B0930602BF91AF919F91E8
:100DC0008F913F912F910F900FBE0F901F9018950C
:100DD00026E8230F0296A11DB11DD2CF1F920F92BC
:100DE0000FB60F9211242F933F934F935F936F93FE
:100DF0007F938F939F93AF93BF93EF93FF938091D4
:100E0000B900887F803609F44AC0F0F5883209F4C9
:100E1000A7C018F5803109F49BC0B8F4882309F401
:100E2000F9C0883009F494C0FF91EF91BF91AF9160
:100E30009F918F917F916F915F914F913F912F91F2
:100E40000F900FBE0F901F901895883109F488C03D
:100E5000803251F780935D0214C0803409F49DC044
:100E600040F48033B9F38833F9F680935D0285EC62
:100E7000B0C0803509F485C0883509F496C088343F
:100E800099F60E941406D0CF883909F48CC038F541
:100E9000883729F050F4883611F0803729F683E03E
:100EA00080937F021092FD0157C0883809F47BC0FF
:100EB000803919F0803809F0B7CF8091FD01803278
:100EC00008F071C0E091FD0181E08E0F8093FD017B
:100ED0008091BB00F0E0E352FE4F80833DC0803B39
:100EE00039F0E0F4803A09F479C0883A09F09CCFEF
:100EF00084E080937F021092DC011092DB01E0918C
:100F00000902F0910A0209958091DB0181110FC05D
:100F100081E08093DB011092BB0109C0803C09F4A1
:100F2000A6CF883C09F4A3CF883B09F07DCFE091A0
:100F3000DC0181E08E0F8093DC01F0E0E554FE4F90
:100F400080818093BB009091DC018091DB0129C0FE
:100F500080915A028093BB0085EC8093BC0064CFE3
:100F600090915C0280915B02981758F5E0915C02C9
:100F700081E08E0F80935C02F0E0E75CFD4F8081A2
:100F8000E9CFE0915C0281E08E0F80935C0280915A
:100F9000BB00F0E0E75CFD4F808390915C028091A4
:100FA0005B029817C8F285E8D8CFE0915C0281E037
:100FB0008E0F80935C028091BB00F0E0E75CFD4FF8
:100FC000808380915E0281115CCF81E08093590221
:100FD00084EA8093BC0010927F0226CF85EC809338
:100FE000BC0010927F028091FD01803230F4E091CC
:100FF000FD01F0E0E352FE4F10826091FD0170E0D0
:10100000E0910702F09108028DED91E009951092B0
:10101000FD010ACF10925D0234CFE5E8F2E01382C1
:10102000128288EE93E0A0E0B0E084839583A683EB
:10103000B78323E431E03183208325EC30E035872A
:10104000248724EC30E03787268720EC30E0318B92
:10105000208B21EC30E0338B228B22EC30E0358B7F
:10106000248B26EC30E0378B268B118E128E138E5C
:10107000148E109225031092240328E0209323035A
:1010800010922203E6E2F3E01382128284839583B6
:10109000A683B78385E591E09183808388E680937A
:1010A00032030895CF93DF9300D000D000D0CDB7A6
:1010B000DEB7789484B5826084BD84B5816084BDD8
:1010C00085B5826085BD85B5816085BD80916E00E6
:1010D000816080936E001092810080918100826017
:1010E0008093810080918100816080938100809154
:1010F00080008160809380008091B1008460809343
:10110000B1008091B00081608093B00080917A003E
:10111000846080937A0080917A00826080937A0064
:1011200080917A00816080937A0080917A00806853
:1011300080937A001092C100E0919502F09196029E
:1011400082E08083E0919102F09192021082E0911E
:101150009302F09194028FEC808310929D02E091B3
:101160009902F0919A0286E08083E0919702F091D3
:101170009802808180618083E0919702F0919802CB
:10118000808188608083E0919702F091980280814D
:1011900080688083E0919702F091980280818F7D32
:1011A00080838FE691E00E94E70485E791E00E944A
:1011B000E7046AE070E080E090E00E940E02109286
:1011C0000C0210920B0210921602109238020E942A
:1011D00067028BEB90E090930A02809309028CEBFC
:1011E00090E09093080280930702EDEAF0E02491EA
:1011F000E9E9F0E08491882399F090E0880F991F45
:10120000FC01EA57FF4FA591B491FC01E458FF4F50
:10121000859194918FB7F894EC91E22BEC938FBF6A
:1012200061E089E00E949D0181E0809315021092A7
:101230003702109216021092380266E086E293E0BE
:101240000E94B50481E00E94750361E070E080E0D7
:1012500090E00E940E0261E088E60E94A6021092D1
:101260000C0280930B02882309F44EC0CE01019634
:101270001C01DE011596BE83AD83E8EE8E2EE3E001
:101280009E2EA12CB12C10912303809125036091F7
:101290002203612B606890912403692B90913203A3
:1012A000B1E0B0931502909337021092160210929B
:1012B0003802682B86E293E00E94B50481E00E9428
:1012C0007503882389F111E084E991E00E94E70425
:1012D000612F70E090E080E04AE00E94F40485E72E
:1012E00091E00E94E70468EE73E080E090E00E94E5
:1012F0000E0280E090E0892B31F20E94FA008823F0
:1013000011F20E940000BFCF88E791E00E94E7043D
:1013100040E168E670E080E090E00E94F40485E738
:1013200091E00E94E704FFCF0E94E9016B017C017C
:10133000812F90E0959587958730910508F013C12E
:10134000FC01EE0FFF1FE80FF91FE65DFE4F8081E5
:101350009181A281BC018A2F90E06115E0E47E07B3
:101360008105910508F402C1A50194010E94090DAF
:10137000CA01B9010E940E0280EC9DEBA0EFBFEF05
:101380008C199D09AE09BF096C017D0119821A8271
:101390001B821C8264E0809132030E94A60210929C
:1013A0000C0280930B02843009F0EDC0810186E2CB
:1013B00093E00E947504D8018D938D01ED81FE812B
:1013C000EA17FB07A1F78C81982F9C70A3E09C3053
:1013D00011F08B81A2E087FDD6C08C7090E09595CE
:1013E00087959C01220F331FF901E80FF91FEB5E6F
:1013F000FE4F408151816281062E000C770BF10176
:10140000C12CD12C7601B191FE2CED2CDC2CCC24FE
:10141000CB2ABE2FB219BA17B0F34C215D216E2131
:101420007F21452B462B472B79F0820F931FFC0120
:10143000E050FF4F80819181A2810A2E000CBB0BEE
:10144000C82AD92AEA2AFB2A84EA91E00E94E70402
:101450004AE0C701B601F7FE0DC06DE285E892E0F3
:101460000E94300166277727CB016C197D098E0910
:101470009F094AE00E94F40485E791E00E94E70496
:10148000C701B6010E94E20B20E030E040E857E3DC
:101490000E94970C2FE632E143E050E40E94970C43
:1014A0009B01AC010E94CE0A60931102709312025C
:1014B00080931302909314028CEA91E00E94E70457
:1014C00060911102709112028091130290911402A6
:1014D00042E00E94380585E791E00E94E70420E0A1
:1014E00030E048E453E4609111027091120280915F
:1014F0001302909114020E94970C6B017C012DEC59
:101500003CEC4CE453E40E94CE0A20E030E048EC8E
:1015100052E40E94970C2B013C01A70196016DEC4F
:101520007CEC8CE493E40E94CD0A9B01AC01C301E6
:10153000B2010E943F0B60930D0270930E028093E4
:101540000F029093100284EB91E00E94E7046091F7
:101550000D0270910E0280910F029091100242E0F4
:101560000E943805BCCE60E070E0CB0162307105AE
:1015700008F402CFCB01880F991F880F991F059798
:101580000197F1F7F9CE0E94E9016C0D7D1D8E1DCA
:101590009F1D97FDFBCE13E097CE5058BB27AA277F
:1015A0000E94E50A0C94580C0E944A0C38F00E94E4
:1015B000510C20F039F49F3F19F426F40C94470C99
:1015C0000EF4E095E7FB0C94410CE92F0E94690CA6
:1015D00058F3BA17620773078407950720F079F468
:1015E000A6F50C948B0C0EF4E0950B2EBA2FA02DC3
:1015F0000B01B90190010C01CA01A0011124FF27C0
:10160000591B99F0593F50F4503E68F11A16F040BA
:10161000A22F232F342F4427585FF3CF46953795B9
:101620002795A795F0405395C9F77EF41F16BA0B7E
:10163000620B730B840BBAF09150A1F0FF0FBB1F2C
:10164000661F771F881FC2F70EC0BA0F621F731F75
:10165000841F48F4879577956795B795F7959E3FD2
:1016600008F0B0CF9395880F08F09927EE0F979563
:10167000879508950E941D0C08F481E008950E944A
:10168000530B0C94580C0E94510C58F00E944A0CB9
:1016900040F029F45F3F29F00C94410C51110C9457
:1016A0008C0C0C94470C0E94690C68F39923B1F3DD
:1016B000552391F3951B550BBB27AA276217730778
:1016C000840738F09F5F5F4F220F331F441FAA1F0C
:1016D000A9F335D00E2E3AF0E0E832D091505040C8
:1016E000E695001CCAF72BD0FE2F29D0660F771F76
:1016F000881FBB1F261737074807AB07B0E809F05C
:10170000BB0B802DBF01FF2793585F4F3AF09E3FE0
:10171000510578F00C94410C0C948C0C5F3FE4F371
:10172000983ED4F3869577956795B795F7959F5F23
:10173000C9F7880F911D9695879597F90895E1E06F
:10174000660F771F881FBB1F621773078407BA07CE
:1017500020F0621B730B840BBA0BEE1F88F7E09529
:1017600008950E94710C88F09F5798F0B92F99271F
:10177000B751B0F0E1F0660F771F881F991F1AF07C
:10178000BA95C9F714C0B13091F00E948B0CB1E04A
:1017900008950C948B0C672F782F8827B85F39F049
:1017A000B93FCCF3869577956795B395D9F73EF415
:1017B00090958095709561957F4F8F4F9F4F0895BD
:1017C000E89409C097FB3EF49095809570956195DB
:1017D0007F4F8F4F9F4F9923A9F0F92F96E9BB2791
:1017E0009395F695879577956795B795F111F8CF0D
:1017F000FAF4BB0F11F460FF1BC06F5F7F4F8F4F78
:101800009F4F16C0882311F096E911C0772321F06D
:101810009EE8872F762F05C0662371F096E8862F05
:1018200070E060E02AF09A95660F771F881FDAF75C
:10183000880F9695879597F90895990F0008550F89
:10184000AA0BE0E8FEEF16161706E807F907C0F046
:1018500012161306E407F50798F0621B730B840B4E
:10186000950B39F40A2661F0232B242B252B21F428
:1018700008950A2609F4A140A6958FEF811D811DC8
:10188000089597F99F6780E870E060E008959FEF02
:1018900080EC089500240A94161617061806090607
:1018A000089500240A9412161306140605060895D6
:1018B000092E0394000C11F4882352F0BB0F40F45E
:1018C000BF2B11F460FF04C06F5F7F4F8F4F9F4F9E
:1018D000089557FD9058440F551F59F05F3F71F020
:1018E0004795880F97FB991F61F09F3F79F0879587
:1018F0000895121613061406551FF2CF4695F1DF10
:1019000008C0161617061806991FF1CF869571059F
:10191000610508940895E894BB2766277727CB01D3
:1019200097F908950E941D0C08F48FEF08950E9406
:10193000AA0C0C94580C0E944A0C38F00E94510CCE
:1019400020F0952311F00C94410C0C94470C1124B9
:101950000C948C0C0E94690C70F3959FC1F3950F49
:1019600050E0551F629FF001729FBB27F00DB11D23
:10197000639FAA27F00DB11DAA1F649F6627B00DB3
:10198000A11D661F829F2227B00DA11D621F739F9C
:10199000B00DA11D621F839FA00D611D221F749FAA
:1019A0003327A00D611D231F849F600D211D822FF1
:1019B000762F6A2F11249F5750409AF0F1F0882318
:1019C0004AF0EE0FFF1FBB1F661F771F881F915045
:1019D0005040A9F79E3F510580F00C94410C0C94A7
:1019E0008C0C5F3FE4F3983ED4F38695779567952A
:1019F000B795F795E7959F5FC1F7FE2B880F911D6F
:101A00009695879597F908950E941D0C880B990B60
:101A10000895A1E21A2EAA1BBB1BFD010DC0AA1F2F
:101A2000BB1FEE1FFF1FA217B307E407F50720F047
:101A3000A21BB30BE40BF50B661F771F881F991FC2
:101A40001A9469F760957095809590959B01AC010B
:101A5000BD01CF010895EE0FFF1F0590F491E02D19
:061A60000994F894FFCF89
:101A660000F0FF00000000C0FF0000000000FF00C3
:101A760000000000FC00080000000000200000003C
:101A86000000800000000000000247100000000077
:101A96001B41000000006B0401000000AB110400B4
:101AA60000000030018700BD007D01EE00CC00E0A3
:101AB6000000000000B5048804E4046504B4007561
:101AC6000466046E616E00696E66006F7666006875
:101AD600656C6C6F000D0A004E6F20646576696355
:101AE6006520666F756E642061742061646472653A
:101AF60073732000436F6E76657274206572726F21
:101B0600723A200056616C75653A20005664696623
:0A1B1600663A200052713A200000E8
:00000001FF
