:100000000C945D000C9485000C9485000C94850084
:100010000C9485000C9485000C9485000C9485004C
:100020000C9485000C9485000C9485000C9485003C
:100030000C9485000C9485000C9485000C9485002C
:100040000C94C8050C9485000C9496050C947005CE
:100050000C9485000C9485000C9485000C9485000C
:100060000C9412060C9485000000000800020100A8
:100070000003040700000000000000000000000072
:10008000250028002B0000000000240027002A0083
:10009000040404040404040402020202020203032E
:1000A0000303030301020408102040800102040836
:1000B0001020010204081020310711241FBECFEFC9
:1000C000D8E0DEBFCDBF11E0A0E0B1E0E0E5F3E1B4
:1000D00002C005900D92A03AB107D9F723E0A0EA3B
:1000E000B1E001C01D92A131B207E1F710E0CDE50A
:1000F000D0E004C02197FE010E94A009CC35D107B1
:10010000C9F70E9476070C94A6090C940000AF92E0
:10011000BF92CF92DF92EF92FF920F931F93CF93F4
:10012000DF936C017B018B01040F151FEB015E0156
:10013000AE18BF08C017D10759F06991D601ED91EB
:10014000FC910190F081E02DC6010995892B79F78A
:10015000C501DF91CF911F910F91FF90EF90DF903C
:10016000CF90BF90AF9008958091F1019091F201EE
:10017000891B990B089508950895FC01538D448DB2
:10018000252F30E0842F90E0821B930B541710F042
:10019000CF96089501970895FC01918D828D98174F
:1001A00061F0A28DAE0FBF2FB11D5D968C91928D27
:1001B0009F5F9F73928F90E008958FEF9FEF089558
:1001C000FC01918D828D981731F0828DE80FF11D21
:1001D000858D90E008958FEF9FEF0895FC01918D3C
:1001E000228D892F90E0805C9F4F821B91098F7335
:1001F0009927089583E692E00E94EE0021E0892B82
:1002000009F420E0822F089580E090E0892B29F006
:100210000E94FA0081110C9400000895FC01A48D45
:10022000A80FB92FB11DA35ABF4F2C91848D90E018
:1002300001968F739927848FA689B7892C93A089FB
:10024000B1898C91837080648C93938D848D981385
:1002500006C00288F389E02D80818F7D8083089518
:10026000EF92FF920F931F93CF93DF93EC0181E006
:10027000888F9B8D8C8D98131AC0E889F9898081AD
:1002800085FF15C09FB7F894EE89FF896083E889E0
:10029000F98980818370806480839FBF81E090E0D2
:1002A000DF91CF911F910F91FF90EF900895F62E5F
:1002B0000B8D10E00F5F1F4F0F731127E02E8C8DF9
:1002C0008E110CC00FB607FCFACFE889F98980813E
:1002D00085FFF5CFCE010E940E01F1CFEB8DEC0F23
:1002E000FD2FF11DE35AFF4FF0829FB7F8940B8F5B
:1002F000EA89FB8980818062CFCFCF93DF93EC01C5
:10030000888D8823B9F0AA89BB89E889F9898C91FD
:1003100085FD03C0808186FD0DC00FB607FCF7CFB9
:100320008C9185FFF2CF808185FFEDCFCE010E94B9
:100330000E01E9CFDF91CF91089590E0FC01E859DB
:10034000FF4F2491FC01EC55FF4F3491FC01E05725
:10035000FF4FE491EE23C9F0222339F0233001F15D
:10036000A8F4213019F1223029F1F0E0EE0FFF1F3F
:10037000E458FF4FA591B4918FB7F894EC916111B7
:1003800026C030953E233C938FBF08952730A9F0B7
:100390002830C9F0243049F7809180008F7D03C058
:1003A000809180008F7780938000DFCF84B58F7736
:1003B00084BDDBCF84B58F7DFBCF8091B0008F777C
:1003C0008093B000D2CF8091B0008F7DF9CF3E2BCB
:1003D000DACF3FB7F8948091E9019091EA01A091BA
:1003E000EB01B091EC0126B5A89B05C02F3F19F099
:1003F0000196A11DB11D3FBFBA2FA92F982F8827A5
:10040000BC01CD01620F711D811D911D42E0660F7F
:10041000771F881F991F4A95D1F708958F929F9251
:10042000AF92BF92CF92DF92EF92FF924B015C01AD
:100430000E94E9016B017C010E94E9016C197D09B0
:100440008E099F09683E734081059105A8F321E05C
:10045000821A9108A108B10888EEC80E83E0D81E60
:10046000E11CF11C81149104A104B10429F7FF904F
:10047000EF90DF90CF90BF90AF909F908F900895B6
:100480002091C101260F3327331F21323105ECF4AF
:1004900020915D02FC0190E080E0243069F082E070
:1004A0000895A091C1012191AC014F555E4FA40F59
:1004B000B52FB11D2C930196861798F38091C10139
:1004C000680F6093C10180E0089581E00895109263
:1004D0005D0281E080933C021092370261E082E18C
:1004E0000E949D0161E083E10E949D01E9EBF0E043
:1004F00080818E7F808380818D7F808388E480935C
:10050000B80085E48093BC000895CF93DF9391E019
:100510009093A0018823B9F0C091B800D091BA009F
:100520008091BC008A7B8093BC0060E082E10E94E5
:100530009D0160E083E10E949D010E946702D093CB
:10054000BA00C093B800DF91CF910895CF92DF92A7
:10055000EF92FF920F931F93CF93DF93D82FC62F65
:10056000613208F098C00E94E9016B017C01809122
:100570005D0281116BC081E080935D0280933C023B
:100580009FEF90933B0210923A029C0F9093390296
:100590008093380280913802DD0FD82BD093380237
:1005A00080913702813009F078C0109237020E94A2
:1005B000E9016B017C01809138028093BB0080913E
:1005C0005F0290916002A0916102B0916202892B5A
:1005D0008A2B8B2BA1F00E94E90100915F02109100
:1005E000600220916102309162026C197D098E09CE
:1005F0009F09061717072807390708F448C0809194
:10060000BC0083FDD8CF85EC8093BC000E94E9013B
:100610006B017C0180915D02813009F440C08091C2
:100620003A028C1710F4C0913A02E7E1F2E0ADE330
:10063000B2E080E08C1355C08C2FDF91CF911F91D9
:100640000F91FF90EF90DF90CF90089580915F021F
:1006500090916002A0916102B0916202892B8A2B75
:100660008B2B09F484CF0E94E90100915F02109165
:10067000600220916102309162026C197D098E093D
:100680009F09061717072807390708F070CF8091D0
:100690005E020E948502C0E0CFCF85EEB5CF80918B
:1006A0005F0290916002A0916102B0916202892B79
:1006B0008A2B8B2B09F4AECF0E94E90100915F02D7
:1006C0001091600220916102309162026C197D09E3
:1006D0008E099F09061717072807390708F09ACFD0
:1006E000D6CF91919D938F5FA5CF8F929F92AF921E
:1006F000BF92CF92DF92EF92FF920F931F93CF930F
:10070000DF93D0911602D13208F0D7C0182FC091D4
:1007100015020E94E9016B017C0180915D0281114B
:100720006BC082E080935D0210933C028FEF809358
:100730003B0210923A02D0933902A5EFB1E0E7E113
:10074000F2E080E0D81391C0109238028091380214
:10075000CC0FC82BC093380280913702813009F04A
:1007600088C0109237020E94E9016B017C018091E0
:1007700038028093BB0080915F0290916002A0914B
:100780006102B0916202892B8A2B8B2BA1F00E940F
:10079000E90100915F0210916002209161023091A5
:1007A00062026C197D098E099F0906171707280731
:1007B000390708F442C08091BC0083FDD8CF85EC96
:1007C0008093BC000E94E9016B017C0180915D0275
:1007D000823009F450C080913B028F3F09F46FC012
:1007E00080913B02803209F46CC080913B028033DF
:1007F00009F469C084E026C080915F029091600294
:10080000A0916102B0916202892B8A2B8B2B09F493
:1008100084CF0E94E90180905F0290906002A090D6
:100820006102B09062026C197D098E099F098616DB
:100830009706A806B90608F070CF80915E020E9464
:10084000850285E01092F401109216021092F301D5
:10085000DF91CF911F910F91FF90EF90DF90CF909C
:10086000BF90AF909F908F9008959D9191938F5FCF
:1008700069CF85EEA5CF80915F0290916002A09133
:100880006102B0916202892B8A2B8B2B09F49ECFD7
:100890000E94E90100915F021091600220916102C3
:1008A000309162026C197D098E099F09061717079E
:1008B0002807390708F08ACFC0CF81E0C3CF80E096
:1008C000C1CF82E0BFCF83E0BDCF0895E091F201B8
:1008D0008091F101E81730F4F0E0E35CFD4F808196
:1008E00090E008958FEF9FEF08959091F20180912D
:1008F000F1012FEF3FEF981748F4E92FF0E0E35CA8
:10090000FD4F208130E09F5F9093F201C90108956F
:10091000CF92DF92EF92FF920F931F93CF93DF93CB
:100920007C01CB018A012091F301222389F0EB01A4
:100930006B01C40ED51ECC15DD0569F06991D70198
:10094000ED91FC910190F081E02DC7010995F3CF65
:10095000642F0E944002C801DF91CF911F910F9137
:10096000FF90EF90DF90CF900895CF93DF931F9289
:10097000CDB7DEB769832091F3012223F9F02091EE
:100980001602203258F021E030E0FC01338322834C
:1009900090E080E00F90DF91CF9108958091F40175
:1009A000E82FF0E0EB50FE4F998190838F5F8093AA
:1009B000F4018093160281E090E0ECCF61E0CE017B
:1009C00001960E944002F7CF90E080E00895FC017C
:1009D00001900020E9F73197AF01481B590BBC018A
:1009E00083E692E00C9487008F929F92AF92BF9221
:1009F0000F931F93CF93DF93CDB7DEB7A1970FB6B9
:100A0000F894DEBF0FBECDBF19A2423008F44AE011
:100A10008E010F5D1F4F842E912CB12CA12CA501AE
:100A200094010E947E09E62FB901CA01EA30F4F46C
:100A3000E05DD801EE938D01232B242B252B79F734
:100A400090E080E0109719F0CD010E94E704A19694
:100A50000FB6F894DEBF0FBECDBFDF91CF911F91CF
:100A60000F91BF90AF909F908F900895E95CE1CF78
:100A700085ED8093BC0080915F0290916002A0910F
:100A80006102B09162020796A11DB11D23E0B695E7
:100A9000A795979587952A95D1F72091BC0024FDBD
:100AA00003C010925D02089540915F025091600270
:100AB0006091610270916202452B462B472B69F3CE
:100AC0000097A105B10541F025E32A95F1F7000053
:100AD0000197A109B109E1CF80915E020C948502D2
:100AE0001F920F920FB60F9211242F933F934F93A3
:100AF0005F936F937F938F939F93AF93BF93EF9386
:100B0000FF9383E692E00E940E01FF91EF91BF9167
:100B1000AF919F918F917F916F915F914F913F9195
:100B20002F910F900FBE0F901F9018951F920F924C
:100B30000FB60F9211242F938F939F93EF93FF93F0
:100B4000E0917302F09174028081E0917902F0915A
:100B50007A0282FD1BC0908180917C028F5F8F732F
:100B600020917D02821741F0E0917C02F0E0ED5986
:100B7000FD4F958F80937C02FF91EF919F918F9114
:100B80002F910F900FBE0F901F9018958081F4CF7A
:100B90001F920F920FB60F9211242F933F938F93B2
:100BA0009F93AF93BF938091E5019091E601A0914F
:100BB000E701B091E8013091E40123E0230F2D37E4
:100BC00058F50196A11DB11D2093E4018093E50124
:100BD0009093E601A093E701B093E8018091E901C9
:100BE0009091EA01A091EB01B091EC010196A11D59
:100BF000B11D8093E9019093EA01A093EB01B093BA
:100C0000EC01BF91AF919F918F913F912F910F90E8
:100C10000FBE0F901F90189526E8230F0296A11D76
:100C2000B11DD2CF1F920F920FB60F9211242F93A6
:100C30003F934F935F936F937F938F939F93AF9364
:100C4000BF93EF93FF938091B900887F803609F4BA
:100C50004AC0F0F5883209F4A7C018F5803109F4CC
:100C60009BC0B8F4882309F4F9C0883009F494C013
:100C7000FF91EF91BF91AF919F918F917F916F9174
:100C80005F914F913F912F910F900FBE0F901F904A
:100C90001895883109F488C0803251F780933B025F
:100CA00014C0803409F49DC040F48033B9F3883314
:100CB000F9F680933B0285ECB0C0803509F485C01D
:100CC000883509F496C0883499F60E943805D0CF4B
:100CD000883909F48CC038F5883729F050F4883603
:100CE00011F0803729F683E080935D021092E301D2
:100CF00057C0883809F47BC0803919F0803809F072
:100D0000B7CF8091E301803208F071C0E091E30138
:100D100081E08E0F8093E3018091BB00F0E0ED5302
:100D2000FE4F80833DC0803B39F0E0F4803A09F407
:100D300079C0883A09F09CCF84E080935D021092DC
:100D4000C2011092C101E091EF01F091F00109950B
:100D50008091C10181110FC081E08093C101109287
:100D6000A10109C0803C09F4A6CF883C09F4A3CFB7
:100D7000883B09F07DCFE091C20181E08E0F809326
:100D8000C201F0E0EF55FE4F80818093BB0090914F
:100D9000C2018091C10129C0809138028093BB00BB
:100DA00085EC8093BC0064CF90913A028091390227
:100DB000981758F5E0913A0281E08E0F80933A023D
:100DC000F0E0E95EFD4F8081E9CFE0913A0281E0F9
:100DD0008E0F80933A028091BB00F0E0E95EFD4FF8
:100DE000808390913A02809139029817C8F285E881
:100DF000D8CFE0913A0281E08E0F80933A02809141
:100E0000BB00F0E0E95EFD4F808380913C028111E0
:100E10005CCF81E08093370284EA8093BC0010921B
:100E20005D0226CF85EC8093BC0010925D0280911C
:100E3000E301803230F4E091E301F0E0ED53FE4F46
:100E400010826091E30170E0E091ED01F091EE011C
:100E500083EC91E009951092E3010ACF10923B02D6
:100E600034CFE3E6F2E01382128288EE93E0A0E052
:100E7000B0E084839583A683B78323E431E0318394
:100E8000208325EC30E03587248724EC30E0378759
:100E9000268720EC30E0318B208B21EC30E0338B47
:100EA000228B22EC30E0358B248B26EC30E0378B24
:100EB000268B118E128E138E148E109203031092B5
:100EC000020328E02093010310920003E4E0F3E022
:100ED0001382128284839583A683B78385E591E08C
:100EE0009183808388E6809310030895CF93DF93E6
:100EF00000D000D000D0CDB7DEB7789484B5826042
:100F000084BD84B5816084BD85B5826085BD85B5AD
:100F1000816085BD80916E00816080936E0010922B
:100F200081008091810082608093810080918100A6
:100F30008160809381008091800081608093800037
:100F40008091B10084608093B1008091B000816095
:100F50008093B00080917A00846080937A008091C1
:100F60007A00826080937A0080917A008160809319
:100F70007A0080917A00806880937A001092C10094
:100F8000E0917302F091740282E08083E0916F023D
:100F9000F09170021082E0917102F09172028FEC78
:100FA000808310927B02E0917702F091780286E0D4
:100FB0008083E0917502F091760280818061808368
:100FC000E0917502F0917602808188608083E091E3
:100FD0007502F0917602808180688083E0917502CD
:100FE000F091760280818F7D808383E691E00E947C
:100FF000E70489E691E00E94E7046AE070E080E09F
:1010000090E00E940E021092F2011092F1011092F3
:10101000F401109216020E9467028BEB90E090930D
:10102000F0018093EF018CEB90E09093EE018093C0
:10103000ED01EDEAF0E02491E9E9F0E08491882304
:1010400099F090E0880F991FFC01EA57FF4FA59196
:10105000B491FC01E458FF4F859194918FB7F894B7
:10106000EC91E22BEC938FBF61E089E00E949D013F
:1010700081E08093F301109215021092F401109216
:10108000160266E084E093E00E94B50481E00E94CD
:10109000750361E070E080E090E00E940E0261E084
:1010A00088E60E94A6021092F2018093F101882343
:1010B00009F456C0CE0101961C01DE011596BE83CF
:1010C000AD83E0ECCE2EEDEBDE2EE0EFEE2EFF2436
:1010D000FA94F8EE4F2EF3E05F2E612C712C1091F4
:1010E00001038091030360910003612B606890917C
:1010F0000203692B90911003B1E0B093F301909338
:1011000015021092F40110921602682B84E093E00D
:101110000E94B50481E00E947503882389F111E0E3
:1011200088E891E00E94E704612F70E090E080E0A1
:101130004AE00E94F40489E691E00E94E70468EE28
:1011400073E080E090E00E940E0280E090E0892B46
:1011500031F20E94FA00882311F20E940000BFCFF2
:101160008CE691E00E94E70440E168E670E080E0F0
:1011700090E00E94F40489E691E00E94E704FFCF2A
:101180000E94E9014B015C01812F90E095958795C4
:101190008730910508F098C0FC01EE0FFF1FE80FA3
:1011A000F91FE65DFE4F80819181A281BC018A2FEB
:1011B00090E06115E0E47E078105910508F487C0A1
:1011C000A30192010E947E09CA01B9010E940E0288
:1011D000D701C60188199909AA09BB094C015D010B
:1011E00019821A821B821C8264E0809110030E9483
:1011F000A6021092F2018093F101843009F074C0CC
:10120000810184E093E00E947504D8018D938D01E3
:10121000ED81FE81EA17FB07A1F78C81982F9C7066
:10122000A3E09C3011F08B81A2E087FD5DC08C7043
:1012300090E0959587959C01220F331FF901E80FE7
:10124000F91FEB5EFE4F408151816281062E000C3A
:10125000770BF101812C912C5401B191BA2CA92C5E
:10126000982C88248B2ABE2FB219BA17B0F34821C4
:1012700059216A217B21452B462B472B79F0820F80
:10128000931FFC01E050FF4F80819181A2810A2EC3
:10129000000CBB0B882A992AAA2ABB2A88E991E06C
:1012A0000E94E7044AE0C501B401B7FE42CF6DE2F7
:1012B00083E692E00E94300166277727CB01681908
:1012C00079098A099B0934CF60E070E0CB01623074
:1012D000710508F47DCFCB01880F991F880F991FE6
:1012E00005970197F1F774CF0E94E901680D791D08
:1012F0008A1D9B1D97FD74CF13E012CFA1E21A2E19
:10130000AA1BBB1BFD010DC0AA1FBB1FEE1FFF1FA9
:10131000A217B307E407F50720F0A21BB30BE40BF9
:10132000F50B661F771F881F991F1A9469F7609540
:101330007095809590959B01AC01BD01CF010895FA
:10134000EE0FFF1F0590F491E02D0994F894FFCF64
:1013500000F0FF00000000C0FF0000000000FF00E0
:1013600000000000FC000800000000002000000059
:101370000000800000000000000247100000000094
:101380001B41000000006B0401000000AB110400D1
:1013900000000030018700BD007D01EE00CC00E0C0
:1013A0000000000000B5048804E4046504B400757E
:1013B00004660468656C6C6F000D0A004E6F206453
:1013C000657669636520666F756E6420617420615F
:1013D0006464726573732000436F6E766572742067
:1013E0006572726F723A200056616C75653A200022
:00000001FF
