:100000000C945D000C9485000C9485000C94850084
:100010000C9485000C9485000C9485000C9485004C
:100020000C9485000C9485000C9485000C9485003C
:100030000C9485000C9485000C9485000C9485002C
:100040000C94C2030C9485000C9490030C946A03E6
:100050000C9485000C9485000C9485000C9485000C
:100060000C9485000C94850000000008000201003B
:100070000003040700000000000000000000000072
:10008000250028002B0000000000240027002A0083
:10009000040404040404040402020202020203032E
:1000A0000303030301020408102040800102040836
:1000B00010200102040810200C0411241FBECFEFF1
:1000C000D8E0DEBFCDBF11E0A0E0B1E0E4E4F1E1B3
:1000D00002C005900D92A43DB107D9F722E0A4ED2E
:1000E000B1E001C01D92A539B207E1F710E0CDE5FE
:1000F000D0E004C02197FE010E949A08CC35D107B8
:10010000C9F70E943F040C94A0080C94000090E0F2
:10011000FC01EC55FF4F249180579F4FFC018491C7
:10012000882399F090E0880F991FFC01EA57FF4F50
:10013000A591B491FC01E458FF4F859194918FB73C
:10014000F894EC91E22BEC938FBF0895AF92BF929D
:10015000CF92DF92EF92FF920F931F93CF93DF9393
:100160006C017B018B01040F151FEB015E01AE18C2
:10017000BF08C017D10759F06991D601ED91FC91E4
:100180000190F081E02DC6010995892B79F7C50111
:10019000DF91CF911F910F91FF90EF90DF90CF9063
:1001A000BF90AF900895FC01538D448D252F30E012
:1001B000842F90E0821B930B541710F0CF96089574
:1001C00001970895FC01918D828D981761F0A28DA1
:1001D000AE0FBF2FB11D5D968C91928D9F5F9F7367
:1001E000928F90E008958FEF9FEF0895FC01918D1D
:1001F000828D981731F0828DE80FF11D858D90E08A
:1002000008958FEF9FEF0895FC01918D228D892F26
:1002100090E0805C9F4F821B91098F73992708950E
:1002200086EF91E00E94040121E0892B09F420E08F
:10023000822F089580E090E0892B29F00E94100120
:1002400081110C9400000895FC01A48DA80FB92F12
:10025000B11DA35ABF4F2C91848D90E001968F73EE
:100260009927848FA689B7892C93A089B1898C910D
:10027000837080648C93938D848D981306C002885C
:10028000F389E02D80818F7D80830895EF92FF9226
:100290000F931F93CF93DF93EC0181E0888F9B8DA9
:1002A0008C8D98131AC0E889F989808185FF15C063
:1002B0009FB7F894EE89FF896083E889F989808186
:1002C0008370806480839FBF81E090E0DF91CF9155
:1002D0001F910F91FF90EF900895F62E0B8D10E077
:1002E0000F5F1F4F0F731127E02E8C8D8E110CC0E6
:1002F0000FB607FCFACFE889F989808185FFF5CF31
:10030000CE010E942401F1CFEB8DEC0FFD2FF11DEA
:10031000E35AFF4FF0829FB7F8940B8FEA89FB896D
:1003200080818062CFCFCF93DF93EC01888D8823CB
:10033000B9F0AA89BB89E889F9898C9185FD03C048
:10034000808186FD0DC00FB607FCF7CF8C9185FF2D
:10035000F2CF808185FFEDCFCE010E942401E9CF4D
:10036000DF91CF91089590E0FC01E859FF4F24916F
:10037000FC01EC55FF4F3491FC01E057FF4FE49135
:10038000EE23C9F0222339F0233001F1A8F4213003
:1003900019F1223029F1F0E0EE0FFF1FE458FF4F72
:1003A000A591B4918FB7F894EC91611126C0309566
:1003B0003E233C938FBF08952730A9F02830C9F021
:1003C000243049F7809180008F7D03C080918000A8
:1003D0008F7780938000DFCF84B58F7784BDDBCFAC
:1003E00084B58F7DFBCF8091B0008F778093B00074
:1003F000D2CF8091B0008F7DF9CF3E2BDACF3FB7BF
:10040000F8948091D9019091DA01A091DB01B0912B
:10041000DC0126B5A89B05C02F3F19F00196A11D50
:10042000B11D3FBFBA2FA92F982F8827BC01CD013E
:10043000620F711D811D911D42E0660F771F881F9D
:10044000991F4A95D1F708958EBD00000DB407FE9F
:10045000FDCF8EB50895CF93DF93C82F60E08091D4
:1004600093020E94B30181E00E94240280EEC11138
:1004700001C080EA0E9424028F70C82F80E00E9491
:100480002402282F3C2FE90161E0809193020E9411
:10049000B301CE01DF91CF910895FC0101900020BE
:1004A000E9F73197AF01481B590BBC0186EF91E08A
:1004B0000C94A6008F929F92AF92BF920F931F93BE
:1004C000CF93DF93CDB7DEB7A1970FB6F894DEBF19
:1004D0000FBECDBF19A2423008F44AE08E010F5D75
:1004E0001F4F842E912CB12CA12CA50194010E94A8
:1004F0007808E62FB901CA01EA30F4F4E05DD801CA
:10050000EE938D01232B242B252B79F790E080E0AF
:10051000109719F0CD010E944D02A1960FB6F894E4
:10052000DEBF0FBECDBFDF91CF911F910F91BF9066
:10053000AF909F908F900895E95CE1CFCF93DF93C8
:100540000E944D02EC0182E191E00E944D028C0F6D
:100550009D1FDF91CF9108958F929F92AF92BF928E
:10056000CF92DF92EF92FF921F93CF93DF936B01B5
:100570007C01AC019B010E9473088823B9F085E1DE
:1005800091E00E944D02EC0182E191E00E944D0257
:100590008C0F9D1FDF91CF911F91FF90EF90DF9007
:1005A000CF90BF90AF909F908F90089546015701D4
:1005B000E894B7F82FEF3FEF4FE75FE7C501B401CD
:1005C0000E94730881110DC02FEF3FEF4FE75FE7E7
:1005D000C501B4010E94A90618161CF489E191E036
:1005E000D0CF2FEF3FEF4FE75FE4C701B6010E9486
:1005F000010818161CF48DE191E0C3CF2FEF3FEFF7
:100600004FE75FECC701B6010E94A90687FDF3CF53
:1006100020E030E0A901C701B6010E94A906D0E0A0
:10062000C0E087FF0AC06DE286EF91E00E944601BC
:10063000EC01F7FAF094F7F8F0942CEB37E346E08E
:1006400055E3C701B6010E943D066B017C010E9483
:1006500020074B015C010E944F079B01AC01C701C1
:10066000B6010E943C066B017C014AE0C501B40161
:100670000E945A02C80FD91F6EE286EF91E00E94D5
:100680004601C80FD91F17E0115009F47DCF20E0B3
:1006900030E040E251E4C701B6010E9406084B0178
:1006A0005C010E9420076B01F12CE12C4AE0C7019C
:1006B000B6010E945A02C80FD91FC701B6010E9495
:1006C0004F079B01AC01C501B4010E943C066B01C0
:1006D0007C01DACF1F920F920FB60F9211242F9345
:1006E0003F934F935F936F937F938F939F93AF93BA
:1006F000BF93EF93FF9386EF91E00E942401FF9157
:10070000EF91BF91AF919F918F917F916F915F9189
:100710004F913F912F910F900FBE0F901F90189502
:100720001F920F920FB60F9211242F938F939F93C6
:10073000EF93FF93E0910602F09107028081E09130
:100740000C02F0910D0282FD1BC0908180910F027E
:100750008F5F8F7320911002821741F0E0910F029A
:10076000F0E0EA50FE4F958F80930F02FF91EF91DA
:100770009F918F912F910F900FBE0F901F90189502
:100780008081F4CF1F920F920FB60F9211242F93F6
:100790003F938F939F93AF93BF938091D501909197
:1007A000D601A091D701B091D8013091D40123E0B6
:1007B000230F2D3758F50196A11DB11D2093D401AB
:1007C0008093D5019093D601A093D701B093D8011F
:1007D0008091D9019091DA01A091DB01B091DC0107
:1007E0000196A11DB11D8093D9019093DA01A093C8
:1007F000DB01B093DC01BF91AF919F918F913F914D
:100800002F910F900FBE0F901F90189526E8230F81
:100810000296A11DB11DD2CFE6EFF1E01382128244
:1008200088EE93E0A0E0B0E084839583A683B7834D
:1008300084E091E09183808385EC90E095878487C4
:1008400084EC90E09787868780EC90E0918B808B9A
:1008500081EC90E0938B828B82EC90E0958B848B83
:1008600086EC90E0978B868B118E128E138E148EF1
:100870008AE090E090939402809393020895789494
:1008800084B5826084BD84B5816084BD85B5826095
:1008900085BD85B5816085BD80916E008160809346
:1008A0006E001092810080918100826080938100AF
:1008B00080918100816080938100809180008160BF
:1008C000809380008091B10084608093B10080911A
:1008D000B00081608093B00080917A008460809342
:1008E0007A0080917A00826080937A0080917A0009
:1008F000816080937A0080917A00806880937A008A
:100900001092C100809193020E94870061E0809163
:1009100093020E94B3018CB58F7D8CBD8CB58C6029
:100920008CBDCFB7F8948091DD01811124C0EAE934
:10093000F0E08491EEEAF0E09491E82FF0E0EE0F21
:10094000FF1FEA57FF4FA591B491EC91E92321F4E1
:1009500061E08AE00E94B3018AE00E9487008CB5C2
:1009600080618CBD8CB580648CBD8DE00E94870059
:100970008BE00E9487008091DD018F5F8093DD0115
:10098000CFBFE0910602F091070282E08083E09100
:100990000202F09103021082E0910402F09105023C
:1009A0008FEC808310920E02E0910A02F0910B020C
:1009B00086E08083E0910802F091090280818061E5
:1009C0008083E0910802F091090280818860808331
:1009D000E0910802F0910902808180688083E091B3
:1009E0000802F091090280818F7D8083C0E0D0E011
:1009F00080E00E942B02BC0190E080E00E944F0743
:100A00006093F2017093F3018093F4019093F501E8
:100A100081E00E942B02BC0190E080E00E944F0721
:100A20006093EE017093EF018093F0019093F101D8
:100A300081E291E00E949E026091F2017091F301C7
:100A40008091F4019091F5010E94AC028DE391E058
:100A50000E949E026091EE017091EF018091F00181
:100A60009091F1010E94AC022FE632E143E850E49C
:100A70006091F2017091F3018091F4019091F50180
:100A80000E94060820E030E040E859E30E94060892
:100A90006093EA017093EB018093EC019093ED0178
:100AA0002FE632E143E850E46091EE017091EF01EE
:100AB0008091F0019091F1010E94060820E030E061
:100AC00040E859E30E9406086093E6017093E7014D
:100AD0008093E8019093E90189E591E00E949E02EC
:100AE0006091EA017091EB018091EC019091ED0130
:100AF0000E94AC0285E791E00E949E026091E601AF
:100B00007091E7018091E8019091E9010E94AC02A7
:100B100081E991E00E949E022091E6013091E70177
:100B20004091E8015091E9016091EA017091EB0177
:100B30008091EC019091ED010E943C060E94AC0274
:100B40002091E6013091E7014091E8015091E901DF
:100B50006091EA017091EB018091EC019091ED01BF
:100B60000E943C066093E2017093E3018093E401EC
:100B70009093E50186EB91E00E949E026091E20174
:100B80007091E3018091E4019091E5010E94AC0233
:100B900020E030E04AE755E46091E2017091E30122
:100BA0008091E4019091E5010E9406086B017C01AF
:100BB000AC019B0160E070E080E096E40E943C069E
:100BC0004B015C0120E030E040E056E4C701B60193
:100BD0000E943D069B01AC01C501B4010E94AE0616
:100BE00020E030E04AEF54E40E9406086093DE0102
:100BF0007093DF018093E0019093E1018FEC91E02D
:100C00000E944D026091DE017091DF018091E00150
:100C10009091E1010E94AC020E94FF014B015C0136
:100C200088EEC82E83E0D82EE12CF12C0E94FF0123
:100C3000681979098A099B09683E73408105910505
:100C4000A8F321E0C21AD108E108F10888EE880E65
:100C500083E0981EA11CB11CC114D104E104F1046D
:100C600029F7209709F4C4CE0E941001882309F4C3
:100C7000BFCE0E940000BCCE5058BB27AA270E94BE
:100C800054060C94C7070E94B90738F00E94C007A9
:100C900020F039F49F3F19F426F40C94B6070EF4B3
:100CA000E095E7FB0C94B007E92F0E94D80758F3B2
:100CB000BA17620773078407950720F079F4A6F541
:100CC0000C94FA070EF4E0950B2EBA2FA02D0B0111
:100CD000B90190010C01CA01A0011124FF27591B81
:100CE00099F0593F50F4503E68F11A16F040A22F87
:100CF000232F342F4427585FF3CF469537952795F8
:100D0000A795F0405395C9F77EF41F16BA0B620BF6
:100D1000730B840BBAF09150A1F0FF0FBB1F661F3D
:100D2000771F881FC2F70EC0BA0F621F731F841F80
:100D300048F4879577956795B795F7959E3F08F0A6
:100D4000B0CF9395880F08F09927EE0F9795879568
:100D500008950E948C0708F481E008950E94C2065D
:100D60000C94C7070E94C00758F00E94B90740F0D2
:100D700029F45F3F29F00C94B00751110C94FB0744
:100D80000C94B6070E94D80768F39923B1F3552352
:100D900091F3951B550BBB27AA276217730784078E
:100DA00038F09F5F5F4F220F331F441FAA1FA9F324
:100DB00035D00E2E3AF0E0E832D091505040E69512
:100DC000001CCAF72BD0FE2F29D0660F771F881F73
:100DD000BB1F261737074807AB07B0E809F0BB0B66
:100DE000802DBF01FF2793585F4F3AF09E3F51057A
:100DF00078F00C94B0070C94FB075F3FE4F3983E47
:100E0000D4F3869577956795B795F7959F5FC9F762
:100E1000880F911D9695879597F90895E1E0660FE3
:100E2000771F881FBB1F621773078407BA0720F05C
:100E3000621B730B840BBA0BEE1F88F7E0950895C5
:100E40000E94E00788F09F5798F0B92F9927B75173
:100E5000B0F0E1F0660F771F881F991F1AF0BA955E
:100E6000C9F714C0B13091F00E94FA07B1E00895BB
:100E70000C94FA07672F782F8827B85F39F0B93FAD
:100E8000CCF3869577956795B395D9F73EF4909511
:100E90008095709561957F4F8F4F9F4F0895E8948F
:100EA00009C097FB3EF490958095709561957F4FB2
:100EB0008F4F9F4F9923A9F0F92F96E9BB27939560
:100EC000F695879577956795B795F111F8CFFAF470
:100ED000BB0F11F460FF1BC06F5F7F4F8F4F9F4FA1
:100EE00016C0882311F096E911C0772321F09EE8FF
:100EF000872F762F05C0662371F096E8862F70E065
:100F000060E02AF09A95660F771F881FDAF7880F3E
:100F10009695879597F90895990F0008550FAA0B94
:100F2000E0E8FEEF16161706E807F907C0F01216FC
:100F30001306E407F50798F0621B730B840B950BFF
:100F400039F40A2661F0232B242B252B21F4089554
:100F50000A2609F4A140A6958FEF811D811D0895F1
:100F600097F99F6780E870E060E008959FEF80EC5C
:100F7000089500240A9416161706180609060895FF
:100F800000240A9412161306140605060895092E65
:100F90000394000C11F4882352F0BB0F40F4BF2BD4
:100FA00011F460FF04C06F5F7F4F8F4F9F4F089514
:100FB00057FD9058440F551F59F05F3F71F047950A
:100FC000880F97FB991F61F09F3F79F087950895EF
:100FD000121613061406551FF2CF4695F1DF08C00E
:100FE000161617061806991FF1CF8695710561052B
:100FF00008940895E894BB2766277727CB0197F9D3
:1010000008950E948C0708F48FEF08950E94190834
:101010000C94C7070E94B90738F00E94C00720F05F
:10102000952311F00C94B0070C94B60711240C947E
:10103000FB070E94D80770F3959FC1F3950F50E00E
:10104000551F629FF001729FBB27F00DB11D639F7A
:10105000AA27F00DB11DAA1F649F6627B00DA11D20
:10106000661F829F2227B00DA11D621F739FB00DC6
:10107000A11D621F839FA00D611D221F749F332736
:10108000A00D611D231F849F600D211D822F762FCF
:101090006A2F11249F5750409AF0F1F088234AF0AC
:1010A000EE0FFF1FBB1F661F771F881F9150504018
:1010B000A9F79E3F510580F00C94B0070C94FB07F4
:1010C0005F3FE4F3983ED4F3869577956795B7959F
:1010D000F795E7959F5FC1F7FE2B880F911D9695B9
:1010E000879597F908950E948C07880B990B0895AE
:1010F000A1E21A2EAA1BBB1BFD010DC0AA1FBB1F1C
:10110000EE1FFF1FA217B307E407F50720F0A21B8D
:10111000B30BE40BF50B661F771F881F991F1A94FA
:1011200069F760957095809590959B01AC01BD0124
:10113000CF010895EE0FFF1F0590F491E02D099463
:04114000F894FFCF51
:10114400000000004601A600D30093010401E20060
:10115400F6000D0A006E616E00696E66006F7666B9
:101164000053657269616C2E7072696E746C6E28BE
:101174006368616E6E656C312C36293B0053657271
:1011840069616C2E7072696E746C6E286368616E2E
:101194006E656C322C36293B0053657269616C2E86
:1011A4007072696E746C6E28766F6C7461676530EA
:1011B4002C36293B0053657269616C2E7072696E1E
:1011C400746C6E28766F6C74616765312C36293BBC
:1011D4000053657269616C2E7072696E746C6E284E
:1011E400766F6C74616765302D766F6C74616765BA
:1011F400312C36293B0053657269616C2E7072691B
:101204006E746C6E2856646966662C36293B0052EF
:04121400513D000048
:00000001FF
