:100000000C94E0000C9408010C9408010C94080175
:100010000C9408010C9408010C9408010C9408013C
:100020000C9408010C9408010C9408010C9408012C
:100030000C9408010C9408010C9408010C9408011C
:100040000C94BF030C9408010C94BC020C94EE02B7
:100050000C9408010C9408010C9408010C940801FC
:100060000C9408010C94080100407A10F35A00A087
:10007000724E18090010A5D4E80000E87648170071
:1000800000E40B54020000CA9A3B000000E1F505B1
:10009000000080969800000040420F000000A086FB
:1000A00001000000102700000000E803000000002D
:1000B0006400000000000A000000000001000000D1
:1000C00000002C76D888DC674F0823DFC1DFAE59EB
:1000D000E1B1B796E5E3E453C63AE651997696E87E
:1000E000E6C28426EB898C9B62ED407C6FFCEFBC02
:1000F0009C9F40F2BAA56FA5F490055A2AF75C932D
:100100006B6CF9676DC11BFCE0E40D47FEF520E662
:10011000B500D0ED902E0300943577050080841E45
:10012000080000204E0A000000C80C333333330FA0
:10013000986E12831141EF8D2114893BE65516CF3D
:10014000FEE6DB18D1844B381BF77C1D901DA4BB49
:10015000E424203284725E228100C9F124ECA1E5FE
:100160003D27000000080002010000030407000012
:10017000000000000000010204081020408001027D
:1001800004081020010204081020040404040404DC
:100190000404020202020202030303030303000039
:1001A0000000230026002900000000002500280090
:1001B0002B0000000000240027002A007F011E03FE
:1001C00011241FBECFEFD8E0DEBFCDBF11E0A0E00D
:1001D000B1E0E2E1F9E102C005900D92A436B10769
:1001E000D9F722E0A4E6B1E001C01D92AC31B2071C
:1001F000E1F710E0C0EED0E004C02197FE010E94BC
:10020000BD07CE3DD107C9F70E944C030C94870C63
:100210000C94000026E040E855E260E070E082E7E0
:1002200091E00C9457020F931F93CF93DF93CDB7B8
:10023000DEB762970FB6F894DEBF0FBECDBF6DE09C
:1002400084E691E00E94890604E611E0F80140810D
:1002500051816281738120E0CE010D960E944A0592
:10026000F801448155816681778120E0CE010796AF
:100270000E944A0566E071E0CE0101960E941E05CB
:10028000BE01635F7F4FCE0101960E94A805BC01AD
:1002900082E791E00E94AD03CE0101960E94B00476
:1002A00064E271E0CE0101960E941E05BE01695F05
:1002B0007F4FCE0101960E94A805BC0182E791E024
:1002C0000E94AD03CE0101960E94B00468EE73E077
:1002D00080E090E00E942E04CE0107960E94B004B8
:1002E000CE010D960E94B00462960FB6F894DEBF60
:1002F0000FBECDBFDF91CF911F910F910895109246
:1003000071010895FC01918D228D892F90E0805C10
:100310009F4F821B91098F7399270895FC01918D3E
:10032000828D981731F0828DE80FF11D858D90E058
:1003300008958FEF9FEF0895FC01918D828D98179E
:1003400061F0828DDF01A80FB11D5D968C91928DB9
:100350009F5F9F73928F90E008958FEF9FEF0895B6
:10036000FC01538D448D252F30E0842F90E0821BBB
:10037000930B541710F0CF9608950197089584E1D8
:1003800093E0892B49F080E090E0892B29F00E94CE
:10039000140381110C9400000895FC01848DDF0189
:1003A000A80FB11DA35ABF4F2C91848D90E00196E8
:1003B0008F739927848FA689B7892C93A089B189D7
:1003C0008C9180648C93938D848D981306C00288E1
:1003D000F389E02D80818F7D80830895CF93DF9313
:1003E000EC01888D8823C9F0EA89FB89808185FD2D
:1003F00005C0A889B9898C9186FD0FC00FB607FC8E
:10040000F5CF808185FFF2CFA889B9898C9185FFCE
:10041000EDCFCE010E94CD01E7CFDF91CF910895BE
:10042000EF92FF920F931F93CF93DF93EC0181E044
:10043000888F9B8D8C8D981305C0E889F989808100
:1004400085FD24C0F62E0B8D10E00F5F1F4F0F733C
:100450001127E02E8C8DE8120CC00FB607FCFACFE6
:10046000E889F989808185FFF5CFCE010E94CD0111
:10047000F1CF8B8DFE01E80FF11DE35AFF4FF082A3
:100480000B8FEA89FB898081806207C0EE89FF8932
:100490006083E889F98980818064808381E090E0CD
:1004A000DF91CF911F910F91FF90EF900895CF9220
:1004B000DF92EF92FF921F93CF93DF93EC016A01DB
:1004C0007B01122FE889F98982E080834115514E22
:1004D00061057105B1F060E079E08DE390E0A7017E
:1004E00096010E949B07DA01C9010197A109B10990
:1004F000B695A79597958795AC01411580E158076A
:10050000A8F0E889F989108260E874E88EE190E04B
:10051000A70196010E949B07BA01A9014150510908
:10052000610971097695679557954795EC85FD8525
:100530005083EE85FF854083188EEC89FD891083FA
:10054000EA89FB89808180618083EA89FB898081D7
:1005500088608083EA89FB89808180688083EA895A
:10056000FB8980818F7D8083DF91CF911F91FF90E8
:10057000EF90DF90CF9008951F920F920FB60F92D9
:1005800011242F938F939F93EF93FF93E091820118
:10059000F09183018081E0918801F091890182FDD1
:1005A00012C0908180918B018F5F8F7320918C019D
:1005B000821751F0E0918B01F0E0EE58FE4F958FDD
:1005C00080938B0101C08081FF91EF919F918F916A
:1005D0002F910F900FBE0F901F9018951F920F92A2
:1005E0000FB60F9211242F933F934F935F936F9306
:1005F0007F938F939F93AF93BF93EF93FF9382E784
:1006000091E00E94CD01FF91EF91BF91AF919F9139
:100610008F917F916F915F914F913F912F910F90AB
:100620000FBE0F901F90189582E791E00E94820103
:1006300021E0892B09F420E0822F0895E2E7F1E020
:100640001382128288EE93E0A0E0B0E08483958369
:10065000A683B78386E491E09183808385EC90E064
:100660009587848784EC90E09787868780EC90E07C
:10067000918B808B81EC90E0938B828B82EC90E06D
:10068000958B848B86EC90E0978B868B118E128EE7
:10069000138E148E089508950E9475040E944B03D2
:1006A0000E940A01CFEBD1E00E9413012097E1F3F1
:1006B0000E94BF01F9CFCF92DF92EF92FF920F938A
:1006C0001F93CF93DF936C017A018B01C0E0D0E0E0
:1006D000CE15DF0589F0D8016D918D01D601ED9120
:1006E000FC910190F081E02DC6010995892B11F450
:1006F0007E0102C02196ECCFC701DF91CF911F91FF
:100700000F91FF90EF90DF90CF90089561157105E4
:1007100079F0FB0101900020E9F73197AF01461B0A
:10072000570BDC01ED91FC910280F381E02D0994DF
:1007300080E090E00895DC01ED91FC91DB011496DE
:100740004D915C9115976D917C910280F381E02D24
:10075000099464E571E00C9486030F931F93CF9383
:10076000DF93EC010E949B038C01CE010E94A90340
:10077000800F911FDF91CF911F910F9108951F92CC
:100780000F920FB60F9211242F933F938F939F9345
:10079000AF93BF938091100290911102A091120229
:1007A000B091130230910F0223E0230F2D3720F474
:1007B0000196A11DB11D05C026E8230F0296A11DBB
:1007C000B11D20930F028093100290931102A09309
:1007D0001202B09313028091140290911502A0911D
:1007E0001602B09117020196A11DB11D809314024B
:1007F00090931502A0931602B0931702BF91AF9188
:100800009F918F913F912F910F900FBE0F901F904E
:1008100018953FB7F8948091140290911502A09119
:100820001602B091170226B5A89B05C02F3F19F0FC
:100830000196A11DB11D3FBFBA2FA92F982F882760
:10084000820F911DA11DB11DBC01CD0142E0660FBB
:10085000771F881F991F4A95D1F708958F929F920D
:10086000AF92BF92CF92DF92EF92FF926B017C0129
:100870000E9409044B015C01C114D104E104F1049C
:1008800001F10E94C8060E940904DC01CB0188190D
:100890009909AA09BB09883E9340A105B10560F3F7
:1008A00021E0C21AD108E108F10888EE880E83E041
:1008B000981EA11CB11CC114D104E104F10419F764
:1008C000DBCFFF90EF90DF90CF90BF90AF909F90E5
:1008D0008F9008958230910538F0880F991F880F06
:1008E000991F05970197F1F70895789484B5826070
:1008F00084BD84B5816084BD85B5826085BD85B5C4
:10090000816085BDEEE6F0E0808181608083E1E872
:10091000F0E01082808182608083808181608083AA
:10092000E0E8F0E0808181608083E1EBF0E08081AD
:1009300084608083E0EBF0E0808181608083EAE77F
:10094000F0E0808184608083808182608083808108
:10095000816080838081806880831092C1000895C7
:10096000FC01808191810C947808CF93DF93EC0196
:1009700088819981009711F00E9478081982188265
:100980001D821C821B821A82DF91CF9108950F93E2
:100990001F93CF93DF93EC018B016F5F7F4F8881B3
:1009A00099810E941009009731F0998388831B83F5
:1009B0000A8381E001C080E0DF91CF911F910F9108
:1009C0000895CF93DF93EC0188819981892B29F0D9
:1009D0008A819B818617970760F4CE010E94C70425
:1009E000882341F08C819D81892B19F4E881F9815C
:1009F000108281E0DF91CF910895EF92FF920F93E3
:100A00001F93CF93DF93EC017B018A01BA010E940F
:100A1000E104811104C0CE010E94B50407C01D830A
:100A20000C83B701888199810E94E309CE01DF918F
:100A3000CF911F910F91FF90EF900895FC011182CB
:100A4000108213821282158214826115710551F091
:100A5000FB0101900020E9F73197AF01461B570BCE
:100A60000C94FD040895CF93DF93EC01611571059B
:100A700059F0FB0101900020E9F73197AF01461BC7
:100A8000570B0E94FD0402C00E94B504CE01DF9105
:100A9000CF910895EF92FF920F931F93CF93DF931F
:100AA000CDB7DEB7A1970FB6F894DEBF0FBECDBFAE
:100AB0007C01CB01BA01F7011182108213821282EC
:100AC0001582148242E0420F8E010F5F1F4F0E9479
:100AD000C307BC01C7010E943305A1960FB6F89465
:100AE000DEBF0FBECDBFDF91CF911F910F91FF9061
:100AF000EF900895EF92FF920F931F93CF93DF93A0
:100B0000FC01248135816115710511F480E019C063
:100B100041155105A9F07B01EC018A01020F131F59
:100B2000B8010E94E104882389F3288139818C81EE
:100B30009D81B701820F931F0E94E3091D830C83DF
:100B400081E0DF91CF911F910F91FF90EF90089579
:100B5000CF93DF93EC01FB0144815581608171816A
:100B60000E947A05811103C0CE010E94B504CE0116
:100B7000DF91CF9108954F925F926F927F928F9203
:100B80009F92AF92BF92CF92DF92EF92FF920F931C
:100B90001F93CF93DF931F92CDB7DEB72C01062FA3
:100BA000F22EA62FB0E0FD01EA58FE4F1491FD0190
:100BB000E657FE4FE491F0E0EE0FFF1FE256FE4FC6
:100BC000C590D49061E0802F49830E94F20660E0D6
:100BD000802F0E942E074981493038F0642F70E041
:100BE00080E090E00E942E040AC088EE93E09C0111
:100BF000429FC001439F900D11240E946A0461E04E
:100C0000802F0E942E0760E0802F0E94F20620E2D3
:100C100033E0D6018C91812329F021503109C9F7A5
:100C20008DEF65C020E931E0F6018081812329F450
:100C300021503109C9F78CEF5AC020E931E0D601C3
:100C40008C91812329F021503109C9F78BEF4FC0D6
:100C500028E240E951E060E070E0E0E9F1E090E096
:100C6000612C712C80E8022F0F19B0E98B2E99248A
:100C70009394A12CB12CD6013C91312379F5992381
:100C800069F1021798F44E175F0708F4FA01B501ED
:100C9000A4014E1B5F0B61097109A2E07595679570
:100CA00057954795AA95D1F7BA0107C07F01E61A73
:100CB000F70AE416F50608F0682A90E095958795FE
:100CC000009749F4C201870D911DDC0118966C92C2
:100CD0007394612C80E8215040E951E04150510962
:100CE00029F0932F2111C7CF80E001C08EEF0F9024
:100CF000DF91CF911F910F91FF90EF90DF90CF90F8
:100D0000BF90AF909F908F907F906F905F904F902B
:100D10000895FF920F931F93CF93DF93EC018D857E
:100D2000882309F0F89421E042E1CE010E94BB053E
:100D3000F82E8D85882309F0789408850F77088729
:100D40001A851F771A87602F70E080E090E00E947C
:100D50005E07688379838A839B83612F70E080E0DC
:100D600090E00E945E076C837D838E839F839B85CA
:100D70008985890F080F100F8C85811302C08F2D74
:100D800001C08FEFDF91CF911F910F91FF900895D8
:100D90000895833081F028F4813099F08230A1F0F9
:100DA00008958730A9F08830B9F08430D1F480916B
:100DB00080008F7D03C0809180008F7780938000BA
:100DC000089584B58F7702C084B58F7D84BD089562
:100DD0008091B0008F7703C08091B0008F7D8093A9
:100DE000B0000895CF93DF9390E0FC01EA58FE4FE6
:100DF0002491FC01E657FE4F8491882361F190E035
:100E0000880F991FFC01EE54FE4FC591D491FC014F
:100E1000E855FE4FA591B491611109C09FB7F894B0
:100E20008881209582238883EC912E230BC0623029
:100E300061F49FB7F8943881822F8095832388834B
:100E4000EC912E2B2C939FBF06C08FB7F894E881AE
:100E50002E2B28838FBFDF91CF9108951F93CF93BF
:100E6000DF93282F30E0F901EE59FE4F8491F9010C
:100E7000EA58FE4FD491F901E657FE4FC491CC23B6
:100E8000C9F0162F81110E94C906EC2FF0E0EE0F79
:100E9000FF1FE855FE4FA591B4918FB7F89411113B
:100EA00005C09C91ED2FE095E92302C0EC91ED2B5C
:100EB000EC938FBFDF91CF911F910895E89409C003
:100EC00097FB3EF490958095709561957F4F8F4F7D
:100ED0009F4F9923A9F0F92F96E9BB279395F69593
:100EE000879577956795B795F111F8CFFAF4BB0F11
:100EF00011F460FF1BC06F5F7F4F8F4F9F4F16C075
:100F0000882311F096E911C0772321F09EE8872FFE
:100F1000762F05C0662371F096E8862F70E060E0BA
:100F20002AF09A95660F771F881FDAF7880F969533
:100F3000879597F90895A1E21A2EAA1BBB1BFD0104
:100F40000DC0AA1FBB1FEE1FFF1FA217B307E407A8
:100F5000F50720F0A21BB30BE40BF50B661F771F00
:100F6000881F991F1A9469F76095709580959095E0
:100F70009B01AC01BD01CF010895EE0FFF1F05904D
:100F8000F491E02D0994EF920F931F93CF93DF9389
:100F9000E80147FD02C034E001C034E1E42F440F12
:100FA000FF0BF7FF03C0F195E195F109E32E022F46
:100FB0002E2FAE010E94EA09CE01DF91CF911F9141
:100FC0000F91EF900895CF93DF938230910510F445
:100FD00082E090E0E0911A02F0911B0220E030E004
:100FE000C0E0D0E0309711F1408151814817590796
:100FF000C0F04817590761F482819381209719F056
:101000009B838A832BC090931B0280931A0226C075
:101010002115310519F04217530718F49A01BE0142
:10102000DF01EF010280F381E02DDCCF21153105D6
:1010300009F1281B390B2430310590F412968D915B
:101040009C9113976115710521F0FB0193838283B5
:1010500004C090931B0280931A02FD01329644C093
:10106000FD01E20FF31F81939193225031092D93DB
:101070003C933AC02091180230911902232B41F47D
:10108000209102013091030130931902209318023C
:1010900020910001309101012115310541F42DB756
:1010A0003EB74091040150910501241B350BE0919E
:1010B0001802F0911902E217F307A0F42E1B3F0B60
:1010C0002817390778F0AC014E5F5F4F24173507BA
:1010D00048F04E0F5F1F50931902409318028193FE
:1010E000919302C0E0E0F0E0CF01DF91CF9108954D
:1010F0000F931F93CF93DF93009709F48CC0FC01EB
:1011000032971382128200911A0210911B0201156C
:10111000110581F420813181820F931F20911802E3
:10112000309119022817390779F5F0931902E093E5
:10113000180271C0D80140E050E0AE17BF0750F46C
:1011400012962D913C911397AD012115310509F1AE
:10115000D901F3CF9D01DA0133832283608171814C
:10116000860F971F8217930769F4EC012881398154
:10117000260F371F2E5F3F4F318320838A819B814B
:1011800093838283452B29F4F0931B02E0931A0288
:1011900042C01396FC93EE931297ED014991599139
:1011A0009E01240F351FE217F30771F480819181AE
:1011B000840F951F029611969C938E938281938142
:1011C00013969C938E931297E0E0F0E0D80112966C
:1011D0008D919C911397009719F0F8018C01F6CF2F
:1011E0008D919C9198012E5F3F4F820F931F20910C
:1011F0001802309119022817390769F4309729F439
:1012000010921B0210921A0202C0138212821093D3
:10121000190200931802DF91CF911F910F91089549
:10122000A0E0B0E0E6E1F9E00C94540CEC0100978A
:1012300021F4CB010E94E307B8C0FC01E60FF71FC1
:101240009C0122503109E217F30708F4ACC0D90120
:101250000D911C91119706171707B0F00530110575
:1012600008F49FC0C80104978617970708F499C02F
:1012700002501109061B170B019311936D937C9378
:10128000CF010E9478088DC05B01A01AB10A4C0101
:10129000800E911EA0911A02B0911B0240E050E016
:1012A000E12CF12C109709F44AC0A815B905D1F525
:1012B0006D907C901197630182E0C80ED11CCA1416
:1012C000DB0480F1A3014A195B096A0182E0C80EC0
:1012D000D11C1296BC9012971396AC91B5E0CB1628
:1012E000D10440F0B282A38351834083D9016D932E
:1012F0007C930AC00E5F1F4FC301800F911FF9013D
:1013000091838083EB2DFA2FE114F10431F0D701A2
:101310001396FC93EE93129744C0F0931B02E09354
:101320001A023FC08D919C9111974817590708F4F4
:10133000AC017D0112960D90BC91A02DB3CF809190
:1013400018029091190288159905E1F4461757077C
:10135000C8F48091000190910101009741F48DB78C
:101360009EB74091040150910501841B950BE8172D
:10137000F907C8F4F0931902E0931802F901718398
:1013800060830FC0CB010E94E3077C01009759F0F6
:10139000A801BE010E94DA09CE010E947808C701A7
:1013A00004C0CE0102C080E090E0CDB7DEB7EEE031
:1013B0000C94700CFB01DC0102C001900D924150B5
:1013C0005040D8F70895FB01DC0101900D920020F8
:1013D000E1F708954F925F926F927F929F92AF9242
:1013E000BF92CF92DF92EF92FF920F931F93CF9312
:1013F000DF93CDB7DEB729970FB6F894DEBF0FBEE7
:10140000CDBF6A01122FB02E2BE3201720F0FF244E
:10141000F394F00E02C0BCE3FB2E0F2D27E0AE01CB
:101420004F5F5F4F0E94780BAC018981982F9970B4
:10143000913031F0E1FC06C0E0FE06C090E205C04C
:101440009DE203C09BE201C090E0EE2DE07183FFBE
:101450003CC0911102C083E001C084E0811718F400
:10146000212F281B01C020E0E1110BC0F601822FC3
:1014700030E2882319F031938150FBCFC20ED11C8A
:1014800020E0992329F0D6019C93F60131966F0153
:10149000C6010396E2FE0AC03EE4D6013C9341E455
:1014A00011964C93119712963C9306C03EE6F601B6
:1014B000308341E641833283FC01322F40E2332303
:1014C00009F442C041933150FACF82FF44C09111D8
:1014D00002C083E001C084E0811718F4212F281B8B
:1014E00001C020E0E1110BC0F601822F30E2882319
:1014F00019F031938150FBCFC20ED11C20E099230B
:1015000029F0D6019C93F60131966F01C60103962E
:10151000E2FE0BC039E4D6013C933EE411963C93C5
:10152000119736E412963C9307C039E6F6013083F2
:101530003EE6318336E63283FC01322F40E233232C
:1015400019F041933150FBCFFC01E20FF11D1082E5
:101550008EEF9FEFB7C0F1E0911101C0F0E06F2F67
:1015600070E01416150624F49A012F5F3F4F02C055
:1015700021E030E0260F371FBB2029F06B2D70E0F3
:101580006F5F7F4F02C060E070E0260F371F612F52
:1015900070E0261737071CF4121B212F01C020E032
:1015A0003E2D387159F4D601322F60E2332319F001
:1015B0006D933150FBCFC20ED11C20E0FF2331F0E0
:1015C000D6019C93B6016F5F7F4F6B01E1110BC099
:1015D000F601922F30E3992319F031939150FBCF0C
:1015E000C20ED11C20E09F2D940F3A81782F70718C
:1015F000A72E84FF03C0313309F49150191624F447
:10160000993018F098E001C091E0E42F852F57FF42
:1016100002C0E0E080E06E2F782FE0E0F0E0AEE284
:101620009A2E3A01691A71082A01461A570A0B2D97
:1016300010E01195019511096F3F8FEF780729F49C
:10164000D6019C92C60101966C014617570784F09B
:10165000661677066CF47F01E40CF51CA1E0B0E09F
:10166000AC0FBD1FEA0EFB1ED7011196BC9002C045
:1016700090E3B92E615071093196C60101967C0143
:101680006017710724F0D601BC926C01D5CF6417A6
:10169000750741F4363320F4353321F4A11002C02C
:1016A00081E3B82EF601B082F701822F90E2882301
:1016B00019F091938150FBCFF701E20FF11D1082D9
:1016C00080E090E029960FB6F894DEBF0FBECDBF44
:1016D000DF91CF911F910F91FF90EF90DF90CF900E
:1016E000BF90AF909F907F906F905F904F900895C4
:1016F000283008F027E03327DA01990F311D87FDE4
:10170000916000966105710539F432602E5F3D935A
:1017100030E32A95E1F708959F3F30F08038710556
:10172000610509F03C5F3C5F3D93913008F08068B3
:10173000911DDF93CF931F930F93FF92EF92192F79
:10174000987F9695E92F96959695E90FFF27EE538A
:10175000FF4F99273327EE24FF24A701E7010590C7
:101760000894079428F4360FE71EF81E491F511DF0
:10177000660F771F881F991F0694A1F7059007949D
:1017800028F4E70EF81E491F561FC11D770F881F4A
:10179000991F661F0694A1F70590079428F4F80E88
:1017A000491F561FC71FD11D880F991F661F771F1E
:1017B0000694A1F70590079420F4490F561FC71F00
:1017C000D81F990F661F771F881F0694A9F7849169
:1017D0001095177041F0D695C79557954795F79492
:1017E000E7941A95C1F7E8E6F0E068941590159132
:1017F00035916591959105907FE27395E118F10A15
:10180000430B560BC90BD009C0F7E10CF11E431F67
:10181000561FC91FD01D7EF4703311F48A95E6CF90
:10182000E894015030F0080F0AF40027021708F47A
:10183000202F2395022F7A3328F079E37D932A9580
:10184000E9F710C07D932A9589F6069497956795D8
:10185000379517951794E118F10A430B560BC90BEE
:10186000D00998F023957E9173957A3308F070E350
:101870007C932013B8F77E9170617D9330F083954F
:1018800071E37D9370E32A95E1F71124EF90FF90C7
:101890000F911F91CF91DF91992787FD9095089522
:1018A0002F923F924F925F926F927F928F929F9270
:1018B000AF92BF92CF92DF92EF92FF920F931F935E
:1018C000CF93DF93CDB7DEB7CA1BDB0B0FB6F8940F
:1018D000DEBF0FBECDBF09942A88398848885F844F
:1018E0006E847D848C849B84AA84B984C884DF80C0
:1018F000EE80FD800C811B81AA81B981CE0FD11DA4
:101900000FB6F894DEBF0FBECDBFED010895F89479
:02191000FFCF07
:1019120000001C0280000920C4E0F2F7E8EA20443B
:10192200485431313A20E2EBE0E6EDEEF1F2FC20F0
:10193200253A20000920C4E0F2F7E8EA204448549E
:1019420031313A20F2E5ECEFE5F0E0F22E20D13A27
:1019520020000000000010025B03B001EE018201D2
:101962009C018E010D0A006E616E00696E66006F49
:041972007666000095
:00000001FF
