:100000000C9479020C94A1020C94A1020C94A1020C
:100010000C94A1020C94A1020C94A1020C94A102D4
:100020000C94A1020C94A1020C94A1020C94A102C4
:100030000C94A1020C94A1020C94A1020C94A102B4
:100040000C94A9090C94A1020C94A4080C94D60851
:100050000C94A1020C94A1020C94A1020C94A10294
:100060000C94400E0C94A10200407A10F35A00A0A8
:10007000724E18090010A5D4E80000E87648170071
:1000800000E40B54020000CA9A3B000000E1F505B1
:10009000000080969800000040420F000000A086FB
:1000A00001000000102700000000E803000000002D
:1000B0006400000000000A000000000001000000D1
:1000C00000002C76D888DC674F0823DFC1DFAE59EB
:1000D000E1B1B796E5E3E453C63AE651997696E87E
:1000E000E6C28426EB898C9B62ED407C6FFCEFBC02
:1000F0009C9F40F2BAA56FA5F490055A2AF75C932D
:100100006B6CF9676DC11BFCE0E40D47FEF520E662
:10011000B500D0ED902E0300943577050080841E45
:10012000080000204E0A000000C80C333333330FA0
:10013000986E12831141EF8D2114893BE65516CF3D
:10014000FEE6DB18D1844B381BF77C1D901DA4BB49
:10015000E424203284725E228100C9F124ECA1E5FE
:100160003D27AED5808D142001A1C8817FDB40A63C
:10017000AF000000000000006F0000000700070053
:10018000147F147F148C92FF9262231308646236EA
:10019000495620500000070000001C224100004189
:1001A000221C0014083E081408083E0808005030BD
:1001B000000008080808080060600000201008041B
:1001C000023E5149453E00427F400042615149464E
:1001D0002141454B311814127F1027454545393CC4
:1001E0004A494930017109050336494949360649EA
:1001F00049291E0036360000005636000008142239
:10020000410014141414140041221408020151096D
:10021000063E415D494E7E0909097E7F49494936BE
:100220003E414141227F4141413E7F494949417F11
:10023000090909013E4149497A7F0808087F0041C0
:100240007F41002040413F017F081422417F404010
:1002500040407F020C027F7F0408107F3E414141F5
:100260003E7F090909063E4151215E7F0919294651
:10027000464949493101017F01013F4040403F0F5C
:100280003040300F3F4030403F631408146307088C
:10029000700807615149454300007F41000204088E
:1002A000102000417F000004020102044040404051
:1002B00040000003040020545454787F48444438DC
:1002C0003844444420384444487F3854545418082F
:1002D0007E0901020C5252523E7F08040478004409
:1002E0007D40002040443D00007F10284400417FB5
:1002F00040007C041804787C0804047838444444A2
:10030000387C14141408081414187C7C080404089D
:100310004854545420043F4440203C4040207C1C1E
:100320002040201C3C4030403C44281028440C50C5
:1003300050503C4464544C44000836414100007F16
:100340000000414136080004020408047E11111126
:100350007E7F494949337F494949367F010101037D
:10036000E0514F41FF7F4949494177087F08774174
:10037000494949367F1008047F7C2112097C7F0897
:1003800014224120413F017F7F020C027F7F080839
:10039000087F3E4141413E7F0101017F7F090909FC
:1003A000063E4141412201017F0101472810080713
:1003B0001C227F221C63140814637F404040FF0707
:1003C0000808087F7F407F407F7F407F40FF017F9C
:1003D0004848307F4830007F007F484830224149FC
:1003E000493E7F083E413E462919097F2054545416
:1003F000783C4A4A49317C545428007C04040C005F
:10040000E0544C44FC38545454186C107C106C4428
:10041000545428007C2010087C78422412787C10E8
:1004200028440020443C047C7C0810087C7C10108C
:10043000107C38444444387C0404047C7C14141438
:1004400008384444440004047C04040C5050503CDC
:100450003048FE483044281028447C40407CC00C82
:100460001010107C7C407C407C7C407C40FC047CF8
:100470005050207C5050207C7C5050200028445408
:1004800054387C10384438085434147C385554554A
:10049000180000000800020100000304070000002B
:1004A0000000000000010204081020408001020446
:1004B00008102001020408102004040404040404A9
:1004C000040202020202020303030303030000000A
:1004D0000023002600290000000000250028002B32
:1004E0000000000000240027002A0000A7020609DF
:1004F000900D11241FBECFEFD8E0DEBFCDBF11E0BD
:10050000A0E0B1E0ECE5FAE202C005900D92A63B56
:10051000B107D9F723E0A6EBB1E001C01D92A235E7
:10052000B207E1F712E0C9E7D2E004C02197FE016B
:100530000E946210C637D107C9F70E9434090C9493
:100540002C150C94000080E090E00895089510921E
:10055000E701E8EDF1E081E580831182E6EBF1E06F
:10056000138212828BE791E0918380838CE38483F2
:1005700087E085838FE386838FE7878311861086E4
:1005800012861386148681E0858788E08687108A24
:100590001786128A118A138A158A82E0868B11A225
:1005A0000895682F8EE892E00C94270DFC01648179
:1005B0008EE892E00E94700D80E00C94D102FC0164
:1005C00064818EE892E00E94700D80E40C94D10268
:1005D000CF93DF93EC01862F0E94D1028D898F5F2C
:1005E0008D8B803150F08EE892E00E948D0D1D8A37
:1005F000CE01DF91CF910C94DF02DF91CF9108956E
:100600000F931F93FC0181A1882309F46DC0878596
:100610009089238D348D821B930B21893289458DDE
:10062000568D97FD66C0A789B08DA817B9070CF441
:1006300060C0241B350B37FD5CC0A18DB28DAD01B0
:1006400073E0440F551F7A95E1F7421753070CF4F6
:1006500050C001301105E1F00230110581F1012B8C
:1006600009F047C073E0359527957A95E1F78A9FA1
:10067000A0018B9F500D9A9F500D1124240F351F00
:10068000078CF0A1E02DE20FF31F8081682B2AC0B8
:1006900053E0359527955A95E1F78A9FA0018B9FE6
:1006A000500D9A9F500D1124240F351F078CF0A177
:1006B000E02DE20FF31F60958081682313C043E0B3
:1006C000359527954A95E1F78A9FA0018B9F500D9C
:1006D0009A9F500D1124878D90A1280F391FF90181
:1006E000E40FF51F608305C0CF011F910F910C949B
:1006F000E8021F910F910895AF92BF92CF92DF92BF
:10070000EF92FF920F931F93CF93DF93EC015B0166
:100710007A0169010E94D60281E20E94D102B7FCEF
:1007200008C02F8130E0C5012A153B051CF4C90122
:1007300001C080E00E94D102D7FC08C02F8130E0C8
:10074000C6012C153D051CF4C90101C080E00E94C2
:10075000D10282E20E94D102F7FC09C08D8190E0B3
:10076000A7018E159F050CF4AC01842F01C080E019
:100770000E94D10217FD08C08D8190E0801791077B
:100780000CF48C01802F01C080E00E94D1028EE821
:1007900092E00E948D0D1D8ADF91CF911F910F91E4
:1007A000FF90EF90DF90CF90BF90AF9008950F93A0
:1007B0001F93FC01708B6787528B418B96858781D5
:1007C000242F2770238B8A01090F111D0150110955
:1007D00093E0159507959A95E1F79B01280F311D38
:1007E000A3E055954795AA95E1F7CF010E947C03B8
:1007F0001F910F9108952F923F924F925F926F92A7
:100800007F928F929F92AF92BF92CF92DF92EF92A0
:10081000FF920F931F93CF93DF9300D000D000D0AF
:10082000CDB7DEB79E838D83162F6D3029F4FC0182
:10083000108A178681E00DC06A3069F4ED81FE816F
:10084000268581899289820F911D928B818B81E00F
:10085000848710E001C080E0ED81FE8193859923BB
:10086000C9F0958547855089F6E09F9F400D511D41
:100870001124ED81FE81278130E04217530754F0A7
:10088000108A1786268581899289820F911D928B05
:10089000818B02C0882349F0ED81FE814189528914
:1008A00067857089CF010E94D703ED81FE8186851F
:1008B00021893289280F311D868190E001968217A7
:1008C00093070CF410E0ED81FE818485882359F0B4
:1008D0008385882341F0103231F487859089892BF4
:1008E00051F514866DC117FF23C0103CD0F4ED8183
:1008F000FE818489813D21F41139A9F480EC14C072
:10090000803D21F4113879F485E90EC0823E19F456
:10091000103849F406C0803831F4143921F48DE2DE
:1009200003C080E001C0812FED81FE81148B182F60
:10093000112309F445C1ED81FE81478550898585E4
:100940009A01F6E08F9F200D311D112437FD07C05D
:10095000ED81FE81878190E0841795072CF4ED816D
:10096000FE81308B27872CC18D819E810E94DF0202
:1009700030EE310F3A8345E0349FC0011124FC0171
:10098000EF58FE4F7F01198210581B83E8E0CE2EEE
:10099000D12C39813530B1F05A81503610F4F7013D
:1009A0000FC03B81303120F4F701E551FF4F08C003
:1009B0005A81F701503A18F4E555F10901C035970D
:1009C000649101C060E0ED81FE81828581116095B6
:1009D000ED81FE8195859130A1F52785308937FD20
:1009E000D6C0878190E0821793070CF4D0C083892A
:1009F0000689811104C010E020E040E01EC0A62E50
:100A0000B12C10E0B50101C0660F8A95EAF720E02D
:100A100040E08D819E810E940003ED81FE81068968
:100A200010E083899601281B3109B50102C0759534
:100A300067952A95E2F720E041E0CF010E9400038C
:100A4000A6C020E030E080E0812C912C5401E62FFC
:100A5000F0E0AF01022E02C0559547950A94E2F7E7
:100A600041705527682F690F8617F1F0412C512CE2
:100A700032014394082E04C0440C551C661C771C9C
:100A80000A94D2F74115510529F084289528A62803
:100A9000B72808C0409450946094709484209520A6
:100AA000A620B7208F5FE0CF2F5F3F4F2830310562
:100AB00081F6312CED81FE818585381608F067C0FE
:100AC000ED81FE8187859089830D911D97FD46C03C
:100AD000278130E0281739070CF440C0212C30E082
:100AE000ED81FE8185852816D0F5F8E02F9EC001A6
:100AF00011242401350104C07694679457944794D7
:100B00008A95D2F7ED81FE812389068910E02111B3
:100B100009C0232D422D642DCF013C830E94000388
:100B20003C811AC0642D70E0CB01022E01C0880FF9
:100B30000A94EAF7632F70E0A601421B510902C034
:100B4000759567954A95E2F7682B232D422D8D8187
:100B50009E810E940003342D2394C2CF30E0ED81AA
:100B6000FE818389882389F0068910E0632F70E075
:100B70009601281B310902C0759567952A95E2F701
:100B8000232D4585CF010E940003339493CFED813F
:100B9000FE81258587859089820F911D908B87879F
:100BA00039813F5F39834FEFE41AF40A363009F098
:100BB000F0CE8EE892E00E948D0DED81FE81158AC7
:100BC00081E090E026960FB6F894DEBF0FBECDBF51
:100BD000DF91CF911F910F91FF90EF90DF90CF9019
:100BE000BF90AF909F908F907F906F905F904F904D
:100BF0003F902F9008950F931F93CF93DF93CDB71E
:100C0000DEB762970FB6F894DEBF0FBECDBF6DE0C2
:100C10008AED91E00E948C0C0AED11E0F801408110
:100C200051816281738120E0CE010D960E94340BC8
:100C3000F801448155816681778120E0CE010796D5
:100C40000E94340B66E071E0CE0101960E94080B11
:100C5000BE01635F7F4FCE0101960E94920BBC01E3
:100C600088EE91E00E949709CE0101960E949A0AAF
:100C700064E271E0CE0101960E94080BBE01695F3B
:100C80007F4FCE0101960E94920BBC0188EE91E04D
:100C90000E949709CE0101960E949A0A48E250E00C
:100CA00060E070E086EB91E00E94D70362E471E0BF
:100CB000CE0101960E94080BBE01635F7F4FCE01FB
:100CC00001960E94920B6AE471E00E94A50BBC01A0
:100CD00086EB91E00E948309CE0101960E949A0A58
:100CE00040E350E060E070E086EB91E00E94D703C3
:100CF0006DE471E0CE0101960E94080BBE01695FB0
:100D00007F4FCE0101960E94920B66E571E00E9432
:100D1000A50BBC0186EB91E00E948309CE010196F0
:100D20000E949A0A68EE73E080E090E00E94180A40
:100D3000CE0107960E949A0ACE010D960E949A0A49
:100D400062960FB6F894DEBF0FBECDBFDF91CF9194
:100D50001F910F9108950F931F93CF93DF9326E078
:100D600040E855E260E070E088EE91E00E943F08C4
:100D70008EE892E00E94660D86EB91E00E94D6021A
:100D8000C2E6D1E01C2F115FFE01649186EB91E079
:100D90000E94E80221961C13F7CF8EE892E00E9491
:100DA0008D0D1092CB0186EB91E00E94D6026AED88
:100DB00086EB91E00E94E80262E186EB91E00E94FE
:100DC000E80268EA86EB91E00E94E8026FE386EBB6
:100DD00091E00E94E8028EE892E00E948D0D109250
:100DE000CB0140E050E060E070E086EB91E00E94D3
:100DF000D7030091BB0110E02091BD0130E040E03D
:100E000050E060E070E086EB91E00E947C0386EBAE
:100E100091E00E94DF02C0E0D4E060E086EB91E068
:100E20000E94E8022197C9F78EE892E00E948D0D9A
:100E30001092CB014091C7015091C8016091C5014A
:100E40007091C60186EB91E00E94D70382E0809307
:100E5000C30180E18093C4014091C7015091C80152
:100E60006091C5017091C60186EB91E00E94D703A5
:100E700040E050E060E070E086EB91E00E94D70334
:100E800069E571E086EB91E00E94910981E0809331
:100E9000C30188E08093C4014091C7015091C8010B
:100EA0006091C5017091C60186EB91E00E94D70365
:100EB00048E150E060E070E086EB91E00E94D703EB
:100EC00061E671E086EB91E0DF91CF911F910F9188
:100ED0000C949109FC01918D228D892F90E0805C0A
:100EE0009F4F821B91098F7399270895FC01918D63
:100EF000828D981731F0828DE80FF11D858D90E07D
:100F000008958FEF9FEF0895FC01918D828D9817C2
:100F100061F0828DDF01A80FB11D5D968C91928DDD
:100F20009F5F9F73928F90E008958FEF9FEF0895DA
:100F3000FC01538D448D252F30E0842F90E0821BDF
:100F4000930B541710F0CF960895019708958CEFE6
:100F500098E0892B49F080E090E0892B29F00E94ED
:100F6000FC0881110C9400000895FC01848DDF01C0
:100F7000A80FB11DA35ABF4F2C91848D90E001960C
:100F80008F739927848FA689B7892C93A089B189FB
:100F90008C9180648C93938D848D981306C0028805
:100FA000F389E02D80818F7D80830895CF93DF9337
:100FB000EC01888D8823C9F0EA89FB89808185FD51
:100FC00005C0A889B9898C9186FD0FC00FB607FCB2
:100FD000F5CF808185FFF2CFA889B9898C9185FFF3
:100FE000EDCFCE010E94B507E7CFDF91CF910895F5
:100FF000EF92FF920F931F93CF93DF93EC0181E069
:10100000888F9B8D8C8D981305C0E889F989808124
:1010100085FD24C0F62E0B8D10E00F5F1F4F0F7360
:101020001127E02E8C8DE8120CC00FB607FCFACF0A
:10103000E889F989808185FFF5CFCE010E94B50747
:10104000F1CF8B8DFE01E80FF11DE35AFF4FF082C7
:101050000B8FEA89FB898081806207C0EE89FF8956
:101060006083E889F98980818064808381E090E0F1
:10107000DF91CF911F910F91FF90EF900895CF9244
:10108000DF92EF92FF921F93CF93DF93EC016A01FF
:101090007B01122FE889F98982E080834115514E46
:1010A00061057105B1F060E079E08DE390E0A701A2
:1010B00096010E944010DA01C9010197A109B10906
:1010C000B695A79597958795AC01411580E158078E
:1010D000A8F0E889F989108260E874E88EE190E070
:1010E000A70196010E944010BA01A901415051097F
:1010F000610971097695679557954795EC85FD854A
:101100005083EE85FF854083188EEC89FD8910831E
:10111000EA89FB89808180618083EA89FB898081FB
:1011200088608083EA89FB89808180688083EA897E
:10113000FB8980818F7D8083DF91CF911F91FF900C
:10114000EF90DF90CF9008951F920F920FB60F92FD
:1011500011242F938F939F93EF93FF93E091F801C6
:10116000F091F9018081E091FE01F091FF0182FD93
:1011700012C09081809101028F5F8F7320910202D3
:10118000821751F0E0910102F0E0E851FE4F958F97
:101190008093010201C08081FF91EF919F918F9117
:1011A0002F910F900FBE0F901F9018951F920F92C6
:1011B0000FB60F9211242F933F934F935F936F932A
:1011C0007F938F939F93AF93BF93EF93FF9388EE9B
:1011D00091E00E94B507FF91EF91BF91AF919F9170
:1011E0008F917F916F915F914F913F912F910F90D0
:1011F0000FBE0F901F90189588EE91E00E946A072D
:1012000021E0892B09F420E0822F0895E8EEF1E037
:101210001382128288EE93E0A0E0B0E0848395838D
:10122000A683B78387E891E09183808385EC90E083
:101230009587848784EC90E09787868780EC90E0A0
:10124000918B808B81EC90E0938B828B82EC90E091
:10125000958B848B86EC90E0978B868B118E128E0B
:10126000138E148E089508950E945F0A0E94330918
:101270000E94AB06C7EAD7E00E94FB052097E1F386
:101280000E94A707F9CFCF92DF92EF92FF920F93C0
:101290001F93CF93DF936C017A018B01C0E0D0E004
:1012A000CE15DF0589F0D8016D918D01D601ED9144
:1012B000FC910190F081E02DC6010995892B11F474
:1012C0007E0102C02196ECCFC701DF91CF911F9123
:1012D0000F91FF90EF90DF90CF9008956115710509
:1012E00079F0FB0101900020E9F73197AF01461B2F
:1012F000570BDC01ED91FC910280F381E02D099404
:1013000080E090E00895DC01ED91FC91DB01149602
:101310004D915C9115976D917C910280F381E02D48
:1013200009940C946E0965E971E00C946E090F93B1
:101330001F93CF93DF93EC010E9483098C01CE01B0
:101340000E949309800F911FDF91CF911F910F9100
:1013500008951F920F920FB60F9211242F933F936F
:101360008F939F93AF93BF93809186029091870252
:10137000A0918802B09189023091850223E0230F69
:101380002D3720F40196A11DB11D05C026E8230FBD
:101390000296A11DB11D2093850280938602909331
:1013A0008702A0938802B093890280918A0290916B
:1013B0008B02A0918C02B0918D020196A11DB11DEE
:1013C00080938A0290938B02A0938C02B0938D023B
:1013D000BF91AF919F918F913F912F910F900FBE31
:1013E0000F901F9018953FB7F89480918A029091C2
:1013F0008B02A0918C02B0918D0226B5A89B05C0EE
:101400002F3F19F00196A11DB11D3FBFBA2FA92F83
:10141000982F8827820F911DA11DB11DBC01CD0100
:1014200042E0660F771F881F991F4A95D1F70895EC
:101430008F929F92AF92BF92CF92DF92EF92FF92E4
:101440006B017C010E94F3094B015C01C114D104C2
:10145000E104F10401F10E946D0F0E94F309DC0127
:10146000CB0188199909AA09BB09883E9340A105B7
:10147000B10560F321E0C21AD108E108F10888EE55
:10148000880E83E0981EA11CB11CC114D104E10494
:10149000F10419F7DBCFFF90EF90DF90CF90BF9072
:1014A000AF909F908F9008958230910538F0880F0B
:1014B000991F880F991F05970197F1F70895789460
:1014C00084B5826084BD84B5816084BD85B5826049
:1014D00085BD85B5816085BDEEE6F0E080818160E7
:1014E0008083E1E8F0E010828081826080838081E7
:1014F00081608083E0E8F0E0808181608083E1EBBF
:10150000F0E0808184608083E0EBF0E080818160A6
:101510008083EAE7F0E0808184608083808182605C
:101520008083808181608083808180688083109245
:10153000C1000895FC01808191810C941D11CF930D
:10154000DF93EC0188819981009711F00E941D11B1
:10155000198218821D821C821B821A82DF91CF9110
:1015600008950F931F93CF93DF93EC018B016F5F6F
:101570007F4F888199810E94B511009731F099833E
:1015800088831B830A8381E001C080E0DF91CF91D3
:101590001F910F910895CF93DF93EC01888199817A
:1015A000892B29F08A819B818617970760F4CE01E9
:1015B0000E94B10A882341F08C819D81892B19F406
:1015C000E881F981108281E0DF91CF910895EF9257
:1015D000FF920F931F93CF93DF93EC017B018A015E
:1015E000BA010E94CB0A811104C0CE010E949F0A59
:1015F00007C01D830C83B701888199810E948812DE
:10160000CE01DF91CF911F910F91FF90EF90089540
:10161000FC011182108213821282158214826115DC
:10162000710551F0FB0101900020E9F73197AF01FE
:10163000461B570B0C94E70A0895CF93DF93EC01F8
:101640006115710559F0FB0101900020E9F7319710
:10165000AF01461B570B0E94E70A02C00E949F0A77
:10166000CE01DF91CF910895EF92FF920F931F93D8
:10167000CF93DF93CDB7DEB7A1970FB6F894DEBF57
:101680000FBECDBF7C01CB01BA01F70111821082E0
:10169000138212821582148242E0420F8E010F5F84
:1016A0001F4F0E946810BC01C7010E941D0BA1962C
:1016B0000FB6F894DEBF0FBECDBFDF91CF911F9163
:1016C0000F91FF90EF900895EF92FF920F931F9369
:1016D000CF93DF93FC01248135816115710511F4ED
:1016E00080E019C041155105A9F07B01EC018A0188
:1016F000020F131FB8010E94CB0A882389F32881A7
:1017000039818C819D81B701820F931F0E948812BD
:101710001D830C8381E0DF91CF911F910F91FF908A
:10172000EF900895CF93DF93EC01FB014481558145
:10173000608171810E94640B811103C0CE010E94FF
:101740009F0ACE01DF91CF910895CF93DF93EC01F3
:101750006115710561F0FB0101900020E9F73197F7
:10176000AF01461B570B0E94640B811103C0CE01D1
:101770000E949F0ACE01DF91CF9108954F925F9210
:101780006F927F928F929F92AF92BF92CF92DF9291
:10179000EF92FF920F931F93CF93DF931F92CDB7DA
:1017A000DEB72C01062FF22EA62FB0E0FD01EB557F
:1017B000FB4F1491FD01E754FB4FE491F0E0EE0F75
:1017C000FF1FE353FB4FC590D49061E0802F498306
:1017D0000E94970F60E0802F0E94D30F498149300B
:1017E00038F0642F70E080E090E00E94180A0AC090
:1017F00088EE93E09C01429FC001439F900D11240D
:101800000E94540A61E0802F0E94D30F60E0802F75
:101810000E94970F20E233E0D6018C91812329F0BA
:1018200021503109C9F78DEF65C020E931E0F6019B
:101830008081812329F421503109C9F78CEF5AC0E6
:1018400020E931E0D6018C91812329F02150310922
:10185000C9F78BEF4FC028E240E951E060E070E04B
:10186000E0E9F1E090E0612C712C80E8022F0F1983
:10187000B0E98B2E99249394A12CB12CD6013C91E4
:10188000312379F5992369F1021798F44E175F0710
:1018900008F4FA01B501A4014E1B5F0B610971093F
:1018A000A2E07595679557954795AA95D1F7BA0126
:1018B00007C07F01E61AF70AE416F50608F0682A61
:1018C00090E095958795009749F4C201870D911D89
:1018D000DC0118966C927394612C80E8215040E9E9
:1018E00051E04150510929F0932F2111C7CF80E0D9
:1018F00001C08EEF0F90DF91CF911F910F91FF905C
:10190000EF90DF90CF90BF90AF909F908F907F909F
:101910006F905F904F900895FF920F931F93CF9316
:10192000DF93EC018D85882309F0F89421E042E1F2
:10193000CE010E94BE0BF82E8D85882309F0789485
:1019400008850F7708871A851F771A87602F70E040
:1019500080E090E00E940310688379838A839B83F0
:10196000612F70E080E090E00E9403106C837D8323
:101970008E839F839B858985890F080F100F8C8527
:10198000811302C08F2D01C08FEFDF91CF911F9186
:101990000F91FF9008958091BE0290E02091BF02C8
:1019A000821B910908959091BF028091BE02981701
:1019B00050F4E92FF0E0E054FD4F208130E09F5FCC
:1019C0009093BF0202C02FEF3FEFC9010895E0914D
:1019D000BF028091BE02E81730F4F0E0E054FD4F02
:1019E000808190E008958FEF9FEF08950895CF9242
:1019F000DF92EF92FF920F931F93CF93DF937C01BF
:101A0000262F972F8A0180919A02882391F0C62F62
:101A1000D72F6E01C40ED51ECC15DD0571F069916E
:101A2000D701ED91FC910190F081E02DC70109955E
:101A3000F3CF642F822F0E94080EC801DF91CF914F
:101A40001F910F91FF90EF90DF90CF900895CF936B
:101A5000DF931F92CDB7DEB7698320919A022223CC
:101A6000D1F020919B02203240F021E030E0FC01D7
:101A70003383228380E090E015C080919C02E82FA0
:101A8000F0E0E356FD4F998190838F5F80939C0235
:101A900080939B0205C061E0CE0101960E94080E72
:101AA00081E090E00F90DF91CF910895FC011382C7
:101AB000128288EE93E0A0E0B0E084839583A68351
:101AC000B78388EA91E09183808308951092BF02E2
:101AD0001092BE0210929C0210929B020C94940DE4
:101AE00081E080939A026093BD0210929C02109252
:101AF0009B0208950F93062F21E040919B026DE910
:101B000072E08091BD020E94B20D10929C02109270
:101B10009B0210929A020F91089561E00C947A0D45
:101B20008EE892E00C94560D10924D0381E0809364
:101B30004B0310924A0361E082E10E94D30F61E0FF
:101B400083E10E94D30FE9EBF0E080818E7F8083F8
:101B500080818D7F808388E48093B80085E48093C2
:101B6000BC0008950F93413208F04AC090914D0394
:101B70009111FCCF32E030934D0300934B033FEFC4
:101B80003093E0021092250340932403FB0166E2A8
:101B900073E0DB013A2F361B341718F431913D9373
:101BA000F9CF10924C0330914C03880F832B809314
:101BB0004C0380914A03813061F410924A03809172
:101BC0004C038093BB008091BC0083FDF8CF85EC73
:101BD00001C085EE8093BC00222321F080914D034B
:101BE0008230D1F38091E0028F3F79F08091E00262
:101BF000803241F08091E002803331F094E005C002
:101C000091E003C092E001C093E0892F0F91089505
:101C100040910203262F30E0240F311D213231057F
:101C2000DCF420914D032430C9F4FC0180E090E005
:101C3000861758F4309102032191DC01AC5FBC4F50
:101C4000A30FB11D2C930196F3CF80910203680F6F
:101C50006093020380E0089581E0089582E0089592
:101C600085ED8093BC008091BC0084FDFCCF109278
:101C70004D03089585EC8093BC0010924D030895A8
:101C80001F920F920FB60F9211242F933F934F93F1
:101C90005F936F937F938F939F93AF93BF93EF93D4
:101CA000FF938091B900887F803609F49EC078F553
:101CB000883209F45DC090F4803109F456C038F4DC
:101CC000882309F4F5C0883009F44FC0F5C0883185
:101CD00009F44EC0803209F45FC0EEC0803409F4CC
:101CE0006AC058F4803309F457C0883309F0E4C05F
:101CF0008093E0020E943A0EDFC0803509F44FC0A5
:101D0000883509F45DC0883409F0D6C0D3C088395D
:101D100009F4C4C0A8F4883709F467C038F48836D9
:101D200009F463C0803709F460C0C6C0883809F47C
:101D3000B5C0803909F45FC0803809F0BDC05BC010
:101D4000803B09F483C038F4803A09F466C0883ACD
:101D500009F47CC0B1C0803C09F4A4C0883C09F4FB
:101D6000A1C0883B09F487C0A7C080914C0310C074
:101D70009091250380912403981770F5E091250335
:101D800081E08E0F80932503F0E0EA5DFC4F8081B7
:101D90008093BB0085EC83C08093E0028BC0E09110
:101DA000250381E08E0F809325038091BB00F0E036
:101DB000EA5DFC4F808390912503809124036BC0E2
:101DC000E091250381E08E0F809325038091BB0075
:101DD000F0E0EA5DFC4F808380914B0381116AC083
:101DE00081E080934A0384EA5EC083E080934D03E0
:101DF0001092E102CFCF8091E102803208F04EC014
:101E0000E091E10281E08E0F8093E1028091BB00BE
:101E1000F0E0EE51FD4F8083BDCF0E943A0E8091DD
:101E2000E102803230F4E091E102F0E0EE51FD4F4A
:101E300010826091E10270E0E0914603F091470367
:101E400082EE92E009951092E10236C084E0809320
:101E50004D031092030310920203E0914803F091A6
:101E60004903099580910203811105C081E08093A7
:101E7000020310920403E091030381E08E0F80932C
:101E80000303F0E0EC5FFC4F80818093BB009091F6
:101E9000030380910203981708F47CCF85E88093B0
:101EA000BC000AC085EC8093BC0010924D0304C0B6
:101EB0001092E0020E94300EFF91EF91BF91AF911E
:101EC0009F918F917F916F915F914F913F912F9152
:101ED0000F900FBE0F901F9018950895833081F0DA
:101EE00028F4813099F08230A1F008958730A9F06C
:101EF0008830B9F08430D1F4809180008F7D03C0A8
:101F0000809180008F7780938000089584B58F77CB
:101F100002C084B58F7D84BD08958091B0008F7715
:101F200003C08091B0008F7D8093B0000895CF935F
:101F3000DF9390E0FC01EB55FB4F2491FC01E7544B
:101F4000FB4F8491882361F190E0880F991FFC0179
:101F5000EF51FB4FC591D491FC01E952FB4FA59184
:101F6000B491611109C09FB7F894888120958223AC
:101F70008883EC912E230BC0623061F49FB7F894F4
:101F80003881822F809583238883EC912E2B2C938C
:101F90009FBF06C08FB7F894E8812E2B28838FBF90
:101FA000DF91CF9108951F93CF93DF93282F30E0D7
:101FB000F901EF56FB4F8491F901EB55FB4FD4919A
:101FC000F901E754FB4FC491CC23C9F0162F8111BE
:101FD0000E946E0FEC2FF0E0EE0FFF1FE952FB4F57
:101FE000A591B4918FB7F894111105C09C91ED2F74
:101FF000E095E92302C0EC91ED2BEC938FBFDF91CC
:10200000CF911F910895E89409C097FB3EF49095F5
:102010008095709561957F4F8F4F9F4F9923A9F0C1
:10202000F92F96E9BB279395F69587957795679550
:10203000B795F111F8CFFAF4BB0F11F460FF1BC094
:102040006F5F7F4F8F4F9F4F16C0882311F096E927
:1020500011C0772321F09EE8872F762F05C06623D5
:1020600071F096E8862F70E060E02AF09A95660F8E
:10207000771F881FDAF7880F9695879597F9089547
:10208000A1E21A2EAA1BBB1BFD010DC0AA1FBB1F7C
:10209000EE1FFF1FA217B307E407F50720F0A21BEE
:1020A000B30BE40BF50B661F771F881F991F1A945B
:1020B00069F760957095809590959B01AC01BD0185
:1020C000CF010895EE0FFF1F0590F491E02D0994C4
:1020D000EF920F931F93CF93DF93E80147FD02C068
:1020E00034E001C034E1E42F440FFF0BF7FF03C0DD
:1020F000F195E195F109E32E022F2E2FAE010E94FA
:102100008F12CE01DF91CF911F910F91EF90089523
:10211000CF93DF938230910510F482E090E0E0915C
:102120005003F091510320E030E0C0E0D0E0309760
:1021300011F14081518148175907C0F048175907DC
:1021400061F482819381209719F09B838A832BC04D
:10215000909351038093500326C02115310519F047
:102160004217530718F49A01BE01DF01EF01028004
:10217000F381E02DDCCF2115310509F1281B390B46
:102180002430310590F412968D919C91139761152E
:10219000710521F0FB019383828304C09093510366
:1021A00080935003FD01329644C0FD01E20FF31FFE
:1021B00081939193225031092D933C933AC0209101
:1021C0004E0330914F03232B41F4209102013091B3
:1021D000030130934F0320934E032091000130916F
:1021E00001012115310541F42DB73EB7409104019D
:1021F00050910501241B350BE0914E03F0914F03E4
:10220000E217F307A0F42E1B3F0B2817390778F0CD
:10221000AC014E5F5F4F2417350748F04E0F5F1F2C
:1022200050934F0340934E038193919302C0E0E09B
:10223000F0E0CF01DF91CF9108950F931F93CF93DB
:10224000DF93009709F48CC0FC013297138212824D
:1022500000915003109151030115110581F4208163
:102260003181820F931F20914E0330914F03281725
:10227000390779F5F0934F03E0934E0371C0D8010D
:1022800040E050E0AE17BF0750F412962D913C91FC
:102290001397AD012115310509F1D901F3CF9D0146
:1022A000DA013383228360817181860F971F821741
:1022B000930769F4EC0128813981260F371F2E5FBF
:1022C0003F4F318320838A819B8193838283452B77
:1022D00029F4F0935103E093500342C01396FC930A
:1022E000EE931297ED01499159919E01240F351FEC
:1022F000E217F30771F480819181840F951F029694
:1023000011969C938E938281938113969C938E93C6
:102310001297E0E0F0E0D80112968D919C9113970E
:10232000009719F0F8018C01F6CF8D919C919801DE
:102330002E5F3F4F820F931F20914E0330914F032A
:102340002817390769F4309729F410925103109235
:10235000500302C01382128210934F0300934E0366
:10236000DF91CF911F910F910895A0E0B0E0EBEBCA
:10237000F1E10C94F914EC01009721F4CB010E94D7
:102380008810B8C0FC01E60FF71F9C0122503109EC
:10239000E217F30708F4ACC0D9010D911C91119715
:1023A00006171707B0F00530110508F49FC0C801E3
:1023B00004978617970708F499C002501109061B65
:1023C000170B019311936D937C93CF010E941D1104
:1023D0008DC05B01A01AB10A4C01800E911EA09124
:1023E0005003B091510340E050E0E12CF12C1097E4
:1023F00009F44AC0A815B905D1F56D907C901197E4
:10240000630182E0C80ED11CCA14DB0480F1A30171
:102410004A195B096A0182E0C80ED11C1296BC9071
:1024200012971396AC91B5E0CB16D10440F0B2826E
:10243000A38351834083D9016D937C930AC00E5FBF
:102440001F4FC301800F911FF90191838083EB2DF2
:10245000FA2FE114F10431F0D7011396FC93EE93B7
:10246000129744C0F0935103E09350033FC08D9105
:102470009C9111974817590708F4AC017D011296F9
:102480000D90BC91A02DB3CF80914E0390914F033E
:1024900088159905E1F446175707C8F480910001A3
:1024A00090910101009741F48DB79EB740910401CE
:1024B00050910501841B950BE817F907C8F4F093B8
:1024C0004F03E0934E03F901718360830FC0CB018A
:1024D0000E9488107C01009759F0A801BE010E945B
:1024E0007F12CE010E941D11C70104C0CE0102C09F
:1024F00080E090E0CDB7DEB7EEE00C941515FB015F
:10250000DC0102C001900D9241505040D8F708956F
:10251000FB01DC0101900D920020E1F708954F923C
:102520005F926F927F929F92AF92BF92CF92DF9213
:10253000EF92FF920F931F93CF93DF93CDB7DEB748
:1025400029970FB6F894DEBF0FBECDBF6A01122FD8
:10255000B02E2BE3201720F0FF24F394F00E02C0DE
:10256000BCE3FB2E0F2D27E0AE014F5F5F4F0E94B3
:102570001D14AC018981982F9970913031F0E1FCE4
:1025800006C0E0FE06C090E205C09DE203C09BE2EB
:1025900001C090E0EE2DE07183FF3CC0911102C0BC
:1025A00083E001C084E0811718F4212F281B01C0AB
:1025B00020E0E1110BC0F601822F30E2882319F0F0
:1025C00031938150FBCFC20ED11C20E0992329F01A
:1025D000D6019C93F60131966F01C6010396E2FE87
:1025E0000AC03EE4D6013C9341E411964C93119706
:1025F00012963C9306C03EE6F601308341E64183E5
:102600003283FC01322F40E2332309F442C041936C
:102610003150FACF82FF44C0911102C083E001C063
:1026200084E0811718F4212F281B01C020E0E1115C
:102630000BC0F601822F30E2882319F031938150CC
:10264000FBCFC20ED11C20E0992329F0D6019C9328
:10265000F60131966F01C6010396E2FE0BC039E424
:10266000D6013C933EE411963C93119736E41296C2
:102670003C9307C039E6F60130833EE6318336E607
:102680003283FC01322F40E2332319F04193315061
:10269000FBCFFC01E20FF11D10828EEF9FEFB7C060
:1026A000F1E0911101C0F0E06F2F70E014161506F3
:1026B00024F49A012F5F3F4F02C021E030E0260F43
:1026C000371FBB2029F06B2D70E06F5F7F4F02C07A
:1026D00060E070E0260F371F612F70E02617370784
:1026E0001CF4121B212F01C020E03E2D387159F43B
:1026F000D601322F60E2332319F06D933150FBCFB6
:10270000C20ED11C20E0FF2331F0D6019C93B6010C
:102710006F5F7F4F6B01E1110BC0F601922F30E329
:10272000992319F031939150FBCFC20ED11C20E0B8
:102730009F2D940F3A81782F7071A72E84FF03C0CC
:10274000313309F49150191624F4993018F098E0B7
:1027500001C091E0E42F852F57FF02C0E0E080E048
:102760006E2F782FE0E0F0E0AEE29A2E3A01691A7F
:1027700071082A01461A570A0B2D10E01195019590
:1027800011096F3F8FEF780729F4D6019C92C6019B
:1027900001966C014617570784F0661677066CF4AD
:1027A0007F01E40CF51CA1E0B0E0AC0FBD1FEA0E08
:1027B000FB1ED7011196BC9002C090E3B92E615068
:1027C00071093196C60101967C016017710724F0EA
:1027D000D601BC926C01D5CF6417750741F436332E
:1027E00020F4353321F4A11002C081E3B82EF601A4
:1027F000B082F701822F90E2882319F091938150E3
:10280000FBCFF701E20FF11D108280E090E02996E6
:102810000FB6F894DEBF0FBECDBFDF91CF911F91F1
:102820000F91FF90EF90DF90CF90BF90AF909F906F
:102830007F906F905F904F900895283008F027E0C8
:102840003327DA01990F311D87FD916000966105EC
:10285000710539F432602E5F3D9330E32A95E1F73C
:1028600008959F3F30F080387105610509F03C5FA5
:102870003C5F3D93913008F08068911DDF93CF93CA
:102880001F930F93FF92EF92192F987F9695E92F40
:1028900096959695E90FFF27EE53FF4F992733271B
:1028A000EE24FF24A701E70105900894079428F47B
:1028B000360FE71EF81E491F511D660F771F881F30
:1028C000991F0694A1F70590079428F4E70EF81EC7
:1028D000491F561FC11D770F881F991F661F069439
:1028E000A1F70590079428F4F80E491F561FC71F3B
:1028F000D11D880F991F661F771F0694A1F70590B9
:10290000079420F4490F561FC71FD81F990F661F41
:10291000771F881F0694A9F784911095177041F0CE
:10292000D695C79557954795F794E7941A95C1F7AB
:10293000E8E6F0E0689415901591359165919591D0
:1029400005907FE27395E118F10A430B560BC90B12
:10295000D009C0F7E10CF11E431F561FC91FD01D3F
:102960007EF4703311F48A95E6CFE894015030F08C
:10297000080F0AF40027021708F4202F2395022FCE
:102980007A3328F079E37D932A95E9F710C07D9397
:102990002A9589F606949795679537951795179414
:1029A000E118F10A430B560BC90BD00998F0239597
:1029B0007E9173957A3308F070E37C932013B8F717
:1029C0007E9170617D9330F0839571E37D9370E328
:1029D0002A95E1F71124EF90FF900F911F91CF916D
:1029E000DF91992787FD909508952F923F924F92FE
:1029F0005F926F927F928F929F92AF92BF92CF928F
:102A0000DF92EF92FF920F931F93CF93DF93CDB797
:102A1000DEB7CA1BDB0B0FB6F894DEBF0FBECDBF0F
:102A200009942A88398848885F846E847D848C84E0
:102A30009B84AA84B984C884DF80EE80FD800C81E9
:102A40001B81AA81B981CE0FD11D0FB6F894DEBFCC
:0C2A50000FBECDBFED010895F894FFCF3C
:102A5C000000520380000920C4E0F2F7E8EA2044A9
:102A6C00485431313A20E2EBE0E6EDEEF1F2FC2095
:102A7C00253A20000920C4E0F2F7E8EA2044485443
:102A8C0031313A20F2E5ECEFE5F0E0F22E20D13ACC
:102A9C00200068756D69643A200020250074656D0E
:102AAC007065723A20002043004F4F4F2041534233
:102ABC000044414E49494C204B4F4E45562C206307
:102ACC006162203230350000000000FB034309A393
:102ADC0002A60200000000F80743099807D6076A0F
:102AEC0007840776070D0A006E616E00696E66003A
:102AFC006F76660000000000270DF70CA302F60CA1
:062B0C00CB0CD30CE70C1A
:00000001FF
