:100000000C945D000C9485000C9485000C94850084
:100010000C9485000C9485000C9485000C9485004C
:100020000C9485000C9485000C9485000C9485003C
:100030000C9485000C9485000C9485000C9485002C
:100040000C94DB050C9485000C94A9050C94830595
:100050000C9485000C9485000C9485000C9485000C
:100060000C9425060C948500000000080002010095
:100070000003040700000000000000000000000072
:10008000250028002B0000000000240027002A0083
:10009000040404040404040402020202020203032E
:1000A0000303030301020408102040800102040836
:1000B0001020010204081020440711241FBECFEFB6
:1000C000D8E0DEBFCDBF11E0A0E0B1E0E4E8F3E1AD
:1000D00002C005900D92A63DB107D9F723E0A6ED29
:1000E000B1E001C01D92A734B207E1F710E0CDE501
:1000F000D0E004C02197FE010E94BA09CC35D10797
:10010000C9F70E9489070C94C0090C9400008091E3
:10011000270290912802891B990B0895089508954C
:10012000AF92BF92CF92DF92EF92FF920F931F9305
:10013000CF93DF936C017B018B01040F151FEB0143
:100140005E01AE18BF08C017D10759F06991D601FA
:10015000ED91FC910190F081E02DC6010995892B6C
:1001600079F7C501DF91CF911F910F91FF90EF902B
:10017000DF90CF90BF90AF900895FC01538D448DD8
:10018000252F30E0842F90E0821B930B541710F042
:10019000CF96089501970895FC01918D828D98174F
:1001A00061F0A28DAE0FBF2FB11D5D968C91928D27
:1001B0009F5F9F73928F90E008958FEF9FEF089558
:1001C000FC01918D828D981731F0828DE80FF11D21
:1001D000858D90E008958FEF9FEF0895FC01918D3C
:1001E000228D892F90E0805C9F4F821B91098F7335
:1001F0009927089589E992E00E94EE0021E0892B79
:1002000009F420E0822F089580E090E0892B29F006
:100210000E94FA0081110C9400000895FC01A48D45
:10022000A80FB92FB11DA35ABF4F2C91848D90E018
:1002300001968F739927848FA689B7892C93A089FB
:10024000B1898C91837080648C93938D848D981385
:1002500006C00288F389E02D80818F7D8083089518
:10026000EF92FF920F931F93CF93DF93EC0181E006
:10027000888F9B8D8C8D98131AC0E889F9898081AD
:1002800085FF15C09FB7F894EE89FF896083E889E0
:10029000F98980818370806480839FBF81E090E0D2
:1002A000DF91CF911F910F91FF90EF900895F62E5F
:1002B0000B8D10E00F5F1F4F0F731127E02E8C8DF9
:1002C0008E110CC00FB607FCFACFE889F98980813E
:1002D00085FFF5CFCE010E940E01F1CFEB8DEC0F23
:1002E000FD2FF11DE35AFF4FF0829FB7F8940B8F5B
:1002F000EA89FB8980818062CFCFCF93DF93EC01C5
:10030000888D8823B9F0AA89BB89E889F9898C91FD
:1003100085FD03C0808186FD0DC00FB607FCF7CFB9
:100320008C9185FFF2CF808185FFEDCFCE010E94B9
:100330000E01E9CFDF91CF91089590E0FC01E859DB
:10034000FF4F2491FC01EC55FF4F3491FC01E05725
:10035000FF4FE491EE23C9F0222339F0233001F15D
:10036000A8F4213019F1223029F1F0E0EE0FFF1F3F
:10037000E458FF4FA591B4918FB7F894EC916111B7
:1003800026C030953E233C938FBF08952730A9F0B7
:100390002830C9F0243049F7809180008F7D03C058
:1003A000809180008F7780938000DFCF84B58F7736
:1003B00084BDDBCF84B58F7DFBCF8091B0008F777C
:1003C0008093B000D2CF8091B0008F7DF9CF3E2BCB
:1003D000DACF3FB7F89480911F0290912002A0914C
:1003E0002102B091220226B5A89B05C02F3F19F02B
:1003F0000196A11DB11D3FBFBA2FA92F982F8827A5
:10040000BC01CD01620F711D811D911D42E0660F7F
:10041000771F881F991F4A95D1F708958F929F9251
:10042000AF92BF92CF92DF92EF92FF924B015C01AD
:100430000E94E9016B017C010E94E9016C197D09B0
:100440008E099F09683E734081059105A8F321E05C
:10045000821A9108A108B10888EEC80E83E0D81E60
:10046000E11CF11C81149104A104B10429F7FF904F
:10047000EF90DF90CF90BF90AF909F908F900895B6
:100480002091F701260F3327331F21323105ECF479
:1004900020919302FC0190E080E0243069F082E03A
:1004A0000895A091F7012191AC0149525E4FA40F2C
:1004B000B52FB11D2C930196861798F38091F70103
:1004C000680F6093F70180E0089581E0089510922D
:1004D000930281E08093720210926D0261E082E1EA
:1004E0000E949D0161E083E10E949D01E9EBF0E043
:1004F00080818E7F808380818D7F808388E480935C
:10050000B80085E48093BC000895CF93DF9391E019
:100510009093D6018823B9F0C091B800D091BA0069
:100520008091BC008A7B8093BC0060E082E10E94E5
:100530009D0160E083E10E949D010E946702D093CB
:10054000BA00C093B800DF91CF910895CF92DF92A7
:10055000EF92FF920F931F93CF93DF93D82FC62F65
:10056000613208F098C00E94E9016B017C01809122
:10057000930281116BC081E0809393028093720299
:100580009FEF90937102109270029C0F90936F02F4
:1005900080936E0280916E02DD0FD82BD0936E0295
:1005A00080916D02813009F078C010926D020E9436
:1005B000E9016B017C0180916E028093BB00809108
:1005C000950290919602A0919702B0919802892B82
:1005D0008A2B8B2BA1F00E94E901009195021091CA
:1005E000960220919702309198026C197D098E092C
:1005F0009F09061717072807390708F448C0809194
:10060000BC0083FDD8CF85EC8093BC000E94E9013B
:100610006B017C0180919302813009F440C080918C
:1006200070028C1710F4C0917002EDE4F2E0A3E7C1
:10063000B2E080E08C1355C08C2FDF91CF911F91D9
:100640000F91FF90EF90DF90CF90089580919502E9
:1006500090919602A0919702B0919802892B8A2BD3
:100660008B2B09F484CF0E94E9010091950210912F
:10067000960220919702309198026C197D098E099B
:100680009F09061717072807390708F070CF8091D0
:1006900094020E948502C0E0CFCF85EEB5CF809155
:1006A000950290919602A0919702B0919802892BA1
:1006B0008A2B8B2B09F4AECF0E94E90100919502A1
:1006C0001091960220919702309198026C197D0941
:1006D0008E099F09061717072807390708F09ACFD0
:1006E000D6CF91919D938F5FA5CF8F929F92AF921E
:1006F000BF92CF92DF92EF92FF920F931F93CF930F
:10070000DF93D0914C02D13208F0D7C0182FC0919E
:100710004B020E94E9016B017C01809193028111DF
:100720006BC082E080939302109372028FEF8093EC
:10073000710210927002D0936F02ABE2B2E0EDE46E
:10074000F2E080E0D81391C010926E0280916E02A8
:10075000CC0FC82BC0936E0280916D02813009F0DE
:1007600088C010926D020E94E9016B017C018091AA
:100770006E028093BB008091950290919602A091A9
:100780009702B0919802892B8A2B8B2BA1F00E94A3
:10079000E901009195021091960220919702309103
:1007A00098026C197D098E099F09061717072807FB
:1007B000390708F442C08091BC0083FDD8CF85EC96
:1007C0008093BC000E94E9016B017C01809193023F
:1007D000823009F450C0809171028F3F09F46FC0DC
:1007E00080917102803209F46CC080917102803373
:1007F00009F469C084E026C0809195029091960228
:10080000A0919702B0919802892B8A2B8B2B09F427
:1008100084CF0E94E9018090950290909602A0906A
:100820009702B09098026C197D098E099F0986166F
:100830009706A806B90608F070CF809194020E942E
:10084000850285E010922A0210924C021092290231
:10085000DF91CF911F910F91FF90EF90DF90CF909C
:10086000BF90AF909F908F9008959D9191938F5FCF
:1008700069CF85EEA5CF8091950290919602A091C7
:100880009702B0919802892B8A2B8B2B09F49ECF6B
:100890000E94E90100919502109196022091970221
:1008A000309198026C197D098E099F090617170768
:1008B0002807390708F08ACFC0CF81E0C3CF80E096
:1008C000C1CF82E0BFCF83E0BDCF0895E091280281
:1008D00080912702E81730F4F0E0ED58FD4F808159
:1008E00090E008958FEF9FEF0895909128028091F6
:1008F00027022FEF3FEF981748F4E92FF0E0ED586B
:10090000FD4F208130E09F5F90932802C901089538
:10091000CF92DF92EF92FF920F931F93CF93DF93CB
:100920007C01CB018A0120912902222389F0EB016D
:100930006B01C40ED51ECC15DD0569F06991D70198
:10094000ED91FC910190F081E02DC7010995F3CF65
:10095000642F0E944002C801DF91CF911F910F9137
:10096000FF90EF90DF90CF900895CF93DF931F9289
:10097000CDB7DEB76983209129022223F9F02091B7
:100980004C02203258F021E030E0FC013383228316
:1009900090E080E00F90DF91CF91089580912A023E
:1009A000E82FF0E0E55DFD4F998190838F5F8093A4
:1009B0002A0280934C0281E090E0ECCF61E0CE010E
:1009C00001960E944002F7CF90E080E00895FC017C
:1009D00001900020E9F73197AF01481B590BBC018A
:1009E00089E992E00C9490008F929F92AF92BF920F
:1009F0000F931F93CF93DF93CDB7DEB7A1970FB6B9
:100A0000F894DEBF0FBECDBF19A2423008F44AE011
:100A10008E010F5D1F4F842E912CB12CA12CA501AE
:100A200094010E949809E62FB901CA01EA30F4F452
:100A3000E05DD801EE938D01232B242B252B79F734
:100A400090E080E0109719F0CD010E94E704A19694
:100A50000FB6F894DEBF0FBECDBFDF91CF911F91CF
:100A60000F91BF90AF909F908F900895E95CE1CF78
:100A7000CF93DF93462F682F70E090E080E00E94D4
:100A8000F404EC0183E691E00E94E7048C0F9D1FC3
:100A9000DF91CF91089585ED8093BC008091950200
:100AA00090919602A0919702B09198020796A11D8D
:100AB000B11D23E0B695A795979587952A95D1F70F
:100AC0002091BC0024FD03C0109293020895409130
:100AD0009502509196026091970270919802452B71
:100AE000462B472B69F30097A105B10541F025E39B
:100AF0002A95F1F700000197A109B109E1CF809192
:100B000094020C9485021F920F920FB60F9211243B
:100B10002F933F934F935F936F937F938F939F9305
:100B2000AF93BF93EF93FF9389E992E00E940E0188
:100B3000FF91EF91BF91AF919F918F917F916F91B5
:100B40005F914F913F912F910F900FBE0F901F908B
:100B500018951F920F920FB60F9211242F938F9317
:100B60009F93EF93FF93E091A902F091AA028081F5
:100B7000E091AF02F091B00282FD1BC090818091A4
:100B8000B2028F5F8F732091B302821741F0E09120
:100B9000B202F0E0E756FD4F958F8093B202FF91CD
:100BA000EF919F918F912F910F900FBE0F901F90FB
:100BB00018958081F4CF1F920F920FB60F921124D7
:100BC0002F933F938F939F93AF93BF9380911B027B
:100BD00090911C02A0911D02B0911E0230911A0248
:100BE00023E0230F2D3758F50196A11DB11D209349
:100BF0001A0280931B0290931C02A0931D02B093D3
:100C00001E0280911F0290912002A0912102B091BA
:100C100022020196A11DB11D80931F029093200214
:100C2000A0932102B0932202BF91AF919F918F9127
:100C30003F912F910F900FBE0F901F90189526E8AF
:100C4000230F0296A11DB11DD2CF1F920F920FB696
:100C50000F9211242F933F934F935F936F937F9342
:100C60008F939F93AF93BF93EF93FF938091B900BE
:100C7000887F803609F44AC0F0F5883209F4A7C0AD
:100C800018F5803109F49BC0B8F4882309F4F9C041
:100C9000883009F494C0FF91EF91BF91AF919F917B
:100CA0008F917F916F915F914F913F912F910F9015
:100CB0000FBE0F901F901895883109F488C08032BC
:100CC00051F78093710214C0803409F49DC040F440
:100CD0008033B9F38833F9F68093710285ECB0C0A4
:100CE000803509F485C0883509F496C0883499F6B2
:100CF0000E944B05D0CF883909F48CC038F588376D
:100D000029F050F4883611F0803729F683E080937B
:100D100093021092190257C0883809F47BC08039B9
:100D200019F0803809F0B7CF80911902803208F0AD
:100D300071C0E091190281E08E0F809319028091B9
:100D4000BB00F0E0E750FE4F80833DC0803B39F0B0
:100D5000E0F4803A09F479C0883A09F09CCF84E045
:100D6000809393021092F8011092F701E09125020E
:100D7000F091260209958091F70181110FC081E061
:100D80008093F7011092D70109C0803C09F4A6CFE7
:100D9000883C09F4A3CF883B09F07DCFE091F801AE
:100DA00081E08E0F8093F801F0E0E952FE4F8081E0
:100DB0008093BB009091F8018091F70129C0809148
:100DC0006E028093BB0085EC8093BC0064CF909151
:100DD000700280916F02981758F5E091700281E0DF
:100DE0008E0F80937002F0E0E35BFD4F8081E9CFCE
:100DF000E091700281E08E0F809370028091BB00C1
:100E0000F0E0E35BFD4F80839091700280916F0270
:100E10009817C8F285E8D8CFE091700281E08E0F74
:100E2000809370028091BB00F0E0E35BFD4F808314
:100E30008091720281115CCF81E080936D0284EA1F
:100E40008093BC001092930226CF85EC8093BC0067
:100E50001092930280911902803230F4E0911902CD
:100E6000F0E0E750FE4F10826091190270E0E091CF
:100E70002302F091240289EF91E009951092190262
:100E80000ACF1092710234CFE9E9F2E013821282A4
:100E900088EE93E0A0E0B0E084839583A683B783D7
:100EA00023E431E03183208325EC30E0358724874B
:100EB00024EC30E03787268720EC30E0318B208B24
:100EC00021EC30E0338B228B22EC30E0358B248B0D
:100ED00026EC30E0378B268B118E128E138E148EFB
:100EE000109239031092380328E0209337031092B0
:100EF0003603EAE3F3E01382128284839583A683A8
:100F0000B78385E591E09183808389E680934603EA
:100F10000895CF93DF9300D000D000D0CDB7DEB7D7
:100F2000789484B5826084BD84B5816084BD85B5C4
:100F3000826085BD85B5816085BD80916E008160D0
:100F400080936E0010928100809181008260809376
:100F50008100809181008160809381008091800078
:100F60008160809380008091B10084608093B100A3
:100F70008091B00081608093B00080917A0084609D
:100F800080937A0080917A00826080937A008091C9
:100F90007A00816080937A0080917A0080688093E3
:100FA0007A001092C100E091A902F091AA0282E0B9
:100FB0008083E091A502F091A6021082E091A70241
:100FC000F091A8028FEC80831092B102E091AD0203
:100FD000F091AE0286E08083E091AB02F091AC022A
:100FE000808180618083E091AB02F091AC028081CE
:100FF00088608083E091AB02F091AC0280818068D0
:101000008083E091AB02F091AC0280818F7D808380
:10101000109228021092270210922A0210924C027B
:101020000E9467028EE890E090932602809325024A
:101030008FE890E09093240280932302EDEAF0E0A1
:101040002491E9E9F0E08491882399F090E0880FF9
:10105000991FFC01EA57FF4FA591B491FC01E45898
:10106000FF4F859194918FB7F894EC91E22BEC931C
:101070008FBF61E089E00E949D0181E08093290299
:1010800010924B0210922A0210924C0266E08AE300
:1010900093E00E94B50481E00E94750361E070E076
:1010A00080E090E00E940E0261E089E60E94A602C4
:1010B0001092280280932702882309F450C0CE01A1
:1010C00001961C01DE011596BE83AD83E0ECCE2EA9
:1010D000EDEBDE2EE0EFEE2EFF24FA94F8EE4F2E2D
:1010E000F3E05F2E612C712C10913703809139034E
:1010F00060913603612B606890913803692B909161
:101100004603B1E0B093290290934B0210922A0259
:1011100010924C02682B8AE393E00E94B50481E0B0
:101120000E947503882329F111E082E891E00E9472
:10113000E7046AE070E0812F0E94380568EE73E0F2
:1011400080E090E00E940E0280E090E0892B61F246
:101150000E94FA00882341F20E940000C5CF86E673
:1011600091E00E94E70460E170E089E60E943805A2
:10117000FFCF0E94E9014B015C01812F90E0959522
:1011800087958730910508F0B9C0FC01EE0FFF1F6D
:10119000E80FF91FE65DFE4F80819181A281BC01BD
:1011A0008A2F90E06115E0E47E078105910508F43F
:1011B000A8C0A30192010E949809CA01B9010E9426
:1011C0000E02D701C60188199909AA09BB094C0169
:1011D0005D0119821A821B821C8264E080914603A1
:1011E0000E94A6021092280280932702843009F000
:1011F00095C081018AE393E00E947504D8018D9324
:101200008D01ED81FE81EA17FB07A1F78C81982FF4
:101210009C70A3E09C3011F08B81A2E087FD7EC022
:101220008C7090E0959587959C01220F331FF901F2
:10123000E80FF91FEB5EFE4F408151816281062E5F
:10124000000C770BF101812C912C5401B191BA2C37
:10125000A92C982C88248B2ABE2FB219BA17B0F368
:10126000482159216A217B21452B462B472B79F0B8
:10127000820F931FFC01E050FF4F80819181A2817A
:101280000A2E000CBB0B882A992AAA2ABB2A82E9BB
:1012900091E00E94E70483E691E00E94E70460E1A8
:1012A00070E089E60E94380580EB91E00E94E70437
:1012B00083E691E00E94E70462E070E089E60E9424
:1012C00038058EEC91E00E94E7044AE0C501B401C4
:1012D000B7FE0DC06DE289E992E00E9430016627F9
:1012E0007727CB01681979098A099B094AE00E948E
:1012F000F40483E691E00E94E70420CF60E070E010
:10130000CB016230710508F45CCFCB01880F991FC7
:10131000880F991F05970197F1F753CF0E94E901B4
:10132000680D791D8A1D9B1D97FD53CF13E0FDCEDF
:10133000A1E21A2EAA1BBB1BFD010DC0AA1FBB1FD9
:10134000EE1FFF1FA217B307E407F50720F0A21B4B
:10135000B30BE40BF50B661F771F881F991F1A94B8
:1013600069F760957095809590959B01AC01BD01E2
:10137000CF010895EE0FFF1F0590F491E02D099421
:04138000F894FFCF0F
:1013840000F0FF00000000C0FF0000000000FF00AC
:1013940000000000FC000800000000002000000025
:1013A4000000800000000000000247100000000060
:1013B4001B41000000006B0401000000AB1104009D
:1013C40000000030019000BD007D01EE00CC00E083
:1013D4000000000000B5048804E404650487007577
:1013E4000466040D0A004E6F206465766963652007
:1013F400666F756E642061742061646472657373D2
:101404002000436F6E76657274206572726F723A53
:10141400200053657269616C2E7072696E746C6E13
:1014240028616464726573732C20484558293B0015
:1014340053657269616C2E7072696E746C6E28618A
:101444006464726573732C2042494E293B005661D3
:061454006C75653A2000F2
:00000001FF
