:100000000C943E080C9466080C9466080C946608E0
:100010000C9466080C9466080C9466080C946608A8
:100020000C9466080C9466080C9466080C94660898
:100030000C9466080C9466080C9466080C94660888
:100040000C9414160C9466080C94E2150C94BC15D0
:100050000C9466080C9466080C9466080C94660868
:100060000C9466080C946608010000000000010072
:10007000000000000000000001000100010001007C
:10008000010001000100010000000000000001006B
:100090000000000000000000000000000000000060
:1000A000010001000000000000000000000000004E
:1000B000000000000100010000000100010001003B
:1000C000000001000100010000000000000000002D
:1000D000000000000100010000000000010001001C
:1000E000010001000100010000000000000000000C
:1000F00000000000010001000100000000000000FD
:1001000001000100000000000000000000000000ED
:1001100000000000010001000100000001000100DA
:1001200001000000010001000000000000000000CC
:1001300000000000010001000100010001000100B9
:1001400001000000010001000000000000000000AC
:10015000000000000000000000000000000000009F
:10016000010001000100010000000000000000008B
:100170000000000001000100010001000100010079
:10018000010001000100010000000000000000006B
:10019000000000000100010001000000010001005A
:1001A000010001000100010000000000000000004B
:1001B000000000000100010001000100000000003B
:1001C000010001000100010000000100000000002A
:1001D000010000000100000000000000010001001B
:1001E000010001000100010000000000000000000B
:1001F00000000000000000000100010001000100FB
:1002000000000000010001000000010000000000EB
:1002100001000000000000000000000001000100DB
:1002200001000100010001000000000000000000CA
:1002300000000000000001000100010001000100B9
:1002400000000000010001000000000000000000AC
:10025000000000000000010001000100000000009B
:10026000000000000100010000000000000000008C
:100270000000000001000000010001000100010079
:10028000010000000100010000000000000000006B
:10029000000000000100010001000100000000005A
:1002A000010001000000000000000100000000004B
:1002B000010000000000000000000000010001003B
:1002C000000000000100010000000000000000002C
:1002D000000000000000000000000100010001001B
:1002E000010001000000000000000000010001000A
:1002F00000000000000001000100010000000000FB
:1003000000000000000000000000000000000000ED
:1003100000000000000000000100010001000100D9
:1003200000000000000000000000000000000100CC
:1003300000000100000000000100010000000000BA
:1003400001000100000000000000000001000000AA
:10035000000001000000000001000100000000009A
:10036000010001000000000000000000000000008B
:100370000000000000000000010001000100010079
:100380000100010001000100000000000000000069
:100390000000000001000100010001000000000059
:1003A0000000010001000100000000000100000049
:1003B0000000000000000000010001000100010039
:1003C0000100010001000100000000000100000028
:1003D0000000000001000100010001000000000019
:1003E000000001000100010000000000000000000A
:1003F00000000000010001000100000001000100F8
:1004000001000000010001000000010000000000E8
:1004100001000000000000000000000000000000DB
:1004200000000000010001000000000000000000CA
:1004300000000000000000000100010001000100B8
:1004400001000100000000000100000000000100A8
:10045000000000000000000001000100000000009A
:10046000000000000000000001000000010000008A
:10047000000000000000000001000100000000007A
:100480000100010000000000010000000100010067
:10049000000001000000000000000000000000005B
:1004A000000000000000000000000100000000004B
:1004B0000000000001000100010000000000000039
:1004C0000000010000000000010000000000010029
:1004D000000000000000000000000000010001001A
:1004E000000000000100010000000000000000000A
:1004F00000000000000000000000000000000000FC
:1005000000000000000000000000000000000000EB
:1005100000000000000000000100000000000000DA
:1005200000000100000000000000010000000000C9
:1005300001000000010001000000000001000100B6
:1005400001000100000000000000010000000000A8
:100550000100000001000100010000000100010095
:100560000100000001000100010001000000010085
:100570000100000001000100010000000000010076
:100580000100000000000100000000000100000068
:100590000000010001000100000001000100010055
:1005A0000000000001000100000000000000010048
:1005B000000000000000000000000000000000003B
:1005C0000000000000000000000000000100010029
:1005D000000000000000000000000000000000001B
:1005E000000000000000000001000000000000000A
:1005F00000000100000000000000000000000000FA
:1006000000000000000000000100010001000100E6
:1006100001000100010001000000000000000000D6
:1006200000000000000000000000010000000000C9
:1006300001000000010001000000000000000000B7
:1006400000000000000000000100000000000000A9
:10065000000000000000000000000000000000009A
:10066000000000000000000000000000000000008A
:100670000000000001000100000000000000000078
:100680000000000000000000010000000000010068
:10069000000000000000000000000000000000005A
:1006A000000000000000000000000000000000004A
:1006B0000000000000000000000000000100000039
:1006C0000000000000000100010000000000000028
:1006D000000000000000000000000000000000001A
:1006E0000000000000000100000000000000000009
:1006F00000000000000001000100000000000000F8
:1007000000000000000001000000000000000000E8
:1007100000000000010001000000000000000000D7
:1007200000000000010001000000000000000000C7
:1007300000000000010000000000000000000000B8
:1007400000000100010000000000010000000000A6
:100750000000000001000000000000000000000098
:100760000000010001000100010000000000000085
:100770000000000000000100000001000100010075
:100780000100010001000100000000000100000064
:100790000000010000000000000000000000000058
:1007A0000000000000000000000000000000010048
:1007B0000000000000000000000000000000000039
:1007C0000000010000000000000000000000000028
:1007D0000000000000000000000000000100010017
:1007E0000000000000000000000000000000000009
:1007F00000000000000000000000000000000000F9
:1008000001000100000000000000000000000000E6
:1008100000000000000000000000000000000000D8
:1008200000000000000000000000000000000000C8
:1008300000000000000000000000000000000000B8
:1008400000000000010001000000000000000000A6
:100850000000000000000000000000000000000098
:100860000000010000000000000000000000000087
:100870000000000000000000000000000000000078
:100880000100000000000000000000000000000067
:100890000000000000000000000000000100010056
:1008A0000000000000000000000000000000000048
:1008B0000000000000000000000001000000000037
:1008C0000000000000000000000000000000000028
:1008D0000000000000000000010000000000000017
:1008E0000000000000000000000000000000000008
:1008F00000000000010001000000000000000000F6
:1009000000000000000000000000000000000000E7
:1009100000000000000000000000010000000000D6
:1009200001000000000000000000000000000000C6
:1009300000000000000000000100000000000000B6
:1009400000000100000000000000000000000000A6
:100950000000000000000000010001000100010093
:100960000100010000000000000000000000000085
:100970000000000000000000010001000100010073
:100980000100000001000100000000000000000064
:100990000000000000000000010001000100010053
:1009A0000000010001000100000000000000000044
:1009B0000000000000000000010001000000000035
:1009C0000100010001000100000000000000000023
:1009D0000000000000000000010000000100010014
:1009E0000100010001000100000000000000000003
:1009F00000000000000000000000010001000100F4
:100A000001000100010001000000000000000000E2
:100A100000000000000000000100010001000100D2
:100A200001000100010001000000000000000000C2
:100A300000000000000000000000000000000000B6
:100A400000000100010001000000000000000000A3
:100A50000000000000000000000000000000000096
:100A60000100010001000100000000000000000082
:100A70000000000000000000000000000100010074
:100A80000100010001000100000000000000000062
:100A90000000000000000000000001000100010053
:100AA0000100010001000100000000000000000042
:100AB0000000000000000000010001000100010032
:100AC0000100010001000100000000000000000022
:100AD0000000000001000100010001000100010010
:100AE00001000100010001000000010001000100FF
:100AF00001000100010000000000000000000000F3
:100B000001000100000000000100000001000100E0
:100B100000000100010000000100000000000100D1
:100B200001000100010000000100010000000000C0
:100B300001000100000000000100010000000100B0
:100B4000010000000100000001000100010001009F
:100B50000100000001000000000000000000000093
:100B6000010001000100000001000100010001007E
:100B7000010001000100000001000100000001006F
:100B8000010001000100000001000100010000005F
:100B9000010001000100000001000100010001004E
:100BA0000100000000000000000001000100010041
:100BB0000000000001000000010000000100010031
:100BC000010001000000000001000100010001001F
:100BD0000000000001000000010001000100000011
:100BE0000000000001000000000001000100010001
:100BF00001000000010000000100010001000000F0
:100C000001000000000000000000010001000000E1
:100C100000000000000000000000000001000100D2
:100C200001000100000000000100010001000000BF
:100C300001000000010000000000010001000100AF
:100C400000000000000000000000000001000000A3
:100C50000100000001000000000001000100000090
:100C6000010001000100000000000100010001007E
:100C7000010001000100000001000100010000006E
:100C80000000010001000000010001000000000060
:100C9000010001000100000000000100010000004F
:100CA000000001000100000001000100000001003F
:100CB000010000000100000001000100010001002E
:100CC0000000000000000000000001000100010021
:100CD0000100010000000000000001000000010010
:100CE0000100010000000000000001000000010000
:100CF00000000100000000000100010001000000F0
:100D000001000100000000000100010000000100DE
:100D100001000100000000000100000000000100CF
:100D200000000100010000000000000000000000C1
:100D300000000000000000000000010000000000B2
:100D400000000100000000000000010001000000A0
:100D5000010001000000000001000100000001008E
:100D60000000000001000000000001000000010080
:100D7000010000000100000001000100010001006D
:100D80000000010001000000000000000000000061
:100D9000000001000000000000000100010001004F
:100DA0000000000001000000000000000000010041
:100DB000010001000100000001000100000000002E
:100DC000000001000100000001000100010000001E
:100DD0000000000000000000000000000000010012
:100DE0000100000000000000010000000000000001
:100DF00000000000000000000100000000000000F2
:100E000000000100000000000100000000000100DF
:100E100000000000000000000100000000000100D0
:100E200001000000000000000100010000000000BF
:100E300000000000010000000100000000000000B0
:100E400000000000010000000100000000000000A0
:100E5000000001000100000001000000010000008E
:100E6000000001000100000001000000010001007D
:100E7000010001000100000001000100000000006D
:100E80000000000000000000000001000000000061
:100E9000000001000100000000000000000001004F
:100EA0000000000000000000000000000000000042
:100EB0000000010000000100000000000000000030
:100EC0000000000000000100000000000000000021
:100ED0000000000001000000000000000000000011
:100EE0000000010000000000000000000000000001
:100EF00001000000000000000000000000000100F0
:100F000000000000000000000000000001000000E0
:100F100000000000000000000000010000000000D0
:100F200000000000000000000100000000000000C0
:100F300000000000000000000000000001000000B0
:100F4000010000000000000000000100000000009F
:100F5000000001000000000000000100010001008D
:100F6000010001000000000000000100010001007C
:100F7000010000000100000000000100010001006C
:100F8000000001000100000000000100010000005D
:100F9000010001000100000000000100000001004C
:100FA000010001000100000000000000010001003C
:100FB000010001000100000000000100010001002B
:100FC000010001000100000000000000000000001E
:100FD000000001000100000000000000000000000F
:100FE00001000100010000000000000000000100FD
:100FF00001000100010000000000000001000100EC
:1010000001000100010000000000010001000100DA
:1010100001000100010000000100010001000100C9
:101020000100010001000000000000002400270072
:101030002A0000000000250028002B0004040404FE
:101040000404040402020202020203030303030372
:10105000010204081020408001020408102001024F
:10106000040810200000000800020100000304072B
:10107000000000000000000092165E1611241FBE42
:10108000CFEFD8E0DEBFCDBF22E0AAE3B1E001C0E0
:101090001D92AF36B207E1F711E0A0E0B1E0E0E960
:1010A000F2E302C005900D92AA33B107D9F718E018
:1010B000CDE3D8E004C02197FE010E944317CC3352
:1010C000D107C9F70E9498160C943B190C940000A4
:1010D000AF92BF92CF92DF92EF92FF920F931F9346
:1010E000CF93DF936C017B018B01040F151FEB0184
:1010F0005E01AE18BF08C017D10759F06991D6013B
:10110000ED91FC910190F081E02DC6010995892BAC
:1011100079F7C501DF91CF911F910F91FF90EF906B
:10112000DF90CF90BF90AF900895FC01538D448D18
:10113000252F30E0842F90E0821B930B541710F082
:10114000CF96089501970895FC01918D828D98178F
:1011500061F0A28DAE0FBF2FB11D5D968C91928D67
:101160009F5F9F73928F90E008958FEF9FEF089598
:10117000FC01918D828D981731F0828DE80FF11D61
:10118000858D90E008958FEF9FEF0895FC01918D7C
:10119000228D892F90E0805C9F4F821B91098F7375
:1011A000992708958EEC91E00E94C60821E0892BD2
:1011B00009F420E0822F089580E090E0892B29F047
:1011C0000E94D20881110C9400000895CF92DF9202
:1011D000EF92FF921F93CF93DF93EC016A017B01A3
:1011E000122FE889F98982E08083C11481EED80644
:1011F000E104F104A1F060E079E08DE390E0A70163
:1012000096010E94EA16215031094109510956956B
:10121000479537952795211580E1380798F0E8899B
:10122000F989108260E874E88EE190E0A7019601E8
:101230000E94EA16215031094109510956954795F6
:1012400037952795EC85FD853083EE85FF852083D6
:10125000188EEC89FD891083EA89FB898081806181
:101260008083EA89FB89808188608083EA89FB89A1
:10127000808180688083EA89FB8980818F7D80837B
:10128000DF91CF911F91FF90EF90DF90CF90089565
:10129000FC01A48DA80FB92FB11DA35ABF4F2C91EB
:1012A000848D90E001968F739927848FA689B789E2
:1012B0002C93A089B1898C91837080648C93938DD9
:1012C000848D981306C00288F389E02D80818F7D7C
:1012D00080830895EF92FF920F931F93CF93DF9334
:1012E000EC0181E0888F9B8D8C8D98131AC0E88962
:1012F000F989808185FF15C09FB7F894EE89FF8931
:101300006083E889F98980818370806480839FBFCE
:1013100081E090E0DF91CF911F910F91FF90EF90CE
:101320000895F62E0B8D10E00F5F1F4F0F731127DE
:10133000E02E8C8D8E110CC00FB607FCFACFE88919
:10134000F989808185FFF5CFCE010E944809F1CF50
:10135000EB8DEC0FFD2FF11DE35AFF4FF0829FB78D
:10136000F8940B8FEA89FB8980818062CFCFCF937D
:10137000DF93EC01888D8823B9F0AA89BB89E889BD
:10138000F9898C9185FD03C0808186FD0DC00FB663
:1013900007FCF7CF8C9185FFF2CF808185FFEDCFE1
:1013A000CE010E944809E9CFDF91CF91089590E0E6
:1013B000FC01EC59FF4E2491FC01E05BFF4E34919F
:1013C000FC01E45CFF4EE491EE23C9F0222339F0E6
:1013D000233001F1A8F4213019F1223029F1F0E095
:1013E000EE0FFF1FEE5CFF4EA591B4918FB7F894FE
:1013F000EC91611126C030953E233C938FBF089538
:101400002730A9F02830C9F0243049F780918000B6
:101410008F7D03C0809180008F7780938000DFCF25
:1014200084B58F7784BDDBCF84B58F7DFBCF809172
:10143000B0008F778093B000D2CF8091B0008F7DC5
:10144000F9CF3E2BDACFCF93DF9390E0FC01E05B46
:10145000FF4E2491845C9F4EFC0184918823C9F047
:1014600090E0880F991FFC01E85DFF4EA591B491B3
:10147000FC01EE5CFF4EC591D49161110DC09FB788
:10148000F8948C91209582238C938881282328833B
:101490009FBFDF91CF910895623051F49FB7F894C8
:1014A0003C91822F809583238C93E8812E2BEFCF64
:1014B0008FB7F894EC912E2B2C938FBFEACF3FB7C8
:1014C000F8948091CA019091CB01A091CC01B09188
:1014D000CD0126B5A89B05C02F3F19F00196A11D8F
:1014E000B11D3FBFBA2FA92F982F8827BC01CD016E
:1014F000620F711D811D911D42E0660F771F881FCD
:10150000991F4A95D1F708958F929F92AF92BF92FB
:10151000CF92DF92EF92FF926B017C010E945F0AF3
:101520004B015C01C114D104E104F104B9F00E9443
:101530005F0A681979098A099B09683E7340810529
:10154000910580F321E0C21AD108E108F10888EE84
:10155000880E83E0981EA11CB11CE4CFFF90EF9091
:10156000DF90CF90BF90AF909F908F9008952FB74E
:10157000F8946091C6017091C7018091C801909163
:10158000C9012FBF0895CF93DF93EC0161E08CA5D3
:101590000E94D70961E070E080E090E00E94840A38
:1015A00060E08CA50E94D709DF91CF910895CF9379
:1015B000DF93EC0161E08AA50E94D70961E070E049
:1015C00080E090E00E94840A60E08AA50E94D7092A
:1015D000DF91CF910895EF92FF920F931F93CF93D6
:1015E000DF93EC018B018AAD9BAD8330910599F1BE
:1015F000039709F459C08AAD9BAD8630910509F473
:1016000081C08630910509F4B8C08130910509F494
:10161000F3C08130910509F42DC18230910509F4A0
:1016200082C18230910509F4C3C18430910509F467
:1016300023C28430910509F49EC28530910509F4D6
:1016400058C3059709F4E7C3DF91CF911F910F911C
:10165000FF90EF9008952CAD222351F21FA21EA2FD
:101660008EA19FA188309105DCF4F801E295F295F6
:10167000F07FFE27E07FFE27E851F54F880F991F86
:10168000E80FF91F6591749188A50E94D709CE01D2
:101690000E94D70A8EA19FA101969FA38EA3E0CF9F
:1016A000CE010E94C30AA7CF8CAD8111A4CF1FA287
:1016B0001EA20AC00E94D709CE010E94D70A8EA19D
:1016C0009FA101969FA38EA38EA19FA18830910513
:1016D000ACF4F801E295F295F07FFE27E07FFE275B
:1016E000E851F54F880F991FE80FF91F25913491A4
:1016F00088A561E0232BF1F260E0DCCFCE010E94EF
:10170000C30A79CF2CAD222309F47BCF1FA21EA2DE
:101710008EA19FA180319105DCF4F801E295F2954C
:10172000F07FFE27E07FFE27E851F54F880F991FD5
:10173000E80FF91F6591749188A50E94D709CE0121
:101740000E94D70A8EA19FA101969FA38EA3E0CFEE
:10175000CE010E94C30A8EA59FA599230CF474CFD5
:101760000C5311090230110520F060E00E94D709E6
:101770006BCF61E00E94D70967CF2CAD211145CF17
:101780001FA21EA20AC00E94D709CE010E94D70A3A
:101790008EA19FA101969FA38EA38EA19FA18031B0
:1017A0009105ACF4F801E295F295F07FFE27E07F19
:1017B000FE27E851F54F880F991FE80FF91F259173
:1017C000349188A561E0232BF1F260E0DCCFCE01FB
:1017D0000E94C30A8EA59FA599230CF435CF0C5304
:1017E00011090230110520F061E00E94D7092CCFC9
:1017F00060E00E94D70928CF2CAD222309F409CF3D
:1018000002951295107F1027007F10270851154F61
:10181000F801659174918C850E94D709F801329680
:10182000659174918A850E94D709F8013496659173
:10183000749188850E94D709F80136966591749154
:101840008E810E94D709F8013896659174918C8138
:101850000E94D709F8013A96659174918A810E9495
:10186000D709045F1F4FF8016591749188810E9428
:10187000D709EACE2CAD2111D0CE02951295107F5A
:101880001027007F10270851154FF801259134913A
:101890008C8561E0232B09F060E00E94D709F801F4
:1018A0003296259134918A8561E0232B09F060E01E
:1018B0000E94D709F801349625913491888561E01A
:1018C000232B09F060E00E94D709F8013696259194
:1018D00034918E8161E0232B09F060E00E94D709EA
:1018E000F8013896259134918C8161E0232B09F021
:1018F00060E00E94D709F8013A96259134918A81D7
:1019000061E0232B09F060E00E94D709045F1F4FBC
:10191000F80125913491888161E0232B09F060E082
:101920000E94D70991CE2CAD222309F47ACE0295DC
:101930001295107F1027007F10270851154FF801CE
:10194000659174918C850E94D709F8013296659152
:1019500074918A850E94D709F80134966591749133
:1019600088850E94D709F8013696659174918E8119
:101970000E94D709F8013896659174918C810E9474
:10198000D709F8013A96659174918A810E94D70926
:10199000F8013C966591749188810E94D709025F95
:1019A0001F4FF801659174918EA50E94D7094CCE06
:1019B0002CAD21113ACE02951295107F1027007F91
:1019C00010270851154FF801259134918C8561E05D
:1019D000232B09F060E00E94D709F8013296259187
:1019E00034918A8561E0232B09F060E00E94D709D9
:1019F000F801349625913491888561E0232B09F014
:101A000060E00E94D709F8013696259134918E81C5
:101A100061E0232B09F060E00E94D709F8013896B5
:101A2000259134918C8161E0232B09F060E00E94C4
:101A3000D709F8013A96259134918A8161E0232BE8
:101A400009F060E00E94D709F8013C962591349195
:101A5000888161E0232B09F060E00E94D709025FD2
:101A60001F4FF801259134918EA561E0232B09F0D9
:101A700060E00E94D709E8CD2CAD222309F4D9CD2E
:101A8000000F111F02951295107F1027007F10275D
:101A900008591F4FF801659174918CA10E94D709D4
:101AA000F8013296659174918AA10E94D709F801D4
:101AB00034966591749188A10E94D709F8013696F1
:101AC000659174918E8D0E94D709F80138966591C1
:101AD00074918C8D0E94D709F8013A9665917491A2
:101AE0008A8D0E94D709F8013C96659174918E8980
:101AF0000E94D709F8013E96659174918E890E94E3
:101B0000D709F8017096659174918A850E94D7096A
:101B1000F80172966591749188850E94D709F80141
:101B20007496659174918C890E94D709F801769614
:101B3000659174918A890E94D709F8017896659118
:101B400074918C810E94D709F8017A9665917491FD
:101B50008A810E94D709F8017C96659174918889E1
:101B60000E94D709025E1F4FF801659174918E851E
:101B70000E94D70969CD2CAD21115FCD000F111F37
:101B800002951295107F1027007F102708591F4FCC
:101B9000F801259134918CA161E0232B09F060E0DC
:101BA0000E94D709F8013296259134918AA161E00B
:101BB000232B09F060E00E94D709F80134962591A3
:101BC000349188A161E0232B09F060E00E94D709DD
:101BD000F8013696259134918E8D61E0232B09F022
:101BE00060E00E94D709F8013896259134918C8DD8
:101BF00061E0232B09F060E00E94D709F8013A96D2
:101C0000259134918A8D61E0232B09F060E00E94D8
:101C1000D709F8013C96259134918E8961E0232BF8
:101C200009F060E00E94D709F8013E9625913491B1
:101C30008E8961E0232B09F060E00E94D709F8014A
:101C40007096259134918A8561E0232B09F060E03C
:101C50000E94D709F801729625913491888561E038
:101C6000232B09F060E00E94D709F80174962591B2
:101C700034918C8961E0232B09F060E00E94D70940
:101C8000F8017696259134918A8961E0232B09F039
:101C900060E00E94D709F8017896259134918C81F3
:101CA00061E0232B09F060E00E94D709F8017A96E1
:101CB000259134918A8161E0232B09F060E00E9434
:101CC000D709F8017C9625913491888961E0232B0E
:101CD00009F060E00E94D709025E1F4FF8012591CC
:101CE00034918E8561E0232B09F060E00E94D709D2
:101CF000ABCC2CAD222309F4A4CCF801EE0FFF1FCE
:101D0000E295F295F07FFE27E07FFE27CF0188590C
:101D10009F4F7C01FC01659174918CA10E94D709B1
:101D2000F7013296659174918AA10E94D709F70153
:101D300034966591749188A10E94D709F70136966F
:101D4000659174918E8D0E94D709F701389665913F
:101D500074918C8D0E94D709F7013A966591749120
:101D60008A8D0E94D709F7013C96659174918E89FE
:101D70000E94D709F7013E96659174918E890E9461
:101D8000D709F7017096659174918A850E94D709E9
:101D9000F70172966591749188850E94D709F701C1
:101DA0007496659174918C890E94D709F701769693
:101DB000659174918A890E94D709F7017896659197
:101DC00074918C810E94D709F7017A96659174917C
:101DD0008A810E94D709F7017C9665917491888960
:101DE0000E94D709F7017E96659174918E850E94B5
:101DF000D7098EA59FA599230CF426CC0C53110965
:101E00000230110520F060E00E94D7091DCC61E08E
:101E10000E94D70919CC8CAD811116CCF801EE0FB8
:101E2000FF1FE295F295F07FFE27E07FFE27CF01AE
:101E300088599F4F7C01FC01259134918CA161E070
:101E4000232B09F060E00E94D709F7013296259113
:101E500034918AA161E0232B09F060E00E94D70948
:101E6000F70134962591349188A161E0232B09F084
:101E700060E00E94D709F7013696259134918E8D46
:101E800061E0232B09F060E00E94D709F701389642
:101E9000259134918C8D61E0232B09F060E00E9444
:101EA000D709F7013A96259134918A8D61E0232B69
:101EB00009F060E00E94D709F7013C962591349122
:101EC0008E8961E0232B09F060E00E94D709F701B9
:101ED0003E96259134918E8961E0232B09F060E0D4
:101EE0000E94D709F7017096259134918A8561E0A7
:101EF000232B09F060E00E94D709F7017296259123
:101F00003491888561E0232B09F060E00E94D709B5
:101F1000F7017496259134918C8961E0232B09F0A7
:101F200060E00E94D709F7017696259134918A895D
:101F300061E0232B09F060E00E94D709F701789651
:101F4000259134918C8161E0232B09F060E00E949F
:101F5000D709F7017A96259134918A8161E0232B84
:101F600009F060E00E94D709F7017C962591349131
:101F7000888961E0232B09F060E00E94D709F7010E
:101F80007E96259134918E8561E0232B09F060E0E7
:101F90000E94D7098EA59FA599230CF455CB0C530D
:101FA00011090230110520F061E00E94D7094CCBE5
:101FB00060E00E94D70948CBFC0162AB603309F4B2
:101FC00067C0613309F469C0623309F46BC06333DD
:101FD00009F46DC0643309F46FC0653309F471C04E
:101FE000663309F473C0673309F475C0683309F4C4
:101FF00077C0693309F479C0613409F47BC0613674
:1020000009F478C0623409F47AC0623609F477C002
:10201000633409F479C0633609F476C0643409F492
:1020200078C0643609F475C0653409F477C0653644
:1020300009F474C0663409F476C0663609F473C0D6
:10204000673409F475C0673609F472C0683409F45E
:1020500074C0683609F471C0693409F473C0693614
:1020600009F470C06A3409F472C06A3609F46FC0AA
:102070006B3409F471C06B3609F46EC06C3419F01E
:102080006C3609F06EC065E170E00E94EB0A0895BD
:1020900070E060E00E94EB0A089561E070E00E9449
:1020A000EB0A089562E070E00E94EB0A089563E095
:1020B00070E00E94EB0A089564E070E00E94EB0A71
:1020C000089565E070E00E94EB0A089566E070E014
:1020D0000E94EB0A089567E070E00E94EB0A089501
:1020E00068E070E00E94EB0A089569E070E00E94E9
:1020F000EB0A08956AE070E00E94EB0A08956BE035
:1021000070E00E94EB0A08956CE070E00E94EB0A18
:1021100008956DE070E00E94EB0A08956EE070E0B3
:102120000E94EB0A08956FE070E00E94EB0A0895A8
:1021300060E170E00E94EB0A089561E170E00E94A6
:10214000EB0A089562E170E00E94EB0A089563E1F2
:1021500070E00E94EB0A089564E170E00E94EB0ACF
:1021600008956D3479F06D3669F06E3481F06E3615
:1021700071F06F3411F06F3679F468E170E00E940D
:10218000EB0A089566E170E00E94EB0A089567E1AA
:1021900070E00E94EB0A0895603511F0603729F471
:1021A00069E170E00E94EB0A0895613511F0613732
:1021B00029F46AE170E00E94EB0A0895623511F09B
:1021C000623729F46BE170E00E94EB0A08956335F1
:1021D00011F0633729F46CE170E00E94EB0A089576
:1021E000643511F0643729F46DE170E00E94EB0A68
:1021F0000895653511F0653729F46EE170E00E94AD
:10220000EB0A0895663511F0663729F46FE170E046
:102210000E94EB0A0895673511F0673729F460E2F0
:1022200070E00E94EB0A0895683511F0683729F4D0
:1022300061E270E00E94EB0A0895693511F0693798
:1022400029F462E270E00E94EB0A08956A3511F009
:102250006A3729F463E270E00E94EB0A0895603265
:1022600029F464E270E00E94EB0A0895623229F4D6
:1022700065E270E00E94EB0A0895633229F466E299
:1022800070E00E94EB0A0895643229F467E270E07E
:102290000E94EB0A0895653229F468E270E00E941A
:1022A000EB0A0895663229F469E270E00E94EB0AB5
:1022B0000895673211F0603629F46AE270E00E94F6
:1022C000EB0A0895683221F06B3511F06B3729F471
:1022D0006BE270E00E94EB0A0895693221F06D35DF
:1022E00011F06D3729F46CE270E00E94EB0A08955A
:1022F0006A3229F46DE270E00E94EB0A08956B32B5
:1023000029F46EE270E00E94EB0A08956C3229F421
:102310006FE270E00E94EB0A08956D3211F06E37A3
:1023200029F460E370E00E94EB0A08956F3229F40B
:1023300061E370E00E94EB0A08956A3329F462E3D6
:1023400070E00E94EB0A08956B3329F463E370E0B8
:102350000E94EB0A08956C3329F464E370E00E9454
:10236000EB0A08956D3329F465E370E00E94EB0AEF
:1023700008956E3329F466E370E00E94EB0A089535
:102380006F3329F467E370E00E94EB0A089560342C
:1023900029F468E370E00E94EB0A08956C3529F493
:1023A00069E370E00E94EB0A08956E3529F46AE350
:1023B00070E00E94EB0A08956F3529F46BE370E03A
:1023C0000E94EB0A0895613269F422AD33AD2130E9
:1023D000310541F02430310529F06CE370E00E94B2
:1023E000EB0A08956E3269F4FC0122AD33AD213061
:1023F000310539F02430310521F06DE370E00E94A1
:10240000EB0A08950F931F93CF93DF938C01FC0188
:1024100071AB60ABC1E0D0E0F80180A991A98C1745
:102420009D0764F060E2C8010E94DC0F6AE070E082
:1024300080E090E00E94840A2196EECF64E670E08E
:1024400080E090E00E94840ADF91CF911F910F916C
:1024500008956FEF7FEF81E090E00E94651208958C
:102460008EEC91E00E94C60808958EEC91E00E94E7
:10247000A4080895CF92DF92EF92FF926A017B0148
:1024800068EE73E080E090E00E94840A26E0B701E5
:10249000A6018EEC91E00E94E608FF90EF90DF909D
:1024A000CF9008950895FC01168217821086118638
:1024B000128613861486158616861786108A118A48
:1024C000128A138A148A158A0895019709F00895CB
:1024D0006F3F7F4FE1F78FE791E00E945312F7CFF4
:1024E0000E94B70A08958F929F92AF92BF92CF92A7
:1024F000DF92EF92FF92CF93DF93EC016A017B01B1
:102500000E9470124B015C01C80CD91CEA1CFB1C18
:10251000CE010E947012681579058A059B0528F086
:10252000C616D706E806F90698F7DF91CF91FF9017
:10253000EF90DF90CF90BF90AF909F908F900895D5
:102540000F931F93CF93DF93EC01662369F0CE01C5
:102550000E9470126A837B838C839D8381E0DF916C
:10256000CF911F910F9108950E9470120A811B81D3
:102570002C813D81DC01CB01801B910BA20BB30BA5
:1025800082339105A105B10510F742E350E060E008
:1025900070E0481B590B6A0B7B0B21E0CE010E94B7
:1025A0007312D5CF21E00E9473120895FC01EE5BF7
:1025B000FF4F1082118212821382FC011282138259
:1025C00014821582411551056105710509F40895BC
:1025D0000E94D212FCCF6FEF7FEF81E090E00E946B
:1025E0007215089561E48AE391E00E94DC0F68EEC1
:1025F00073E080E090E00E94840A62E48AE391E064
:102600000E94DC0F68EE73E080E090E00E94840A94
:1026100060E38AE391E00E94DC0F68EE73E080E003
:1026200090E00E94840A61E38AE391E00E94DC0F5B
:1026300068EE73E080E090E00E94840A62E38AE33F
:1026400091E00E94DC0F68EE73E080E090E00E9471
:10265000840A63E38AE391E00E94DC0F68EE73E092
:1026600080E090E00E94840A64E38AE391E00E94A3
:10267000DC0F68EE73E080E090E00E94840A65E37E
:102680008AE391E00E94DC0F68EE73E080E090E066
:102690000E94840A66E38AE391E00E94DC0F68EE00
:1026A00073E080E090E00E94840A67E38AE391E0AF
:1026B0000E94DC0F68EE73E080E090E00E94840AE4
:1026C00068E38AE391E00E94DC0F68EE73E080E04B
:1026D00090E00E94840A69E38AE391E00E94DC0FA3
:1026E00068EE73E080E090E00E94840A61E070E0B0
:1026F0008AE391E00E94021268EE73E080E090E0CD
:102700000E94840A0895FC0180819181009711F054
:102710000C94E5170895FB0101900020E9F731972B
:10272000AF01461B570BDC01ED91FC910280F38158
:10273000E02D0994AF92BF92CF92DF92EF92FF9279
:102740000F931F93CF93DF93CDB7DEB7A1970FB64B
:10275000F894DEBF0FBECDBF5C0141155105C1F439
:10276000DC01ED91FC910190F081E02D0995A1969D
:102770000FB6F894DEBF0FBECDBFDF91CF911F9192
:102780000F91FF90EF90DF90CF90BF90AF900895A2
:1027900019A2423008F44AE070E090E080E08E0137
:1027A0000F5D1F4FC42ED12CF12CE12CA7019601F7
:1027B0000E94EA16E62FCA01B901EA308CF4E05D06
:1027C000D801EE938D01232B242B252B79F790E054
:1027D00080E0109761F2BD01C5010E948B13C7CF45
:1027E000E95CEECF0F931F93CF93DF938C01D0E082
:1027F000C0E06115710519F00E948B13EC0168E1CE
:1028000071E0C8010E948B138C0F9D1FDF91CF9147
:102810001F910F9108956115710511F00C948B13A0
:1028200090E080E008951F93CF93DF93EC01162F83
:1028300061E00E94A0126BE171E08EEC91E00E94D9
:102840000B144AE050E0612F8EEC91E00E949A1345
:1028500062E271E08EEC91E00E94F21342E350E0FC
:1028600060E070E0CE010E94D212DF91CF911F9103
:1028700008950F931F93CF93DF93FC0126892223A2
:1028800019F1062FEC010E943012882321F1CE01AC
:102890000E943012882309F1CE010E943512182FB0
:1028A0008836E9F048F4883561F0833681F7602F87
:1028B000CE010E94131409C0813789F0863729F0B0
:1028C000E6CF1E8A13E601C013E6812FDF91CF9178
:1028D0001F910F91089515E6F8CF15E6F6CF13E690
:1028E000F4CF1F93CF93DF93EC01142F662381F075
:1028F00081E08E8B60E0CE010E943914833641F076
:1029000041E050E060E070E0CE010E94D212F2CFD0
:102910001E8BDF91CF911F91089548EB5BE060E043
:1029200070E08FE791E00E94D61240E052EC61E047
:1029300070E08FE791E00E943A1261E08FE791E04A
:102940000E94A01281110DC041E060E08FE791E08C
:102950000E94711461E070E08AE391E00E9402122B
:10296000089569E271E08EEC91E00E940B144AE058
:1029700050E060E070E08FE791E00E94D212E4CF77
:10298000EF92FF920F931F93CF93DF93EC01198285
:1029900018821B821A821D821C8261157105A9F1A1
:1029A0007B01FB0101900020E9F731978F01061BA5
:1029B000170BB8016F5F7F4F90E080E00E946E18A8
:1029C0000097B9F0998388831B830A832C813D810A
:1029D000232B11F4FC0110821D830C83B701888125
:1029E0009981DF91CF911F910F91FF90EF900C94FF
:1029F000341988819981009711F00E94E517198296
:102A000018821D821C821B821A82DF91CF911F9136
:102A10000F91FF90EF9008952F923F924F925F9207
:102A20006F927F928F929F92AF92BF92CF92DF92DE
:102A3000EF92FF920F931F93CF93DF931F92CDB727
:102A4000DEB73C01462E272E542E352E922E39838A
:102A50006AE171E0C3960E94C01461E0842D0E9477
:102A6000230A61E0852D0E94230A61E0892D0E94DE
:102A7000230A61E0802F0E94230A61E08E2D0E94CC
:102A8000230A61E08C2D0E94230A61E08A2D0E94B6
:102A9000230AF30140822182528233829482898107
:102AA000858306831783E086F186C286D386A48653
:102AB000B58681E090E093AF82AF84AE0F90DF9156
:102AC000CF911F910F91FF90EF90DF90CF90BF902B
:102AD000AF909F908F907F906F905F904F903F90BE
:102AE0002F9008956F927F928F92AF92BF92CF9264
:102AF000DF92EF92FF920F931F93CF93DF93EC013E
:102B00003B01019799F0CD2B19F46720609479F17E
:102B1000DF91CF911F910F91FF90EF90DF90CF90B9
:102B2000BF90AF908F907F906F9008956F3F7F4FD1
:102B300051F7882483940F2EFBE0AF2EB12CF02D9B
:102B40000F2EFAE0CF2ED12CF02D0F2EF9E0EF2E24
:102B5000F12CF02D08E010E027E030E046E050E0F6
:102B600065E070E08AE391E00E940C15CCCF8DE621
:102B700091E00E948313CCCF1F920F920FB60F9259
:102B800011242F933F934F935F936F937F938F9372
:102B90009F93AF93BF93EF93FF938EEC91E00E94CE
:102BA0004809FF91EF91BF91AF919F918F917F91D4
:102BB0006F915F914F913F912F910F900FBE0F90AA
:102BC0001F9018951F920F920FB60F9211242F93FA
:102BD0008F939F93EF93FF93E091DE01F091DF01DC
:102BE0008081E091E401F091E50182FD1BC09081BC
:102BF0008091E7018F5F8F732091E801821741F088
:102C0000E091E701F0E0E253FE4F958F8093E701FA
:102C1000FF91EF919F918F912F910F900FBE0F9089
:102C20001F9018958081F4CF1F920F920FB60F92CC
:102C300011242F933F938F939F93AF93BF938091D2
:102C4000C6019091C701A091C801B091C90130910E
:102C5000C50123E0230F2D3758F50196A11DB11DA5
:102C60002093C5018093C6019093C701A093C8012A
:102C7000B093C9018091CA019091CB01A091CC0180
:102C8000B091CD010196A11DB11D8093CA01909311
:102C9000CB01A093CC01B093CD01BF91AF919F9197
:102CA0008F913F912F910F900FBE0F901F9018950D
:102CB00026E8230F0296A11DB11DD2CF6FEF7FEF43
:102CC00090E080E00E9472150895EEECF1E013822E
:102CD000128288EE93E0A0E0B0E084839583A6831F
:102CE000B7838AE091E09183808385EC90E09587BB
:102CF000848784EC90E09787868780EC90E0918BC6
:102D0000808B81EC90E0938B828B82EC90E0958BB2
:102D1000848B86EC90E0978B868B118E128E138EAF
:102D2000148E08950E9465160E9429120C94EB12CD
:102D3000789484B5826084BD84B5816084BD85B596
:102D4000826085BD85B5816085BD80916E008160A2
:102D500080936E0010928100809181008260809348
:102D6000810080918100816080938100809180004A
:102D70008160809380008091B10084608093B10075
:102D80008091B00081608093B00080917A0084606F
:102D900080937A0080917A00826080937A0080919B
:102DA0007A00816080937A0080917A0080688093B5
:102DB0007A001092C1000E948D14C0E0D0E00E9401
:102DC000F2122097E1F30E94D2088823C1F30E94F7
:102DD0000000F5CFA1E21A2EAA1BBB1BFD010DC0FE
:102DE000AA1FBB1FEE1FFF1FA217B307E407F507BB
:102DF00020F0A21BB30BE40BF50B661F771F881F97
:102E0000991F1A9469F760957095809590959B012C
:102E1000AC01BD01CF0108952F923F924F925F9276
:102E20006F927F928F929F92AF92BF92CF92DF92DA
:102E3000EF92FF920F931F93CF93DF93CDB7DEB73F
:102E4000CA1BDB0B0FB6F894DEBF0FBECDBF0994D3
:102E50002A88398848885F846E847D848C849B842A
:102E6000AA84B984C884DF80EE80FD800C811B8138
:102E7000AA81B981CE0FD11D0FB6F894DEBF0FBE67
:102E8000CDBFED010895EE0FFF1F0590F491E02DE9
:102E900009940F931F93CF93DF938230910510F421
:102EA00082E090E0E0916D02F0916E0230E020E06F
:102EB000B0E0A0E0309799F42115310509F44AC03B
:102EC000281B390B24303105D8F58A819B81611587
:102ED000710589F1FB0193838283FE0111C040815A
:102EE00051810281138148175907E0F048175907AB
:102EF00099F4109761F012960C93129713961C9305
:102F00003296CF01DF91CF911F910F9108950093D9
:102F10006D0210936E02F4CF2115310551F0421766
:102F2000530738F0A901DB019A01BD01DF01F80167
:102F3000C1CFEF01F9CF90936E0280936D02CDCF98
:102F4000FE01E20FF31F81939193225031093983DF
:102F50002883D7CF20916B0230916C02232B41F450
:102F6000209102013091030130936C0220936B0297
:102F700020910001309101012115310541F42DB757
:102F80003EB74091040150910501241B350BE0919F
:102F90006B02F0916C02E217F307A0F42E1B3F0BBB
:102FA0002817390778F0AC014E5F5F4F24173507BB
:102FB00048F04E0F5F1F50936C0240936B02819359
:102FC00091939FCFF0E0E0E09CCFCF93DF93009709
:102FD000E9F0FC01329713821282A0916D02B09148
:102FE0006E02ED0130E020E01097A1F420813181E4
:102FF000820F931F20916B0230916C0228173907C2
:1030000009F061C0F0936C02E0936B02DF91CF9105
:103010000895EA01CE17DF07E8F54A815B819E013A
:1030200041155105B1F7E901FB83EA8349915991B3
:10303000C40FD51FEC17FD0761F4808191810296C2
:10304000840F951FE90199838883828193819B83F3
:103050008A83F0E0E0E012968D919C91139700979F
:10306000B9F52D913C911197CD010296820F931FD6
:1030700020916B0230916C022817390739F630978E
:1030800051F510926E0210926D02B0936C02A093F3
:103090006B02BCCFD383C28340815181840F951FC3
:1030A000C817D90761F44E5F5F4F88819981480F37
:1030B000591F518340838A819B8193838283211589
:1030C000310509F0B0CFF0936E02E0936D029ECF10
:1030D000FD01DC01C0CF13821282D7CFB0E0A0E0A7
:1030E000E4E7F8E10C940E178C01009751F4CB0142
:1030F0000E9449178C01C801CDB7DEB7E0E10C94FE
:103100002A17FC01E60FF71F9C0122503109E21734
:10311000F30708F49DC0D901CD91DC911197C61732
:10312000D70798F0C530D10530F3CE010497861744
:10313000970708F3C61BD70B2297C193D1936D93C2
:103140007C93CF010E94E517D6CF5B01AC1ABD0A74
:103150004C018C0E9D1EA0916D02B0916E02512CFF
:10316000412CF12CE12C109731F580916B0290915C
:103170006C028815990509F05CC04616570608F0E0
:1031800058C08091000190910101009741F48DB7E2
:103190009EB74091040150910501841B950BE817DF
:1031A000F90708F055C0F0936C02E0936B02F90147
:1031B00071836083A0CF8D919C91119712966C9032
:1031C000129713967C901397A815B90559F56C01C1
:1031D00042E0C40ED11CCA14DB0420F1AC014A1930
:1031E0005B09DA011296159780F06282738251832F
:1031F0004083D9016D937C93E114F10471F0D70100
:103200001396FC93EE93129776CF22968C0F9D1F08
:10321000F90191838083F301EFCFF0936E02E09385
:103220006D0269CF4816590608F42C017D01D301BF
:103230009ACFCB010E9449177C01009749F0AE015B
:10324000B8010E942B19C8010E94E517870153CFCE
:1032500010E000E050CFFB01DC0102C001900D92B4
:1032600041505040D8F70895FB01DC0101900D92C8
:103270000020E1F7089518E0CDE3D8E004C0FE0196
:103280000E9443172196CE33D107C9F7F894FFCF98
:1032900000006F028000000000006A0968089508BD
:1032A000B709C608A408B8080D0A00564D44504393
:1032B0005F005F564D44504300564D4450565F31B9
:0A32C0007C315F564D4450560A0061
:00000001FF
