:020000040000FA
:100000000C945D000C9485000C9485000C94850084
:100010000C9485000C9485000C9485000C9485004C
:100020000C9485000C9485000C9485000C9485003C
:100030000C9485000C9485000C9485000C9485002C
:100040000C94F5060C9485000C94C3060C949D0644
:100050000C9485000C9485000C9485000C9485000C
:100060000C943F070C94850000000008000201007A
:100070000003040700000000000000000000000072
:10008000250028002B0000000000240027002A0083
:10009000040404040404040402020202020203032E
:1000A0000303030301020408102040800102040836
:1000B00010200102040810205E0811241FBECFEF9B
:1000C000D8E0DEBFCDBF12E0A0E0B1E0EAE1FBE1A5
:1000D00002C005900D92AA33B107D9F723E0AAE335
:1000E000B2E001C01D92A03CB207E1F710E0CDE5FF
:1000F000D0E004C02197FE010E94850DCC35D107C8
:10010000C9F70E94A6080C948B0D0C9400008091F6
:100110009F029091A002891B990B0895089508955C
:10012000AF92BF92CF92DF92EF92FF920F931F9305
:10013000CF93DF936C017B018B01040F151FEB0143
:100140005E01AE18BF08C017D10759F06991D601FA
:10015000ED91FC910190F081E02DC6010995892B6C
:1001600079F7C501DF91CF911F910F91FF90EF902B
:10017000DF90CF90BF90AF900895FC01538D448DD8
:10018000252F30E0842F90E0821B930B541710F042
:10019000CF96089501970895FC01918D828D98174F
:1001A00061F0A28DAE0FBF2FB11D5D968C91928D27
:1001B0009F5F9F73928F90E008958FEF9FEF089558
:1001C000FC01918D828D981731F0828DE80FF11D21
:1001D000858D90E008958FEF9FEF0895FC01918D3C
:1001E000228D892F90E0805C9F4F821B91098F7335
:1001F0009927089581E193E00E94EE0021E0892B88
:1002000009F420E0822F089580E090E0892B29F006
:100210000E94FA0081110C9400000895FC01A48D45
:10022000A80FB92FB11DA35ABF4F2C91848D90E018
:1002300001968F739927848FA689B7892C93A089FB
:10024000B1898C91837080648C93938D848D981385
:1002500006C00288F389E02D80818F7D8083089518
:10026000EF92FF920F931F93CF93DF93EC0181E006
:10027000888F9B8D8C8D98131AC0E889F9898081AD
:1002800085FF15C09FB7F894EE89FF896083E889E0
:10029000F98980818370806480839FBF81E090E0D2
:1002A000DF91CF911F910F91FF90EF900895F62E5F
:1002B0000B8D10E00F5F1F4F0F731127E02E8C8DF9
:1002C0008E110CC00FB607FCFACFE889F98980813E
:1002D00085FFF5CFCE010E940E01F1CFEB8DEC0F23
:1002E000FD2FF11DE35AFF4FF0829FB7F8940B8F5B
:1002F000EA89FB8980818062CFCFCF93DF93EC01C5
:10030000888D8823B9F0AA89BB89E889F9898C91FD
:1003100085FD03C0808186FD0DC00FB607FCF7CFB9
:100320008C9185FFF2CF808185FFEDCFCE010E94B9
:100330000E01E9CFDF91CF91089590E0FC01E859DB
:10034000FF4F2491FC01EC55FF4F3491FC01E05725
:10035000FF4FE491EE23C9F0222339F0233001F15D
:10036000A8F4213019F1223029F1F0E0EE0FFF1F3F
:10037000E458FF4FA591B4918FB7F894EC916111B7
:1003800026C030953E233C938FBF08952730A9F0B7
:100390002830C9F0243049F7809180008F7D03C058
:1003A000809180008F7780938000DFCF84B58F7736
:1003B00084BDDBCF84B58F7DFBCF8091B0008F777C
:1003C0008093B000D2CF8091B0008F7DF9CF3E2BCB
:1003D000DACF3FB7F8948091830290918402A09184
:1003E0008502B091860226B5A89B05C02F3F19F063
:1003F0000196A11DB11D3FBFBA2FA92F982F8827A5
:10040000BC01CD01620F711D811D911D42E0660F7F
:10041000771F881F991F4A95D1F708958F929F9251
:10042000AF92BF92CF92DF92EF92FF924B015C01AD
:100430000E94E9016B017C010E94E9016C197D09B0
:100440008E099F09683E734081059105A8F321E05C
:10045000821A9108A108B10888EEC80E83E0D81E60
:10046000E11CF11C81149104A104B10429F7FF904F
:10047000EF90DF90CF90BF90AF909F908F900895B6
:1004800020915B02260F3327331F21323105ECF414
:1004900020910B03FC0190E080E0243069F082E0C1
:1004A0000895A0915B022191AC01455C5D4FA40FC2
:1004B000B52FB11D2C930196861798F380915B029E
:1004C000680F60935B0280E0089581E008951092C8
:1004D0000B0381E08093EA021092E50261E082E181
:1004E0000E949D0161E083E10E949D01E9EBF0E043
:1004F00080818E7F808380818D7F808388E480935C
:10050000B80085E48093BC000895CF93DF9391E019
:1005100090933A028823B9F0C091B800D091BA0004
:100520008091BC008A7B8093BC0060E082E10E94E5
:100530009D0160E083E10E949D010E946702D093CB
:10054000BA00C093B800DF91CF910895CF92DF92A7
:10055000EF92FF920F931F93CF93DF93D82FC62F65
:10056000613208F098C00E94E9016B017C01809122
:100570000B0381116BC081E080930B038093EA022F
:100580009FEF9093E9021092E8029C0F9093E7028C
:100590008093E6028091E602DD0FD82BD093E6022D
:1005A0008091E502813009F078C01092E5020E9446
:1005B000E9016B017C018091E6028093BB00809190
:1005C0000D0390910E03A0910F03B0911003892B9E
:1005D0008A2B8B2BA1F00E94E90100910D03109151
:1005E0000E0320910F03309110036C197D098E09C1
:1005F0009F09061717072807390708F448C0809194
:10060000BC0083FDD8CF85EC8093BC000E94E9013B
:100610006B017C0180910B03813009F440C0809113
:10062000E8028C1710F4C091E802E5ECF2E0ABEEC2
:10063000B2E080E08C1355C08C2FDF91CF911F91D9
:100640000F91FF90EF90DF90CF90089580910D0370
:1006500090910E03A0910F03B0911003892B8A2B68
:100660008B2B09F484CF0E94E90100910D031091B6
:100670000E0320910F03309110036C197D098E0930
:100680009F09061717072807390708F070CF8091D0
:100690000C030E948502C0E0CFCF85EEB5CF8091DC
:1006A0000D0390910E03A0910F03B0911003892BBD
:1006B0008A2B8B2B09F4AECF0E94E90100910D0328
:1006C00010910E0320910F03309110036C197D09D6
:1006D0008E099F09061717072807390708F09ACFD0
:1006E000D6CF91919D938F5FA5CF8F929F92AF921E
:1006F000BF92CF92DF92EF92FF920F931F93CF930F
:10070000DF93D091C402D13208F0D7C0182FC09126
:10071000C3020E94E9016B017C0180910B038111EE
:100720006BC082E080930B031093EA028FEF8093FB
:10073000E9021092E802D093E702A3EAB2E0E5EC06
:10074000F2E080E0D81391C01092E6028091E602B8
:10075000CC0FC82BC093E6028091E502813009F0EE
:1007600088C01092E5020E94E9016B017C01809132
:10077000E6028093BB0080910D0390910E03A0913F
:100780000F03B0911003892B8A2B8B2BA1F00E94B1
:10079000E90100910D0310910E0320910F03309198
:1007A00010036C197D098E099F0906171707280782
:1007B000390708F442C08091BC0083FDD8CF85EC96
:1007C0008093BC000E94E9016B017C0180910B03C6
:1007D000823009F450C08091E9028F3F09F46FC064
:1007E0008091E902803209F46CC08091E902803383
:1007F00009F469C084E026C080910D0390910E0336
:10080000A0910F03B0911003892B8A2B8B2B09F435
:1008100084CF0E94E90180900D0390900E03A09078
:100820000F03B09010036C197D098E099F0986167D
:100830009706A806B90608F070CF80910C030E94B5
:10084000850285E01092A2021092C4021092A102C9
:10085000DF91CF911F910F91FF90EF90DF90CF909C
:10086000BF90AF909F908F9008959D9191938F5FCF
:1008700069CF85EEA5CF80910D0390910E03A091D5
:100880000F03B0911003892B8A2B8B2B09F49ECF79
:100890000E94E90100910D0310910E0320910F03B6
:1008A000309110036C197D098E099F0906171707EF
:1008B0002807390708F08ACFC0CF81E0C3CF80E096
:1008C000C1CF82E0BFCF83E0BDCF0895E091A00209
:1008D00080919F02E81730F4F0E0E551FD4F8081F0
:1008E00090E008958FEF9FEF08959091A00280917E
:1008F0009F022FEF3FEF981748F4E92FF0E0E55102
:10090000FD4F208130E09F5F9093A002C9010895C0
:10091000CF92DF92EF92FF920F931F93CF93DF93CB
:100920007C01CB018A012091A102222389F0EB01F5
:100930006B01C40ED51ECC15DD0569F06991D70198
:10094000ED91FC910190F081E02DC7010995F3CF65
:10095000642F0E944002C801DF91CF911F910F9137
:10096000FF90EF90DF90CF900895CF93DF931F9289
:10097000CDB7DEB769832091A1022223F9F020913F
:10098000C402203258F021E030E0FC01338322839E
:1009900090E080E00F90DF91CF9108958091A202C6
:1009A000E82FF0E0ED55FD4F998190838F5F8093A4
:1009B000A2028093C40281E090E0ECCF61E0CE011E
:1009C00001960E944002F7CF90E080E00895FC017C
:1009D00001900020E9F73197AF01481B590BBC018A
:1009E00081E193E00C9490008F929F92AF92BF921E
:1009F0000F931F93CF93DF93CDB7DEB7A1970FB6B9
:100A0000F894DEBF0FBECDBF19A2423008F44AE011
:100A10008E010F5D1F4F842E912CB12CA12CA501AE
:100A200094010E94630DE62FB901CA01EA30F4F483
:100A3000E05DD801EE938D01232B242B252B79F734
:100A400090E080E0109719F0CD010E94E704A19694
:100A50000FB6F894DEBF0FBECDBFDF91CF911F91CF
:100A60000F91BF90AF909F908F900895E95CE1CF78
:100A7000CF93DF93462F682F70E090E080E00E94D4
:100A8000F404EC0183E691E00E94E7048C0F9D1FC3
:100A9000DF91CF9108954F925F926F927F928F92E4
:100AA0009F92AF92BF92CF92DF92EF92FF920F93FD
:100AB0001F93CF93DF9300D000D0CDB7DEB75B019B
:100AC0008A01F090AF039091B0038F298068609104
:100AD000AE03682B8091BF0321E02093A102809395
:100AE000C3021092A2021092C402692B83EB93E01E
:100AF0000E94B50481E00E9475038823B9F081E06B
:100B000090E00F900F900F900F90DF91CF911F9179
:100B10000F91FF90EF90DF90CF90BF90AF909F909C
:100B20008F907F906F905F904F9008950E94E901A1
:100B30002B013C018F2D90E095958795873091058D
:100B400008F0A3C0FC01EE0FFF1FE80FF91FE65DE0
:100B5000FE4F80819181A281BC018A2F90E06115B6
:100B600020E472078105910508F492C028EE33E075
:100B700040E050E00E94630DCA01B9010E940E02DC
:100B8000AE014F5F5F4F7A014E0155E0850E911C1B
:100B900080EC9DEBA0EFBFEF9C01AD01241935095E
:100BA0004609570929013A0119821A821B821C82BF
:100BB00064E08091BF030E94A6021092A00280937D
:100BC0009F02843009F076C0670183EB93E00E94B6
:100BD0007504D6018D936D018A169B06B1F78C8141
:100BE000982F9C709C3009F060C0F801808353E01E
:100BF000F801808187FD5EC08C7090E09C01369585
:100C00002795BC01620F731FFB01EB5EFE4F208135
:100C100031814281A42FC9010A2E000CBB0B2C018B
:100C20003D01CB0180509F4FDC012D913D914C91B6
:100C3000F70180E090E0DC016191BA2FA92F982F95
:100C40008827862B6E2F6E196517B0F3F501808308
:100C50009183A283B383482259226A227B224528AA
:100C60004628472879F07901042F002E000C110B3B
:100C7000B801A7018E29952BA02BB72B80839183D8
:100C8000A283B38390E080E03CCF60E070E0CB01D2
:100C90006230710508F474CFCB01880F991F880F5B
:100CA000991F05970197F1F76BCF8B81D8018C9332
:100CB00052E09ECF0E94E901640D751D861D971DAF
:100CC00097FD72CF83E090E01CCF85ED8093BC0050
:100CD00080910D0390910E03A0910F03B09110032A
:100CE0000796A11DB11D23E0B695A7959795879509
:100CF0002A95D1F72091BC0024FD03C010920B036C
:100D0000089540910D0350910E0360910F0370916F
:100D10001003452B462B472B69F30097A105B1051E
:100D200041F025E32A95F1F700000197A109B109E7
:100D3000E1CF80910C030C9485021F920F920FB6A5
:100D40000F9211242F933F934F935F936F937F9351
:100D50008F939F93AF93BF93EF93FF9381E193E0C2
:100D60000E940E01FF91EF91BF91AF919F918F91E2
:100D70007F916F915F914F913F912F910F900FBE97
:100D80000F901F9018951F920F920FB60F9211247B
:100D90002F938F939F93EF93FF93E0912103F09113
:100DA00022038081E0912703F091280382FD1BC07C
:100DB000908180912A038F5F8F7320912B0382177C
:100DC00041F0E0912A03F0E0EF5EFC4F958F8093B5
:100DD0002A03FF91EF919F918F912F910F900FBE5A
:100DE0000F901F9018958081F4CF1F920F920FB62D
:100DF0000F9211242F933F938F939F93AF93BF93A1
:100E000080917F0290918002A0918102B091820234
:100E100030917E0223E0230F2D3758F50196A11D56
:100E2000B11D20937E0280937F0290938002A09355
:100E30008102B09382028091830290918402A091FA
:100E40008502B09186020196A11DB11D8093830297
:100E500090938402A0938502B0938602BF91AF91D4
:100E60009F918F913F912F910F900FBE0F901F90E8
:100E7000189526E8230F0296A11DB11DD2CF1F920F
:100E80000F920FB60F9211242F933F934F935F93BE
:100E90006F937F938F939F93AF93BF93EF93FF9342
:100EA0008091B900887F803609F44AC0F0F5883215
:100EB00009F4A7C018F5803109F49BC0B8F4882361
:100EC00009F4F9C0883009F494C0FF91EF91BF9103
:100ED000AF919F918F917F916F915F914F913F91D2
:100EE0002F910F900FBE0F901F901895883109F425
:100EF00088C0803251F78093E90214C0803409F42D
:100F00009DC040F48033B9F38833F9F68093E90249
:100F100085ECB0C0803509F485C0883509F496C0E9
:100F2000883499F60E946506D0CF883909F48CC0C0
:100F300038F5883729F050F4883611F0803729F6D3
:100F400083E080930B0310927D0257C0883809F428
:100F50007BC0803919F0803809F0B7CF80917D02CD
:100F6000803208F071C0E0917D0281E08E0F8093A5
:100F70007D028091BB00F0E0E35AFD4F80833DC0CD
:100F8000803B39F0E0F4803A09F479C0883A09F0FE
:100F90009CCF84E080930B0310925C0210925B0262
:100FA000E0918902F0918A02099580915B0281119A
:100FB0000FC081E080935B0210923B0209C0803C2D
:100FC00009F4A6CF883C09F4A3CF883B09F07DCF74
:100FD000E0915C0281E08E0F80935C02F0E0E55CC2
:100FE000FD4F80818093BB0090915C0280915B02F9
:100FF00029C08091E6028093BB0085EC8093BC0001
:1010000064CF9091E8028091E702981758F5E0913B
:10101000E80281E08E0F8093E802F0E0EB53FD4F91
:101020008081E9CFE091E80281E08E0F8093E802B1
:101030008091BB00F0E0EB53FD4F80839091E8027C
:101040008091E7029817C8F285E8D8CFE091E802CE
:1010500081E08E0F8093E8028091BB00F0E0EB53BB
:10106000FD4F80838091EA0281115CCF81E0809303
:10107000E50284EA8093BC0010920B0326CF85EC36
:101080008093BC0010920B0380917D02803230F47B
:10109000E0917D02F0E0E35AFD4F108260917D0205
:1010A00070E0E0918702F09188028DE592E0099569
:1010B00010927D020ACF1092E90234CFE1E1F3E011
:1010C0001382128288EE93E0A0E0B0E084839583DF
:1010D000A683B78323E431E03183208325EC30E01D
:1010E0003587248724EC30E03787268720EC30E0F2
:1010F000318B208B21EC30E0338B228B22EC30E0E3
:10110000358B248B26EC30E0378B268B118E128E9C
:10111000138E148E1092B20320E22093B10310922A
:10112000B0032CE02093AF031092AE03E3EBF3E0A7
:101130001382128284839583A683B78385E591E029
:101140009183808388E68093BF030895CF93DF93D4
:101150001F92CDB7DEB7789484B5826084BD84B524
:10116000816084BD85B5826085BD85B5816085BDA2
:1011700080916E00816080936E001092810080915A
:1011800081008260809381008091810081608093E2
:101190008100809180008160809380008091B10007
:1011A00084608093B1008091B00081608093B00032
:1011B00080917A00846080937A0080917A008260C6
:1011C00080937A0080917A00816080937A00809188
:1011D0007A00806880937A001092C100E091210328
:1011E000F091220382E08083E0911D03F0911E03C1
:1011F0001082E0911F03F09120038FEC8083109206
:101200002903E0912503F091260386E08083E09195
:101210002303F0912403808180618083E091230384
:10122000F0912403808188608083E0912303F09112
:101230002403808180688083E0912303F09124035C
:1012400080818F7D80831092A0021092A202109262
:10125000C4020E9467028EE890E090938A02809315
:1012600089028FE890E0909388028093870281E062
:101270008093A1021092C30266E083EB93E00E9488
:10128000B50481E00E94750361E070E080E090E0C9
:101290000E940E0261E088E60E94A60280939F02EF
:1012A0000DEA10E049E9E42E40E0F42E50E0C52EAE
:1012B00050E0D52E81110FC086E691E00E94E70430
:1012C00060E170E088E60E9438056AE070E088E638
:1012D0000E943805FFCF1982AE014F5F5F4F6BE967
:1012E00072E08091B2030E944B05B82E882349F02A
:1012F0008BE891E00E94E7046AE070E08B2D0E9489
:101300003805AE014F5F5F4F67E972E08091B1032E
:101310000E944B05B82E882349F08CEB91E00E9487
:10132000E7046AE070E08B2D0E94380560919B0213
:1013300070919C0280919D0290919E020E943C0CB3
:101340002FE632E143E857E30E94F10C9B01AC0128
:101350000E94280B609393027093940280939502ED
:1013600090939602609197027091980280919902F1
:1013700090919A020E943C0C2FE632E143E857E339
:101380000E94F10C9B01AC010E94280B60938F021C
:101390007093900280939102909392028DEE91E06F
:1013A0000E94E7048090970290909802A090990282
:1013B000B0909A024AE0C501B401B7FE0DC06DE2DB
:1013C00081E193E00E94300166277727CB016819FD
:1013D00079098A099B094AE00E94F40483E691E0B6
:1013E0000E94E70481E092E00E94E70483E691E036
:1013F0000E94E7046091970270919802809199028F
:1014000090919A0242E00E94F40483E691E00E94E7
:10141000E70420918F023091900240919102509107
:101420009202609193027091940280919502909142
:1014300096020E94270B20E030E04AEF54E40E941D
:10144000F10C4B015C01AC019B0160E070E080E8B5
:1014500095E40E94270B2B013C0120E030E040E89E
:1014600055E4C501B4010E94280B9B01AC01C301E6
:10147000B2010E94990B20E030E04AE754E40E9458
:10148000F10C60938B0270938C0280938D02909389
:101490008E0289E292E00E94E70480908B02909095
:1014A0008C02A0908D02B0908E02A5019401C5011E
:1014B000B4010E945E0D882309F437C08DE292E0EA
:1014C0000E94E70483E691E00E94E70468EE73E07F
:1014D00080E090E00E940E02F8012491F7018491CF
:1014E000882399F090E0880F991FFC01EA57FF4F7D
:1014F000A591B491FC01E458FF4F859194918FB769
:10150000F8949C91292B2C938FBF61E089E00E9475
:101510009D01C114D10409F4DECE0E94FA00882393
:1015200009F4D9CE0E940000D6CE24013501E894FA
:1015300077F82FEF3FEF4FE75FE7C301B2010E945B
:101540005E0D81110DC02FEF3FEF4FE75FE7C30145
:10155000B2010E94940B18161CF481E392E0B0CF04
:101560002FEF3FEF4FE75FE4C501B4010E94EC0CA1
:1015700018161CF485E392E0A3CF2FEF3FEF4FE75F
:101580005FECC501B4010E94940B87FDF3CF20E00E
:1015900030E0A901C501B4010E94940B87FF09C086
:1015A0006DE281E193E00E943001B7FAB094B7F8A0
:1015B000B0942AE037ED43EA5BE3C501B4010E9431
:1015C000280B2B013C010E940B0C4B015C010E947B
:1015D0003A0C9B01AC01C301B2010E94270B2B0105
:1015E0003C014AE0C501B4010E94F4046EE281E1CD
:1015F00093E00E94300120E030E040E251E4C3017A
:10160000B2010E94F10C2B013C010E940B0C4B011A
:10161000B12CA12C4AE0C501B4010E94F404C5011B
:10162000B4010E943A0C9B01AC01C301B2010E94BB
:10163000270B20E030E040E251E40E94F10C0E94D0
:101640000B0C90E080E04AE00E94F4043BCF50583D
:10165000BB27AA270E943F0B0C94B20C0E94A40C3B
:1016600038F00E94AB0C20F039F49F3F19F426F4B7
:101670000C94A10C0EF4E095E7FB0C949B0CE92F65
:101680000E94C30C58F3BA176207730784079507C3
:1016900020F079F4A6F50C94E50C0EF4E0950B2EF1
:1016A000BA2FA02D0B01B90190010C01CA01A001B4
:1016B0001124FF27591B99F0593F50F4503E68F10F
:1016C0001A16F040A22F232F342F4427585FF3CF50
:1016D000469537952795A795F0405395C9F77EF421
:1016E0001F16BA0B620B730B840BBAF09150A1F06A
:1016F000FF0FBB1F661F771F881FC2F70EC0BA0FF0
:10170000621F731F841F48F4879577956795B79577
:10171000F7959E3F08F0B0CF9395880F08F0992772
:10172000EE0F9795879508950E94770C08F481E055
:1017300008950E94AD0B0C94B20C0E94AB0C58F0B3
:101740000E94A40C40F029F45F3F29F00C949B0CFC
:1017500051110C94E60C0C94A10C0E94C30C68F37C
:101760009923B1F3552391F3951B550BBB27AA275A
:1017700062177307840738F09F5F5F4F220F331F94
:10178000441FAA1FA9F335D00E2E3AF0E0E832D05C
:1017900091505040E695001CCAF72BD0FE2F29D05F
:1017A000660F771F881FBB1F261737074807AB0731
:1017B000B0E809F0BB0B802DBF01FF2793585F4FA6
:1017C0003AF09E3F510578F00C949B0C0C94E60C7B
:1017D0005F3FE4F3983ED4F3869577956795B79588
:1017E000F7959F5FC9F7880F911D9695879597F993
:1017F0000895E1E0660F771F881FBB1F621773070C
:101800008407BA0720F0621B730B840BBA0BEE1F20
:1018100088F7E09508950E94CB0C88F09F5798F0C8
:10182000B92F9927B751B0F0E1F0660F771F881FE5
:10183000991F1AF0BA95C9F714C0B13091F00E94FF
:10184000E50CB1E008950C94E50C672F782F8827FC
:10185000B85F39F0B93FCCF3869577956795B39526
:10186000D9F73EF490958095709561957F4F8F4F95
:101870009F4F0895E89409C097FB3EF4909580959A
:10188000709561957F4F8F4F9F4F9923A9F0F92F46
:1018900096E9BB279395F695879577956795B795C4
:1018A000F111F8CFFAF4BB0F11F460FF1BC06F5FAA
:1018B0007F4F8F4F9F4F16C0882311F096E911C0BC
:1018C000772321F09EE8872F762F05C0662371F0DD
:1018D00096E8862F70E060E02AF09A95660F771FF1
:1018E000881FDAF7880F9695879597F90895990FCD
:1018F0000008550FAA0BE0E8FEEF16161706E807DA
:10190000F907C0F012161306E407F50798F0621BFA
:10191000730B840B950B39F40A2661F0232B242BCF
:10192000252B21F408950A2609F4A140A6958FEFEE
:10193000811D811D089597F99F6780E870E060E040
:1019400008959FEF80EC089500240A941616170658
:1019500018060906089500240A94121613061406A0
:1019600005060895092E0394000C11F4882352F003
:10197000BB0F40F4BF2B11F460FF04C06F5F7F4FBB
:101980008F4F9F4F089557FD9058440F551F59F0A2
:101990005F3F71F04795880F97FB991F61F09F3F5C
:1019A00079F087950895121613061406551FF2CF85
:1019B0004695F1DF08C0161617061806991FF1CFD5
:1019C00086957105610508940895E894BB276627FC
:1019D0007727CB0197F908950E94770C08F48FEFD1
:1019E00008950E94040D0C94B20C0E94A40C38F0CF
:1019F0000E94AB0C20F0952311F00C949B0C0C94DE
:101A0000A10C11240C94E60C0E94C30C70F3959F5A
:101A1000C1F3950F50E0551F629FF001729FBB27E5
:101A2000F00DB11D639FAA27F00DB11DAA1F649F81
:101A30006627B00DA11D661F829F2227B00DA11D34
:101A4000621F739FB00DA11D621F839FA00D611DBA
:101A5000221F749F3327A00D611D231F849F600DDB
:101A6000211D822F762F6A2F11249F5750409AF004
:101A7000F1F088234AF0EE0FFF1FBB1F661F771F90
:101A8000881F91505040A9F79E3F510580F00C945B
:101A90009B0C0C94E60C5F3FE4F3983ED4F38695E0
:101AA00077956795B795F795E7959F5FC1F7FE2BFB
:101AB000880F911D9695879597F908950E94770C48
:101AC000880B990B0895A1E21A2EAA1BBB1BFD01DE
:101AD0000DC0AA1FBB1FEE1FFF1FA217B307E4070D
:101AE000F50720F0A21BB30BE40BF50B661F771F65
:101AF000881F991F1A9469F7609570958095909545
:101B00009B01AC01BD01CF010895EE0FFF1F0590B1
:101B1000F491E02D0994F894FFCF00F0FF0000004D
:101B200000C0FF0000000000FF0000000000FC00FB
:101B300008000000000020000000000080000000FD
:101B4000000000024710000000001B4100000000E0
:101B50006B0401000000AB11040000000030019094
:101B600000BD007D01EE00CC00E00000000000B5EB
:101B7000048804E40465048700750466040D0A0003
:101B80004E6F204144432063686970206465766924
:101B9000636520666F756E64206174206164647291
:101BA00065737320004144435F4D435033343233F7
:101BB000206D61646520636F6E76657274696E670F
:101BC000206572726F72206F6E206368616E6E6541
:101BD0006C20313A20004144435F4D43503334324E
:101BE00033206D61646520636F6E76657274696E13
:101BF00067206572726F72206F6E206368616E6E0F
:101C0000656C20323A200076616C75655F6F665FA7
:101C10006368616E6E656C313A200053657269616C
:101C20006C2E7072696E746C6E2876616C75655F6F
:101C30006F665F6368616E6E656C312C2042494E41
:101C4000293B0052513D006E616E00696E66006F67
:041C500076660000B4
:107E0000112484B714BE81FFF0D085E080938100F7
:107E100082E08093C00088E18093C10086E0809377
:107E2000C20080E18093C4008EE0C9D0259A86E02C
:107E300020E33CEF91E0309385002093840096BBD3
:107E4000B09BFECF1D9AA8958150A9F7CC24DD24C4
:107E500088248394B5E0AB2EA1E19A2EF3E0BF2EE7
:107E6000A2D0813461F49FD0082FAFD0023811F036
:107E7000013811F484E001C083E08DD089C08234E0
:107E800011F484E103C0853419F485E0A6D080C0E4
:107E9000853579F488D0E82EFF2485D0082F10E0AE
:107EA000102F00270E291F29000F111F8ED06801E7
:107EB0006FC0863521F484E090D080E0DECF843638
:107EC00009F040C070D06FD0082F6DD080E0C81688
:107ED00080E7D80618F4F601B7BEE895C0E0D1E017
:107EE00062D089930C17E1F7F0E0CF16F0E7DF06D8
:107EF00018F0F601B7BEE89568D007B600FCFDCFD4
:107F0000A601A0E0B1E02C9130E011968C91119780
:107F100090E0982F8827822B932B1296FA010C0160
:107F200087BEE89511244E5F5F4FF1E0A038BF0790
:107F300051F7F601A7BEE89507B600FCFDCF97BE46
:107F4000E89526C08437B1F42ED02DD0F82E2BD052
:107F50003CD0F601EF2C8F010F5F1F4F84911BD097
:107F6000EA94F801C1F70894C11CD11CFA94CF0C13
:107F7000D11C0EC0853739F428D08EE10CD085E9AC
:107F80000AD08FE07ACF813511F488E018D01DD067
:107F900080E101D065CF982F8091C00085FFFCCF94
:107FA0009093C60008958091C00087FFFCCF809118
:107FB000C00084FD01C0A8958091C6000895E0E648
:107FC000F0E098E1908380830895EDDF803219F02E
:107FD00088E0F5DFFFCF84E1DECF1F93182FE3DFCA
:107FE0001150E9F7F2DF1F91089580E0E8DFEE27F6
:047FF000FF270994CA
:027FFE00040479
:00000001FF
